{
	"contracts/HomeWork_3/QuestManager.sol": {
		"QuestManager": {
			"abi": [
				{
					"inputs": [],
					"stateMutability": "nonpayable",
					"type": "constructor"
				},
				{
					"inputs": [
						{
							"internalType": "uint256",
							"name": "questId",
							"type": "uint256"
						}
					],
					"name": "completeQuest",
					"outputs": [],
					"stateMutability": "nonpayable",
					"type": "function"
				},
				{
					"inputs": [
						{
							"internalType": "uint256",
							"name": "questId",
							"type": "uint256"
						},
						{
							"internalType": "uint256",
							"name": "rewardGold",
							"type": "uint256"
						},
						{
							"internalType": "uint256",
							"name": "levelReq",
							"type": "uint256"
						}
					],
					"name": "createQuest",
					"outputs": [],
					"stateMutability": "nonpayable",
					"type": "function"
				},
				{
					"inputs": [
						{
							"internalType": "uint256",
							"name": "questId",
							"type": "uint256"
						}
					],
					"name": "getReward",
					"outputs": [],
					"stateMutability": "nonpayable",
					"type": "function"
				},
				{
					"inputs": [
						{
							"internalType": "uint256",
							"name": "",
							"type": "uint256"
						}
					],
					"name": "globalQuests",
					"outputs": [
						{
							"internalType": "uint256",
							"name": "rewardGold",
							"type": "uint256"
						},
						{
							"internalType": "uint256",
							"name": "levelRequirement",
							"type": "uint256"
						},
						{
							"internalType": "bool",
							"name": "exists",
							"type": "bool"
						}
					],
					"stateMutability": "view",
					"type": "function"
				},
				{
					"inputs": [],
					"name": "owner",
					"outputs": [
						{
							"internalType": "address",
							"name": "",
							"type": "address"
						}
					],
					"stateMutability": "view",
					"type": "function"
				},
				{
					"inputs": [
						{
							"internalType": "address",
							"name": "",
							"type": "address"
						}
					],
					"name": "playerGold",
					"outputs": [
						{
							"internalType": "uint256",
							"name": "",
							"type": "uint256"
						}
					],
					"stateMutability": "view",
					"type": "function"
				},
				{
					"inputs": [
						{
							"internalType": "address",
							"name": "",
							"type": "address"
						}
					],
					"name": "playerLevels",
					"outputs": [
						{
							"internalType": "uint256",
							"name": "",
							"type": "uint256"
						}
					],
					"stateMutability": "view",
					"type": "function"
				},
				{
					"inputs": [
						{
							"internalType": "address",
							"name": "",
							"type": "address"
						},
						{
							"internalType": "uint256",
							"name": "",
							"type": "uint256"
						}
					],
					"name": "playerQuests",
					"outputs": [
						{
							"internalType": "bool",
							"name": "isActive",
							"type": "bool"
						},
						{
							"internalType": "bool",
							"name": "isCompleted",
							"type": "bool"
						},
						{
							"internalType": "bool",
							"name": "rewardClaimed",
							"type": "bool"
						}
					],
					"stateMutability": "view",
					"type": "function"
				},
				{
					"inputs": [
						{
							"internalType": "uint256",
							"name": "questId",
							"type": "uint256"
						}
					],
					"name": "startQuest",
					"outputs": [],
					"stateMutability": "nonpayable",
					"type": "function"
				}
			],
			"devdoc": {
				"kind": "dev",
				"methods": {},
				"version": 1
			},
			"evm": {
				"assembly": "    /* \"contracts/HomeWork_3/QuestManager.sol\":87:2402  contract QuestManager is IQuest {... */\n  mstore(0x40, 0x80)\n    /* \"contracts/HomeWork_3/QuestManager.sol\":759:810  constructor() {... */\n  callvalue\n  dup1\n  iszero\n  tag_1\n  jumpi\n  revert(0x00, 0x00)\ntag_1:\n  pop\n    /* \"contracts/HomeWork_3/QuestManager.sol\":792:802  msg.sender */\n  caller\n    /* \"contracts/HomeWork_3/QuestManager.sol\":784:789  owner */\n  0x00\n  0x00\n    /* \"contracts/HomeWork_3/QuestManager.sol\":784:802  owner = msg.sender */\n  0x0100\n  exp\n  dup2\n  sload\n  dup2\n  0xffffffffffffffffffffffffffffffffffffffff\n  mul\n  not\n  and\n  swap1\n  dup4\n  0xffffffffffffffffffffffffffffffffffffffff\n  and\n  mul\n  or\n  swap1\n  sstore\n  pop\n    /* \"contracts/HomeWork_3/QuestManager.sol\":87:2402  contract QuestManager is IQuest {... */\n  dataSize(sub_0)\n  dup1\n  dataOffset(sub_0)\n  0x00\n  codecopy\n  0x00\n  return\nstop\n\nsub_0: assembly {\n        /* \"contracts/HomeWork_3/QuestManager.sol\":87:2402  contract QuestManager is IQuest {... */\n      mstore(0x40, 0x80)\n      callvalue\n      dup1\n      iszero\n      tag_1\n      jumpi\n      revert(0x00, 0x00)\n    tag_1:\n      pop\n      jumpi(tag_2, lt(calldatasize, 0x04))\n      shr(0xe0, calldataload(0x00))\n      dup1\n      0x528be0a9\n      gt\n      tag_12\n      jumpi\n      dup1\n      0x528be0a9\n      eq\n      tag_7\n      jumpi\n      dup1\n      0x7d71e7c5\n      eq\n      tag_8\n      jumpi\n      dup1\n      0x8da5cb5b\n      eq\n      tag_9\n      jumpi\n      dup1\n      0x9e563544\n      eq\n      tag_10\n      jumpi\n      dup1\n      0xd3dcff7c\n      eq\n      tag_11\n      jumpi\n      jump(tag_2)\n    tag_12:\n      dup1\n      0x1c4b774b\n      eq\n      tag_3\n      jumpi\n      dup1\n      0x2d9e75b9\n      eq\n      tag_4\n      jumpi\n      dup1\n      0x32f932ad\n      eq\n      tag_5\n      jumpi\n      dup1\n      0x5025e1a1\n      eq\n      tag_6\n      jumpi\n    tag_2:\n      revert(0x00, 0x00)\n        /* \"contracts/HomeWork_3/QuestManager.sol\":2019:2399  function getReward(uint256 questId) external override {... */\n    tag_3:\n      tag_13\n      0x04\n      dup1\n      calldatasize\n      sub\n      dup2\n      add\n      swap1\n      tag_14\n      swap2\n      swap1\n      tag_15\n      jump\t// in\n    tag_14:\n      tag_16\n      jump\t// in\n    tag_13:\n      stop\n        /* \"contracts/HomeWork_3/QuestManager.sol\":389:434  mapping(uint256 => Quest) public globalQuests */\n    tag_4:\n      tag_17\n      0x04\n      dup1\n      calldatasize\n      sub\n      dup2\n      add\n      swap1\n      tag_18\n      swap2\n      swap1\n      tag_15\n      jump\t// in\n    tag_18:\n      tag_19\n      jump\t// in\n    tag_17:\n      mload(0x40)\n      tag_20\n      swap4\n      swap3\n      swap2\n      swap1\n      tag_21\n      jump\t// in\n    tag_20:\n      mload(0x40)\n      dup1\n      swap2\n      sub\n      swap1\n      return\n        /* \"contracts/HomeWork_3/QuestManager.sol\":818:989  function createQuest(uint256 questId, uint256 rewardGold, uint256 levelReq) external onlyOwner {... */\n    tag_5:\n      tag_22\n      0x04\n      dup1\n      calldatasize\n      sub\n      dup2\n      add\n      swap1\n      tag_23\n      swap2\n      swap1\n      tag_24\n      jump\t// in\n    tag_23:\n      tag_25\n      jump\t// in\n    tag_22:\n      stop\n        /* \"contracts/HomeWork_3/QuestManager.sol\":579:624  mapping(address => uint256) public playerGold */\n    tag_6:\n      tag_26\n      0x04\n      dup1\n      calldatasize\n      sub\n      dup2\n      add\n      swap1\n      tag_27\n      swap2\n      swap1\n      tag_28\n      jump\t// in\n    tag_27:\n      tag_29\n      jump\t// in\n    tag_26:\n      mload(0x40)\n      tag_30\n      swap2\n      swap1\n      tag_31\n      jump\t// in\n    tag_30:\n      mload(0x40)\n      dup1\n      swap2\n      sub\n      swap1\n      return\n        /* \"contracts/HomeWork_3/QuestManager.sol\":1691:2011  function completeQuest(uint256 questId) external override {... */\n    tag_7:\n      tag_32\n      0x04\n      dup1\n      calldatasize\n      sub\n      dup2\n      add\n      swap1\n      tag_33\n      swap2\n      swap1\n      tag_15\n      jump\t// in\n    tag_33:\n      tag_34\n      jump\t// in\n    tag_32:\n      stop\n        /* \"contracts/HomeWork_3/QuestManager.sol\":525:572  mapping(address => uint256) public playerLevels */\n    tag_8:\n      tag_35\n      0x04\n      dup1\n      calldatasize\n      sub\n      dup2\n      add\n      swap1\n      tag_36\n      swap2\n      swap1\n      tag_28\n      jump\t// in\n    tag_36:\n      tag_37\n      jump\t// in\n    tag_35:\n      mload(0x40)\n      tag_38\n      swap2\n      swap1\n      tag_31\n      jump\t// in\n    tag_38:\n      mload(0x40)\n      dup1\n      swap2\n      sub\n      swap1\n      return\n        /* \"contracts/HomeWork_3/QuestManager.sol\":362:382  address public owner */\n    tag_9:\n      tag_39\n      tag_40\n      jump\t// in\n    tag_39:\n      mload(0x40)\n      tag_41\n      swap2\n      swap1\n      tag_42\n      jump\t// in\n    tag_41:\n      mload(0x40)\n      dup1\n      swap2\n      sub\n      swap1\n      return\n        /* \"contracts/HomeWork_3/QuestManager.sol\":997:1683  function startQuest(uint256 questId) external override {... */\n    tag_10:\n      tag_43\n      0x04\n      dup1\n      calldatasize\n      sub\n      dup2\n      add\n      swap1\n      tag_44\n      swap2\n      swap1\n      tag_15\n      jump\t// in\n    tag_44:\n      tag_45\n      jump\t// in\n    tag_43:\n      stop\n        /* \"contracts/HomeWork_3/QuestManager.sol\":441:518  mapping(address => mapping(uint256 => PlayerQuestStatus)) public playerQuests */\n    tag_11:\n      tag_46\n      0x04\n      dup1\n      calldatasize\n      sub\n      dup2\n      add\n      swap1\n      tag_47\n      swap2\n      swap1\n      tag_48\n      jump\t// in\n    tag_47:\n      tag_49\n      jump\t// in\n    tag_46:\n      mload(0x40)\n      tag_50\n      swap4\n      swap3\n      swap2\n      swap1\n      tag_51\n      jump\t// in\n    tag_50:\n      mload(0x40)\n      dup1\n      swap2\n      sub\n      swap1\n      return\n        /* \"contracts/HomeWork_3/QuestManager.sol\":2019:2399  function getReward(uint256 questId) external override {... */\n    tag_16:\n        /* \"contracts/HomeWork_3/QuestManager.sol\":2092:2104  playerQuests */\n      0x02\n        /* \"contracts/HomeWork_3/QuestManager.sol\":2092:2116  playerQuests[msg.sender] */\n      0x00\n        /* \"contracts/HomeWork_3/QuestManager.sol\":2105:2115  msg.sender */\n      caller\n        /* \"contracts/HomeWork_3/QuestManager.sol\":2092:2116  playerQuests[msg.sender] */\n      0xffffffffffffffffffffffffffffffffffffffff\n      and\n      0xffffffffffffffffffffffffffffffffffffffff\n      and\n      dup2\n      mstore\n      0x20\n      add\n      swap1\n      dup2\n      mstore\n      0x20\n      add\n      0x00\n      keccak256\n        /* \"contracts/HomeWork_3/QuestManager.sol\":2092:2125  playerQuests[msg.sender][questId] */\n      0x00\n        /* \"contracts/HomeWork_3/QuestManager.sol\":2117:2124  questId */\n      dup3\n        /* \"contracts/HomeWork_3/QuestManager.sol\":2092:2125  playerQuests[msg.sender][questId] */\n      dup2\n      mstore\n      0x20\n      add\n      swap1\n      dup2\n      mstore\n      0x20\n      add\n      0x00\n      keccak256\n        /* \"contracts/HomeWork_3/QuestManager.sol\":2092:2137  playerQuests[msg.sender][questId].isCompleted */\n      0x00\n      add\n      0x01\n      swap1\n      sload\n      swap1\n      0x0100\n      exp\n      swap1\n      div\n      0xff\n      and\n        /* \"contracts/HomeWork_3/QuestManager.sol\":2084:2161  require(playerQuests[msg.sender][questId].isCompleted, \"Quest not completed\") */\n      tag_53\n      jumpi\n      mload(0x40)\n      0x08c379a000000000000000000000000000000000000000000000000000000000\n      dup2\n      mstore\n      0x04\n      add\n      tag_54\n      swap1\n      tag_55\n      jump\t// in\n    tag_54:\n      mload(0x40)\n      dup1\n      swap2\n      sub\n      swap1\n      revert\n    tag_53:\n        /* \"contracts/HomeWork_3/QuestManager.sol\":2181:2193  playerQuests */\n      0x02\n        /* \"contracts/HomeWork_3/QuestManager.sol\":2181:2205  playerQuests[msg.sender] */\n      0x00\n        /* \"contracts/HomeWork_3/QuestManager.sol\":2194:2204  msg.sender */\n      caller\n        /* \"contracts/HomeWork_3/QuestManager.sol\":2181:2205  playerQuests[msg.sender] */\n      0xffffffffffffffffffffffffffffffffffffffff\n      and\n      0xffffffffffffffffffffffffffffffffffffffff\n      and\n      dup2\n      mstore\n      0x20\n      add\n      swap1\n      dup2\n      mstore\n      0x20\n      add\n      0x00\n      keccak256\n        /* \"contracts/HomeWork_3/QuestManager.sol\":2181:2214  playerQuests[msg.sender][questId] */\n      0x00\n        /* \"contracts/HomeWork_3/QuestManager.sol\":2206:2213  questId */\n      dup3\n        /* \"contracts/HomeWork_3/QuestManager.sol\":2181:2214  playerQuests[msg.sender][questId] */\n      dup2\n      mstore\n      0x20\n      add\n      swap1\n      dup2\n      mstore\n      0x20\n      add\n      0x00\n      keccak256\n        /* \"contracts/HomeWork_3/QuestManager.sol\":2181:2228  playerQuests[msg.sender][questId].rewardClaimed */\n      0x00\n      add\n      0x02\n      swap1\n      sload\n      swap1\n      0x0100\n      exp\n      swap1\n      div\n      0xff\n      and\n        /* \"contracts/HomeWork_3/QuestManager.sol\":2180:2228  !playerQuests[msg.sender][questId].rewardClaimed */\n      iszero\n        /* \"contracts/HomeWork_3/QuestManager.sol\":2172:2255  require(!playerQuests[msg.sender][questId].rewardClaimed, \"Reward already claimed\") */\n      tag_56\n      jumpi\n      mload(0x40)\n      0x08c379a000000000000000000000000000000000000000000000000000000000\n      dup2\n      mstore\n      0x04\n      add\n      tag_57\n      swap1\n      tag_58\n      jump\t// in\n    tag_57:\n      mload(0x40)\n      dup1\n      swap2\n      sub\n      swap1\n      revert\n    tag_56:\n        /* \"contracts/HomeWork_3/QuestManager.sol\":2318:2322  true */\n      0x01\n        /* \"contracts/HomeWork_3/QuestManager.sol\":2268:2280  playerQuests */\n      0x02\n        /* \"contracts/HomeWork_3/QuestManager.sol\":2268:2292  playerQuests[msg.sender] */\n      0x00\n        /* \"contracts/HomeWork_3/QuestManager.sol\":2281:2291  msg.sender */\n      caller\n        /* \"contracts/HomeWork_3/QuestManager.sol\":2268:2292  playerQuests[msg.sender] */\n      0xffffffffffffffffffffffffffffffffffffffff\n      and\n      0xffffffffffffffffffffffffffffffffffffffff\n      and\n      dup2\n      mstore\n      0x20\n      add\n      swap1\n      dup2\n      mstore\n      0x20\n      add\n      0x00\n      keccak256\n        /* \"contracts/HomeWork_3/QuestManager.sol\":2268:2301  playerQuests[msg.sender][questId] */\n      0x00\n        /* \"contracts/HomeWork_3/QuestManager.sol\":2293:2300  questId */\n      dup4\n        /* \"contracts/HomeWork_3/QuestManager.sol\":2268:2301  playerQuests[msg.sender][questId] */\n      dup2\n      mstore\n      0x20\n      add\n      swap1\n      dup2\n      mstore\n      0x20\n      add\n      0x00\n      keccak256\n        /* \"contracts/HomeWork_3/QuestManager.sol\":2268:2315  playerQuests[msg.sender][questId].rewardClaimed */\n      0x00\n      add\n      0x02\n        /* \"contracts/HomeWork_3/QuestManager.sol\":2268:2322  playerQuests[msg.sender][questId].rewardClaimed = true */\n      0x0100\n      exp\n      dup2\n      sload\n      dup2\n      0xff\n      mul\n      not\n      and\n      swap1\n      dup4\n      iszero\n      iszero\n      mul\n      or\n      swap1\n      sstore\n      pop\n        /* \"contracts/HomeWork_3/QuestManager.sol\":2359:2371  globalQuests */\n      0x01\n        /* \"contracts/HomeWork_3/QuestManager.sol\":2359:2380  globalQuests[questId] */\n      0x00\n        /* \"contracts/HomeWork_3/QuestManager.sol\":2372:2379  questId */\n      dup3\n        /* \"contracts/HomeWork_3/QuestManager.sol\":2359:2380  globalQuests[questId] */\n      dup2\n      mstore\n      0x20\n      add\n      swap1\n      dup2\n      mstore\n      0x20\n      add\n      0x00\n      keccak256\n        /* \"contracts/HomeWork_3/QuestManager.sol\":2359:2391  globalQuests[questId].rewardGold */\n      0x00\n      add\n      sload\n        /* \"contracts/HomeWork_3/QuestManager.sol\":2333:2343  playerGold */\n      0x04\n        /* \"contracts/HomeWork_3/QuestManager.sol\":2333:2355  playerGold[msg.sender] */\n      0x00\n        /* \"contracts/HomeWork_3/QuestManager.sol\":2344:2354  msg.sender */\n      caller\n        /* \"contracts/HomeWork_3/QuestManager.sol\":2333:2355  playerGold[msg.sender] */\n      0xffffffffffffffffffffffffffffffffffffffff\n      and\n      0xffffffffffffffffffffffffffffffffffffffff\n      and\n      dup2\n      mstore\n      0x20\n      add\n      swap1\n      dup2\n      mstore\n      0x20\n      add\n      0x00\n      keccak256\n      0x00\n        /* \"contracts/HomeWork_3/QuestManager.sol\":2333:2391  playerGold[msg.sender] += globalQuests[questId].rewardGold */\n      dup3\n      dup3\n      sload\n      tag_59\n      swap2\n      swap1\n      tag_60\n      jump\t// in\n    tag_59:\n      swap3\n      pop\n      pop\n      dup2\n      swap1\n      sstore\n      pop\n        /* \"contracts/HomeWork_3/QuestManager.sol\":2019:2399  function getReward(uint256 questId) external override {... */\n      pop\n      jump\t// out\n        /* \"contracts/HomeWork_3/QuestManager.sol\":389:434  mapping(uint256 => Quest) public globalQuests */\n    tag_19:\n      mstore(0x20, 0x01)\n      dup1\n      0x00\n      mstore\n      keccak256(0x00, 0x40)\n      0x00\n      swap2\n      pop\n      swap1\n      pop\n      dup1\n      0x00\n      add\n      sload\n      swap1\n      dup1\n      0x01\n      add\n      sload\n      swap1\n      dup1\n      0x02\n      add\n      0x00\n      swap1\n      sload\n      swap1\n      0x0100\n      exp\n      swap1\n      div\n      0xff\n      and\n      swap1\n      pop\n      dup4\n      jump\t// out\n        /* \"contracts/HomeWork_3/QuestManager.sol\":818:989  function createQuest(uint256 questId, uint256 rewardGold, uint256 levelReq) external onlyOwner {... */\n    tag_25:\n        /* \"contracts/HomeWork_3/QuestManager.sol\":687:692  owner */\n      0x00\n      0x00\n      swap1\n      sload\n      swap1\n      0x0100\n      exp\n      swap1\n      div\n      0xffffffffffffffffffffffffffffffffffffffff\n      and\n        /* \"contracts/HomeWork_3/QuestManager.sol\":673:692  msg.sender == owner */\n      0xffffffffffffffffffffffffffffffffffffffff\n      and\n        /* \"contracts/HomeWork_3/QuestManager.sol\":673:683  msg.sender */\n      caller\n        /* \"contracts/HomeWork_3/QuestManager.sol\":673:692  msg.sender == owner */\n      0xffffffffffffffffffffffffffffffffffffffff\n      and\n      eq\n        /* \"contracts/HomeWork_3/QuestManager.sol\":665:731  require(msg.sender == owner, \"Only owner can perform this action\") */\n      tag_62\n      jumpi\n      mload(0x40)\n      0x08c379a000000000000000000000000000000000000000000000000000000000\n      dup2\n      mstore\n      0x04\n      add\n      tag_63\n      swap1\n      tag_64\n      jump\t// in\n    tag_63:\n      mload(0x40)\n      dup1\n      swap2\n      sub\n      swap1\n      revert\n    tag_62:\n        /* \"contracts/HomeWork_3/QuestManager.sol\":948:981  Quest(rewardGold, levelReq, true) */\n      mload(0x40)\n      dup1\n      0x60\n      add\n      0x40\n      mstore\n      dup1\n        /* \"contracts/HomeWork_3/QuestManager.sol\":954:964  rewardGold */\n      dup4\n        /* \"contracts/HomeWork_3/QuestManager.sol\":948:981  Quest(rewardGold, levelReq, true) */\n      dup2\n      mstore\n      0x20\n      add\n        /* \"contracts/HomeWork_3/QuestManager.sol\":966:974  levelReq */\n      dup3\n        /* \"contracts/HomeWork_3/QuestManager.sol\":948:981  Quest(rewardGold, levelReq, true) */\n      dup2\n      mstore\n      0x20\n      add\n        /* \"contracts/HomeWork_3/QuestManager.sol\":976:980  true */\n      0x01\n        /* \"contracts/HomeWork_3/QuestManager.sol\":948:981  Quest(rewardGold, levelReq, true) */\n      iszero\n      iszero\n      dup2\n      mstore\n      pop\n        /* \"contracts/HomeWork_3/QuestManager.sol\":924:936  globalQuests */\n      0x01\n        /* \"contracts/HomeWork_3/QuestManager.sol\":924:945  globalQuests[questId] */\n      0x00\n        /* \"contracts/HomeWork_3/QuestManager.sol\":937:944  questId */\n      dup6\n        /* \"contracts/HomeWork_3/QuestManager.sol\":924:945  globalQuests[questId] */\n      dup2\n      mstore\n      0x20\n      add\n      swap1\n      dup2\n      mstore\n      0x20\n      add\n      0x00\n      keccak256\n        /* \"contracts/HomeWork_3/QuestManager.sol\":924:981  globalQuests[questId] = Quest(rewardGold, levelReq, true) */\n      0x00\n      dup3\n      add\n      mload\n      dup2\n      0x00\n      add\n      sstore\n      0x20\n      dup3\n      add\n      mload\n      dup2\n      0x01\n      add\n      sstore\n      0x40\n      dup3\n      add\n      mload\n      dup2\n      0x02\n      add\n      exp(0x0100, 0x00)\n      dup2\n      sload\n      dup2\n      0xff\n      mul\n      not\n      and\n      swap1\n      dup4\n      iszero\n      iszero\n      mul\n      or\n      swap1\n      sstore\n      pop\n      swap1\n      pop\n      pop\n        /* \"contracts/HomeWork_3/QuestManager.sol\":818:989  function createQuest(uint256 questId, uint256 rewardGold, uint256 levelReq) external onlyOwner {... */\n      pop\n      pop\n      pop\n      jump\t// out\n        /* \"contracts/HomeWork_3/QuestManager.sol\":579:624  mapping(address => uint256) public playerGold */\n    tag_29:\n      mstore(0x20, 0x04)\n      dup1\n      0x00\n      mstore\n      keccak256(0x00, 0x40)\n      0x00\n      swap2\n      pop\n      swap1\n      pop\n      sload\n      dup2\n      jump\t// out\n        /* \"contracts/HomeWork_3/QuestManager.sol\":1691:2011  function completeQuest(uint256 questId) external override {... */\n    tag_34:\n        /* \"contracts/HomeWork_3/QuestManager.sol\":1768:1780  playerQuests */\n      0x02\n        /* \"contracts/HomeWork_3/QuestManager.sol\":1768:1792  playerQuests[msg.sender] */\n      0x00\n        /* \"contracts/HomeWork_3/QuestManager.sol\":1781:1791  msg.sender */\n      caller\n        /* \"contracts/HomeWork_3/QuestManager.sol\":1768:1792  playerQuests[msg.sender] */\n      0xffffffffffffffffffffffffffffffffffffffff\n      and\n      0xffffffffffffffffffffffffffffffffffffffff\n      and\n      dup2\n      mstore\n      0x20\n      add\n      swap1\n      dup2\n      mstore\n      0x20\n      add\n      0x00\n      keccak256\n        /* \"contracts/HomeWork_3/QuestManager.sol\":1768:1801  playerQuests[msg.sender][questId] */\n      0x00\n        /* \"contracts/HomeWork_3/QuestManager.sol\":1793:1800  questId */\n      dup3\n        /* \"contracts/HomeWork_3/QuestManager.sol\":1768:1801  playerQuests[msg.sender][questId] */\n      dup2\n      mstore\n      0x20\n      add\n      swap1\n      dup2\n      mstore\n      0x20\n      add\n      0x00\n      keccak256\n        /* \"contracts/HomeWork_3/QuestManager.sol\":1768:1810  playerQuests[msg.sender][questId].isActive */\n      0x00\n      add\n      0x00\n      swap1\n      sload\n      swap1\n      0x0100\n      exp\n      swap1\n      div\n      0xff\n      and\n        /* \"contracts/HomeWork_3/QuestManager.sol\":1760:1832  require(playerQuests[msg.sender][questId].isActive, \"Quest not started\") */\n      tag_67\n      jumpi\n      mload(0x40)\n      0x08c379a000000000000000000000000000000000000000000000000000000000\n      dup2\n      mstore\n      0x04\n      add\n      tag_68\n      swap1\n      tag_69\n      jump\t// in\n    tag_68:\n      mload(0x40)\n      dup1\n      swap2\n      sub\n      swap1\n      revert\n    tag_67:\n        /* \"contracts/HomeWork_3/QuestManager.sol\":1898:1903  false */\n      0x00\n        /* \"contracts/HomeWork_3/QuestManager.sol\":1853:1865  playerQuests */\n      0x02\n        /* \"contracts/HomeWork_3/QuestManager.sol\":1853:1877  playerQuests[msg.sender] */\n      0x00\n        /* \"contracts/HomeWork_3/QuestManager.sol\":1866:1876  msg.sender */\n      caller\n        /* \"contracts/HomeWork_3/QuestManager.sol\":1853:1877  playerQuests[msg.sender] */\n      0xffffffffffffffffffffffffffffffffffffffff\n      and\n      0xffffffffffffffffffffffffffffffffffffffff\n      and\n      dup2\n      mstore\n      0x20\n      add\n      swap1\n      dup2\n      mstore\n      0x20\n      add\n      0x00\n      keccak256\n        /* \"contracts/HomeWork_3/QuestManager.sol\":1853:1886  playerQuests[msg.sender][questId] */\n      0x00\n        /* \"contracts/HomeWork_3/QuestManager.sol\":1878:1885  questId */\n      dup4\n        /* \"contracts/HomeWork_3/QuestManager.sol\":1853:1886  playerQuests[msg.sender][questId] */\n      dup2\n      mstore\n      0x20\n      add\n      swap1\n      dup2\n      mstore\n      0x20\n      add\n      0x00\n      keccak256\n        /* \"contracts/HomeWork_3/QuestManager.sol\":1853:1895  playerQuests[msg.sender][questId].isActive */\n      0x00\n      add\n      0x00\n        /* \"contracts/HomeWork_3/QuestManager.sol\":1853:1903  playerQuests[msg.sender][questId].isActive = false */\n      0x0100\n      exp\n      dup2\n      sload\n      dup2\n      0xff\n      mul\n      not\n      and\n      swap1\n      dup4\n      iszero\n      iszero\n      mul\n      or\n      swap1\n      sstore\n      pop\n        /* \"contracts/HomeWork_3/QuestManager.sol\":1962:1966  true */\n      0x01\n        /* \"contracts/HomeWork_3/QuestManager.sol\":1914:1926  playerQuests */\n      0x02\n        /* \"contracts/HomeWork_3/QuestManager.sol\":1914:1938  playerQuests[msg.sender] */\n      0x00\n        /* \"contracts/HomeWork_3/QuestManager.sol\":1927:1937  msg.sender */\n      caller\n        /* \"contracts/HomeWork_3/QuestManager.sol\":1914:1938  playerQuests[msg.sender] */\n      0xffffffffffffffffffffffffffffffffffffffff\n      and\n      0xffffffffffffffffffffffffffffffffffffffff\n      and\n      dup2\n      mstore\n      0x20\n      add\n      swap1\n      dup2\n      mstore\n      0x20\n      add\n      0x00\n      keccak256\n        /* \"contracts/HomeWork_3/QuestManager.sol\":1914:1947  playerQuests[msg.sender][questId] */\n      0x00\n        /* \"contracts/HomeWork_3/QuestManager.sol\":1939:1946  questId */\n      dup4\n        /* \"contracts/HomeWork_3/QuestManager.sol\":1914:1947  playerQuests[msg.sender][questId] */\n      dup2\n      mstore\n      0x20\n      add\n      swap1\n      dup2\n      mstore\n      0x20\n      add\n      0x00\n      keccak256\n        /* \"contracts/HomeWork_3/QuestManager.sol\":1914:1959  playerQuests[msg.sender][questId].isCompleted */\n      0x00\n      add\n      0x01\n        /* \"contracts/HomeWork_3/QuestManager.sol\":1914:1966  playerQuests[msg.sender][questId].isCompleted = true */\n      0x0100\n      exp\n      dup2\n      sload\n      dup2\n      0xff\n      mul\n      not\n      and\n      swap1\n      dup4\n      iszero\n      iszero\n      mul\n      or\n      swap1\n      sstore\n      pop\n        /* \"contracts/HomeWork_3/QuestManager.sol\":1977:1989  playerLevels */\n      0x03\n        /* \"contracts/HomeWork_3/QuestManager.sol\":1977:2001  playerLevels[msg.sender] */\n      0x00\n        /* \"contracts/HomeWork_3/QuestManager.sol\":1990:2000  msg.sender */\n      caller\n        /* \"contracts/HomeWork_3/QuestManager.sol\":1977:2001  playerLevels[msg.sender] */\n      0xffffffffffffffffffffffffffffffffffffffff\n      and\n      0xffffffffffffffffffffffffffffffffffffffff\n      and\n      dup2\n      mstore\n      0x20\n      add\n      swap1\n      dup2\n      mstore\n      0x20\n      add\n      0x00\n      keccak256\n      0x00\n        /* \"contracts/HomeWork_3/QuestManager.sol\":1977:2003  playerLevels[msg.sender]++ */\n      dup2\n      sload\n      dup1\n      swap3\n      swap2\n      swap1\n      tag_70\n      swap1\n      tag_71\n      jump\t// in\n    tag_70:\n      swap2\n      swap1\n      pop\n      sstore\n      pop\n        /* \"contracts/HomeWork_3/QuestManager.sol\":1691:2011  function completeQuest(uint256 questId) external override {... */\n      pop\n      jump\t// out\n        /* \"contracts/HomeWork_3/QuestManager.sol\":525:572  mapping(address => uint256) public playerLevels */\n    tag_37:\n      mstore(0x20, 0x03)\n      dup1\n      0x00\n      mstore\n      keccak256(0x00, 0x40)\n      0x00\n      swap2\n      pop\n      swap1\n      pop\n      sload\n      dup2\n      jump\t// out\n        /* \"contracts/HomeWork_3/QuestManager.sol\":362:382  address public owner */\n    tag_40:\n      0x00\n      0x00\n      swap1\n      sload\n      swap1\n      0x0100\n      exp\n      swap1\n      div\n      0xffffffffffffffffffffffffffffffffffffffff\n      and\n      dup2\n      jump\t// out\n        /* \"contracts/HomeWork_3/QuestManager.sol\":997:1683  function startQuest(uint256 questId) external override {... */\n    tag_45:\n        /* \"contracts/HomeWork_3/QuestManager.sol\":1071:1083  globalQuests */\n      0x01\n        /* \"contracts/HomeWork_3/QuestManager.sol\":1071:1092  globalQuests[questId] */\n      0x00\n        /* \"contracts/HomeWork_3/QuestManager.sol\":1084:1091  questId */\n      dup3\n        /* \"contracts/HomeWork_3/QuestManager.sol\":1071:1092  globalQuests[questId] */\n      dup2\n      mstore\n      0x20\n      add\n      swap1\n      dup2\n      mstore\n      0x20\n      add\n      0x00\n      keccak256\n        /* \"contracts/HomeWork_3/QuestManager.sol\":1071:1099  globalQuests[questId].exists */\n      0x02\n      add\n      0x00\n      swap1\n      sload\n      swap1\n      0x0100\n      exp\n      swap1\n      div\n      0xff\n      and\n        /* \"contracts/HomeWork_3/QuestManager.sol\":1063:1124  require(globalQuests[questId].exists, \"Quest does not exist\") */\n      tag_73\n      jumpi\n      mload(0x40)\n      0x08c379a000000000000000000000000000000000000000000000000000000000\n      dup2\n      mstore\n      0x04\n      add\n      tag_74\n      swap1\n      tag_75\n      jump\t// in\n    tag_74:\n      mload(0x40)\n      dup1\n      swap2\n      sub\n      swap1\n      revert\n    tag_73:\n        /* \"contracts/HomeWork_3/QuestManager.sol\":1145:1171  uint256 currentPlayerLevel */\n      0x00\n        /* \"contracts/HomeWork_3/QuestManager.sol\":1202:1203  0 */\n      0x00\n        /* \"contracts/HomeWork_3/QuestManager.sol\":1174:1186  playerLevels */\n      0x03\n        /* \"contracts/HomeWork_3/QuestManager.sol\":1174:1198  playerLevels[msg.sender] */\n      0x00\n        /* \"contracts/HomeWork_3/QuestManager.sol\":1187:1197  msg.sender */\n      caller\n        /* \"contracts/HomeWork_3/QuestManager.sol\":1174:1198  playerLevels[msg.sender] */\n      0xffffffffffffffffffffffffffffffffffffffff\n      and\n      0xffffffffffffffffffffffffffffffffffffffff\n      and\n      dup2\n      mstore\n      0x20\n      add\n      swap1\n      dup2\n      mstore\n      0x20\n      add\n      0x00\n      keccak256\n      sload\n        /* \"contracts/HomeWork_3/QuestManager.sol\":1174:1203  playerLevels[msg.sender] == 0 */\n      eq\n        /* \"contracts/HomeWork_3/QuestManager.sol\":1174:1234  playerLevels[msg.sender] == 0 ? 1 : playerLevels[msg.sender] */\n      tag_76\n      jumpi\n        /* \"contracts/HomeWork_3/QuestManager.sol\":1210:1222  playerLevels */\n      0x03\n        /* \"contracts/HomeWork_3/QuestManager.sol\":1210:1234  playerLevels[msg.sender] */\n      0x00\n        /* \"contracts/HomeWork_3/QuestManager.sol\":1223:1233  msg.sender */\n      caller\n        /* \"contracts/HomeWork_3/QuestManager.sol\":1210:1234  playerLevels[msg.sender] */\n      0xffffffffffffffffffffffffffffffffffffffff\n      and\n      0xffffffffffffffffffffffffffffffffffffffff\n      and\n      dup2\n      mstore\n      0x20\n      add\n      swap1\n      dup2\n      mstore\n      0x20\n      add\n      0x00\n      keccak256\n      sload\n        /* \"contracts/HomeWork_3/QuestManager.sol\":1174:1234  playerLevels[msg.sender] == 0 ? 1 : playerLevels[msg.sender] */\n      jump(tag_77)\n    tag_76:\n        /* \"contracts/HomeWork_3/QuestManager.sol\":1206:1207  1 */\n      0x01\n        /* \"contracts/HomeWork_3/QuestManager.sol\":1174:1234  playerLevels[msg.sender] == 0 ? 1 : playerLevels[msg.sender] */\n    tag_77:\n        /* \"contracts/HomeWork_3/QuestManager.sol\":1145:1234  uint256 currentPlayerLevel = playerLevels[msg.sender] == 0 ? 1 : playerLevels[msg.sender] */\n      swap1\n      pop\n        /* \"contracts/HomeWork_3/QuestManager.sol\":1276:1277  0 */\n      0x00\n        /* \"contracts/HomeWork_3/QuestManager.sol\":1248:1260  playerLevels */\n      0x03\n        /* \"contracts/HomeWork_3/QuestManager.sol\":1248:1272  playerLevels[msg.sender] */\n      0x00\n        /* \"contracts/HomeWork_3/QuestManager.sol\":1261:1271  msg.sender */\n      caller\n        /* \"contracts/HomeWork_3/QuestManager.sol\":1248:1272  playerLevels[msg.sender] */\n      0xffffffffffffffffffffffffffffffffffffffff\n      and\n      0xffffffffffffffffffffffffffffffffffffffff\n      and\n      dup2\n      mstore\n      0x20\n      add\n      swap1\n      dup2\n      mstore\n      0x20\n      add\n      0x00\n      keccak256\n      sload\n        /* \"contracts/HomeWork_3/QuestManager.sol\":1248:1277  playerLevels[msg.sender] == 0 */\n      sub\n        /* \"contracts/HomeWork_3/QuestManager.sol\":1245:1334  if(playerLevels[msg.sender] == 0) {... */\n      tag_78\n      jumpi\n        /* \"contracts/HomeWork_3/QuestManager.sol\":1321:1322  1 */\n      0x01\n        /* \"contracts/HomeWork_3/QuestManager.sol\":1294:1306  playerLevels */\n      0x03\n        /* \"contracts/HomeWork_3/QuestManager.sol\":1294:1318  playerLevels[msg.sender] */\n      0x00\n        /* \"contracts/HomeWork_3/QuestManager.sol\":1307:1317  msg.sender */\n      caller\n        /* \"contracts/HomeWork_3/QuestManager.sol\":1294:1318  playerLevels[msg.sender] */\n      0xffffffffffffffffffffffffffffffffffffffff\n      and\n      0xffffffffffffffffffffffffffffffffffffffff\n      and\n      dup2\n      mstore\n      0x20\n      add\n      swap1\n      dup2\n      mstore\n      0x20\n      add\n      0x00\n      keccak256\n        /* \"contracts/HomeWork_3/QuestManager.sol\":1294:1322  playerLevels[msg.sender] = 1 */\n      dup2\n      swap1\n      sstore\n      pop\n        /* \"contracts/HomeWork_3/QuestManager.sol\":1245:1334  if(playerLevels[msg.sender] == 0) {... */\n    tag_78:\n        /* \"contracts/HomeWork_3/QuestManager.sol\":1376:1388  globalQuests */\n      0x01\n        /* \"contracts/HomeWork_3/QuestManager.sol\":1376:1397  globalQuests[questId] */\n      0x00\n        /* \"contracts/HomeWork_3/QuestManager.sol\":1389:1396  questId */\n      dup4\n        /* \"contracts/HomeWork_3/QuestManager.sol\":1376:1397  globalQuests[questId] */\n      dup2\n      mstore\n      0x20\n      add\n      swap1\n      dup2\n      mstore\n      0x20\n      add\n      0x00\n      keccak256\n        /* \"contracts/HomeWork_3/QuestManager.sol\":1376:1414  globalQuests[questId].levelRequirement */\n      0x01\n      add\n      sload\n        /* \"contracts/HomeWork_3/QuestManager.sol\":1354:1372  currentPlayerLevel */\n      dup2\n        /* \"contracts/HomeWork_3/QuestManager.sol\":1354:1414  currentPlayerLevel >= globalQuests[questId].levelRequirement */\n      lt\n      iszero\n        /* \"contracts/HomeWork_3/QuestManager.sol\":1346:1432  require(currentPlayerLevel >= globalQuests[questId].levelRequirement, \"Level too low\") */\n      tag_79\n      jumpi\n      mload(0x40)\n      0x08c379a000000000000000000000000000000000000000000000000000000000\n      dup2\n      mstore\n      0x04\n      add\n      tag_80\n      swap1\n      tag_81\n      jump\t// in\n    tag_80:\n      mload(0x40)\n      dup1\n      swap2\n      sub\n      swap1\n      revert\n    tag_79:\n        /* \"contracts/HomeWork_3/QuestManager.sol\":1452:1464  playerQuests */\n      0x02\n        /* \"contracts/HomeWork_3/QuestManager.sol\":1452:1476  playerQuests[msg.sender] */\n      0x00\n        /* \"contracts/HomeWork_3/QuestManager.sol\":1465:1475  msg.sender */\n      caller\n        /* \"contracts/HomeWork_3/QuestManager.sol\":1452:1476  playerQuests[msg.sender] */\n      0xffffffffffffffffffffffffffffffffffffffff\n      and\n      0xffffffffffffffffffffffffffffffffffffffff\n      and\n      dup2\n      mstore\n      0x20\n      add\n      swap1\n      dup2\n      mstore\n      0x20\n      add\n      0x00\n      keccak256\n        /* \"contracts/HomeWork_3/QuestManager.sol\":1452:1485  playerQuests[msg.sender][questId] */\n      0x00\n        /* \"contracts/HomeWork_3/QuestManager.sol\":1477:1484  questId */\n      dup4\n        /* \"contracts/HomeWork_3/QuestManager.sol\":1452:1485  playerQuests[msg.sender][questId] */\n      dup2\n      mstore\n      0x20\n      add\n      swap1\n      dup2\n      mstore\n      0x20\n      add\n      0x00\n      keccak256\n        /* \"contracts/HomeWork_3/QuestManager.sol\":1452:1494  playerQuests[msg.sender][questId].isActive */\n      0x00\n      add\n      0x00\n      swap1\n      sload\n      swap1\n      0x0100\n      exp\n      swap1\n      div\n      0xff\n      and\n        /* \"contracts/HomeWork_3/QuestManager.sol\":1451:1494  !playerQuests[msg.sender][questId].isActive */\n      iszero\n        /* \"contracts/HomeWork_3/QuestManager.sol\":1443:1520  require(!playerQuests[msg.sender][questId].isActive, \"Quest already started\") */\n      tag_82\n      jumpi\n      mload(0x40)\n      0x08c379a000000000000000000000000000000000000000000000000000000000\n      dup2\n      mstore\n      0x04\n      add\n      tag_83\n      swap1\n      tag_84\n      jump\t// in\n    tag_83:\n      mload(0x40)\n      dup1\n      swap2\n      sub\n      swap1\n      revert\n    tag_82:\n        /* \"contracts/HomeWork_3/QuestManager.sol\":1540:1552  playerQuests */\n      0x02\n        /* \"contracts/HomeWork_3/QuestManager.sol\":1540:1564  playerQuests[msg.sender] */\n      0x00\n        /* \"contracts/HomeWork_3/QuestManager.sol\":1553:1563  msg.sender */\n      caller\n        /* \"contracts/HomeWork_3/QuestManager.sol\":1540:1564  playerQuests[msg.sender] */\n      0xffffffffffffffffffffffffffffffffffffffff\n      and\n      0xffffffffffffffffffffffffffffffffffffffff\n      and\n      dup2\n      mstore\n      0x20\n      add\n      swap1\n      dup2\n      mstore\n      0x20\n      add\n      0x00\n      keccak256\n        /* \"contracts/HomeWork_3/QuestManager.sol\":1540:1573  playerQuests[msg.sender][questId] */\n      0x00\n        /* \"contracts/HomeWork_3/QuestManager.sol\":1565:1572  questId */\n      dup4\n        /* \"contracts/HomeWork_3/QuestManager.sol\":1540:1573  playerQuests[msg.sender][questId] */\n      dup2\n      mstore\n      0x20\n      add\n      swap1\n      dup2\n      mstore\n      0x20\n      add\n      0x00\n      keccak256\n        /* \"contracts/HomeWork_3/QuestManager.sol\":1540:1585  playerQuests[msg.sender][questId].isCompleted */\n      0x00\n      add\n      0x01\n      swap1\n      sload\n      swap1\n      0x0100\n      exp\n      swap1\n      div\n      0xff\n      and\n        /* \"contracts/HomeWork_3/QuestManager.sol\":1539:1585  !playerQuests[msg.sender][questId].isCompleted */\n      iszero\n        /* \"contracts/HomeWork_3/QuestManager.sol\":1531:1613  require(!playerQuests[msg.sender][questId].isCompleted, \"Quest already completed\") */\n      tag_85\n      jumpi\n      mload(0x40)\n      0x08c379a000000000000000000000000000000000000000000000000000000000\n      dup2\n      mstore\n      0x04\n      add\n      tag_86\n      swap1\n      tag_87\n      jump\t// in\n    tag_86:\n      mload(0x40)\n      dup1\n      swap2\n      sub\n      swap1\n      revert\n    tag_85:\n        /* \"contracts/HomeWork_3/QuestManager.sol\":1671:1675  true */\n      0x01\n        /* \"contracts/HomeWork_3/QuestManager.sol\":1626:1638  playerQuests */\n      0x02\n        /* \"contracts/HomeWork_3/QuestManager.sol\":1626:1650  playerQuests[msg.sender] */\n      0x00\n        /* \"contracts/HomeWork_3/QuestManager.sol\":1639:1649  msg.sender */\n      caller\n        /* \"contracts/HomeWork_3/QuestManager.sol\":1626:1650  playerQuests[msg.sender] */\n      0xffffffffffffffffffffffffffffffffffffffff\n      and\n      0xffffffffffffffffffffffffffffffffffffffff\n      and\n      dup2\n      mstore\n      0x20\n      add\n      swap1\n      dup2\n      mstore\n      0x20\n      add\n      0x00\n      keccak256\n        /* \"contracts/HomeWork_3/QuestManager.sol\":1626:1659  playerQuests[msg.sender][questId] */\n      0x00\n        /* \"contracts/HomeWork_3/QuestManager.sol\":1651:1658  questId */\n      dup5\n        /* \"contracts/HomeWork_3/QuestManager.sol\":1626:1659  playerQuests[msg.sender][questId] */\n      dup2\n      mstore\n      0x20\n      add\n      swap1\n      dup2\n      mstore\n      0x20\n      add\n      0x00\n      keccak256\n        /* \"contracts/HomeWork_3/QuestManager.sol\":1626:1668  playerQuests[msg.sender][questId].isActive */\n      0x00\n      add\n      0x00\n        /* \"contracts/HomeWork_3/QuestManager.sol\":1626:1675  playerQuests[msg.sender][questId].isActive = true */\n      0x0100\n      exp\n      dup2\n      sload\n      dup2\n      0xff\n      mul\n      not\n      and\n      swap1\n      dup4\n      iszero\n      iszero\n      mul\n      or\n      swap1\n      sstore\n      pop\n        /* \"contracts/HomeWork_3/QuestManager.sol\":1052:1683  {... */\n      pop\n        /* \"contracts/HomeWork_3/QuestManager.sol\":997:1683  function startQuest(uint256 questId) external override {... */\n      pop\n      jump\t// out\n        /* \"contracts/HomeWork_3/QuestManager.sol\":441:518  mapping(address => mapping(uint256 => PlayerQuestStatus)) public playerQuests */\n    tag_49:\n      mstore(0x20, 0x02)\n      dup2\n      0x00\n      mstore\n      mstore(0x20, keccak256(0x00, 0x40))\n      dup1\n      0x00\n      mstore\n      keccak256(0x00, 0x40)\n      0x00\n      swap2\n      pop\n      swap2\n      pop\n      pop\n      dup1\n      0x00\n      add\n      0x00\n      swap1\n      sload\n      swap1\n      0x0100\n      exp\n      swap1\n      div\n      0xff\n      and\n      swap1\n      dup1\n      0x00\n      add\n      0x01\n      swap1\n      sload\n      swap1\n      0x0100\n      exp\n      swap1\n      div\n      0xff\n      and\n      swap1\n      dup1\n      0x00\n      add\n      0x02\n      swap1\n      sload\n      swap1\n      0x0100\n      exp\n      swap1\n      div\n      0xff\n      and\n      swap1\n      pop\n      dup4\n      jump\t// out\n        /* \"#utility.yul\":88:205   */\n    tag_89:\n        /* \"#utility.yul\":197:198   */\n      0x00\n        /* \"#utility.yul\":194:195   */\n      0x00\n        /* \"#utility.yul\":187:199   */\n      revert\n        /* \"#utility.yul\":334:411   */\n    tag_91:\n        /* \"#utility.yul\":371:378   */\n      0x00\n        /* \"#utility.yul\":400:405   */\n      dup2\n        /* \"#utility.yul\":389:405   */\n      swap1\n      pop\n        /* \"#utility.yul\":334:411   */\n      swap2\n      swap1\n      pop\n      jump\t// out\n        /* \"#utility.yul\":417:539   */\n    tag_92:\n        /* \"#utility.yul\":490:514   */\n      tag_126\n        /* \"#utility.yul\":508:513   */\n      dup2\n        /* \"#utility.yul\":490:514   */\n      tag_91\n      jump\t// in\n    tag_126:\n        /* \"#utility.yul\":483:488   */\n      dup2\n        /* \"#utility.yul\":480:515   */\n      eq\n        /* \"#utility.yul\":470:533   */\n      tag_127\n      jumpi\n        /* \"#utility.yul\":529:530   */\n      0x00\n        /* \"#utility.yul\":526:527   */\n      0x00\n        /* \"#utility.yul\":519:531   */\n      revert\n        /* \"#utility.yul\":470:533   */\n    tag_127:\n        /* \"#utility.yul\":417:539   */\n      pop\n      jump\t// out\n        /* \"#utility.yul\":545:684   */\n    tag_93:\n        /* \"#utility.yul\":591:596   */\n      0x00\n        /* \"#utility.yul\":629:635   */\n      dup2\n        /* \"#utility.yul\":616:636   */\n      calldataload\n        /* \"#utility.yul\":607:636   */\n      swap1\n      pop\n        /* \"#utility.yul\":645:678   */\n      tag_129\n        /* \"#utility.yul\":672:677   */\n      dup2\n        /* \"#utility.yul\":645:678   */\n      tag_92\n      jump\t// in\n    tag_129:\n        /* \"#utility.yul\":545:684   */\n      swap3\n      swap2\n      pop\n      pop\n      jump\t// out\n        /* \"#utility.yul\":690:1019   */\n    tag_15:\n        /* \"#utility.yul\":749:755   */\n      0x00\n        /* \"#utility.yul\":798:800   */\n      0x20\n        /* \"#utility.yul\":786:795   */\n      dup3\n        /* \"#utility.yul\":777:784   */\n      dup5\n        /* \"#utility.yul\":773:796   */\n      sub\n        /* \"#utility.yul\":769:801   */\n      slt\n        /* \"#utility.yul\":766:885   */\n      iszero\n      tag_131\n      jumpi\n        /* \"#utility.yul\":804:883   */\n      tag_132\n      tag_89\n      jump\t// in\n    tag_132:\n        /* \"#utility.yul\":766:885   */\n    tag_131:\n        /* \"#utility.yul\":924:925   */\n      0x00\n        /* \"#utility.yul\":949:1002   */\n      tag_133\n        /* \"#utility.yul\":994:1001   */\n      dup5\n        /* \"#utility.yul\":985:991   */\n      dup3\n        /* \"#utility.yul\":974:983   */\n      dup6\n        /* \"#utility.yul\":970:992   */\n      add\n        /* \"#utility.yul\":949:1002   */\n      tag_93\n      jump\t// in\n    tag_133:\n        /* \"#utility.yul\":939:1002   */\n      swap2\n      pop\n        /* \"#utility.yul\":895:1012   */\n      pop\n        /* \"#utility.yul\":690:1019   */\n      swap3\n      swap2\n      pop\n      pop\n      jump\t// out\n        /* \"#utility.yul\":1025:1143   */\n    tag_94:\n        /* \"#utility.yul\":1112:1136   */\n      tag_135\n        /* \"#utility.yul\":1130:1135   */\n      dup2\n        /* \"#utility.yul\":1112:1136   */\n      tag_91\n      jump\t// in\n    tag_135:\n        /* \"#utility.yul\":1107:1110   */\n      dup3\n        /* \"#utility.yul\":1100:1137   */\n      mstore\n        /* \"#utility.yul\":1025:1143   */\n      pop\n      pop\n      jump\t// out\n        /* \"#utility.yul\":1149:1239   */\n    tag_95:\n        /* \"#utility.yul\":1183:1190   */\n      0x00\n        /* \"#utility.yul\":1226:1231   */\n      dup2\n        /* \"#utility.yul\":1219:1232   */\n      iszero\n        /* \"#utility.yul\":1212:1233   */\n      iszero\n        /* \"#utility.yul\":1201:1233   */\n      swap1\n      pop\n        /* \"#utility.yul\":1149:1239   */\n      swap2\n      swap1\n      pop\n      jump\t// out\n        /* \"#utility.yul\":1245:1354   */\n    tag_96:\n        /* \"#utility.yul\":1326:1347   */\n      tag_138\n        /* \"#utility.yul\":1341:1346   */\n      dup2\n        /* \"#utility.yul\":1326:1347   */\n      tag_95\n      jump\t// in\n    tag_138:\n        /* \"#utility.yul\":1321:1324   */\n      dup3\n        /* \"#utility.yul\":1314:1348   */\n      mstore\n        /* \"#utility.yul\":1245:1354   */\n      pop\n      pop\n      jump\t// out\n        /* \"#utility.yul\":1360:1790   */\n    tag_21:\n        /* \"#utility.yul\":1503:1507   */\n      0x00\n        /* \"#utility.yul\":1541:1543   */\n      0x60\n        /* \"#utility.yul\":1530:1539   */\n      dup3\n        /* \"#utility.yul\":1526:1544   */\n      add\n        /* \"#utility.yul\":1518:1544   */\n      swap1\n      pop\n        /* \"#utility.yul\":1554:1625   */\n      tag_140\n        /* \"#utility.yul\":1622:1623   */\n      0x00\n        /* \"#utility.yul\":1611:1620   */\n      dup4\n        /* \"#utility.yul\":1607:1624   */\n      add\n        /* \"#utility.yul\":1598:1604   */\n      dup7\n        /* \"#utility.yul\":1554:1625   */\n      tag_94\n      jump\t// in\n    tag_140:\n        /* \"#utility.yul\":1635:1707   */\n      tag_141\n        /* \"#utility.yul\":1703:1705   */\n      0x20\n        /* \"#utility.yul\":1692:1701   */\n      dup4\n        /* \"#utility.yul\":1688:1706   */\n      add\n        /* \"#utility.yul\":1679:1685   */\n      dup6\n        /* \"#utility.yul\":1635:1707   */\n      tag_94\n      jump\t// in\n    tag_141:\n        /* \"#utility.yul\":1717:1783   */\n      tag_142\n        /* \"#utility.yul\":1779:1781   */\n      0x40\n        /* \"#utility.yul\":1768:1777   */\n      dup4\n        /* \"#utility.yul\":1764:1782   */\n      add\n        /* \"#utility.yul\":1755:1761   */\n      dup5\n        /* \"#utility.yul\":1717:1783   */\n      tag_96\n      jump\t// in\n    tag_142:\n        /* \"#utility.yul\":1360:1790   */\n      swap5\n      swap4\n      pop\n      pop\n      pop\n      pop\n      jump\t// out\n        /* \"#utility.yul\":1796:2415   */\n    tag_24:\n        /* \"#utility.yul\":1873:1879   */\n      0x00\n        /* \"#utility.yul\":1881:1887   */\n      0x00\n        /* \"#utility.yul\":1889:1895   */\n      0x00\n        /* \"#utility.yul\":1938:1940   */\n      0x60\n        /* \"#utility.yul\":1926:1935   */\n      dup5\n        /* \"#utility.yul\":1917:1924   */\n      dup7\n        /* \"#utility.yul\":1913:1936   */\n      sub\n        /* \"#utility.yul\":1909:1941   */\n      slt\n        /* \"#utility.yul\":1906:2025   */\n      iszero\n      tag_144\n      jumpi\n        /* \"#utility.yul\":1944:2023   */\n      tag_145\n      tag_89\n      jump\t// in\n    tag_145:\n        /* \"#utility.yul\":1906:2025   */\n    tag_144:\n        /* \"#utility.yul\":2064:2065   */\n      0x00\n        /* \"#utility.yul\":2089:2142   */\n      tag_146\n        /* \"#utility.yul\":2134:2141   */\n      dup7\n        /* \"#utility.yul\":2125:2131   */\n      dup3\n        /* \"#utility.yul\":2114:2123   */\n      dup8\n        /* \"#utility.yul\":2110:2132   */\n      add\n        /* \"#utility.yul\":2089:2142   */\n      tag_93\n      jump\t// in\n    tag_146:\n        /* \"#utility.yul\":2079:2142   */\n      swap4\n      pop\n        /* \"#utility.yul\":2035:2152   */\n      pop\n        /* \"#utility.yul\":2191:2193   */\n      0x20\n        /* \"#utility.yul\":2217:2270   */\n      tag_147\n        /* \"#utility.yul\":2262:2269   */\n      dup7\n        /* \"#utility.yul\":2253:2259   */\n      dup3\n        /* \"#utility.yul\":2242:2251   */\n      dup8\n        /* \"#utility.yul\":2238:2260   */\n      add\n        /* \"#utility.yul\":2217:2270   */\n      tag_93\n      jump\t// in\n    tag_147:\n        /* \"#utility.yul\":2207:2270   */\n      swap3\n      pop\n        /* \"#utility.yul\":2162:2280   */\n      pop\n        /* \"#utility.yul\":2319:2321   */\n      0x40\n        /* \"#utility.yul\":2345:2398   */\n      tag_148\n        /* \"#utility.yul\":2390:2397   */\n      dup7\n        /* \"#utility.yul\":2381:2387   */\n      dup3\n        /* \"#utility.yul\":2370:2379   */\n      dup8\n        /* \"#utility.yul\":2366:2388   */\n      add\n        /* \"#utility.yul\":2345:2398   */\n      tag_93\n      jump\t// in\n    tag_148:\n        /* \"#utility.yul\":2335:2398   */\n      swap2\n      pop\n        /* \"#utility.yul\":2290:2408   */\n      pop\n        /* \"#utility.yul\":1796:2415   */\n      swap3\n      pop\n      swap3\n      pop\n      swap3\n      jump\t// out\n        /* \"#utility.yul\":2421:2547   */\n    tag_97:\n        /* \"#utility.yul\":2458:2465   */\n      0x00\n        /* \"#utility.yul\":2498:2540   */\n      0xffffffffffffffffffffffffffffffffffffffff\n        /* \"#utility.yul\":2491:2496   */\n      dup3\n        /* \"#utility.yul\":2487:2541   */\n      and\n        /* \"#utility.yul\":2476:2541   */\n      swap1\n      pop\n        /* \"#utility.yul\":2421:2547   */\n      swap2\n      swap1\n      pop\n      jump\t// out\n        /* \"#utility.yul\":2553:2649   */\n    tag_98:\n        /* \"#utility.yul\":2590:2597   */\n      0x00\n        /* \"#utility.yul\":2619:2643   */\n      tag_151\n        /* \"#utility.yul\":2637:2642   */\n      dup3\n        /* \"#utility.yul\":2619:2643   */\n      tag_97\n      jump\t// in\n    tag_151:\n        /* \"#utility.yul\":2608:2643   */\n      swap1\n      pop\n        /* \"#utility.yul\":2553:2649   */\n      swap2\n      swap1\n      pop\n      jump\t// out\n        /* \"#utility.yul\":2655:2777   */\n    tag_99:\n        /* \"#utility.yul\":2728:2752   */\n      tag_153\n        /* \"#utility.yul\":2746:2751   */\n      dup2\n        /* \"#utility.yul\":2728:2752   */\n      tag_98\n      jump\t// in\n    tag_153:\n        /* \"#utility.yul\":2721:2726   */\n      dup2\n        /* \"#utility.yul\":2718:2753   */\n      eq\n        /* \"#utility.yul\":2708:2771   */\n      tag_154\n      jumpi\n        /* \"#utility.yul\":2767:2768   */\n      0x00\n        /* \"#utility.yul\":2764:2765   */\n      0x00\n        /* \"#utility.yul\":2757:2769   */\n      revert\n        /* \"#utility.yul\":2708:2771   */\n    tag_154:\n        /* \"#utility.yul\":2655:2777   */\n      pop\n      jump\t// out\n        /* \"#utility.yul\":2783:2922   */\n    tag_100:\n        /* \"#utility.yul\":2829:2834   */\n      0x00\n        /* \"#utility.yul\":2867:2873   */\n      dup2\n        /* \"#utility.yul\":2854:2874   */\n      calldataload\n        /* \"#utility.yul\":2845:2874   */\n      swap1\n      pop\n        /* \"#utility.yul\":2883:2916   */\n      tag_156\n        /* \"#utility.yul\":2910:2915   */\n      dup2\n        /* \"#utility.yul\":2883:2916   */\n      tag_99\n      jump\t// in\n    tag_156:\n        /* \"#utility.yul\":2783:2922   */\n      swap3\n      swap2\n      pop\n      pop\n      jump\t// out\n        /* \"#utility.yul\":2928:3257   */\n    tag_28:\n        /* \"#utility.yul\":2987:2993   */\n      0x00\n        /* \"#utility.yul\":3036:3038   */\n      0x20\n        /* \"#utility.yul\":3024:3033   */\n      dup3\n        /* \"#utility.yul\":3015:3022   */\n      dup5\n        /* \"#utility.yul\":3011:3034   */\n      sub\n        /* \"#utility.yul\":3007:3039   */\n      slt\n        /* \"#utility.yul\":3004:3123   */\n      iszero\n      tag_158\n      jumpi\n        /* \"#utility.yul\":3042:3121   */\n      tag_159\n      tag_89\n      jump\t// in\n    tag_159:\n        /* \"#utility.yul\":3004:3123   */\n    tag_158:\n        /* \"#utility.yul\":3162:3163   */\n      0x00\n        /* \"#utility.yul\":3187:3240   */\n      tag_160\n        /* \"#utility.yul\":3232:3239   */\n      dup5\n        /* \"#utility.yul\":3223:3229   */\n      dup3\n        /* \"#utility.yul\":3212:3221   */\n      dup6\n        /* \"#utility.yul\":3208:3230   */\n      add\n        /* \"#utility.yul\":3187:3240   */\n      tag_100\n      jump\t// in\n    tag_160:\n        /* \"#utility.yul\":3177:3240   */\n      swap2\n      pop\n        /* \"#utility.yul\":3133:3250   */\n      pop\n        /* \"#utility.yul\":2928:3257   */\n      swap3\n      swap2\n      pop\n      pop\n      jump\t// out\n        /* \"#utility.yul\":3263:3485   */\n    tag_31:\n        /* \"#utility.yul\":3356:3360   */\n      0x00\n        /* \"#utility.yul\":3394:3396   */\n      0x20\n        /* \"#utility.yul\":3383:3392   */\n      dup3\n        /* \"#utility.yul\":3379:3397   */\n      add\n        /* \"#utility.yul\":3371:3397   */\n      swap1\n      pop\n        /* \"#utility.yul\":3407:3478   */\n      tag_162\n        /* \"#utility.yul\":3475:3476   */\n      0x00\n        /* \"#utility.yul\":3464:3473   */\n      dup4\n        /* \"#utility.yul\":3460:3477   */\n      add\n        /* \"#utility.yul\":3451:3457   */\n      dup5\n        /* \"#utility.yul\":3407:3478   */\n      tag_94\n      jump\t// in\n    tag_162:\n        /* \"#utility.yul\":3263:3485   */\n      swap3\n      swap2\n      pop\n      pop\n      jump\t// out\n        /* \"#utility.yul\":3491:3609   */\n    tag_101:\n        /* \"#utility.yul\":3578:3602   */\n      tag_164\n        /* \"#utility.yul\":3596:3601   */\n      dup2\n        /* \"#utility.yul\":3578:3602   */\n      tag_98\n      jump\t// in\n    tag_164:\n        /* \"#utility.yul\":3573:3576   */\n      dup3\n        /* \"#utility.yul\":3566:3603   */\n      mstore\n        /* \"#utility.yul\":3491:3609   */\n      pop\n      pop\n      jump\t// out\n        /* \"#utility.yul\":3615:3837   */\n    tag_42:\n        /* \"#utility.yul\":3708:3712   */\n      0x00\n        /* \"#utility.yul\":3746:3748   */\n      0x20\n        /* \"#utility.yul\":3735:3744   */\n      dup3\n        /* \"#utility.yul\":3731:3749   */\n      add\n        /* \"#utility.yul\":3723:3749   */\n      swap1\n      pop\n        /* \"#utility.yul\":3759:3830   */\n      tag_166\n        /* \"#utility.yul\":3827:3828   */\n      0x00\n        /* \"#utility.yul\":3816:3825   */\n      dup4\n        /* \"#utility.yul\":3812:3829   */\n      add\n        /* \"#utility.yul\":3803:3809   */\n      dup5\n        /* \"#utility.yul\":3759:3830   */\n      tag_101\n      jump\t// in\n    tag_166:\n        /* \"#utility.yul\":3615:3837   */\n      swap3\n      swap2\n      pop\n      pop\n      jump\t// out\n        /* \"#utility.yul\":3843:4317   */\n    tag_48:\n        /* \"#utility.yul\":3911:3917   */\n      0x00\n        /* \"#utility.yul\":3919:3925   */\n      0x00\n        /* \"#utility.yul\":3968:3970   */\n      0x40\n        /* \"#utility.yul\":3956:3965   */\n      dup4\n        /* \"#utility.yul\":3947:3954   */\n      dup6\n        /* \"#utility.yul\":3943:3966   */\n      sub\n        /* \"#utility.yul\":3939:3971   */\n      slt\n        /* \"#utility.yul\":3936:4055   */\n      iszero\n      tag_168\n      jumpi\n        /* \"#utility.yul\":3974:4053   */\n      tag_169\n      tag_89\n      jump\t// in\n    tag_169:\n        /* \"#utility.yul\":3936:4055   */\n    tag_168:\n        /* \"#utility.yul\":4094:4095   */\n      0x00\n        /* \"#utility.yul\":4119:4172   */\n      tag_170\n        /* \"#utility.yul\":4164:4171   */\n      dup6\n        /* \"#utility.yul\":4155:4161   */\n      dup3\n        /* \"#utility.yul\":4144:4153   */\n      dup7\n        /* \"#utility.yul\":4140:4162   */\n      add\n        /* \"#utility.yul\":4119:4172   */\n      tag_100\n      jump\t// in\n    tag_170:\n        /* \"#utility.yul\":4109:4172   */\n      swap3\n      pop\n        /* \"#utility.yul\":4065:4182   */\n      pop\n        /* \"#utility.yul\":4221:4223   */\n      0x20\n        /* \"#utility.yul\":4247:4300   */\n      tag_171\n        /* \"#utility.yul\":4292:4299   */\n      dup6\n        /* \"#utility.yul\":4283:4289   */\n      dup3\n        /* \"#utility.yul\":4272:4281   */\n      dup7\n        /* \"#utility.yul\":4268:4290   */\n      add\n        /* \"#utility.yul\":4247:4300   */\n      tag_93\n      jump\t// in\n    tag_171:\n        /* \"#utility.yul\":4237:4300   */\n      swap2\n      pop\n        /* \"#utility.yul\":4192:4310   */\n      pop\n        /* \"#utility.yul\":3843:4317   */\n      swap3\n      pop\n      swap3\n      swap1\n      pop\n      jump\t// out\n        /* \"#utility.yul\":4323:4729   */\n    tag_51:\n        /* \"#utility.yul\":4454:4458   */\n      0x00\n        /* \"#utility.yul\":4492:4494   */\n      0x60\n        /* \"#utility.yul\":4481:4490   */\n      dup3\n        /* \"#utility.yul\":4477:4495   */\n      add\n        /* \"#utility.yul\":4469:4495   */\n      swap1\n      pop\n        /* \"#utility.yul\":4505:4570   */\n      tag_173\n        /* \"#utility.yul\":4567:4568   */\n      0x00\n        /* \"#utility.yul\":4556:4565   */\n      dup4\n        /* \"#utility.yul\":4552:4569   */\n      add\n        /* \"#utility.yul\":4543:4549   */\n      dup7\n        /* \"#utility.yul\":4505:4570   */\n      tag_96\n      jump\t// in\n    tag_173:\n        /* \"#utility.yul\":4580:4646   */\n      tag_174\n        /* \"#utility.yul\":4642:4644   */\n      0x20\n        /* \"#utility.yul\":4631:4640   */\n      dup4\n        /* \"#utility.yul\":4627:4645   */\n      add\n        /* \"#utility.yul\":4618:4624   */\n      dup6\n        /* \"#utility.yul\":4580:4646   */\n      tag_96\n      jump\t// in\n    tag_174:\n        /* \"#utility.yul\":4656:4722   */\n      tag_175\n        /* \"#utility.yul\":4718:4720   */\n      0x40\n        /* \"#utility.yul\":4707:4716   */\n      dup4\n        /* \"#utility.yul\":4703:4721   */\n      add\n        /* \"#utility.yul\":4694:4700   */\n      dup5\n        /* \"#utility.yul\":4656:4722   */\n      tag_96\n      jump\t// in\n    tag_175:\n        /* \"#utility.yul\":4323:4729   */\n      swap5\n      swap4\n      pop\n      pop\n      pop\n      pop\n      jump\t// out\n        /* \"#utility.yul\":4735:4904   */\n    tag_102:\n        /* \"#utility.yul\":4819:4830   */\n      0x00\n        /* \"#utility.yul\":4853:4859   */\n      dup3\n        /* \"#utility.yul\":4848:4851   */\n      dup3\n        /* \"#utility.yul\":4841:4860   */\n      mstore\n        /* \"#utility.yul\":4893:4897   */\n      0x20\n        /* \"#utility.yul\":4888:4891   */\n      dup3\n        /* \"#utility.yul\":4884:4898   */\n      add\n        /* \"#utility.yul\":4869:4898   */\n      swap1\n      pop\n        /* \"#utility.yul\":4735:4904   */\n      swap3\n      swap2\n      pop\n      pop\n      jump\t// out\n        /* \"#utility.yul\":4910:5079   */\n    tag_103:\n        /* \"#utility.yul\":5050:5071   */\n      0x5175657374206e6f7420636f6d706c6574656400000000000000000000000000\n        /* \"#utility.yul\":5046:5047   */\n      0x00\n        /* \"#utility.yul\":5038:5044   */\n      dup3\n        /* \"#utility.yul\":5034:5048   */\n      add\n        /* \"#utility.yul\":5027:5072   */\n      mstore\n        /* \"#utility.yul\":4910:5079   */\n      pop\n      jump\t// out\n        /* \"#utility.yul\":5085:5451   */\n    tag_104:\n        /* \"#utility.yul\":5227:5230   */\n      0x00\n        /* \"#utility.yul\":5248:5315   */\n      tag_179\n        /* \"#utility.yul\":5312:5314   */\n      0x13\n        /* \"#utility.yul\":5307:5310   */\n      dup4\n        /* \"#utility.yul\":5248:5315   */\n      tag_102\n      jump\t// in\n    tag_179:\n        /* \"#utility.yul\":5241:5315   */\n      swap2\n      pop\n        /* \"#utility.yul\":5324:5417   */\n      tag_180\n        /* \"#utility.yul\":5413:5416   */\n      dup3\n        /* \"#utility.yul\":5324:5417   */\n      tag_103\n      jump\t// in\n    tag_180:\n        /* \"#utility.yul\":5442:5444   */\n      0x20\n        /* \"#utility.yul\":5437:5440   */\n      dup3\n        /* \"#utility.yul\":5433:5445   */\n      add\n        /* \"#utility.yul\":5426:5445   */\n      swap1\n      pop\n        /* \"#utility.yul\":5085:5451   */\n      swap2\n      swap1\n      pop\n      jump\t// out\n        /* \"#utility.yul\":5457:5876   */\n    tag_55:\n        /* \"#utility.yul\":5623:5627   */\n      0x00\n        /* \"#utility.yul\":5661:5663   */\n      0x20\n        /* \"#utility.yul\":5650:5659   */\n      dup3\n        /* \"#utility.yul\":5646:5664   */\n      add\n        /* \"#utility.yul\":5638:5664   */\n      swap1\n      pop\n        /* \"#utility.yul\":5710:5719   */\n      dup2\n        /* \"#utility.yul\":5704:5708   */\n      dup2\n        /* \"#utility.yul\":5700:5720   */\n      sub\n        /* \"#utility.yul\":5696:5697   */\n      0x00\n        /* \"#utility.yul\":5685:5694   */\n      dup4\n        /* \"#utility.yul\":5681:5698   */\n      add\n        /* \"#utility.yul\":5674:5721   */\n      mstore\n        /* \"#utility.yul\":5738:5869   */\n      tag_182\n        /* \"#utility.yul\":5864:5868   */\n      dup2\n        /* \"#utility.yul\":5738:5869   */\n      tag_104\n      jump\t// in\n    tag_182:\n        /* \"#utility.yul\":5730:5869   */\n      swap1\n      pop\n        /* \"#utility.yul\":5457:5876   */\n      swap2\n      swap1\n      pop\n      jump\t// out\n        /* \"#utility.yul\":5882:6054   */\n    tag_105:\n        /* \"#utility.yul\":6022:6046   */\n      0x52657761726420616c726561647920636c61696d656400000000000000000000\n        /* \"#utility.yul\":6018:6019   */\n      0x00\n        /* \"#utility.yul\":6010:6016   */\n      dup3\n        /* \"#utility.yul\":6006:6020   */\n      add\n        /* \"#utility.yul\":5999:6047   */\n      mstore\n        /* \"#utility.yul\":5882:6054   */\n      pop\n      jump\t// out\n        /* \"#utility.yul\":6060:6426   */\n    tag_106:\n        /* \"#utility.yul\":6202:6205   */\n      0x00\n        /* \"#utility.yul\":6223:6290   */\n      tag_185\n        /* \"#utility.yul\":6287:6289   */\n      0x16\n        /* \"#utility.yul\":6282:6285   */\n      dup4\n        /* \"#utility.yul\":6223:6290   */\n      tag_102\n      jump\t// in\n    tag_185:\n        /* \"#utility.yul\":6216:6290   */\n      swap2\n      pop\n        /* \"#utility.yul\":6299:6392   */\n      tag_186\n        /* \"#utility.yul\":6388:6391   */\n      dup3\n        /* \"#utility.yul\":6299:6392   */\n      tag_105\n      jump\t// in\n    tag_186:\n        /* \"#utility.yul\":6417:6419   */\n      0x20\n        /* \"#utility.yul\":6412:6415   */\n      dup3\n        /* \"#utility.yul\":6408:6420   */\n      add\n        /* \"#utility.yul\":6401:6420   */\n      swap1\n      pop\n        /* \"#utility.yul\":6060:6426   */\n      swap2\n      swap1\n      pop\n      jump\t// out\n        /* \"#utility.yul\":6432:6851   */\n    tag_58:\n        /* \"#utility.yul\":6598:6602   */\n      0x00\n        /* \"#utility.yul\":6636:6638   */\n      0x20\n        /* \"#utility.yul\":6625:6634   */\n      dup3\n        /* \"#utility.yul\":6621:6639   */\n      add\n        /* \"#utility.yul\":6613:6639   */\n      swap1\n      pop\n        /* \"#utility.yul\":6685:6694   */\n      dup2\n        /* \"#utility.yul\":6679:6683   */\n      dup2\n        /* \"#utility.yul\":6675:6695   */\n      sub\n        /* \"#utility.yul\":6671:6672   */\n      0x00\n        /* \"#utility.yul\":6660:6669   */\n      dup4\n        /* \"#utility.yul\":6656:6673   */\n      add\n        /* \"#utility.yul\":6649:6696   */\n      mstore\n        /* \"#utility.yul\":6713:6844   */\n      tag_188\n        /* \"#utility.yul\":6839:6843   */\n      dup2\n        /* \"#utility.yul\":6713:6844   */\n      tag_106\n      jump\t// in\n    tag_188:\n        /* \"#utility.yul\":6705:6844   */\n      swap1\n      pop\n        /* \"#utility.yul\":6432:6851   */\n      swap2\n      swap1\n      pop\n      jump\t// out\n        /* \"#utility.yul\":6857:7037   */\n    tag_107:\n        /* \"#utility.yul\":6905:6982   */\n      0x4e487b7100000000000000000000000000000000000000000000000000000000\n        /* \"#utility.yul\":6902:6903   */\n      0x00\n        /* \"#utility.yul\":6895:6983   */\n      mstore\n        /* \"#utility.yul\":7002:7006   */\n      0x11\n        /* \"#utility.yul\":6999:7000   */\n      0x04\n        /* \"#utility.yul\":6992:7007   */\n      mstore\n        /* \"#utility.yul\":7026:7030   */\n      0x24\n        /* \"#utility.yul\":7023:7024   */\n      0x00\n        /* \"#utility.yul\":7016:7031   */\n      revert\n        /* \"#utility.yul\":7043:7234   */\n    tag_60:\n        /* \"#utility.yul\":7083:7086   */\n      0x00\n        /* \"#utility.yul\":7102:7122   */\n      tag_191\n        /* \"#utility.yul\":7120:7121   */\n      dup3\n        /* \"#utility.yul\":7102:7122   */\n      tag_91\n      jump\t// in\n    tag_191:\n        /* \"#utility.yul\":7097:7122   */\n      swap2\n      pop\n        /* \"#utility.yul\":7136:7156   */\n      tag_192\n        /* \"#utility.yul\":7154:7155   */\n      dup4\n        /* \"#utility.yul\":7136:7156   */\n      tag_91\n      jump\t// in\n    tag_192:\n        /* \"#utility.yul\":7131:7156   */\n      swap3\n      pop\n        /* \"#utility.yul\":7179:7180   */\n      dup3\n        /* \"#utility.yul\":7176:7177   */\n      dup3\n        /* \"#utility.yul\":7172:7181   */\n      add\n        /* \"#utility.yul\":7165:7181   */\n      swap1\n      pop\n        /* \"#utility.yul\":7200:7203   */\n      dup1\n        /* \"#utility.yul\":7197:7198   */\n      dup3\n        /* \"#utility.yul\":7194:7204   */\n      gt\n        /* \"#utility.yul\":7191:7227   */\n      iszero\n      tag_193\n      jumpi\n        /* \"#utility.yul\":7207:7225   */\n      tag_194\n      tag_107\n      jump\t// in\n    tag_194:\n        /* \"#utility.yul\":7191:7227   */\n    tag_193:\n        /* \"#utility.yul\":7043:7234   */\n      swap3\n      swap2\n      pop\n      pop\n      jump\t// out\n        /* \"#utility.yul\":7240:7461   */\n    tag_108:\n        /* \"#utility.yul\":7380:7414   */\n      0x4f6e6c79206f776e65722063616e20706572666f726d20746869732061637469\n        /* \"#utility.yul\":7376:7377   */\n      0x00\n        /* \"#utility.yul\":7368:7374   */\n      dup3\n        /* \"#utility.yul\":7364:7378   */\n      add\n        /* \"#utility.yul\":7357:7415   */\n      mstore\n        /* \"#utility.yul\":7449:7453   */\n      0x6f6e000000000000000000000000000000000000000000000000000000000000\n        /* \"#utility.yul\":7444:7446   */\n      0x20\n        /* \"#utility.yul\":7436:7442   */\n      dup3\n        /* \"#utility.yul\":7432:7447   */\n      add\n        /* \"#utility.yul\":7425:7454   */\n      mstore\n        /* \"#utility.yul\":7240:7461   */\n      pop\n      jump\t// out\n        /* \"#utility.yul\":7467:7833   */\n    tag_109:\n        /* \"#utility.yul\":7609:7612   */\n      0x00\n        /* \"#utility.yul\":7630:7697   */\n      tag_197\n        /* \"#utility.yul\":7694:7696   */\n      0x22\n        /* \"#utility.yul\":7689:7692   */\n      dup4\n        /* \"#utility.yul\":7630:7697   */\n      tag_102\n      jump\t// in\n    tag_197:\n        /* \"#utility.yul\":7623:7697   */\n      swap2\n      pop\n        /* \"#utility.yul\":7706:7799   */\n      tag_198\n        /* \"#utility.yul\":7795:7798   */\n      dup3\n        /* \"#utility.yul\":7706:7799   */\n      tag_108\n      jump\t// in\n    tag_198:\n        /* \"#utility.yul\":7824:7826   */\n      0x40\n        /* \"#utility.yul\":7819:7822   */\n      dup3\n        /* \"#utility.yul\":7815:7827   */\n      add\n        /* \"#utility.yul\":7808:7827   */\n      swap1\n      pop\n        /* \"#utility.yul\":7467:7833   */\n      swap2\n      swap1\n      pop\n      jump\t// out\n        /* \"#utility.yul\":7839:8258   */\n    tag_64:\n        /* \"#utility.yul\":8005:8009   */\n      0x00\n        /* \"#utility.yul\":8043:8045   */\n      0x20\n        /* \"#utility.yul\":8032:8041   */\n      dup3\n        /* \"#utility.yul\":8028:8046   */\n      add\n        /* \"#utility.yul\":8020:8046   */\n      swap1\n      pop\n        /* \"#utility.yul\":8092:8101   */\n      dup2\n        /* \"#utility.yul\":8086:8090   */\n      dup2\n        /* \"#utility.yul\":8082:8102   */\n      sub\n        /* \"#utility.yul\":8078:8079   */\n      0x00\n        /* \"#utility.yul\":8067:8076   */\n      dup4\n        /* \"#utility.yul\":8063:8080   */\n      add\n        /* \"#utility.yul\":8056:8103   */\n      mstore\n        /* \"#utility.yul\":8120:8251   */\n      tag_200\n        /* \"#utility.yul\":8246:8250   */\n      dup2\n        /* \"#utility.yul\":8120:8251   */\n      tag_109\n      jump\t// in\n    tag_200:\n        /* \"#utility.yul\":8112:8251   */\n      swap1\n      pop\n        /* \"#utility.yul\":7839:8258   */\n      swap2\n      swap1\n      pop\n      jump\t// out\n        /* \"#utility.yul\":8264:8431   */\n    tag_110:\n        /* \"#utility.yul\":8404:8423   */\n      0x5175657374206e6f742073746172746564000000000000000000000000000000\n        /* \"#utility.yul\":8400:8401   */\n      0x00\n        /* \"#utility.yul\":8392:8398   */\n      dup3\n        /* \"#utility.yul\":8388:8402   */\n      add\n        /* \"#utility.yul\":8381:8424   */\n      mstore\n        /* \"#utility.yul\":8264:8431   */\n      pop\n      jump\t// out\n        /* \"#utility.yul\":8437:8803   */\n    tag_111:\n        /* \"#utility.yul\":8579:8582   */\n      0x00\n        /* \"#utility.yul\":8600:8667   */\n      tag_203\n        /* \"#utility.yul\":8664:8666   */\n      0x11\n        /* \"#utility.yul\":8659:8662   */\n      dup4\n        /* \"#utility.yul\":8600:8667   */\n      tag_102\n      jump\t// in\n    tag_203:\n        /* \"#utility.yul\":8593:8667   */\n      swap2\n      pop\n        /* \"#utility.yul\":8676:8769   */\n      tag_204\n        /* \"#utility.yul\":8765:8768   */\n      dup3\n        /* \"#utility.yul\":8676:8769   */\n      tag_110\n      jump\t// in\n    tag_204:\n        /* \"#utility.yul\":8794:8796   */\n      0x20\n        /* \"#utility.yul\":8789:8792   */\n      dup3\n        /* \"#utility.yul\":8785:8797   */\n      add\n        /* \"#utility.yul\":8778:8797   */\n      swap1\n      pop\n        /* \"#utility.yul\":8437:8803   */\n      swap2\n      swap1\n      pop\n      jump\t// out\n        /* \"#utility.yul\":8809:9228   */\n    tag_69:\n        /* \"#utility.yul\":8975:8979   */\n      0x00\n        /* \"#utility.yul\":9013:9015   */\n      0x20\n        /* \"#utility.yul\":9002:9011   */\n      dup3\n        /* \"#utility.yul\":8998:9016   */\n      add\n        /* \"#utility.yul\":8990:9016   */\n      swap1\n      pop\n        /* \"#utility.yul\":9062:9071   */\n      dup2\n        /* \"#utility.yul\":9056:9060   */\n      dup2\n        /* \"#utility.yul\":9052:9072   */\n      sub\n        /* \"#utility.yul\":9048:9049   */\n      0x00\n        /* \"#utility.yul\":9037:9046   */\n      dup4\n        /* \"#utility.yul\":9033:9050   */\n      add\n        /* \"#utility.yul\":9026:9073   */\n      mstore\n        /* \"#utility.yul\":9090:9221   */\n      tag_206\n        /* \"#utility.yul\":9216:9220   */\n      dup2\n        /* \"#utility.yul\":9090:9221   */\n      tag_111\n      jump\t// in\n    tag_206:\n        /* \"#utility.yul\":9082:9221   */\n      swap1\n      pop\n        /* \"#utility.yul\":8809:9228   */\n      swap2\n      swap1\n      pop\n      jump\t// out\n        /* \"#utility.yul\":9234:9467   */\n    tag_71:\n        /* \"#utility.yul\":9273:9276   */\n      0x00\n        /* \"#utility.yul\":9296:9320   */\n      tag_208\n        /* \"#utility.yul\":9314:9319   */\n      dup3\n        /* \"#utility.yul\":9296:9320   */\n      tag_91\n      jump\t// in\n    tag_208:\n        /* \"#utility.yul\":9287:9320   */\n      swap2\n      pop\n        /* \"#utility.yul\":9342:9408   */\n      0xffffffffffffffffffffffffffffffffffffffffffffffffffffffffffffffff\n        /* \"#utility.yul\":9335:9340   */\n      dup3\n        /* \"#utility.yul\":9332:9409   */\n      sub\n        /* \"#utility.yul\":9329:9432   */\n      tag_209\n      jumpi\n        /* \"#utility.yul\":9412:9430   */\n      tag_210\n      tag_107\n      jump\t// in\n    tag_210:\n        /* \"#utility.yul\":9329:9432   */\n    tag_209:\n        /* \"#utility.yul\":9459:9460   */\n      0x01\n        /* \"#utility.yul\":9452:9457   */\n      dup3\n        /* \"#utility.yul\":9448:9461   */\n      add\n        /* \"#utility.yul\":9441:9461   */\n      swap1\n      pop\n        /* \"#utility.yul\":9234:9467   */\n      swap2\n      swap1\n      pop\n      jump\t// out\n        /* \"#utility.yul\":9473:9643   */\n    tag_112:\n        /* \"#utility.yul\":9613:9635   */\n      0x517565737420646f6573206e6f74206578697374000000000000000000000000\n        /* \"#utility.yul\":9609:9610   */\n      0x00\n        /* \"#utility.yul\":9601:9607   */\n      dup3\n        /* \"#utility.yul\":9597:9611   */\n      add\n        /* \"#utility.yul\":9590:9636   */\n      mstore\n        /* \"#utility.yul\":9473:9643   */\n      pop\n      jump\t// out\n        /* \"#utility.yul\":9649:10015   */\n    tag_113:\n        /* \"#utility.yul\":9791:9794   */\n      0x00\n        /* \"#utility.yul\":9812:9879   */\n      tag_213\n        /* \"#utility.yul\":9876:9878   */\n      0x14\n        /* \"#utility.yul\":9871:9874   */\n      dup4\n        /* \"#utility.yul\":9812:9879   */\n      tag_102\n      jump\t// in\n    tag_213:\n        /* \"#utility.yul\":9805:9879   */\n      swap2\n      pop\n        /* \"#utility.yul\":9888:9981   */\n      tag_214\n        /* \"#utility.yul\":9977:9980   */\n      dup3\n        /* \"#utility.yul\":9888:9981   */\n      tag_112\n      jump\t// in\n    tag_214:\n        /* \"#utility.yul\":10006:10008   */\n      0x20\n        /* \"#utility.yul\":10001:10004   */\n      dup3\n        /* \"#utility.yul\":9997:10009   */\n      add\n        /* \"#utility.yul\":9990:10009   */\n      swap1\n      pop\n        /* \"#utility.yul\":9649:10015   */\n      swap2\n      swap1\n      pop\n      jump\t// out\n        /* \"#utility.yul\":10021:10440   */\n    tag_75:\n        /* \"#utility.yul\":10187:10191   */\n      0x00\n        /* \"#utility.yul\":10225:10227   */\n      0x20\n        /* \"#utility.yul\":10214:10223   */\n      dup3\n        /* \"#utility.yul\":10210:10228   */\n      add\n        /* \"#utility.yul\":10202:10228   */\n      swap1\n      pop\n        /* \"#utility.yul\":10274:10283   */\n      dup2\n        /* \"#utility.yul\":10268:10272   */\n      dup2\n        /* \"#utility.yul\":10264:10284   */\n      sub\n        /* \"#utility.yul\":10260:10261   */\n      0x00\n        /* \"#utility.yul\":10249:10258   */\n      dup4\n        /* \"#utility.yul\":10245:10262   */\n      add\n        /* \"#utility.yul\":10238:10285   */\n      mstore\n        /* \"#utility.yul\":10302:10433   */\n      tag_216\n        /* \"#utility.yul\":10428:10432   */\n      dup2\n        /* \"#utility.yul\":10302:10433   */\n      tag_113\n      jump\t// in\n    tag_216:\n        /* \"#utility.yul\":10294:10433   */\n      swap1\n      pop\n        /* \"#utility.yul\":10021:10440   */\n      swap2\n      swap1\n      pop\n      jump\t// out\n        /* \"#utility.yul\":10446:10609   */\n    tag_114:\n        /* \"#utility.yul\":10586:10601   */\n      0x4c6576656c20746f6f206c6f7700000000000000000000000000000000000000\n        /* \"#utility.yul\":10582:10583   */\n      0x00\n        /* \"#utility.yul\":10574:10580   */\n      dup3\n        /* \"#utility.yul\":10570:10584   */\n      add\n        /* \"#utility.yul\":10563:10602   */\n      mstore\n        /* \"#utility.yul\":10446:10609   */\n      pop\n      jump\t// out\n        /* \"#utility.yul\":10615:10981   */\n    tag_115:\n        /* \"#utility.yul\":10757:10760   */\n      0x00\n        /* \"#utility.yul\":10778:10845   */\n      tag_219\n        /* \"#utility.yul\":10842:10844   */\n      0x0d\n        /* \"#utility.yul\":10837:10840   */\n      dup4\n        /* \"#utility.yul\":10778:10845   */\n      tag_102\n      jump\t// in\n    tag_219:\n        /* \"#utility.yul\":10771:10845   */\n      swap2\n      pop\n        /* \"#utility.yul\":10854:10947   */\n      tag_220\n        /* \"#utility.yul\":10943:10946   */\n      dup3\n        /* \"#utility.yul\":10854:10947   */\n      tag_114\n      jump\t// in\n    tag_220:\n        /* \"#utility.yul\":10972:10974   */\n      0x20\n        /* \"#utility.yul\":10967:10970   */\n      dup3\n        /* \"#utility.yul\":10963:10975   */\n      add\n        /* \"#utility.yul\":10956:10975   */\n      swap1\n      pop\n        /* \"#utility.yul\":10615:10981   */\n      swap2\n      swap1\n      pop\n      jump\t// out\n        /* \"#utility.yul\":10987:11406   */\n    tag_81:\n        /* \"#utility.yul\":11153:11157   */\n      0x00\n        /* \"#utility.yul\":11191:11193   */\n      0x20\n        /* \"#utility.yul\":11180:11189   */\n      dup3\n        /* \"#utility.yul\":11176:11194   */\n      add\n        /* \"#utility.yul\":11168:11194   */\n      swap1\n      pop\n        /* \"#utility.yul\":11240:11249   */\n      dup2\n        /* \"#utility.yul\":11234:11238   */\n      dup2\n        /* \"#utility.yul\":11230:11250   */\n      sub\n        /* \"#utility.yul\":11226:11227   */\n      0x00\n        /* \"#utility.yul\":11215:11224   */\n      dup4\n        /* \"#utility.yul\":11211:11228   */\n      add\n        /* \"#utility.yul\":11204:11251   */\n      mstore\n        /* \"#utility.yul\":11268:11399   */\n      tag_222\n        /* \"#utility.yul\":11394:11398   */\n      dup2\n        /* \"#utility.yul\":11268:11399   */\n      tag_115\n      jump\t// in\n    tag_222:\n        /* \"#utility.yul\":11260:11399   */\n      swap1\n      pop\n        /* \"#utility.yul\":10987:11406   */\n      swap2\n      swap1\n      pop\n      jump\t// out\n        /* \"#utility.yul\":11412:11583   */\n    tag_116:\n        /* \"#utility.yul\":11552:11575   */\n      0x517565737420616c726561647920737461727465640000000000000000000000\n        /* \"#utility.yul\":11548:11549   */\n      0x00\n        /* \"#utility.yul\":11540:11546   */\n      dup3\n        /* \"#utility.yul\":11536:11550   */\n      add\n        /* \"#utility.yul\":11529:11576   */\n      mstore\n        /* \"#utility.yul\":11412:11583   */\n      pop\n      jump\t// out\n        /* \"#utility.yul\":11589:11955   */\n    tag_117:\n        /* \"#utility.yul\":11731:11734   */\n      0x00\n        /* \"#utility.yul\":11752:11819   */\n      tag_225\n        /* \"#utility.yul\":11816:11818   */\n      0x15\n        /* \"#utility.yul\":11811:11814   */\n      dup4\n        /* \"#utility.yul\":11752:11819   */\n      tag_102\n      jump\t// in\n    tag_225:\n        /* \"#utility.yul\":11745:11819   */\n      swap2\n      pop\n        /* \"#utility.yul\":11828:11921   */\n      tag_226\n        /* \"#utility.yul\":11917:11920   */\n      dup3\n        /* \"#utility.yul\":11828:11921   */\n      tag_116\n      jump\t// in\n    tag_226:\n        /* \"#utility.yul\":11946:11948   */\n      0x20\n        /* \"#utility.yul\":11941:11944   */\n      dup3\n        /* \"#utility.yul\":11937:11949   */\n      add\n        /* \"#utility.yul\":11930:11949   */\n      swap1\n      pop\n        /* \"#utility.yul\":11589:11955   */\n      swap2\n      swap1\n      pop\n      jump\t// out\n        /* \"#utility.yul\":11961:12380   */\n    tag_84:\n        /* \"#utility.yul\":12127:12131   */\n      0x00\n        /* \"#utility.yul\":12165:12167   */\n      0x20\n        /* \"#utility.yul\":12154:12163   */\n      dup3\n        /* \"#utility.yul\":12150:12168   */\n      add\n        /* \"#utility.yul\":12142:12168   */\n      swap1\n      pop\n        /* \"#utility.yul\":12214:12223   */\n      dup2\n        /* \"#utility.yul\":12208:12212   */\n      dup2\n        /* \"#utility.yul\":12204:12224   */\n      sub\n        /* \"#utility.yul\":12200:12201   */\n      0x00\n        /* \"#utility.yul\":12189:12198   */\n      dup4\n        /* \"#utility.yul\":12185:12202   */\n      add\n        /* \"#utility.yul\":12178:12225   */\n      mstore\n        /* \"#utility.yul\":12242:12373   */\n      tag_228\n        /* \"#utility.yul\":12368:12372   */\n      dup2\n        /* \"#utility.yul\":12242:12373   */\n      tag_117\n      jump\t// in\n    tag_228:\n        /* \"#utility.yul\":12234:12373   */\n      swap1\n      pop\n        /* \"#utility.yul\":11961:12380   */\n      swap2\n      swap1\n      pop\n      jump\t// out\n        /* \"#utility.yul\":12386:12559   */\n    tag_118:\n        /* \"#utility.yul\":12526:12551   */\n      0x517565737420616c726561647920636f6d706c65746564000000000000000000\n        /* \"#utility.yul\":12522:12523   */\n      0x00\n        /* \"#utility.yul\":12514:12520   */\n      dup3\n        /* \"#utility.yul\":12510:12524   */\n      add\n        /* \"#utility.yul\":12503:12552   */\n      mstore\n        /* \"#utility.yul\":12386:12559   */\n      pop\n      jump\t// out\n        /* \"#utility.yul\":12565:12931   */\n    tag_119:\n        /* \"#utility.yul\":12707:12710   */\n      0x00\n        /* \"#utility.yul\":12728:12795   */\n      tag_231\n        /* \"#utility.yul\":12792:12794   */\n      0x17\n        /* \"#utility.yul\":12787:12790   */\n      dup4\n        /* \"#utility.yul\":12728:12795   */\n      tag_102\n      jump\t// in\n    tag_231:\n        /* \"#utility.yul\":12721:12795   */\n      swap2\n      pop\n        /* \"#utility.yul\":12804:12897   */\n      tag_232\n        /* \"#utility.yul\":12893:12896   */\n      dup3\n        /* \"#utility.yul\":12804:12897   */\n      tag_118\n      jump\t// in\n    tag_232:\n        /* \"#utility.yul\":12922:12924   */\n      0x20\n        /* \"#utility.yul\":12917:12920   */\n      dup3\n        /* \"#utility.yul\":12913:12925   */\n      add\n        /* \"#utility.yul\":12906:12925   */\n      swap1\n      pop\n        /* \"#utility.yul\":12565:12931   */\n      swap2\n      swap1\n      pop\n      jump\t// out\n        /* \"#utility.yul\":12937:13356   */\n    tag_87:\n        /* \"#utility.yul\":13103:13107   */\n      0x00\n        /* \"#utility.yul\":13141:13143   */\n      0x20\n        /* \"#utility.yul\":13130:13139   */\n      dup3\n        /* \"#utility.yul\":13126:13144   */\n      add\n        /* \"#utility.yul\":13118:13144   */\n      swap1\n      pop\n        /* \"#utility.yul\":13190:13199   */\n      dup2\n        /* \"#utility.yul\":13184:13188   */\n      dup2\n        /* \"#utility.yul\":13180:13200   */\n      sub\n        /* \"#utility.yul\":13176:13177   */\n      0x00\n        /* \"#utility.yul\":13165:13174   */\n      dup4\n        /* \"#utility.yul\":13161:13178   */\n      add\n        /* \"#utility.yul\":13154:13201   */\n      mstore\n        /* \"#utility.yul\":13218:13349   */\n      tag_234\n        /* \"#utility.yul\":13344:13348   */\n      dup2\n        /* \"#utility.yul\":13218:13349   */\n      tag_119\n      jump\t// in\n    tag_234:\n        /* \"#utility.yul\":13210:13349   */\n      swap1\n      pop\n        /* \"#utility.yul\":12937:13356   */\n      swap2\n      swap1\n      pop\n      jump\t// out\n\n    auxdata: 0xa26469706673582212205fb84f3c850c6d92402fbf302aae2fac278c7112c16eadaebbd045dbaabbf5a564736f6c63430008220033\n}\n",
				"bytecode": {
					"linkReferences": {},
					"object": "6080604052348015600e575f5ffd5b50335f5f6101000a81548173ffffffffffffffffffffffffffffffffffffffff021916908373ffffffffffffffffffffffffffffffffffffffff16021790555061117d8061005b5f395ff3fe608060405234801561000f575f5ffd5b5060043610610091575f3560e01c8063528be0a911610064578063528be0a91461012f5780637d71e7c51461014b5780638da5cb5b1461017b5780639e56354414610199578063d3dcff7c146101b557610091565b80631c4b774b146100955780632d9e75b9146100b157806332f932ad146100e35780635025e1a1146100ff575b5f5ffd5b6100af60048036038101906100aa9190610b18565b6101e7565b005b6100cb60048036038101906100c69190610b18565b6103ee565b6040516100da93929190610b6c565b60405180910390f35b6100fd60048036038101906100f89190610ba1565b610420565b005b61011960048036038101906101149190610c4b565b610516565b6040516101269190610c76565b60405180910390f35b61014960048036038101906101449190610b18565b61052b565b005b61016560048036038101906101609190610c4b565b6106e6565b6040516101729190610c76565b60405180910390f35b6101836106fb565b6040516101909190610c9e565b60405180910390f35b6101b360048036038101906101ae9190610b18565b61071f565b005b6101cf60048036038101906101ca9190610cb7565b610a8c565b6040516101de93929190610cf5565b60405180910390f35b60025f3373ffffffffffffffffffffffffffffffffffffffff1673ffffffffffffffffffffffffffffffffffffffff1681526020019081526020015f205f8281526020019081526020015f205f0160019054906101000a900460ff16610282576040517f08c379a000000000000000000000000000000000000000000000000000000000815260040161027990610d84565b60405180910390fd5b60025f3373ffffffffffffffffffffffffffffffffffffffff1673ffffffffffffffffffffffffffffffffffffffff1681526020019081526020015f205f8281526020019081526020015f205f0160029054906101000a900460ff161561031e576040517f08c379a000000000000000000000000000000000000000000000000000000000815260040161031590610dec565b60405180910390fd5b600160025f3373ffffffffffffffffffffffffffffffffffffffff1673ffffffffffffffffffffffffffffffffffffffff1681526020019081526020015f205f8381526020019081526020015f205f0160026101000a81548160ff02191690831515021790555060015f8281526020019081526020015f205f015460045f3373ffffffffffffffffffffffffffffffffffffffff1673ffffffffffffffffffffffffffffffffffffffff1681526020019081526020015f205f8282546103e49190610e37565b9250508190555050565b6001602052805f5260405f205f91509050805f015490806001015490806002015f9054906101000a900460ff16905083565b5f5f9054906101000a900473ffffffffffffffffffffffffffffffffffffffff1673ffffffffffffffffffffffffffffffffffffffff163373ffffffffffffffffffffffffffffffffffffffff16146104ae576040517f08c379a00000000000000000000000000000000000000000000000000000000081526004016104a590610eda565b60405180910390fd5b60405180606001604052808381526020018281526020016001151581525060015f8581526020019081526020015f205f820151815f0155602082015181600101556040820151816002015f6101000a81548160ff021916908315150217905550905050505050565b6004602052805f5260405f205f915090505481565b60025f3373ffffffffffffffffffffffffffffffffffffffff1673ffffffffffffffffffffffffffffffffffffffff1681526020019081526020015f205f8281526020019081526020015f205f015f9054906101000a900460ff166105c5576040517f08c379a00000000000000000000000000000000000000000000000000000000081526004016105bc90610f42565b60405180910390fd5b5f60025f3373ffffffffffffffffffffffffffffffffffffffff1673ffffffffffffffffffffffffffffffffffffffff1681526020019081526020015f205f8381526020019081526020015f205f015f6101000a81548160ff021916908315150217905550600160025f3373ffffffffffffffffffffffffffffffffffffffff1673ffffffffffffffffffffffffffffffffffffffff1681526020019081526020015f205f8381526020019081526020015f205f0160016101000a81548160ff02191690831515021790555060035f3373ffffffffffffffffffffffffffffffffffffffff1673ffffffffffffffffffffffffffffffffffffffff1681526020019081526020015f205f8154809291906106de90610f60565b919050555050565b6003602052805f5260405f205f915090505481565b5f5f9054906101000a900473ffffffffffffffffffffffffffffffffffffffff1681565b60015f8281526020019081526020015f206002015f9054906101000a900460ff1661077f576040517f08c379a000000000000000000000000000000000000000000000000000000000815260040161077690610ff1565b60405180910390fd5b5f5f60035f3373ffffffffffffffffffffffffffffffffffffffff1673ffffffffffffffffffffffffffffffffffffffff1681526020019081526020015f2054146108075760035f3373ffffffffffffffffffffffffffffffffffffffff1673ffffffffffffffffffffffffffffffffffffffff1681526020019081526020015f205461080a565b60015b90505f60035f3373ffffffffffffffffffffffffffffffffffffffff1673ffffffffffffffffffffffffffffffffffffffff1681526020019081526020015f20540361089457600160035f3373ffffffffffffffffffffffffffffffffffffffff1673ffffffffffffffffffffffffffffffffffffffff1681526020019081526020015f20819055505b60015f8381526020019081526020015f20600101548110156108eb576040517f08c379a00000000000000000000000000000000000000000000000000000000081526004016108e290611059565b60405180910390fd5b60025f3373ffffffffffffffffffffffffffffffffffffffff1673ffffffffffffffffffffffffffffffffffffffff1681526020019081526020015f205f8381526020019081526020015f205f015f9054906101000a900460ff1615610986576040517f08c379a000000000000000000000000000000000000000000000000000000000815260040161097d906110c1565b60405180910390fd5b60025f3373ffffffffffffffffffffffffffffffffffffffff1673ffffffffffffffffffffffffffffffffffffffff1681526020019081526020015f205f8381526020019081526020015f205f0160019054906101000a900460ff1615610a22576040517f08c379a0000000000000000000000000000000000000000000000000000000008152600401610a1990611129565b60405180910390fd5b600160025f3373ffffffffffffffffffffffffffffffffffffffff1673ffffffffffffffffffffffffffffffffffffffff1681526020019081526020015f205f8481526020019081526020015f205f015f6101000a81548160ff0219169083151502179055505050565b6002602052815f5260405f20602052805f5260405f205f9150915050805f015f9054906101000a900460ff1690805f0160019054906101000a900460ff1690805f0160029054906101000a900460ff16905083565b5f5ffd5b5f819050919050565b610af781610ae5565b8114610b01575f5ffd5b50565b5f81359050610b1281610aee565b92915050565b5f60208284031215610b2d57610b2c610ae1565b5b5f610b3a84828501610b04565b91505092915050565b610b4c81610ae5565b82525050565b5f8115159050919050565b610b6681610b52565b82525050565b5f606082019050610b7f5f830186610b43565b610b8c6020830185610b43565b610b996040830184610b5d565b949350505050565b5f5f5f60608486031215610bb857610bb7610ae1565b5b5f610bc586828701610b04565b9350506020610bd686828701610b04565b9250506040610be786828701610b04565b9150509250925092565b5f73ffffffffffffffffffffffffffffffffffffffff82169050919050565b5f610c1a82610bf1565b9050919050565b610c2a81610c10565b8114610c34575f5ffd5b50565b5f81359050610c4581610c21565b92915050565b5f60208284031215610c6057610c5f610ae1565b5b5f610c6d84828501610c37565b91505092915050565b5f602082019050610c895f830184610b43565b92915050565b610c9881610c10565b82525050565b5f602082019050610cb15f830184610c8f565b92915050565b5f5f60408385031215610ccd57610ccc610ae1565b5b5f610cda85828601610c37565b9250506020610ceb85828601610b04565b9150509250929050565b5f606082019050610d085f830186610b5d565b610d156020830185610b5d565b610d226040830184610b5d565b949350505050565b5f82825260208201905092915050565b7f5175657374206e6f7420636f6d706c65746564000000000000000000000000005f82015250565b5f610d6e601383610d2a565b9150610d7982610d3a565b602082019050919050565b5f6020820190508181035f830152610d9b81610d62565b9050919050565b7f52657761726420616c726561647920636c61696d6564000000000000000000005f82015250565b5f610dd6601683610d2a565b9150610de182610da2565b602082019050919050565b5f6020820190508181035f830152610e0381610dca565b9050919050565b7f4e487b71000000000000000000000000000000000000000000000000000000005f52601160045260245ffd5b5f610e4182610ae5565b9150610e4c83610ae5565b9250828201905080821115610e6457610e63610e0a565b5b92915050565b7f4f6e6c79206f776e65722063616e20706572666f726d207468697320616374695f8201527f6f6e000000000000000000000000000000000000000000000000000000000000602082015250565b5f610ec4602283610d2a565b9150610ecf82610e6a565b604082019050919050565b5f6020820190508181035f830152610ef181610eb8565b9050919050565b7f5175657374206e6f7420737461727465640000000000000000000000000000005f82015250565b5f610f2c601183610d2a565b9150610f3782610ef8565b602082019050919050565b5f6020820190508181035f830152610f5981610f20565b9050919050565b5f610f6a82610ae5565b91507fffffffffffffffffffffffffffffffffffffffffffffffffffffffffffffffff8203610f9c57610f9b610e0a565b5b600182019050919050565b7f517565737420646f6573206e6f742065786973740000000000000000000000005f82015250565b5f610fdb601483610d2a565b9150610fe682610fa7565b602082019050919050565b5f6020820190508181035f83015261100881610fcf565b9050919050565b7f4c6576656c20746f6f206c6f77000000000000000000000000000000000000005f82015250565b5f611043600d83610d2a565b915061104e8261100f565b602082019050919050565b5f6020820190508181035f83015261107081611037565b9050919050565b7f517565737420616c7265616479207374617274656400000000000000000000005f82015250565b5f6110ab601583610d2a565b91506110b682611077565b602082019050919050565b5f6020820190508181035f8301526110d88161109f565b9050919050565b7f517565737420616c726561647920636f6d706c657465640000000000000000005f82015250565b5f611113601783610d2a565b915061111e826110df565b602082019050919050565b5f6020820190508181035f83015261114081611107565b905091905056fea26469706673582212205fb84f3c850c6d92402fbf302aae2fac278c7112c16eadaebbd045dbaabbf5a564736f6c63430008220033",
					"opcodes": "PUSH1 0x80 PUSH1 0x40 MSTORE CALLVALUE DUP1 ISZERO PUSH1 0xE JUMPI PUSH0 PUSH0 REVERT JUMPDEST POP CALLER PUSH0 PUSH0 PUSH2 0x100 EXP DUP2 SLOAD DUP2 PUSH20 0xFFFFFFFFFFFFFFFFFFFFFFFFFFFFFFFFFFFFFFFF MUL NOT AND SWAP1 DUP4 PUSH20 0xFFFFFFFFFFFFFFFFFFFFFFFFFFFFFFFFFFFFFFFF AND MUL OR SWAP1 SSTORE POP PUSH2 0x117D DUP1 PUSH2 0x5B PUSH0 CODECOPY PUSH0 RETURN INVALID PUSH1 0x80 PUSH1 0x40 MSTORE CALLVALUE DUP1 ISZERO PUSH2 0xF JUMPI PUSH0 PUSH0 REVERT JUMPDEST POP PUSH1 0x4 CALLDATASIZE LT PUSH2 0x91 JUMPI PUSH0 CALLDATALOAD PUSH1 0xE0 SHR DUP1 PUSH4 0x528BE0A9 GT PUSH2 0x64 JUMPI DUP1 PUSH4 0x528BE0A9 EQ PUSH2 0x12F JUMPI DUP1 PUSH4 0x7D71E7C5 EQ PUSH2 0x14B JUMPI DUP1 PUSH4 0x8DA5CB5B EQ PUSH2 0x17B JUMPI DUP1 PUSH4 0x9E563544 EQ PUSH2 0x199 JUMPI DUP1 PUSH4 0xD3DCFF7C EQ PUSH2 0x1B5 JUMPI PUSH2 0x91 JUMP JUMPDEST DUP1 PUSH4 0x1C4B774B EQ PUSH2 0x95 JUMPI DUP1 PUSH4 0x2D9E75B9 EQ PUSH2 0xB1 JUMPI DUP1 PUSH4 0x32F932AD EQ PUSH2 0xE3 JUMPI DUP1 PUSH4 0x5025E1A1 EQ PUSH2 0xFF JUMPI JUMPDEST PUSH0 PUSH0 REVERT JUMPDEST PUSH2 0xAF PUSH1 0x4 DUP1 CALLDATASIZE SUB DUP2 ADD SWAP1 PUSH2 0xAA SWAP2 SWAP1 PUSH2 0xB18 JUMP JUMPDEST PUSH2 0x1E7 JUMP JUMPDEST STOP JUMPDEST PUSH2 0xCB PUSH1 0x4 DUP1 CALLDATASIZE SUB DUP2 ADD SWAP1 PUSH2 0xC6 SWAP2 SWAP1 PUSH2 0xB18 JUMP JUMPDEST PUSH2 0x3EE JUMP JUMPDEST PUSH1 0x40 MLOAD PUSH2 0xDA SWAP4 SWAP3 SWAP2 SWAP1 PUSH2 0xB6C JUMP JUMPDEST PUSH1 0x40 MLOAD DUP1 SWAP2 SUB SWAP1 RETURN JUMPDEST PUSH2 0xFD PUSH1 0x4 DUP1 CALLDATASIZE SUB DUP2 ADD SWAP1 PUSH2 0xF8 SWAP2 SWAP1 PUSH2 0xBA1 JUMP JUMPDEST PUSH2 0x420 JUMP JUMPDEST STOP JUMPDEST PUSH2 0x119 PUSH1 0x4 DUP1 CALLDATASIZE SUB DUP2 ADD SWAP1 PUSH2 0x114 SWAP2 SWAP1 PUSH2 0xC4B JUMP JUMPDEST PUSH2 0x516 JUMP JUMPDEST PUSH1 0x40 MLOAD PUSH2 0x126 SWAP2 SWAP1 PUSH2 0xC76 JUMP JUMPDEST PUSH1 0x40 MLOAD DUP1 SWAP2 SUB SWAP1 RETURN JUMPDEST PUSH2 0x149 PUSH1 0x4 DUP1 CALLDATASIZE SUB DUP2 ADD SWAP1 PUSH2 0x144 SWAP2 SWAP1 PUSH2 0xB18 JUMP JUMPDEST PUSH2 0x52B JUMP JUMPDEST STOP JUMPDEST PUSH2 0x165 PUSH1 0x4 DUP1 CALLDATASIZE SUB DUP2 ADD SWAP1 PUSH2 0x160 SWAP2 SWAP1 PUSH2 0xC4B JUMP JUMPDEST PUSH2 0x6E6 JUMP JUMPDEST PUSH1 0x40 MLOAD PUSH2 0x172 SWAP2 SWAP1 PUSH2 0xC76 JUMP JUMPDEST PUSH1 0x40 MLOAD DUP1 SWAP2 SUB SWAP1 RETURN JUMPDEST PUSH2 0x183 PUSH2 0x6FB JUMP JUMPDEST PUSH1 0x40 MLOAD PUSH2 0x190 SWAP2 SWAP1 PUSH2 0xC9E JUMP JUMPDEST PUSH1 0x40 MLOAD DUP1 SWAP2 SUB SWAP1 RETURN JUMPDEST PUSH2 0x1B3 PUSH1 0x4 DUP1 CALLDATASIZE SUB DUP2 ADD SWAP1 PUSH2 0x1AE SWAP2 SWAP1 PUSH2 0xB18 JUMP JUMPDEST PUSH2 0x71F JUMP JUMPDEST STOP JUMPDEST PUSH2 0x1CF PUSH1 0x4 DUP1 CALLDATASIZE SUB DUP2 ADD SWAP1 PUSH2 0x1CA SWAP2 SWAP1 PUSH2 0xCB7 JUMP JUMPDEST PUSH2 0xA8C JUMP JUMPDEST PUSH1 0x40 MLOAD PUSH2 0x1DE SWAP4 SWAP3 SWAP2 SWAP1 PUSH2 0xCF5 JUMP JUMPDEST PUSH1 0x40 MLOAD DUP1 SWAP2 SUB SWAP1 RETURN JUMPDEST PUSH1 0x2 PUSH0 CALLER PUSH20 0xFFFFFFFFFFFFFFFFFFFFFFFFFFFFFFFFFFFFFFFF AND PUSH20 0xFFFFFFFFFFFFFFFFFFFFFFFFFFFFFFFFFFFFFFFF AND DUP2 MSTORE PUSH1 0x20 ADD SWAP1 DUP2 MSTORE PUSH1 0x20 ADD PUSH0 KECCAK256 PUSH0 DUP3 DUP2 MSTORE PUSH1 0x20 ADD SWAP1 DUP2 MSTORE PUSH1 0x20 ADD PUSH0 KECCAK256 PUSH0 ADD PUSH1 0x1 SWAP1 SLOAD SWAP1 PUSH2 0x100 EXP SWAP1 DIV PUSH1 0xFF AND PUSH2 0x282 JUMPI PUSH1 0x40 MLOAD PUSH32 0x8C379A000000000000000000000000000000000000000000000000000000000 DUP2 MSTORE PUSH1 0x4 ADD PUSH2 0x279 SWAP1 PUSH2 0xD84 JUMP JUMPDEST PUSH1 0x40 MLOAD DUP1 SWAP2 SUB SWAP1 REVERT JUMPDEST PUSH1 0x2 PUSH0 CALLER PUSH20 0xFFFFFFFFFFFFFFFFFFFFFFFFFFFFFFFFFFFFFFFF AND PUSH20 0xFFFFFFFFFFFFFFFFFFFFFFFFFFFFFFFFFFFFFFFF AND DUP2 MSTORE PUSH1 0x20 ADD SWAP1 DUP2 MSTORE PUSH1 0x20 ADD PUSH0 KECCAK256 PUSH0 DUP3 DUP2 MSTORE PUSH1 0x20 ADD SWAP1 DUP2 MSTORE PUSH1 0x20 ADD PUSH0 KECCAK256 PUSH0 ADD PUSH1 0x2 SWAP1 SLOAD SWAP1 PUSH2 0x100 EXP SWAP1 DIV PUSH1 0xFF AND ISZERO PUSH2 0x31E JUMPI PUSH1 0x40 MLOAD PUSH32 0x8C379A000000000000000000000000000000000000000000000000000000000 DUP2 MSTORE PUSH1 0x4 ADD PUSH2 0x315 SWAP1 PUSH2 0xDEC JUMP JUMPDEST PUSH1 0x40 MLOAD DUP1 SWAP2 SUB SWAP1 REVERT JUMPDEST PUSH1 0x1 PUSH1 0x2 PUSH0 CALLER PUSH20 0xFFFFFFFFFFFFFFFFFFFFFFFFFFFFFFFFFFFFFFFF AND PUSH20 0xFFFFFFFFFFFFFFFFFFFFFFFFFFFFFFFFFFFFFFFF AND DUP2 MSTORE PUSH1 0x20 ADD SWAP1 DUP2 MSTORE PUSH1 0x20 ADD PUSH0 KECCAK256 PUSH0 DUP4 DUP2 MSTORE PUSH1 0x20 ADD SWAP1 DUP2 MSTORE PUSH1 0x20 ADD PUSH0 KECCAK256 PUSH0 ADD PUSH1 0x2 PUSH2 0x100 EXP DUP2 SLOAD DUP2 PUSH1 0xFF MUL NOT AND SWAP1 DUP4 ISZERO ISZERO MUL OR SWAP1 SSTORE POP PUSH1 0x1 PUSH0 DUP3 DUP2 MSTORE PUSH1 0x20 ADD SWAP1 DUP2 MSTORE PUSH1 0x20 ADD PUSH0 KECCAK256 PUSH0 ADD SLOAD PUSH1 0x4 PUSH0 CALLER PUSH20 0xFFFFFFFFFFFFFFFFFFFFFFFFFFFFFFFFFFFFFFFF AND PUSH20 0xFFFFFFFFFFFFFFFFFFFFFFFFFFFFFFFFFFFFFFFF AND DUP2 MSTORE PUSH1 0x20 ADD SWAP1 DUP2 MSTORE PUSH1 0x20 ADD PUSH0 KECCAK256 PUSH0 DUP3 DUP3 SLOAD PUSH2 0x3E4 SWAP2 SWAP1 PUSH2 0xE37 JUMP JUMPDEST SWAP3 POP POP DUP2 SWAP1 SSTORE POP POP JUMP JUMPDEST PUSH1 0x1 PUSH1 0x20 MSTORE DUP1 PUSH0 MSTORE PUSH1 0x40 PUSH0 KECCAK256 PUSH0 SWAP2 POP SWAP1 POP DUP1 PUSH0 ADD SLOAD SWAP1 DUP1 PUSH1 0x1 ADD SLOAD SWAP1 DUP1 PUSH1 0x2 ADD PUSH0 SWAP1 SLOAD SWAP1 PUSH2 0x100 EXP SWAP1 DIV PUSH1 0xFF AND SWAP1 POP DUP4 JUMP JUMPDEST PUSH0 PUSH0 SWAP1 SLOAD SWAP1 PUSH2 0x100 EXP SWAP1 DIV PUSH20 0xFFFFFFFFFFFFFFFFFFFFFFFFFFFFFFFFFFFFFFFF AND PUSH20 0xFFFFFFFFFFFFFFFFFFFFFFFFFFFFFFFFFFFFFFFF AND CALLER PUSH20 0xFFFFFFFFFFFFFFFFFFFFFFFFFFFFFFFFFFFFFFFF AND EQ PUSH2 0x4AE JUMPI PUSH1 0x40 MLOAD PUSH32 0x8C379A000000000000000000000000000000000000000000000000000000000 DUP2 MSTORE PUSH1 0x4 ADD PUSH2 0x4A5 SWAP1 PUSH2 0xEDA JUMP JUMPDEST PUSH1 0x40 MLOAD DUP1 SWAP2 SUB SWAP1 REVERT JUMPDEST PUSH1 0x40 MLOAD DUP1 PUSH1 0x60 ADD PUSH1 0x40 MSTORE DUP1 DUP4 DUP2 MSTORE PUSH1 0x20 ADD DUP3 DUP2 MSTORE PUSH1 0x20 ADD PUSH1 0x1 ISZERO ISZERO DUP2 MSTORE POP PUSH1 0x1 PUSH0 DUP6 DUP2 MSTORE PUSH1 0x20 ADD SWAP1 DUP2 MSTORE PUSH1 0x20 ADD PUSH0 KECCAK256 PUSH0 DUP3 ADD MLOAD DUP2 PUSH0 ADD SSTORE PUSH1 0x20 DUP3 ADD MLOAD DUP2 PUSH1 0x1 ADD SSTORE PUSH1 0x40 DUP3 ADD MLOAD DUP2 PUSH1 0x2 ADD PUSH0 PUSH2 0x100 EXP DUP2 SLOAD DUP2 PUSH1 0xFF MUL NOT AND SWAP1 DUP4 ISZERO ISZERO MUL OR SWAP1 SSTORE POP SWAP1 POP POP POP POP POP JUMP JUMPDEST PUSH1 0x4 PUSH1 0x20 MSTORE DUP1 PUSH0 MSTORE PUSH1 0x40 PUSH0 KECCAK256 PUSH0 SWAP2 POP SWAP1 POP SLOAD DUP2 JUMP JUMPDEST PUSH1 0x2 PUSH0 CALLER PUSH20 0xFFFFFFFFFFFFFFFFFFFFFFFFFFFFFFFFFFFFFFFF AND PUSH20 0xFFFFFFFFFFFFFFFFFFFFFFFFFFFFFFFFFFFFFFFF AND DUP2 MSTORE PUSH1 0x20 ADD SWAP1 DUP2 MSTORE PUSH1 0x20 ADD PUSH0 KECCAK256 PUSH0 DUP3 DUP2 MSTORE PUSH1 0x20 ADD SWAP1 DUP2 MSTORE PUSH1 0x20 ADD PUSH0 KECCAK256 PUSH0 ADD PUSH0 SWAP1 SLOAD SWAP1 PUSH2 0x100 EXP SWAP1 DIV PUSH1 0xFF AND PUSH2 0x5C5 JUMPI PUSH1 0x40 MLOAD PUSH32 0x8C379A000000000000000000000000000000000000000000000000000000000 DUP2 MSTORE PUSH1 0x4 ADD PUSH2 0x5BC SWAP1 PUSH2 0xF42 JUMP JUMPDEST PUSH1 0x40 MLOAD DUP1 SWAP2 SUB SWAP1 REVERT JUMPDEST PUSH0 PUSH1 0x2 PUSH0 CALLER PUSH20 0xFFFFFFFFFFFFFFFFFFFFFFFFFFFFFFFFFFFFFFFF AND PUSH20 0xFFFFFFFFFFFFFFFFFFFFFFFFFFFFFFFFFFFFFFFF AND DUP2 MSTORE PUSH1 0x20 ADD SWAP1 DUP2 MSTORE PUSH1 0x20 ADD PUSH0 KECCAK256 PUSH0 DUP4 DUP2 MSTORE PUSH1 0x20 ADD SWAP1 DUP2 MSTORE PUSH1 0x20 ADD PUSH0 KECCAK256 PUSH0 ADD PUSH0 PUSH2 0x100 EXP DUP2 SLOAD DUP2 PUSH1 0xFF MUL NOT AND SWAP1 DUP4 ISZERO ISZERO MUL OR SWAP1 SSTORE POP PUSH1 0x1 PUSH1 0x2 PUSH0 CALLER PUSH20 0xFFFFFFFFFFFFFFFFFFFFFFFFFFFFFFFFFFFFFFFF AND PUSH20 0xFFFFFFFFFFFFFFFFFFFFFFFFFFFFFFFFFFFFFFFF AND DUP2 MSTORE PUSH1 0x20 ADD SWAP1 DUP2 MSTORE PUSH1 0x20 ADD PUSH0 KECCAK256 PUSH0 DUP4 DUP2 MSTORE PUSH1 0x20 ADD SWAP1 DUP2 MSTORE PUSH1 0x20 ADD PUSH0 KECCAK256 PUSH0 ADD PUSH1 0x1 PUSH2 0x100 EXP DUP2 SLOAD DUP2 PUSH1 0xFF MUL NOT AND SWAP1 DUP4 ISZERO ISZERO MUL OR SWAP1 SSTORE POP PUSH1 0x3 PUSH0 CALLER PUSH20 0xFFFFFFFFFFFFFFFFFFFFFFFFFFFFFFFFFFFFFFFF AND PUSH20 0xFFFFFFFFFFFFFFFFFFFFFFFFFFFFFFFFFFFFFFFF AND DUP2 MSTORE PUSH1 0x20 ADD SWAP1 DUP2 MSTORE PUSH1 0x20 ADD PUSH0 KECCAK256 PUSH0 DUP2 SLOAD DUP1 SWAP3 SWAP2 SWAP1 PUSH2 0x6DE SWAP1 PUSH2 0xF60 JUMP JUMPDEST SWAP2 SWAP1 POP SSTORE POP POP JUMP JUMPDEST PUSH1 0x3 PUSH1 0x20 MSTORE DUP1 PUSH0 MSTORE PUSH1 0x40 PUSH0 KECCAK256 PUSH0 SWAP2 POP SWAP1 POP SLOAD DUP2 JUMP JUMPDEST PUSH0 PUSH0 SWAP1 SLOAD SWAP1 PUSH2 0x100 EXP SWAP1 DIV PUSH20 0xFFFFFFFFFFFFFFFFFFFFFFFFFFFFFFFFFFFFFFFF AND DUP2 JUMP JUMPDEST PUSH1 0x1 PUSH0 DUP3 DUP2 MSTORE PUSH1 0x20 ADD SWAP1 DUP2 MSTORE PUSH1 0x20 ADD PUSH0 KECCAK256 PUSH1 0x2 ADD PUSH0 SWAP1 SLOAD SWAP1 PUSH2 0x100 EXP SWAP1 DIV PUSH1 0xFF AND PUSH2 0x77F JUMPI PUSH1 0x40 MLOAD PUSH32 0x8C379A000000000000000000000000000000000000000000000000000000000 DUP2 MSTORE PUSH1 0x4 ADD PUSH2 0x776 SWAP1 PUSH2 0xFF1 JUMP JUMPDEST PUSH1 0x40 MLOAD DUP1 SWAP2 SUB SWAP1 REVERT JUMPDEST PUSH0 PUSH0 PUSH1 0x3 PUSH0 CALLER PUSH20 0xFFFFFFFFFFFFFFFFFFFFFFFFFFFFFFFFFFFFFFFF AND PUSH20 0xFFFFFFFFFFFFFFFFFFFFFFFFFFFFFFFFFFFFFFFF AND DUP2 MSTORE PUSH1 0x20 ADD SWAP1 DUP2 MSTORE PUSH1 0x20 ADD PUSH0 KECCAK256 SLOAD EQ PUSH2 0x807 JUMPI PUSH1 0x3 PUSH0 CALLER PUSH20 0xFFFFFFFFFFFFFFFFFFFFFFFFFFFFFFFFFFFFFFFF AND PUSH20 0xFFFFFFFFFFFFFFFFFFFFFFFFFFFFFFFFFFFFFFFF AND DUP2 MSTORE PUSH1 0x20 ADD SWAP1 DUP2 MSTORE PUSH1 0x20 ADD PUSH0 KECCAK256 SLOAD PUSH2 0x80A JUMP JUMPDEST PUSH1 0x1 JUMPDEST SWAP1 POP PUSH0 PUSH1 0x3 PUSH0 CALLER PUSH20 0xFFFFFFFFFFFFFFFFFFFFFFFFFFFFFFFFFFFFFFFF AND PUSH20 0xFFFFFFFFFFFFFFFFFFFFFFFFFFFFFFFFFFFFFFFF AND DUP2 MSTORE PUSH1 0x20 ADD SWAP1 DUP2 MSTORE PUSH1 0x20 ADD PUSH0 KECCAK256 SLOAD SUB PUSH2 0x894 JUMPI PUSH1 0x1 PUSH1 0x3 PUSH0 CALLER PUSH20 0xFFFFFFFFFFFFFFFFFFFFFFFFFFFFFFFFFFFFFFFF AND PUSH20 0xFFFFFFFFFFFFFFFFFFFFFFFFFFFFFFFFFFFFFFFF AND DUP2 MSTORE PUSH1 0x20 ADD SWAP1 DUP2 MSTORE PUSH1 0x20 ADD PUSH0 KECCAK256 DUP2 SWAP1 SSTORE POP JUMPDEST PUSH1 0x1 PUSH0 DUP4 DUP2 MSTORE PUSH1 0x20 ADD SWAP1 DUP2 MSTORE PUSH1 0x20 ADD PUSH0 KECCAK256 PUSH1 0x1 ADD SLOAD DUP2 LT ISZERO PUSH2 0x8EB JUMPI PUSH1 0x40 MLOAD PUSH32 0x8C379A000000000000000000000000000000000000000000000000000000000 DUP2 MSTORE PUSH1 0x4 ADD PUSH2 0x8E2 SWAP1 PUSH2 0x1059 JUMP JUMPDEST PUSH1 0x40 MLOAD DUP1 SWAP2 SUB SWAP1 REVERT JUMPDEST PUSH1 0x2 PUSH0 CALLER PUSH20 0xFFFFFFFFFFFFFFFFFFFFFFFFFFFFFFFFFFFFFFFF AND PUSH20 0xFFFFFFFFFFFFFFFFFFFFFFFFFFFFFFFFFFFFFFFF AND DUP2 MSTORE PUSH1 0x20 ADD SWAP1 DUP2 MSTORE PUSH1 0x20 ADD PUSH0 KECCAK256 PUSH0 DUP4 DUP2 MSTORE PUSH1 0x20 ADD SWAP1 DUP2 MSTORE PUSH1 0x20 ADD PUSH0 KECCAK256 PUSH0 ADD PUSH0 SWAP1 SLOAD SWAP1 PUSH2 0x100 EXP SWAP1 DIV PUSH1 0xFF AND ISZERO PUSH2 0x986 JUMPI PUSH1 0x40 MLOAD PUSH32 0x8C379A000000000000000000000000000000000000000000000000000000000 DUP2 MSTORE PUSH1 0x4 ADD PUSH2 0x97D SWAP1 PUSH2 0x10C1 JUMP JUMPDEST PUSH1 0x40 MLOAD DUP1 SWAP2 SUB SWAP1 REVERT JUMPDEST PUSH1 0x2 PUSH0 CALLER PUSH20 0xFFFFFFFFFFFFFFFFFFFFFFFFFFFFFFFFFFFFFFFF AND PUSH20 0xFFFFFFFFFFFFFFFFFFFFFFFFFFFFFFFFFFFFFFFF AND DUP2 MSTORE PUSH1 0x20 ADD SWAP1 DUP2 MSTORE PUSH1 0x20 ADD PUSH0 KECCAK256 PUSH0 DUP4 DUP2 MSTORE PUSH1 0x20 ADD SWAP1 DUP2 MSTORE PUSH1 0x20 ADD PUSH0 KECCAK256 PUSH0 ADD PUSH1 0x1 SWAP1 SLOAD SWAP1 PUSH2 0x100 EXP SWAP1 DIV PUSH1 0xFF AND ISZERO PUSH2 0xA22 JUMPI PUSH1 0x40 MLOAD PUSH32 0x8C379A000000000000000000000000000000000000000000000000000000000 DUP2 MSTORE PUSH1 0x4 ADD PUSH2 0xA19 SWAP1 PUSH2 0x1129 JUMP JUMPDEST PUSH1 0x40 MLOAD DUP1 SWAP2 SUB SWAP1 REVERT JUMPDEST PUSH1 0x1 PUSH1 0x2 PUSH0 CALLER PUSH20 0xFFFFFFFFFFFFFFFFFFFFFFFFFFFFFFFFFFFFFFFF AND PUSH20 0xFFFFFFFFFFFFFFFFFFFFFFFFFFFFFFFFFFFFFFFF AND DUP2 MSTORE PUSH1 0x20 ADD SWAP1 DUP2 MSTORE PUSH1 0x20 ADD PUSH0 KECCAK256 PUSH0 DUP5 DUP2 MSTORE PUSH1 0x20 ADD SWAP1 DUP2 MSTORE PUSH1 0x20 ADD PUSH0 KECCAK256 PUSH0 ADD PUSH0 PUSH2 0x100 EXP DUP2 SLOAD DUP2 PUSH1 0xFF MUL NOT AND SWAP1 DUP4 ISZERO ISZERO MUL OR SWAP1 SSTORE POP POP POP JUMP JUMPDEST PUSH1 0x2 PUSH1 0x20 MSTORE DUP2 PUSH0 MSTORE PUSH1 0x40 PUSH0 KECCAK256 PUSH1 0x20 MSTORE DUP1 PUSH0 MSTORE PUSH1 0x40 PUSH0 KECCAK256 PUSH0 SWAP2 POP SWAP2 POP POP DUP1 PUSH0 ADD PUSH0 SWAP1 SLOAD SWAP1 PUSH2 0x100 EXP SWAP1 DIV PUSH1 0xFF AND SWAP1 DUP1 PUSH0 ADD PUSH1 0x1 SWAP1 SLOAD SWAP1 PUSH2 0x100 EXP SWAP1 DIV PUSH1 0xFF AND SWAP1 DUP1 PUSH0 ADD PUSH1 0x2 SWAP1 SLOAD SWAP1 PUSH2 0x100 EXP SWAP1 DIV PUSH1 0xFF AND SWAP1 POP DUP4 JUMP JUMPDEST PUSH0 PUSH0 REVERT JUMPDEST PUSH0 DUP2 SWAP1 POP SWAP2 SWAP1 POP JUMP JUMPDEST PUSH2 0xAF7 DUP2 PUSH2 0xAE5 JUMP JUMPDEST DUP2 EQ PUSH2 0xB01 JUMPI PUSH0 PUSH0 REVERT JUMPDEST POP JUMP JUMPDEST PUSH0 DUP2 CALLDATALOAD SWAP1 POP PUSH2 0xB12 DUP2 PUSH2 0xAEE JUMP JUMPDEST SWAP3 SWAP2 POP POP JUMP JUMPDEST PUSH0 PUSH1 0x20 DUP3 DUP5 SUB SLT ISZERO PUSH2 0xB2D JUMPI PUSH2 0xB2C PUSH2 0xAE1 JUMP JUMPDEST JUMPDEST PUSH0 PUSH2 0xB3A DUP5 DUP3 DUP6 ADD PUSH2 0xB04 JUMP JUMPDEST SWAP2 POP POP SWAP3 SWAP2 POP POP JUMP JUMPDEST PUSH2 0xB4C DUP2 PUSH2 0xAE5 JUMP JUMPDEST DUP3 MSTORE POP POP JUMP JUMPDEST PUSH0 DUP2 ISZERO ISZERO SWAP1 POP SWAP2 SWAP1 POP JUMP JUMPDEST PUSH2 0xB66 DUP2 PUSH2 0xB52 JUMP JUMPDEST DUP3 MSTORE POP POP JUMP JUMPDEST PUSH0 PUSH1 0x60 DUP3 ADD SWAP1 POP PUSH2 0xB7F PUSH0 DUP4 ADD DUP7 PUSH2 0xB43 JUMP JUMPDEST PUSH2 0xB8C PUSH1 0x20 DUP4 ADD DUP6 PUSH2 0xB43 JUMP JUMPDEST PUSH2 0xB99 PUSH1 0x40 DUP4 ADD DUP5 PUSH2 0xB5D JUMP JUMPDEST SWAP5 SWAP4 POP POP POP POP JUMP JUMPDEST PUSH0 PUSH0 PUSH0 PUSH1 0x60 DUP5 DUP7 SUB SLT ISZERO PUSH2 0xBB8 JUMPI PUSH2 0xBB7 PUSH2 0xAE1 JUMP JUMPDEST JUMPDEST PUSH0 PUSH2 0xBC5 DUP7 DUP3 DUP8 ADD PUSH2 0xB04 JUMP JUMPDEST SWAP4 POP POP PUSH1 0x20 PUSH2 0xBD6 DUP7 DUP3 DUP8 ADD PUSH2 0xB04 JUMP JUMPDEST SWAP3 POP POP PUSH1 0x40 PUSH2 0xBE7 DUP7 DUP3 DUP8 ADD PUSH2 0xB04 JUMP JUMPDEST SWAP2 POP POP SWAP3 POP SWAP3 POP SWAP3 JUMP JUMPDEST PUSH0 PUSH20 0xFFFFFFFFFFFFFFFFFFFFFFFFFFFFFFFFFFFFFFFF DUP3 AND SWAP1 POP SWAP2 SWAP1 POP JUMP JUMPDEST PUSH0 PUSH2 0xC1A DUP3 PUSH2 0xBF1 JUMP JUMPDEST SWAP1 POP SWAP2 SWAP1 POP JUMP JUMPDEST PUSH2 0xC2A DUP2 PUSH2 0xC10 JUMP JUMPDEST DUP2 EQ PUSH2 0xC34 JUMPI PUSH0 PUSH0 REVERT JUMPDEST POP JUMP JUMPDEST PUSH0 DUP2 CALLDATALOAD SWAP1 POP PUSH2 0xC45 DUP2 PUSH2 0xC21 JUMP JUMPDEST SWAP3 SWAP2 POP POP JUMP JUMPDEST PUSH0 PUSH1 0x20 DUP3 DUP5 SUB SLT ISZERO PUSH2 0xC60 JUMPI PUSH2 0xC5F PUSH2 0xAE1 JUMP JUMPDEST JUMPDEST PUSH0 PUSH2 0xC6D DUP5 DUP3 DUP6 ADD PUSH2 0xC37 JUMP JUMPDEST SWAP2 POP POP SWAP3 SWAP2 POP POP JUMP JUMPDEST PUSH0 PUSH1 0x20 DUP3 ADD SWAP1 POP PUSH2 0xC89 PUSH0 DUP4 ADD DUP5 PUSH2 0xB43 JUMP JUMPDEST SWAP3 SWAP2 POP POP JUMP JUMPDEST PUSH2 0xC98 DUP2 PUSH2 0xC10 JUMP JUMPDEST DUP3 MSTORE POP POP JUMP JUMPDEST PUSH0 PUSH1 0x20 DUP3 ADD SWAP1 POP PUSH2 0xCB1 PUSH0 DUP4 ADD DUP5 PUSH2 0xC8F JUMP JUMPDEST SWAP3 SWAP2 POP POP JUMP JUMPDEST PUSH0 PUSH0 PUSH1 0x40 DUP4 DUP6 SUB SLT ISZERO PUSH2 0xCCD JUMPI PUSH2 0xCCC PUSH2 0xAE1 JUMP JUMPDEST JUMPDEST PUSH0 PUSH2 0xCDA DUP6 DUP3 DUP7 ADD PUSH2 0xC37 JUMP JUMPDEST SWAP3 POP POP PUSH1 0x20 PUSH2 0xCEB DUP6 DUP3 DUP7 ADD PUSH2 0xB04 JUMP JUMPDEST SWAP2 POP POP SWAP3 POP SWAP3 SWAP1 POP JUMP JUMPDEST PUSH0 PUSH1 0x60 DUP3 ADD SWAP1 POP PUSH2 0xD08 PUSH0 DUP4 ADD DUP7 PUSH2 0xB5D JUMP JUMPDEST PUSH2 0xD15 PUSH1 0x20 DUP4 ADD DUP6 PUSH2 0xB5D JUMP JUMPDEST PUSH2 0xD22 PUSH1 0x40 DUP4 ADD DUP5 PUSH2 0xB5D JUMP JUMPDEST SWAP5 SWAP4 POP POP POP POP JUMP JUMPDEST PUSH0 DUP3 DUP3 MSTORE PUSH1 0x20 DUP3 ADD SWAP1 POP SWAP3 SWAP2 POP POP JUMP JUMPDEST PUSH32 0x5175657374206E6F7420636F6D706C6574656400000000000000000000000000 PUSH0 DUP3 ADD MSTORE POP JUMP JUMPDEST PUSH0 PUSH2 0xD6E PUSH1 0x13 DUP4 PUSH2 0xD2A JUMP JUMPDEST SWAP2 POP PUSH2 0xD79 DUP3 PUSH2 0xD3A JUMP JUMPDEST PUSH1 0x20 DUP3 ADD SWAP1 POP SWAP2 SWAP1 POP JUMP JUMPDEST PUSH0 PUSH1 0x20 DUP3 ADD SWAP1 POP DUP2 DUP2 SUB PUSH0 DUP4 ADD MSTORE PUSH2 0xD9B DUP2 PUSH2 0xD62 JUMP JUMPDEST SWAP1 POP SWAP2 SWAP1 POP JUMP JUMPDEST PUSH32 0x52657761726420616C726561647920636C61696D656400000000000000000000 PUSH0 DUP3 ADD MSTORE POP JUMP JUMPDEST PUSH0 PUSH2 0xDD6 PUSH1 0x16 DUP4 PUSH2 0xD2A JUMP JUMPDEST SWAP2 POP PUSH2 0xDE1 DUP3 PUSH2 0xDA2 JUMP JUMPDEST PUSH1 0x20 DUP3 ADD SWAP1 POP SWAP2 SWAP1 POP JUMP JUMPDEST PUSH0 PUSH1 0x20 DUP3 ADD SWAP1 POP DUP2 DUP2 SUB PUSH0 DUP4 ADD MSTORE PUSH2 0xE03 DUP2 PUSH2 0xDCA JUMP JUMPDEST SWAP1 POP SWAP2 SWAP1 POP JUMP JUMPDEST PUSH32 0x4E487B7100000000000000000000000000000000000000000000000000000000 PUSH0 MSTORE PUSH1 0x11 PUSH1 0x4 MSTORE PUSH1 0x24 PUSH0 REVERT JUMPDEST PUSH0 PUSH2 0xE41 DUP3 PUSH2 0xAE5 JUMP JUMPDEST SWAP2 POP PUSH2 0xE4C DUP4 PUSH2 0xAE5 JUMP JUMPDEST SWAP3 POP DUP3 DUP3 ADD SWAP1 POP DUP1 DUP3 GT ISZERO PUSH2 0xE64 JUMPI PUSH2 0xE63 PUSH2 0xE0A JUMP JUMPDEST JUMPDEST SWAP3 SWAP2 POP POP JUMP JUMPDEST PUSH32 0x4F6E6C79206F776E65722063616E20706572666F726D20746869732061637469 PUSH0 DUP3 ADD MSTORE PUSH32 0x6F6E000000000000000000000000000000000000000000000000000000000000 PUSH1 0x20 DUP3 ADD MSTORE POP JUMP JUMPDEST PUSH0 PUSH2 0xEC4 PUSH1 0x22 DUP4 PUSH2 0xD2A JUMP JUMPDEST SWAP2 POP PUSH2 0xECF DUP3 PUSH2 0xE6A JUMP JUMPDEST PUSH1 0x40 DUP3 ADD SWAP1 POP SWAP2 SWAP1 POP JUMP JUMPDEST PUSH0 PUSH1 0x20 DUP3 ADD SWAP1 POP DUP2 DUP2 SUB PUSH0 DUP4 ADD MSTORE PUSH2 0xEF1 DUP2 PUSH2 0xEB8 JUMP JUMPDEST SWAP1 POP SWAP2 SWAP1 POP JUMP JUMPDEST PUSH32 0x5175657374206E6F742073746172746564000000000000000000000000000000 PUSH0 DUP3 ADD MSTORE POP JUMP JUMPDEST PUSH0 PUSH2 0xF2C PUSH1 0x11 DUP4 PUSH2 0xD2A JUMP JUMPDEST SWAP2 POP PUSH2 0xF37 DUP3 PUSH2 0xEF8 JUMP JUMPDEST PUSH1 0x20 DUP3 ADD SWAP1 POP SWAP2 SWAP1 POP JUMP JUMPDEST PUSH0 PUSH1 0x20 DUP3 ADD SWAP1 POP DUP2 DUP2 SUB PUSH0 DUP4 ADD MSTORE PUSH2 0xF59 DUP2 PUSH2 0xF20 JUMP JUMPDEST SWAP1 POP SWAP2 SWAP1 POP JUMP JUMPDEST PUSH0 PUSH2 0xF6A DUP3 PUSH2 0xAE5 JUMP JUMPDEST SWAP2 POP PUSH32 0xFFFFFFFFFFFFFFFFFFFFFFFFFFFFFFFFFFFFFFFFFFFFFFFFFFFFFFFFFFFFFFFF DUP3 SUB PUSH2 0xF9C JUMPI PUSH2 0xF9B PUSH2 0xE0A JUMP JUMPDEST JUMPDEST PUSH1 0x1 DUP3 ADD SWAP1 POP SWAP2 SWAP1 POP JUMP JUMPDEST PUSH32 0x517565737420646F6573206E6F74206578697374000000000000000000000000 PUSH0 DUP3 ADD MSTORE POP JUMP JUMPDEST PUSH0 PUSH2 0xFDB PUSH1 0x14 DUP4 PUSH2 0xD2A JUMP JUMPDEST SWAP2 POP PUSH2 0xFE6 DUP3 PUSH2 0xFA7 JUMP JUMPDEST PUSH1 0x20 DUP3 ADD SWAP1 POP SWAP2 SWAP1 POP JUMP JUMPDEST PUSH0 PUSH1 0x20 DUP3 ADD SWAP1 POP DUP2 DUP2 SUB PUSH0 DUP4 ADD MSTORE PUSH2 0x1008 DUP2 PUSH2 0xFCF JUMP JUMPDEST SWAP1 POP SWAP2 SWAP1 POP JUMP JUMPDEST PUSH32 0x4C6576656C20746F6F206C6F7700000000000000000000000000000000000000 PUSH0 DUP3 ADD MSTORE POP JUMP JUMPDEST PUSH0 PUSH2 0x1043 PUSH1 0xD DUP4 PUSH2 0xD2A JUMP JUMPDEST SWAP2 POP PUSH2 0x104E DUP3 PUSH2 0x100F JUMP JUMPDEST PUSH1 0x20 DUP3 ADD SWAP1 POP SWAP2 SWAP1 POP JUMP JUMPDEST PUSH0 PUSH1 0x20 DUP3 ADD SWAP1 POP DUP2 DUP2 SUB PUSH0 DUP4 ADD MSTORE PUSH2 0x1070 DUP2 PUSH2 0x1037 JUMP JUMPDEST SWAP1 POP SWAP2 SWAP1 POP JUMP JUMPDEST PUSH32 0x517565737420616C726561647920737461727465640000000000000000000000 PUSH0 DUP3 ADD MSTORE POP JUMP JUMPDEST PUSH0 PUSH2 0x10AB PUSH1 0x15 DUP4 PUSH2 0xD2A JUMP JUMPDEST SWAP2 POP PUSH2 0x10B6 DUP3 PUSH2 0x1077 JUMP JUMPDEST PUSH1 0x20 DUP3 ADD SWAP1 POP SWAP2 SWAP1 POP JUMP JUMPDEST PUSH0 PUSH1 0x20 DUP3 ADD SWAP1 POP DUP2 DUP2 SUB PUSH0 DUP4 ADD MSTORE PUSH2 0x10D8 DUP2 PUSH2 0x109F JUMP JUMPDEST SWAP1 POP SWAP2 SWAP1 POP JUMP JUMPDEST PUSH32 0x517565737420616C726561647920636F6D706C65746564000000000000000000 PUSH0 DUP3 ADD MSTORE POP JUMP JUMPDEST PUSH0 PUSH2 0x1113 PUSH1 0x17 DUP4 PUSH2 0xD2A JUMP JUMPDEST SWAP2 POP PUSH2 0x111E DUP3 PUSH2 0x10DF JUMP JUMPDEST PUSH1 0x20 DUP3 ADD SWAP1 POP SWAP2 SWAP1 POP JUMP JUMPDEST PUSH0 PUSH1 0x20 DUP3 ADD SWAP1 POP DUP2 DUP2 SUB PUSH0 DUP4 ADD MSTORE PUSH2 0x1140 DUP2 PUSH2 0x1107 JUMP JUMPDEST SWAP1 POP SWAP2 SWAP1 POP JUMP INVALID LOG2 PUSH5 0x6970667358 0x22 SLT KECCAK256 PUSH0 0xB8 0x4F EXTCODECOPY DUP6 0xC PUSH14 0x92402FBF302AAE2FAC278C7112C1 PUSH15 0xADAEBBD045DBAABBF5A564736F6C63 NUMBER STOP ADDMOD 0x22 STOP CALLER "
				},
				"gasEstimates": {
					"creation": {
						"codeDepositCost": "895400",
						"executionCost": "25191",
						"totalCost": "920591"
					},
					"external": {
						"completeQuest(uint256)": "infinite",
						"createQuest(uint256,uint256,uint256)": "infinite",
						"getReward(uint256)": "infinite",
						"globalQuests(uint256)": "infinite",
						"owner()": "2551",
						"playerGold(address)": "2869",
						"playerLevels(address)": "2824",
						"playerQuests(address,uint256)": "infinite",
						"startQuest(uint256)": "62869"
					}
				},
				"methodIdentifiers": {
					"completeQuest(uint256)": "528be0a9",
					"createQuest(uint256,uint256,uint256)": "32f932ad",
					"getReward(uint256)": "1c4b774b",
					"globalQuests(uint256)": "2d9e75b9",
					"owner()": "8da5cb5b",
					"playerGold(address)": "5025e1a1",
					"playerLevels(address)": "7d71e7c5",
					"playerQuests(address,uint256)": "d3dcff7c",
					"startQuest(uint256)": "9e563544"
				}
			},
			"storageLayout": {
				"storage": [
					{
						"astId": 38,
						"contract": "contracts/HomeWork_3/QuestManager.sol:QuestManager",
						"label": "owner",
						"offset": 0,
						"slot": "0",
						"type": "t_address"
					},
					{
						"astId": 43,
						"contract": "contracts/HomeWork_3/QuestManager.sol:QuestManager",
						"label": "globalQuests",
						"offset": 0,
						"slot": "1",
						"type": "t_mapping(t_uint256,t_struct(Quest)29_storage)"
					},
					{
						"astId": 50,
						"contract": "contracts/HomeWork_3/QuestManager.sol:QuestManager",
						"label": "playerQuests",
						"offset": 0,
						"slot": "2",
						"type": "t_mapping(t_address,t_mapping(t_uint256,t_struct(PlayerQuestStatus)36_storage))"
					},
					{
						"astId": 54,
						"contract": "contracts/HomeWork_3/QuestManager.sol:QuestManager",
						"label": "playerLevels",
						"offset": 0,
						"slot": "3",
						"type": "t_mapping(t_address,t_uint256)"
					},
					{
						"astId": 58,
						"contract": "contracts/HomeWork_3/QuestManager.sol:QuestManager",
						"label": "playerGold",
						"offset": 0,
						"slot": "4",
						"type": "t_mapping(t_address,t_uint256)"
					}
				],
				"types": {
					"t_address": {
						"encoding": "inplace",
						"label": "address",
						"numberOfBytes": "20"
					},
					"t_bool": {
						"encoding": "inplace",
						"label": "bool",
						"numberOfBytes": "1"
					},
					"t_mapping(t_address,t_mapping(t_uint256,t_struct(PlayerQuestStatus)36_storage))": {
						"encoding": "mapping",
						"key": "t_address",
						"label": "mapping(address => mapping(uint256 => struct QuestManager.PlayerQuestStatus))",
						"numberOfBytes": "32",
						"value": "t_mapping(t_uint256,t_struct(PlayerQuestStatus)36_storage)"
					},
					"t_mapping(t_address,t_uint256)": {
						"encoding": "mapping",
						"key": "t_address",
						"label": "mapping(address => uint256)",
						"numberOfBytes": "32",
						"value": "t_uint256"
					},
					"t_mapping(t_uint256,t_struct(PlayerQuestStatus)36_storage)": {
						"encoding": "mapping",
						"key": "t_uint256",
						"label": "mapping(uint256 => struct QuestManager.PlayerQuestStatus)",
						"numberOfBytes": "32",
						"value": "t_struct(PlayerQuestStatus)36_storage"
					},
					"t_mapping(t_uint256,t_struct(Quest)29_storage)": {
						"encoding": "mapping",
						"key": "t_uint256",
						"label": "mapping(uint256 => struct QuestManager.Quest)",
						"numberOfBytes": "32",
						"value": "t_struct(Quest)29_storage"
					},
					"t_struct(PlayerQuestStatus)36_storage": {
						"encoding": "inplace",
						"label": "struct QuestManager.PlayerQuestStatus",
						"members": [
							{
								"astId": 31,
								"contract": "contracts/HomeWork_3/QuestManager.sol:QuestManager",
								"label": "isActive",
								"offset": 0,
								"slot": "0",
								"type": "t_bool"
							},
							{
								"astId": 33,
								"contract": "contracts/HomeWork_3/QuestManager.sol:QuestManager",
								"label": "isCompleted",
								"offset": 1,
								"slot": "0",
								"type": "t_bool"
							},
							{
								"astId": 35,
								"contract": "contracts/HomeWork_3/QuestManager.sol:QuestManager",
								"label": "rewardClaimed",
								"offset": 2,
								"slot": "0",
								"type": "t_bool"
							}
						],
						"numberOfBytes": "32"
					},
					"t_struct(Quest)29_storage": {
						"encoding": "inplace",
						"label": "struct QuestManager.Quest",
						"members": [
							{
								"astId": 24,
								"contract": "contracts/HomeWork_3/QuestManager.sol:QuestManager",
								"label": "rewardGold",
								"offset": 0,
								"slot": "0",
								"type": "t_uint256"
							},
							{
								"astId": 26,
								"contract": "contracts/HomeWork_3/QuestManager.sol:QuestManager",
								"label": "levelRequirement",
								"offset": 0,
								"slot": "1",
								"type": "t_uint256"
							},
							{
								"astId": 28,
								"contract": "contracts/HomeWork_3/QuestManager.sol:QuestManager",
								"label": "exists",
								"offset": 0,
								"slot": "2",
								"type": "t_bool"
							}
						],
						"numberOfBytes": "96"
					},
					"t_uint256": {
						"encoding": "inplace",
						"label": "uint256",
						"numberOfBytes": "32"
					}
				}
			},
			"userdoc": {
				"kind": "user",
				"methods": {},
				"version": 1
			}
		}
	}
}