{
	"contracts/HomeWork_1/VotingSystem.sol": {
		"VotingSystem": {
			"abi": [
				{
					"inputs": [
						{
							"internalType": "string",
							"name": "_name",
							"type": "string"
						}
					],
					"name": "addCandidate",
					"outputs": [],
					"stateMutability": "nonpayable",
					"type": "function"
				},
				{
					"inputs": [],
					"name": "getResults",
					"outputs": [
						{
							"components": [
								{
									"internalType": "string",
									"name": "name",
									"type": "string"
								},
								{
									"internalType": "uint256",
									"name": "voteCount",
									"type": "uint256"
								}
							],
							"internalType": "struct VotingSystem.Candidate[]",
							"name": "",
							"type": "tuple[]"
						}
					],
					"stateMutability": "view",
					"type": "function"
				},
				{
					"inputs": [
						{
							"internalType": "uint256",
							"name": "_index",
							"type": "uint256"
						}
					],
					"name": "vote",
					"outputs": [],
					"stateMutability": "nonpayable",
					"type": "function"
				}
			],
			"devdoc": {
				"kind": "dev",
				"methods": {},
				"version": 1
			},
			"evm": {
				"assembly": "    /* \"contracts/HomeWork_1/VotingSystem.sol\":57:740  contract VotingSystem {... */\n  mstore(0x40, 0x80)\n  callvalue\n  dup1\n  iszero\n  tag_1\n  jumpi\n  0x00\n  dup1\n  revert\ntag_1:\n  pop\n  dataSize(sub_0)\n  dup1\n  dataOffset(sub_0)\n  0x00\n  codecopy\n  0x00\n  return\nstop\n\nsub_0: assembly {\n        /* \"contracts/HomeWork_1/VotingSystem.sol\":57:740  contract VotingSystem {... */\n      mstore(0x40, 0x80)\n      callvalue\n      dup1\n      iszero\n      tag_1\n      jumpi\n      0x00\n      dup1\n      revert\n    tag_1:\n      pop\n      jumpi(tag_2, lt(calldatasize, 0x04))\n      shr(0xe0, calldataload(0x00))\n      dup1\n      0x0121b93f\n      eq\n      tag_3\n      jumpi\n      dup1\n      0x462e91ec\n      eq\n      tag_4\n      jumpi\n      dup1\n      0x4717f97c\n      eq\n      tag_5\n      jumpi\n    tag_2:\n      0x00\n      dup1\n      revert\n        /* \"contracts/HomeWork_1/VotingSystem.sol\":356:635  function vote(uint256 _index) public {... */\n    tag_3:\n      tag_6\n      tag_7\n      calldatasize\n      0x04\n      tag_8\n      jump\t// in\n    tag_7:\n      tag_9\n      jump\t// in\n    tag_6:\n      stop\n        /* \"contracts/HomeWork_1/VotingSystem.sol\":247:350  function addCandidate(string memory _name) public {... */\n    tag_4:\n      tag_6\n      tag_11\n      calldatasize\n      0x04\n      tag_12\n      jump\t// in\n    tag_11:\n      tag_13\n      jump\t// in\n        /* \"contracts/HomeWork_1/VotingSystem.sol\":641:738  function getResults() public view returns (Candidate[] memory) {... */\n    tag_5:\n      tag_14\n      tag_15\n      jump\t// in\n    tag_14:\n      mload(0x40)\n      tag_16\n      swap2\n      swap1\n      tag_17\n      jump\t// in\n    tag_16:\n      mload(0x40)\n      dup1\n      swap2\n      sub\n      swap1\n      return\n        /* \"contracts/HomeWork_1/VotingSystem.sol\":356:635  function vote(uint256 _index) public {... */\n    tag_9:\n        /* \"contracts/HomeWork_1/VotingSystem.sol\":420:430  candidates */\n      0x00\n        /* \"contracts/HomeWork_1/VotingSystem.sol\":420:437  candidates.length */\n      sload\n        /* \"contracts/HomeWork_1/VotingSystem.sol\":411:437  _index < candidates.length */\n      dup2\n      lt\n        /* \"contracts/HomeWork_1/VotingSystem.sol\":403:480  require(_index < candidates.length, \"VotingSystem: candidate does not exist\") */\n      tag_19\n      jumpi\n      mload(0x40)\n      shl(0xe5, 0x461bcd)\n      dup2\n      mstore\n      0x04\n      add\n      tag_20\n      swap1\n      tag_21\n      jump\t// in\n    tag_20:\n      mload(0x40)\n      dup1\n      swap2\n      sub\n      swap1\n      revert\n    tag_19:\n        /* \"contracts/HomeWork_1/VotingSystem.sol\":508:518  msg.sender */\n      caller\n        /* \"contracts/HomeWork_1/VotingSystem.sol\":499:519  hasVoted[msg.sender] */\n      0x00\n      swap1\n      dup2\n      mstore\n        /* \"contracts/HomeWork_1/VotingSystem.sol\":499:507  hasVoted */\n      0x01\n        /* \"contracts/HomeWork_1/VotingSystem.sol\":499:519  hasVoted[msg.sender] */\n      0x20\n      mstore\n      0x40\n      swap1\n      keccak256\n      sload\n      0xff\n      and\n        /* \"contracts/HomeWork_1/VotingSystem.sol\":498:519  !hasVoted[msg.sender] */\n      iszero\n        /* \"contracts/HomeWork_1/VotingSystem.sol\":490:551  require(!hasVoted[msg.sender], \"VotingSystem: already voted\") */\n      tag_22\n      jumpi\n      mload(0x40)\n      shl(0xe5, 0x461bcd)\n      dup2\n      mstore\n      0x04\n      add\n      tag_20\n      swap1\n      tag_24\n      jump\t// in\n    tag_22:\n        /* \"contracts/HomeWork_1/VotingSystem.sol\":570:580  msg.sender */\n      caller\n        /* \"contracts/HomeWork_1/VotingSystem.sol\":561:581  hasVoted[msg.sender] */\n      0x00\n      swap1\n      dup2\n      mstore\n        /* \"contracts/HomeWork_1/VotingSystem.sol\":584:588  true */\n      0x01\n        /* \"contracts/HomeWork_1/VotingSystem.sol\":561:581  hasVoted[msg.sender] */\n      0x20\n      dup2\n      swap1\n      mstore\n      0x40\n      dup3\n      keccak256\n        /* \"contracts/HomeWork_1/VotingSystem.sol\":561:588  hasVoted[msg.sender] = true */\n      dup1\n      sload\n      not(0xff)\n      and\n      swap1\n      swap2\n      or\n      swap1\n      sstore\n        /* \"contracts/HomeWork_1/VotingSystem.sol\":598:616  candidates[_index] */\n      dup1\n      sload\n        /* \"contracts/HomeWork_1/VotingSystem.sol\":609:615  _index */\n      dup3\n      swap1\n        /* \"contracts/HomeWork_1/VotingSystem.sol\":598:616  candidates[_index] */\n      dup2\n      lt\n      tag_25\n      jumpi\n      mstore(0x00, shl(0xe0, 0x4e487b71))\n      mstore(0x04, 0x32)\n      revert(0x00, 0x24)\n    tag_25:\n      0x00\n      swap2\n      dup3\n      mstore\n      0x20\n      dup3\n      keccak256\n        /* \"contracts/HomeWork_1/VotingSystem.sol\":598:626  candidates[_index].voteCount */\n      0x01\n        /* \"contracts/HomeWork_1/VotingSystem.sol\":598:616  candidates[_index] */\n      0x02\n      swap1\n      swap3\n      mul\n      add\n        /* \"contracts/HomeWork_1/VotingSystem.sol\":598:626  candidates[_index].voteCount */\n      add\n        /* \"contracts/HomeWork_1/VotingSystem.sol\":598:628  candidates[_index].voteCount++ */\n      dup1\n      sload\n      swap2\n      tag_27\n      dup4\n      tag_28\n      jump\t// in\n    tag_27:\n      swap2\n      swap1\n      pop\n      sstore\n      pop\n        /* \"contracts/HomeWork_1/VotingSystem.sol\":356:635  function vote(uint256 _index) public {... */\n      pop\n      jump\t// out\n        /* \"contracts/HomeWork_1/VotingSystem.sol\":247:350  function addCandidate(string memory _name) public {... */\n    tag_13:\n        /* \"contracts/HomeWork_1/VotingSystem.sol\":323:342  Candidate(_name, 0) */\n      0x40\n      dup1\n      mload\n      dup1\n      dup3\n      add\n      swap1\n      swap2\n      mstore\n      dup2\n      dup2\n      mstore\n        /* \"contracts/HomeWork_1/VotingSystem.sol\":307:317  candidates */\n      0x00\n        /* \"contracts/HomeWork_1/VotingSystem.sol\":323:342  Candidate(_name, 0) */\n      0x20\n      dup1\n      dup4\n      add\n      dup3\n      swap1\n      mstore\n        /* \"contracts/HomeWork_1/VotingSystem.sol\":307:343  candidates.push(Candidate(_name, 0)) */\n      dup2\n      sload\n      0x01\n      dup2\n      add\n      dup4\n      sstore\n      swap2\n      dup1\n      mstore\n      dup3\n      mload\n      dup1\n      mload\n      0x02\n      swap1\n      swap4\n      mul\n      0x290decd9548b62a8d60345a988386fc84ba6bc95484008f6362f93160ef3e563\n      add\n      swap3\n      tag_31\n      swap3\n      dup5\n      swap3\n      add\n      swap1\n      tag_32\n      jump\t// in\n    tag_31:\n      pop\n      0x20\n      dup3\n      add\n      mload\n      dup2\n      0x01\n      add\n      sstore\n      pop\n      pop\n        /* \"contracts/HomeWork_1/VotingSystem.sol\":247:350  function addCandidate(string memory _name) public {... */\n      pop\n      jump\t// out\n        /* \"contracts/HomeWork_1/VotingSystem.sol\":641:738  function getResults() public view returns (Candidate[] memory) {... */\n    tag_15:\n        /* \"contracts/HomeWork_1/VotingSystem.sol\":684:702  Candidate[] memory */\n      0x60\n        /* \"contracts/HomeWork_1/VotingSystem.sol\":721:731  candidates */\n      0x00\n        /* \"contracts/HomeWork_1/VotingSystem.sol\":714:731  return candidates */\n      dup1\n      sload\n      dup1\n      0x20\n      mul\n      0x20\n      add\n      mload(0x40)\n      swap1\n      dup2\n      add\n      0x40\n      mstore\n      dup1\n      swap3\n      swap2\n      swap1\n      dup2\n      dup2\n      mstore\n      0x20\n      add\n      0x00\n      swap1\n    tag_34:\n      dup3\n      dup3\n      lt\n      iszero\n      tag_35\n      jumpi\n      dup4\n      dup3\n      swap1\n      0x00\n      mstore\n      keccak256(0x00, 0x20)\n      swap1\n      0x02\n      mul\n      add\n      mload(0x40)\n      dup1\n      0x40\n      add\n      0x40\n      mstore\n      swap1\n      dup2\n      0x00\n      dup3\n      add\n      dup1\n      sload\n      tag_37\n      swap1\n      tag_38\n      jump\t// in\n    tag_37:\n      dup1\n      0x1f\n      add\n      0x20\n      dup1\n      swap2\n      div\n      mul\n      0x20\n      add\n      mload(0x40)\n      swap1\n      dup2\n      add\n      0x40\n      mstore\n      dup1\n      swap3\n      swap2\n      swap1\n      dup2\n      dup2\n      mstore\n      0x20\n      add\n      dup3\n      dup1\n      sload\n      tag_39\n      swap1\n      tag_38\n      jump\t// in\n    tag_39:\n      dup1\n      iszero\n      tag_40\n      jumpi\n      dup1\n      0x1f\n      lt\n      tag_41\n      jumpi\n      0x0100\n      dup1\n      dup4\n      sload\n      div\n      mul\n      dup4\n      mstore\n      swap2\n      0x20\n      add\n      swap2\n      jump(tag_40)\n    tag_41:\n      dup3\n      add\n      swap2\n      swap1\n      0x00\n      mstore\n      keccak256(0x00, 0x20)\n      swap1\n    tag_42:\n      dup2\n      sload\n      dup2\n      mstore\n      swap1\n      0x01\n      add\n      swap1\n      0x20\n      add\n      dup1\n      dup4\n      gt\n      tag_42\n      jumpi\n      dup3\n      swap1\n      sub\n      0x1f\n      and\n      dup3\n      add\n      swap2\n    tag_40:\n      pop\n      pop\n      pop\n      pop\n      pop\n      dup2\n      mstore\n      0x20\n      add\n      0x01\n      dup3\n      add\n      sload\n      dup2\n      mstore\n      pop\n      pop\n      dup2\n      mstore\n      0x20\n      add\n      swap1\n      0x01\n      add\n      swap1\n      jump(tag_34)\n    tag_35:\n      pop\n      pop\n      pop\n      pop\n      swap1\n      pop\n        /* \"contracts/HomeWork_1/VotingSystem.sol\":641:738  function getResults() public view returns (Candidate[] memory) {... */\n      swap1\n      jump\t// out\n    tag_32:\n      dup3\n      dup1\n      sload\n      tag_43\n      swap1\n      tag_38\n      jump\t// in\n    tag_43:\n      swap1\n      0x00\n      mstore\n      keccak256(0x00, 0x20)\n      swap1\n      0x1f\n      add\n      0x20\n      swap1\n      div\n      dup2\n      add\n      swap3\n      dup3\n      tag_45\n      jumpi\n      0x00\n      dup6\n      sstore\n      jump(tag_48)\n    tag_45:\n      dup3\n      0x1f\n      lt\n      tag_46\n      jumpi\n      dup1\n      mload\n      not(0xff)\n      and\n      dup4\n      dup1\n      add\n      or\n      dup6\n      sstore\n      jump(tag_48)\n    tag_46:\n      dup3\n      dup1\n      add\n      0x01\n      add\n      dup6\n      sstore\n      dup3\n      iszero\n      tag_48\n      jumpi\n      swap2\n      dup3\n      add\n    tag_47:\n      dup3\n      dup2\n      gt\n      iszero\n      tag_48\n      jumpi\n      dup3\n      mload\n      dup3\n      sstore\n      swap2\n      0x20\n      add\n      swap2\n      swap1\n      0x01\n      add\n      swap1\n      jump(tag_47)\n    tag_48:\n      pop\n      tag_49\n      swap3\n      swap2\n      pop\n      tag_50\n      jump\t// in\n    tag_49:\n      pop\n      swap1\n      jump\t// out\n    tag_50:\n    tag_51:\n      dup1\n      dup3\n      gt\n      iszero\n      tag_49\n      jumpi\n      0x00\n      dup2\n      sstore\n      0x01\n      add\n      jump(tag_51)\n        /* \"#utility.yul\":14:972   */\n    tag_12:\n      0x00\n        /* \"#utility.yul\":114:116   */\n      0x20\n        /* \"#utility.yul\":157:159   */\n      dup1\n        /* \"#utility.yul\":145:154   */\n      dup4\n        /* \"#utility.yul\":136:143   */\n      dup6\n        /* \"#utility.yul\":132:155   */\n      sub\n        /* \"#utility.yul\":128:160   */\n      slt\n        /* \"#utility.yul\":125:127   */\n      iszero\n      tag_55\n      jumpi\n        /* \"#utility.yul\":178:184   */\n      dup2\n        /* \"#utility.yul\":170:176   */\n      dup3\n        /* \"#utility.yul\":163:185   */\n      revert\n        /* \"#utility.yul\":125:127   */\n    tag_55:\n        /* \"#utility.yul\":223:232   */\n      dup3\n        /* \"#utility.yul\":210:233   */\n      calldataload\n        /* \"#utility.yul\":252:270   */\n      0xffffffffffffffff\n        /* \"#utility.yul\":293:295   */\n      dup1\n        /* \"#utility.yul\":285:291   */\n      dup3\n        /* \"#utility.yul\":282:296   */\n      gt\n        /* \"#utility.yul\":279:281   */\n      iszero\n      tag_56\n      jumpi\n        /* \"#utility.yul\":314:320   */\n      dup4\n        /* \"#utility.yul\":306:312   */\n      dup5\n        /* \"#utility.yul\":299:321   */\n      revert\n        /* \"#utility.yul\":279:281   */\n    tag_56:\n        /* \"#utility.yul\":357:363   */\n      dup2\n        /* \"#utility.yul\":346:355   */\n      dup6\n        /* \"#utility.yul\":342:364   */\n      add\n        /* \"#utility.yul\":332:364   */\n      swap2\n      pop\n        /* \"#utility.yul\":402:409   */\n      dup6\n        /* \"#utility.yul\":395:399   */\n      0x1f\n        /* \"#utility.yul\":391:393   */\n      dup4\n        /* \"#utility.yul\":387:400   */\n      add\n        /* \"#utility.yul\":383:410   */\n      slt\n        /* \"#utility.yul\":373:375   */\n      tag_57\n      jumpi\n        /* \"#utility.yul\":429:435   */\n      dup4\n        /* \"#utility.yul\":421:427   */\n      dup5\n        /* \"#utility.yul\":414:436   */\n      revert\n        /* \"#utility.yul\":373:375   */\n    tag_57:\n        /* \"#utility.yul\":470:472   */\n      dup2\n        /* \"#utility.yul\":457:473   */\n      calldataload\n        /* \"#utility.yul\":492:494   */\n      dup2\n        /* \"#utility.yul\":488:490   */\n      dup2\n        /* \"#utility.yul\":485:495   */\n      gt\n        /* \"#utility.yul\":482:484   */\n      iszero\n      tag_59\n      jumpi\n        /* \"#utility.yul\":498:516   */\n      tag_59\n      tag_60\n      jump\t// in\n    tag_59:\n        /* \"#utility.yul\":547:549   */\n      0x40\n        /* \"#utility.yul\":541:550   */\n      mload\n        /* \"#utility.yul\":616:618   */\n      0x1f\n        /* \"#utility.yul\":597:610   */\n      dup3\n      add\n      not(0x1f)\n        /* \"#utility.yul\":593:620   */\n      and\n        /* \"#utility.yul\":581:621   */\n      dup2\n      add\n        /* \"#utility.yul\":577:626   */\n      dup6\n      add\n        /* \"#utility.yul\":641:659   */\n      dup4\n      dup2\n      gt\n        /* \"#utility.yul\":661:683   */\n      dup3\n      dup3\n      lt\n        /* \"#utility.yul\":638:684   */\n      or\n        /* \"#utility.yul\":635:637   */\n      iszero\n      tag_62\n      jumpi\n        /* \"#utility.yul\":687:705   */\n      tag_62\n      tag_60\n      jump\t// in\n    tag_62:\n        /* \"#utility.yul\":723:725   */\n      0x40\n        /* \"#utility.yul\":716:738   */\n      mstore\n        /* \"#utility.yul\":747:765   */\n      dup2\n      dup2\n      mstore\n        /* \"#utility.yul\":784:795   */\n      dup4\n      dup3\n      add\n        /* \"#utility.yul\":780:800   */\n      dup6\n      add\n        /* \"#utility.yul\":777:810   */\n      dup9\n      lt\n        /* \"#utility.yul\":774:776   */\n      iszero\n      tag_63\n      jumpi\n        /* \"#utility.yul\":828:834   */\n      dup6\n        /* \"#utility.yul\":820:826   */\n      dup7\n        /* \"#utility.yul\":813:835   */\n      revert\n        /* \"#utility.yul\":774:776   */\n    tag_63:\n        /* \"#utility.yul\":889:891   */\n      dup2\n        /* \"#utility.yul\":884:886   */\n      dup6\n        /* \"#utility.yul\":880:882   */\n      dup6\n        /* \"#utility.yul\":876:887   */\n      add\n        /* \"#utility.yul\":871:873   */\n      dup7\n        /* \"#utility.yul\":863:869   */\n      dup4\n        /* \"#utility.yul\":859:874   */\n      add\n        /* \"#utility.yul\":846:892   */\n      calldatacopy\n        /* \"#utility.yul\":912:927   */\n      swap1\n      dup2\n      add\n        /* \"#utility.yul\":908:932   */\n      swap1\n      swap4\n      add\n        /* \"#utility.yul\":901:941   */\n      swap4\n      swap1\n      swap4\n      mstore\n      pop\n        /* \"#utility.yul\":916:922   */\n      swap4\n        /* \"#utility.yul\":94:972   */\n      swap3\n      pop\n      pop\n      pop\n      jump\t// out\n        /* \"#utility.yul\":977:1167   */\n    tag_8:\n      0x00\n        /* \"#utility.yul\":1089:1091   */\n      0x20\n        /* \"#utility.yul\":1077:1086   */\n      dup3\n        /* \"#utility.yul\":1068:1075   */\n      dup5\n        /* \"#utility.yul\":1064:1087   */\n      sub\n        /* \"#utility.yul\":1060:1092   */\n      slt\n        /* \"#utility.yul\":1057:1059   */\n      iszero\n      tag_65\n      jumpi\n        /* \"#utility.yul\":1110:1116   */\n      dup1\n        /* \"#utility.yul\":1102:1108   */\n      dup2\n        /* \"#utility.yul\":1095:1117   */\n      revert\n        /* \"#utility.yul\":1057:1059   */\n    tag_65:\n      pop\n        /* \"#utility.yul\":1138:1161   */\n      calldataload\n      swap2\n        /* \"#utility.yul\":1047:1167   */\n      swap1\n      pop\n      jump\t// out\n        /* \"#utility.yul\":1172:2630   */\n    tag_17:\n        /* \"#utility.yul\":1391:1393   */\n      0x20\n        /* \"#utility.yul\":1443:1464   */\n      dup1\n      dup3\n      mstore\n        /* \"#utility.yul\":1513:1526   */\n      dup3\n      mload\n        /* \"#utility.yul\":1416:1434   */\n      dup3\n      dup3\n      add\n        /* \"#utility.yul\":1535:1557   */\n      dup2\n      swap1\n      mstore\n        /* \"#utility.yul\":1172:2630   */\n      0x00\n      swap2\n        /* \"#utility.yul\":1391:1393   */\n      swap1\n        /* \"#utility.yul\":1576:1578   */\n      0x40\n      swap1\n        /* \"#utility.yul\":1594:1612   */\n      dup2\n      dup6\n      add\n      swap1\n        /* \"#utility.yul\":1654:1669   */\n      dup1\n      dup5\n      mul\n        /* \"#utility.yul\":1639:1670   */\n      dup7\n      add\n        /* \"#utility.yul\":1635:1675   */\n      dup4\n      add\n        /* \"#utility.yul\":1698:1713   */\n      dup8\n      dup6\n      add\n        /* \"#utility.yul\":1172:2630   */\n      dup7\n        /* \"#utility.yul\":1744:2601   */\n    tag_67:\n        /* \"#utility.yul\":1758:1764   */\n      dup4\n        /* \"#utility.yul\":1755:1756   */\n      dup2\n        /* \"#utility.yul\":1752:1765   */\n      lt\n        /* \"#utility.yul\":1744:2601   */\n      iszero\n      tag_69\n      jumpi\n        /* \"#utility.yul\":1851:1853   */\n      0x3f\n        /* \"#utility.yul\":1847:1854   */\n      not\n        /* \"#utility.yul\":1835:1844   */\n      dup10\n        /* \"#utility.yul\":1827:1833   */\n      dup5\n        /* \"#utility.yul\":1823:1845   */\n      sub\n        /* \"#utility.yul\":1819:1855   */\n      add\n        /* \"#utility.yul\":1814:1817   */\n      dup6\n        /* \"#utility.yul\":1807:1856   */\n      mstore\n        /* \"#utility.yul\":1885:1891   */\n      dup2\n        /* \"#utility.yul\":1879:1892   */\n      mload\n        /* \"#utility.yul\":1931:1933   */\n      dup1\n        /* \"#utility.yul\":1925:1934   */\n      mload\n        /* \"#utility.yul\":1962:1964   */\n      dup8\n        /* \"#utility.yul\":1954:1960   */\n      dup6\n        /* \"#utility.yul\":1947:1965   */\n      mstore\n        /* \"#utility.yul\":2000:2012   */\n      dup1\n        /* \"#utility.yul\":1994:2013   */\n      mload\n        /* \"#utility.yul\":2050:2058   */\n      dup1\n        /* \"#utility.yul\":2045:2047   */\n      dup10\n        /* \"#utility.yul\":2037:2043   */\n      dup8\n        /* \"#utility.yul\":2033:2048   */\n      add\n        /* \"#utility.yul\":2026:2059   */\n      mstore\n        /* \"#utility.yul\":2083:2087   */\n      dup11\n        /* \"#utility.yul\":2100:2267   */\n    tag_70:\n        /* \"#utility.yul\":2116:2124   */\n      dup2\n        /* \"#utility.yul\":2111:2114   */\n      dup2\n        /* \"#utility.yul\":2108:2125   */\n      lt\n        /* \"#utility.yul\":2100:2267   */\n      iszero\n      tag_72\n      jumpi\n        /* \"#utility.yul\":2224:2246   */\n      dup3\n      dup2\n      add\n        /* \"#utility.yul\":2220:2251   */\n      dup12\n      add\n        /* \"#utility.yul\":2214:2252   */\n      mload\n        /* \"#utility.yul\":2191:2207   */\n      dup8\n      dup3\n      add\n        /* \"#utility.yul\":2209:2211   */\n      0x60\n        /* \"#utility.yul\":2187:2212   */\n      add\n        /* \"#utility.yul\":2180:2253   */\n      mstore\n        /* \"#utility.yul\":2135:2147   */\n      dup11\n      add\n        /* \"#utility.yul\":2100:2267   */\n      jump(tag_70)\n    tag_72:\n        /* \"#utility.yul\":2291:2299   */\n      dup2\n        /* \"#utility.yul\":2286:2289   */\n      dup2\n        /* \"#utility.yul\":2283:2300   */\n      gt\n        /* \"#utility.yul\":2280:2282   */\n      iszero\n      tag_73\n      jumpi\n        /* \"#utility.yul\":2370:2374   */\n      dup12\n        /* \"#utility.yul\":2365:2367   */\n      0x60\n        /* \"#utility.yul\":2354:2362   */\n      dup4\n        /* \"#utility.yul\":2346:2352   */\n      dup10\n        /* \"#utility.yul\":2342:2363   */\n      add\n        /* \"#utility.yul\":2338:2368   */\n      add\n        /* \"#utility.yul\":2331:2375   */\n      mstore\n        /* \"#utility.yul\":2280:2282   */\n    tag_73:\n      pop\n        /* \"#utility.yul\":2432:2443   */\n      swap2\n      dup10\n      add\n        /* \"#utility.yul\":2426:2444   */\n      mload\n        /* \"#utility.yul\":2409:2424   */\n      dup6\n      dup11\n      add\n        /* \"#utility.yul\":2402:2445   */\n      mstore\n      pop\n        /* \"#utility.yul\":2579:2591   */\n      swap5\n      dup8\n      add\n      swap5\n        /* \"#utility.yul\":2511:2513   */\n      0x1f\n        /* \"#utility.yul\":2488:2505   */\n      add\n      not(0x1f)\n        /* \"#utility.yul\":2484:2515   */\n      and\n        /* \"#utility.yul\":2472:2516   */\n      swap1\n      swap3\n      add\n        /* \"#utility.yul\":2518:2520   */\n      0x60\n        /* \"#utility.yul\":2468:2521   */\n      add\n      swap2\n        /* \"#utility.yul\":2544:2559   */\n      swap1\n      dup7\n      add\n      swap1\n        /* \"#utility.yul\":1780:1781   */\n      0x01\n        /* \"#utility.yul\":1773:1782   */\n      add\n        /* \"#utility.yul\":1744:2601   */\n      jump(tag_67)\n    tag_69:\n      pop\n        /* \"#utility.yul\":2618:2624   */\n      swap1\n      swap9\n        /* \"#utility.yul\":1371:2630   */\n      swap8\n      pop\n      pop\n      pop\n      pop\n      pop\n      pop\n      pop\n      pop\n      jump\t// out\n        /* \"#utility.yul\":2635:2986   */\n    tag_24:\n        /* \"#utility.yul\":2837:2839   */\n      0x20\n        /* \"#utility.yul\":2819:2840   */\n      dup1\n      dup3\n      mstore\n        /* \"#utility.yul\":2876:2878   */\n      0x1b\n        /* \"#utility.yul\":2856:2874   */\n      swap1\n      dup3\n      add\n        /* \"#utility.yul\":2849:2879   */\n      mstore\n        /* \"#utility.yul\":2915:2944   */\n      0x566f74696e6753797374656d3a20616c726561647920766f7465640000000000\n        /* \"#utility.yul\":2910:2912   */\n      0x40\n        /* \"#utility.yul\":2895:2913   */\n      dup3\n      add\n        /* \"#utility.yul\":2888:2945   */\n      mstore\n        /* \"#utility.yul\":2977:2979   */\n      0x60\n        /* \"#utility.yul\":2962:2980   */\n      add\n      swap1\n        /* \"#utility.yul\":2809:2986   */\n      jump\t// out\n        /* \"#utility.yul\":2991:3393   */\n    tag_21:\n        /* \"#utility.yul\":3193:3195   */\n      0x20\n        /* \"#utility.yul\":3175:3196   */\n      dup1\n      dup3\n      mstore\n        /* \"#utility.yul\":3232:3234   */\n      0x26\n        /* \"#utility.yul\":3212:3230   */\n      swap1\n      dup3\n      add\n        /* \"#utility.yul\":3205:3235   */\n      mstore\n        /* \"#utility.yul\":3271:3305   */\n      0x566f74696e6753797374656d3a2063616e64696461746520646f6573206e6f74\n        /* \"#utility.yul\":3266:3268   */\n      0x40\n        /* \"#utility.yul\":3251:3269   */\n      dup3\n      add\n        /* \"#utility.yul\":3244:3306   */\n      mstore\n      shl(0xd2, 0x08195e1a5cdd)\n        /* \"#utility.yul\":3337:3339   */\n      0x60\n        /* \"#utility.yul\":3322:3340   */\n      dup3\n      add\n        /* \"#utility.yul\":3315:3351   */\n      mstore\n        /* \"#utility.yul\":3383:3386   */\n      0x80\n        /* \"#utility.yul\":3368:3387   */\n      add\n      swap1\n        /* \"#utility.yul\":3165:3393   */\n      jump\t// out\n        /* \"#utility.yul\":3398:3778   */\n    tag_38:\n        /* \"#utility.yul\":3483:3484   */\n      0x02\n        /* \"#utility.yul\":3473:3485   */\n      dup2\n      div\n        /* \"#utility.yul\":3530:3531   */\n      0x01\n        /* \"#utility.yul\":3520:3532   */\n      dup3\n      and\n      dup1\n        /* \"#utility.yul\":3541:3543   */\n      tag_77\n      jumpi\n        /* \"#utility.yul\":3595:3599   */\n      0x7f\n        /* \"#utility.yul\":3587:3593   */\n      dup3\n        /* \"#utility.yul\":3583:3600   */\n      and\n        /* \"#utility.yul\":3573:3600   */\n      swap2\n      pop\n        /* \"#utility.yul\":3541:3543   */\n    tag_77:\n        /* \"#utility.yul\":3648:3650   */\n      0x20\n        /* \"#utility.yul\":3640:3646   */\n      dup3\n        /* \"#utility.yul\":3637:3651   */\n      lt\n        /* \"#utility.yul\":3617:3635   */\n      dup2\n        /* \"#utility.yul\":3614:3652   */\n      eq\n        /* \"#utility.yul\":3611:3613   */\n      iszero\n      tag_78\n      jumpi\n        /* \"#utility.yul\":3694:3704   */\n      0x4e487b71\n        /* \"#utility.yul\":3689:3692   */\n      0xe0\n        /* \"#utility.yul\":3685:3705   */\n      shl\n        /* \"#utility.yul\":3682:3683   */\n      0x00\n        /* \"#utility.yul\":3675:3706   */\n      mstore\n        /* \"#utility.yul\":3729:3733   */\n      0x22\n        /* \"#utility.yul\":3726:3727   */\n      0x04\n        /* \"#utility.yul\":3719:3734   */\n      mstore\n        /* \"#utility.yul\":3757:3761   */\n      0x24\n        /* \"#utility.yul\":3754:3755   */\n      0x00\n        /* \"#utility.yul\":3747:3762   */\n      revert\n        /* \"#utility.yul\":3611:3613   */\n    tag_78:\n      pop\n        /* \"#utility.yul\":3453:3778   */\n      swap2\n      swap1\n      pop\n      jump\t// out\n        /* \"#utility.yul\":3783:4019   */\n    tag_28:\n      0x00\n      not(0x00)\n        /* \"#utility.yul\":3843:3860   */\n      dup3\n      eq\n        /* \"#utility.yul\":3840:3842   */\n      iszero\n      tag_80\n      jumpi\n      shl(0xe0, 0x4e487b71)\n        /* \"#utility.yul\":3883:3916   */\n      dup2\n      mstore\n        /* \"#utility.yul\":3939:3943   */\n      0x11\n        /* \"#utility.yul\":3936:3937   */\n      0x04\n        /* \"#utility.yul\":3929:3944   */\n      mstore\n        /* \"#utility.yul\":3969:3973   */\n      0x24\n        /* \"#utility.yul\":3890:3893   */\n      dup2\n        /* \"#utility.yul\":3957:3974   */\n      revert\n        /* \"#utility.yul\":3840:3842   */\n    tag_80:\n      pop\n        /* \"#utility.yul\":4011:4012   */\n      0x01\n        /* \"#utility.yul\":4000:4013   */\n      add\n      swap1\n        /* \"#utility.yul\":3830:4019   */\n      jump\t// out\n        /* \"#utility.yul\":4024:4151   */\n    tag_60:\n        /* \"#utility.yul\":4085:4095   */\n      0x4e487b71\n        /* \"#utility.yul\":4080:4083   */\n      0xe0\n        /* \"#utility.yul\":4076:4096   */\n      shl\n        /* \"#utility.yul\":4073:4074   */\n      0x00\n        /* \"#utility.yul\":4066:4097   */\n      mstore\n        /* \"#utility.yul\":4116:4120   */\n      0x41\n        /* \"#utility.yul\":4113:4114   */\n      0x04\n        /* \"#utility.yul\":4106:4121   */\n      mstore\n        /* \"#utility.yul\":4140:4144   */\n      0x24\n        /* \"#utility.yul\":4137:4138   */\n      0x00\n        /* \"#utility.yul\":4130:4145   */\n      revert\n\n    auxdata: 0xa26469706673582212205e6600efd19763c83b6c292cbdbecef4cea9f74b0923a42a692933f4b7bdee0164736f6c63430008000033\n}\n",
				"bytecode": {
					"linkReferences": {},
					"object": "608060405234801561001057600080fd5b506105d3806100206000396000f3fe608060405234801561001057600080fd5b50600436106100415760003560e01c80630121b93f14610046578063462e91ec1461005b5780634717f97c1461006e575b600080fd5b6100596100543660046103e8565b61008c565b005b610059610069366004610347565b610148565b6100766101b3565b6040516100839190610400565b60405180910390f35b60005481106100b65760405162461bcd60e51b81526004016100ad906104df565b60405180910390fd5b3360009081526001602052604090205460ff16156100e65760405162461bcd60e51b81526004016100ad906104a8565b3360009081526001602081905260408220805460ff1916909117905580548290811061012257634e487b7160e01b600052603260045260246000fd5b60009182526020822060016002909202010180549161014083610560565b919050555050565b604080518082019091528181526000602080830182905281546001810183559180528251805160029093027f290decd9548b62a8d60345a988386fc84ba6bc95484008f6362f93160ef3e56301926101a392849201906102ae565b5060208201518160010155505050565b60606000805480602002602001604051908101604052809291908181526020016000905b828210156102a5578382906000526020600020906002020160405180604001604052908160008201805461020a90610525565b80601f016020809104026020016040519081016040528092919081815260200182805461023690610525565b80156102835780601f1061025857610100808354040283529160200191610283565b820191906000526020600020905b81548152906001019060200180831161026657829003601f168201915b50505050508152602001600182015481525050815260200190600101906101d7565b50505050905090565b8280546102ba90610525565b90600052602060002090601f0160209004810192826102dc5760008555610322565b82601f106102f557805160ff1916838001178555610322565b82800160010185558215610322579182015b82811115610322578251825591602001919060010190610307565b5061032e929150610332565b5090565b5b8082111561032e5760008155600101610333565b60006020808385031215610359578182fd5b823567ffffffffffffffff80821115610370578384fd5b818501915085601f830112610383578384fd5b81358181111561039557610395610587565b604051601f8201601f19168101850183811182821017156103b8576103b8610587565b60405281815283820185018810156103ce578586fd5b818585018683013790810190930193909352509392505050565b6000602082840312156103f9578081fd5b5035919050565b60208082528251828201819052600091906040908185019080840286018301878501865b8381101561049a57603f1989840301855281518051878552805180898701528a5b81811015610461578281018b0151878201606001528a01610445565b81811115610472578b606083890101525b5091890151858a01525094870194601f01601f19169092016060019190860190600101610424565b509098975050505050505050565b6020808252601b908201527f566f74696e6753797374656d3a20616c726561647920766f7465640000000000604082015260600190565b60208082526026908201527f566f74696e6753797374656d3a2063616e64696461746520646f6573206e6f7460408201526508195e1a5cdd60d21b606082015260800190565b60028104600182168061053957607f821691505b6020821081141561055a57634e487b7160e01b600052602260045260246000fd5b50919050565b600060001982141561058057634e487b7160e01b81526011600452602481fd5b5060010190565b634e487b7160e01b600052604160045260246000fdfea26469706673582212205e6600efd19763c83b6c292cbdbecef4cea9f74b0923a42a692933f4b7bdee0164736f6c63430008000033",
					"opcodes": "PUSH1 0x80 PUSH1 0x40 MSTORE CALLVALUE DUP1 ISZERO PUSH2 0x10 JUMPI PUSH1 0x0 DUP1 REVERT JUMPDEST POP PUSH2 0x5D3 DUP1 PUSH2 0x20 PUSH1 0x0 CODECOPY PUSH1 0x0 RETURN INVALID PUSH1 0x80 PUSH1 0x40 MSTORE CALLVALUE DUP1 ISZERO PUSH2 0x10 JUMPI PUSH1 0x0 DUP1 REVERT JUMPDEST POP PUSH1 0x4 CALLDATASIZE LT PUSH2 0x41 JUMPI PUSH1 0x0 CALLDATALOAD PUSH1 0xE0 SHR DUP1 PUSH4 0x121B93F EQ PUSH2 0x46 JUMPI DUP1 PUSH4 0x462E91EC EQ PUSH2 0x5B JUMPI DUP1 PUSH4 0x4717F97C EQ PUSH2 0x6E JUMPI JUMPDEST PUSH1 0x0 DUP1 REVERT JUMPDEST PUSH2 0x59 PUSH2 0x54 CALLDATASIZE PUSH1 0x4 PUSH2 0x3E8 JUMP JUMPDEST PUSH2 0x8C JUMP JUMPDEST STOP JUMPDEST PUSH2 0x59 PUSH2 0x69 CALLDATASIZE PUSH1 0x4 PUSH2 0x347 JUMP JUMPDEST PUSH2 0x148 JUMP JUMPDEST PUSH2 0x76 PUSH2 0x1B3 JUMP JUMPDEST PUSH1 0x40 MLOAD PUSH2 0x83 SWAP2 SWAP1 PUSH2 0x400 JUMP JUMPDEST PUSH1 0x40 MLOAD DUP1 SWAP2 SUB SWAP1 RETURN JUMPDEST PUSH1 0x0 SLOAD DUP2 LT PUSH2 0xB6 JUMPI PUSH1 0x40 MLOAD PUSH3 0x461BCD PUSH1 0xE5 SHL DUP2 MSTORE PUSH1 0x4 ADD PUSH2 0xAD SWAP1 PUSH2 0x4DF JUMP JUMPDEST PUSH1 0x40 MLOAD DUP1 SWAP2 SUB SWAP1 REVERT JUMPDEST CALLER PUSH1 0x0 SWAP1 DUP2 MSTORE PUSH1 0x1 PUSH1 0x20 MSTORE PUSH1 0x40 SWAP1 KECCAK256 SLOAD PUSH1 0xFF AND ISZERO PUSH2 0xE6 JUMPI PUSH1 0x40 MLOAD PUSH3 0x461BCD PUSH1 0xE5 SHL DUP2 MSTORE PUSH1 0x4 ADD PUSH2 0xAD SWAP1 PUSH2 0x4A8 JUMP JUMPDEST CALLER PUSH1 0x0 SWAP1 DUP2 MSTORE PUSH1 0x1 PUSH1 0x20 DUP2 SWAP1 MSTORE PUSH1 0x40 DUP3 KECCAK256 DUP1 SLOAD PUSH1 0xFF NOT AND SWAP1 SWAP2 OR SWAP1 SSTORE DUP1 SLOAD DUP3 SWAP1 DUP2 LT PUSH2 0x122 JUMPI PUSH4 0x4E487B71 PUSH1 0xE0 SHL PUSH1 0x0 MSTORE PUSH1 0x32 PUSH1 0x4 MSTORE PUSH1 0x24 PUSH1 0x0 REVERT JUMPDEST PUSH1 0x0 SWAP2 DUP3 MSTORE PUSH1 0x20 DUP3 KECCAK256 PUSH1 0x1 PUSH1 0x2 SWAP1 SWAP3 MUL ADD ADD DUP1 SLOAD SWAP2 PUSH2 0x140 DUP4 PUSH2 0x560 JUMP JUMPDEST SWAP2 SWAP1 POP SSTORE POP POP JUMP JUMPDEST PUSH1 0x40 DUP1 MLOAD DUP1 DUP3 ADD SWAP1 SWAP2 MSTORE DUP2 DUP2 MSTORE PUSH1 0x0 PUSH1 0x20 DUP1 DUP4 ADD DUP3 SWAP1 MSTORE DUP2 SLOAD PUSH1 0x1 DUP2 ADD DUP4 SSTORE SWAP2 DUP1 MSTORE DUP3 MLOAD DUP1 MLOAD PUSH1 0x2 SWAP1 SWAP4 MUL PUSH32 0x290DECD9548B62A8D60345A988386FC84BA6BC95484008F6362F93160EF3E563 ADD SWAP3 PUSH2 0x1A3 SWAP3 DUP5 SWAP3 ADD SWAP1 PUSH2 0x2AE JUMP JUMPDEST POP PUSH1 0x20 DUP3 ADD MLOAD DUP2 PUSH1 0x1 ADD SSTORE POP POP POP JUMP JUMPDEST PUSH1 0x60 PUSH1 0x0 DUP1 SLOAD DUP1 PUSH1 0x20 MUL PUSH1 0x20 ADD PUSH1 0x40 MLOAD SWAP1 DUP2 ADD PUSH1 0x40 MSTORE DUP1 SWAP3 SWAP2 SWAP1 DUP2 DUP2 MSTORE PUSH1 0x20 ADD PUSH1 0x0 SWAP1 JUMPDEST DUP3 DUP3 LT ISZERO PUSH2 0x2A5 JUMPI DUP4 DUP3 SWAP1 PUSH1 0x0 MSTORE PUSH1 0x20 PUSH1 0x0 KECCAK256 SWAP1 PUSH1 0x2 MUL ADD PUSH1 0x40 MLOAD DUP1 PUSH1 0x40 ADD PUSH1 0x40 MSTORE SWAP1 DUP2 PUSH1 0x0 DUP3 ADD DUP1 SLOAD PUSH2 0x20A SWAP1 PUSH2 0x525 JUMP JUMPDEST DUP1 PUSH1 0x1F ADD PUSH1 0x20 DUP1 SWAP2 DIV MUL PUSH1 0x20 ADD PUSH1 0x40 MLOAD SWAP1 DUP2 ADD PUSH1 0x40 MSTORE DUP1 SWAP3 SWAP2 SWAP1 DUP2 DUP2 MSTORE PUSH1 0x20 ADD DUP3 DUP1 SLOAD PUSH2 0x236 SWAP1 PUSH2 0x525 JUMP JUMPDEST DUP1 ISZERO PUSH2 0x283 JUMPI DUP1 PUSH1 0x1F LT PUSH2 0x258 JUMPI PUSH2 0x100 DUP1 DUP4 SLOAD DIV MUL DUP4 MSTORE SWAP2 PUSH1 0x20 ADD SWAP2 PUSH2 0x283 JUMP JUMPDEST DUP3 ADD SWAP2 SWAP1 PUSH1 0x0 MSTORE PUSH1 0x20 PUSH1 0x0 KECCAK256 SWAP1 JUMPDEST DUP2 SLOAD DUP2 MSTORE SWAP1 PUSH1 0x1 ADD SWAP1 PUSH1 0x20 ADD DUP1 DUP4 GT PUSH2 0x266 JUMPI DUP3 SWAP1 SUB PUSH1 0x1F AND DUP3 ADD SWAP2 JUMPDEST POP POP POP POP POP DUP2 MSTORE PUSH1 0x20 ADD PUSH1 0x1 DUP3 ADD SLOAD DUP2 MSTORE POP POP DUP2 MSTORE PUSH1 0x20 ADD SWAP1 PUSH1 0x1 ADD SWAP1 PUSH2 0x1D7 JUMP JUMPDEST POP POP POP POP SWAP1 POP SWAP1 JUMP JUMPDEST DUP3 DUP1 SLOAD PUSH2 0x2BA SWAP1 PUSH2 0x525 JUMP JUMPDEST SWAP1 PUSH1 0x0 MSTORE PUSH1 0x20 PUSH1 0x0 KECCAK256 SWAP1 PUSH1 0x1F ADD PUSH1 0x20 SWAP1 DIV DUP2 ADD SWAP3 DUP3 PUSH2 0x2DC JUMPI PUSH1 0x0 DUP6 SSTORE PUSH2 0x322 JUMP JUMPDEST DUP3 PUSH1 0x1F LT PUSH2 0x2F5 JUMPI DUP1 MLOAD PUSH1 0xFF NOT AND DUP4 DUP1 ADD OR DUP6 SSTORE PUSH2 0x322 JUMP JUMPDEST DUP3 DUP1 ADD PUSH1 0x1 ADD DUP6 SSTORE DUP3 ISZERO PUSH2 0x322 JUMPI SWAP2 DUP3 ADD JUMPDEST DUP3 DUP2 GT ISZERO PUSH2 0x322 JUMPI DUP3 MLOAD DUP3 SSTORE SWAP2 PUSH1 0x20 ADD SWAP2 SWAP1 PUSH1 0x1 ADD SWAP1 PUSH2 0x307 JUMP JUMPDEST POP PUSH2 0x32E SWAP3 SWAP2 POP PUSH2 0x332 JUMP JUMPDEST POP SWAP1 JUMP JUMPDEST JUMPDEST DUP1 DUP3 GT ISZERO PUSH2 0x32E JUMPI PUSH1 0x0 DUP2 SSTORE PUSH1 0x1 ADD PUSH2 0x333 JUMP JUMPDEST PUSH1 0x0 PUSH1 0x20 DUP1 DUP4 DUP6 SUB SLT ISZERO PUSH2 0x359 JUMPI DUP2 DUP3 REVERT JUMPDEST DUP3 CALLDATALOAD PUSH8 0xFFFFFFFFFFFFFFFF DUP1 DUP3 GT ISZERO PUSH2 0x370 JUMPI DUP4 DUP5 REVERT JUMPDEST DUP2 DUP6 ADD SWAP2 POP DUP6 PUSH1 0x1F DUP4 ADD SLT PUSH2 0x383 JUMPI DUP4 DUP5 REVERT JUMPDEST DUP2 CALLDATALOAD DUP2 DUP2 GT ISZERO PUSH2 0x395 JUMPI PUSH2 0x395 PUSH2 0x587 JUMP JUMPDEST PUSH1 0x40 MLOAD PUSH1 0x1F DUP3 ADD PUSH1 0x1F NOT AND DUP2 ADD DUP6 ADD DUP4 DUP2 GT DUP3 DUP3 LT OR ISZERO PUSH2 0x3B8 JUMPI PUSH2 0x3B8 PUSH2 0x587 JUMP JUMPDEST PUSH1 0x40 MSTORE DUP2 DUP2 MSTORE DUP4 DUP3 ADD DUP6 ADD DUP9 LT ISZERO PUSH2 0x3CE JUMPI DUP6 DUP7 REVERT JUMPDEST DUP2 DUP6 DUP6 ADD DUP7 DUP4 ADD CALLDATACOPY SWAP1 DUP2 ADD SWAP1 SWAP4 ADD SWAP4 SWAP1 SWAP4 MSTORE POP SWAP4 SWAP3 POP POP POP JUMP JUMPDEST PUSH1 0x0 PUSH1 0x20 DUP3 DUP5 SUB SLT ISZERO PUSH2 0x3F9 JUMPI DUP1 DUP2 REVERT JUMPDEST POP CALLDATALOAD SWAP2 SWAP1 POP JUMP JUMPDEST PUSH1 0x20 DUP1 DUP3 MSTORE DUP3 MLOAD DUP3 DUP3 ADD DUP2 SWAP1 MSTORE PUSH1 0x0 SWAP2 SWAP1 PUSH1 0x40 SWAP1 DUP2 DUP6 ADD SWAP1 DUP1 DUP5 MUL DUP7 ADD DUP4 ADD DUP8 DUP6 ADD DUP7 JUMPDEST DUP4 DUP2 LT ISZERO PUSH2 0x49A JUMPI PUSH1 0x3F NOT DUP10 DUP5 SUB ADD DUP6 MSTORE DUP2 MLOAD DUP1 MLOAD DUP8 DUP6 MSTORE DUP1 MLOAD DUP1 DUP10 DUP8 ADD MSTORE DUP11 JUMPDEST DUP2 DUP2 LT ISZERO PUSH2 0x461 JUMPI DUP3 DUP2 ADD DUP12 ADD MLOAD DUP8 DUP3 ADD PUSH1 0x60 ADD MSTORE DUP11 ADD PUSH2 0x445 JUMP JUMPDEST DUP2 DUP2 GT ISZERO PUSH2 0x472 JUMPI DUP12 PUSH1 0x60 DUP4 DUP10 ADD ADD MSTORE JUMPDEST POP SWAP2 DUP10 ADD MLOAD DUP6 DUP11 ADD MSTORE POP SWAP5 DUP8 ADD SWAP5 PUSH1 0x1F ADD PUSH1 0x1F NOT AND SWAP1 SWAP3 ADD PUSH1 0x60 ADD SWAP2 SWAP1 DUP7 ADD SWAP1 PUSH1 0x1 ADD PUSH2 0x424 JUMP JUMPDEST POP SWAP1 SWAP9 SWAP8 POP POP POP POP POP POP POP POP JUMP JUMPDEST PUSH1 0x20 DUP1 DUP3 MSTORE PUSH1 0x1B SWAP1 DUP3 ADD MSTORE PUSH32 0x566F74696E6753797374656D3A20616C726561647920766F7465640000000000 PUSH1 0x40 DUP3 ADD MSTORE PUSH1 0x60 ADD SWAP1 JUMP JUMPDEST PUSH1 0x20 DUP1 DUP3 MSTORE PUSH1 0x26 SWAP1 DUP3 ADD MSTORE PUSH32 0x566F74696E6753797374656D3A2063616E64696461746520646F6573206E6F74 PUSH1 0x40 DUP3 ADD MSTORE PUSH6 0x8195E1A5CDD PUSH1 0xD2 SHL PUSH1 0x60 DUP3 ADD MSTORE PUSH1 0x80 ADD SWAP1 JUMP JUMPDEST PUSH1 0x2 DUP2 DIV PUSH1 0x1 DUP3 AND DUP1 PUSH2 0x539 JUMPI PUSH1 0x7F DUP3 AND SWAP2 POP JUMPDEST PUSH1 0x20 DUP3 LT DUP2 EQ ISZERO PUSH2 0x55A JUMPI PUSH4 0x4E487B71 PUSH1 0xE0 SHL PUSH1 0x0 MSTORE PUSH1 0x22 PUSH1 0x4 MSTORE PUSH1 0x24 PUSH1 0x0 REVERT JUMPDEST POP SWAP2 SWAP1 POP JUMP JUMPDEST PUSH1 0x0 PUSH1 0x0 NOT DUP3 EQ ISZERO PUSH2 0x580 JUMPI PUSH4 0x4E487B71 PUSH1 0xE0 SHL DUP2 MSTORE PUSH1 0x11 PUSH1 0x4 MSTORE PUSH1 0x24 DUP2 REVERT JUMPDEST POP PUSH1 0x1 ADD SWAP1 JUMP JUMPDEST PUSH4 0x4E487B71 PUSH1 0xE0 SHL PUSH1 0x0 MSTORE PUSH1 0x41 PUSH1 0x4 MSTORE PUSH1 0x24 PUSH1 0x0 REVERT INVALID LOG2 PUSH5 0x6970667358 0x22 SLT KECCAK256 0x5E PUSH7 0xEFD19763C83B PUSH13 0x292CBDBECEF4CEA9F74B0923A4 0x2A PUSH10 0x2933F4B7BDEE0164736F PUSH13 0x63430008000033000000000000 "
				},
				"gasEstimates": {
					"creation": {
						"codeDepositCost": "298200",
						"executionCost": "337",
						"totalCost": "298537"
					},
					"external": {
						"addCandidate(string)": "infinite",
						"getResults()": "infinite",
						"vote(uint256)": "44611"
					}
				},
				"methodIdentifiers": {
					"addCandidate(string)": "462e91ec",
					"getResults()": "4717f97c",
					"vote(uint256)": "0121b93f"
				}
			},
			"storageLayout": {
				"storage": [
					{
						"astId": 10,
						"contract": "contracts/HomeWork_1/VotingSystem.sol:VotingSystem",
						"label": "candidates",
						"offset": 0,
						"slot": "0",
						"type": "t_array(t_struct(Candidate)6_storage)dyn_storage"
					},
					{
						"astId": 14,
						"contract": "contracts/HomeWork_1/VotingSystem.sol:VotingSystem",
						"label": "hasVoted",
						"offset": 0,
						"slot": "1",
						"type": "t_mapping(t_address,t_bool)"
					}
				],
				"types": {
					"t_address": {
						"encoding": "inplace",
						"label": "address",
						"numberOfBytes": "20"
					},
					"t_array(t_struct(Candidate)6_storage)dyn_storage": {
						"base": "t_struct(Candidate)6_storage",
						"encoding": "dynamic_array",
						"label": "struct VotingSystem.Candidate[]",
						"numberOfBytes": "32"
					},
					"t_bool": {
						"encoding": "inplace",
						"label": "bool",
						"numberOfBytes": "1"
					},
					"t_mapping(t_address,t_bool)": {
						"encoding": "mapping",
						"key": "t_address",
						"label": "mapping(address => bool)",
						"numberOfBytes": "32",
						"value": "t_bool"
					},
					"t_string_storage": {
						"encoding": "bytes",
						"label": "string",
						"numberOfBytes": "32"
					},
					"t_struct(Candidate)6_storage": {
						"encoding": "inplace",
						"label": "struct VotingSystem.Candidate",
						"members": [
							{
								"astId": 3,
								"contract": "contracts/HomeWork_1/VotingSystem.sol:VotingSystem",
								"label": "name",
								"offset": 0,
								"slot": "0",
								"type": "t_string_storage"
							},
							{
								"astId": 5,
								"contract": "contracts/HomeWork_1/VotingSystem.sol:VotingSystem",
								"label": "voteCount",
								"offset": 0,
								"slot": "1",
								"type": "t_uint256"
							}
						],
						"numberOfBytes": "64"
					},
					"t_uint256": {
						"encoding": "inplace",
						"label": "uint256",
						"numberOfBytes": "32"
					}
				}
			},
			"userdoc": {
				"kind": "user",
				"methods": {},
				"version": 1
			}
		}
	}
}