{
	"libs/HomeWork_libs2/ArrayLibrary.sol": {
		"ArrayLibrary": {
			"abi": [
				{
					"inputs": [
						{
							"internalType": "uint256[]",
							"name": "arr",
							"type": "uint256[]"
						}
					],
					"name": "sort",
					"outputs": [
						{
							"internalType": "uint256[]",
							"name": "",
							"type": "uint256[]"
						}
					],
					"stateMutability": "pure",
					"type": "function"
				}
			],
			"devdoc": {
				"kind": "dev",
				"methods": {},
				"version": 1
			},
			"evm": {
				"assembly": "    /* \"libs/HomeWork_libs2/ArrayLibrary.sol\":57:1382  library ArrayLibrary {... */\n  dataSize(sub_0)\n  dataOffset(sub_0)\n  0x0b\n  dup3\n  dup3\n  dup3\n  codecopy\n  dup1\n  mload\n  0x00\n  byte\n  0x73\n  eq\n  tag_1\n  jumpi\n  mstore(0x00, shl(0xe0, 0x4e487b71))\n  mstore(0x04, 0x00)\n  revert(0x00, 0x24)\ntag_1:\n  mstore(0x00, address)\n  0x73\n  dup2\n  mstore8\n  dup3\n  dup2\n  return\nstop\n\nsub_0: assembly {\n        /* \"libs/HomeWork_libs2/ArrayLibrary.sol\":57:1382  library ArrayLibrary {... */\n      eq(address, deployTimeAddress())\n      mstore(0x40, 0x80)\n      jumpi(tag_1, lt(calldatasize, 0x04))\n      shr(0xe0, calldataload(0x00))\n      dup1\n      0x9ec8b026\n      eq\n      tag_2\n      jumpi\n    tag_1:\n      0x00\n      dup1\n      revert\n        /* \"libs/HomeWork_libs2/ArrayLibrary.sol\":333:889  function sort(uint[] memory arr) public pure returns (uint[] memory) {... */\n    tag_2:\n      tag_3\n      tag_4\n      calldatasize\n      0x04\n      tag_5\n      jump\t// in\n    tag_4:\n      tag_6\n      jump\t// in\n    tag_3:\n      mload(0x40)\n      tag_7\n      swap2\n      swap1\n      tag_8\n      jump\t// in\n    tag_7:\n      mload(0x40)\n      dup1\n      swap2\n      sub\n      swap1\n      return\n    tag_6:\n        /* \"libs/HomeWork_libs2/ArrayLibrary.sol\":387:400  uint[] memory */\n      0x60\n        /* \"libs/HomeWork_libs2/ArrayLibrary.sol\":412:435  uint[] memory sortedArr */\n      0x00\n        /* \"libs/HomeWork_libs2/ArrayLibrary.sol\":449:452  arr */\n      dup3\n        /* \"libs/HomeWork_libs2/ArrayLibrary.sol\":449:459  arr.length */\n      mload\n        /* \"libs/HomeWork_libs2/ArrayLibrary.sol\":438:460  new uint[](arr.length) */\n      0xffffffffffffffff\n      dup2\n      gt\n      iszero\n      tag_10\n      jumpi\n      mstore(0x00, shl(0xe0, 0x4e487b71))\n      mstore(0x04, 0x41)\n      revert(0x00, 0x24)\n    tag_10:\n      mload(0x40)\n      swap1\n      dup1\n      dup3\n      mstore\n      dup1\n      0x20\n      mul\n      0x20\n      add\n      dup3\n      add\n      0x40\n      mstore\n      dup1\n      iszero\n      tag_11\n      jumpi\n      dup2\n      0x20\n      add\n      0x20\n      dup3\n      mul\n      dup1\n      calldatasize\n      dup4\n      calldatacopy\n      add\n      swap1\n      pop\n    tag_11:\n      pop\n        /* \"libs/HomeWork_libs2/ArrayLibrary.sol\":412:460  uint[] memory sortedArr = new uint[](arr.length) */\n      swap1\n      pop\n        /* \"libs/HomeWork_libs2/ArrayLibrary.sol\":475:481  uint i */\n      0x00\n        /* \"libs/HomeWork_libs2/ArrayLibrary.sol\":470:554  for (uint i = 0; i < arr.length; i++) {... */\n    tag_12:\n        /* \"libs/HomeWork_libs2/ArrayLibrary.sol\":491:494  arr */\n      dup4\n        /* \"libs/HomeWork_libs2/ArrayLibrary.sol\":491:501  arr.length */\n      mload\n        /* \"libs/HomeWork_libs2/ArrayLibrary.sol\":487:488  i */\n      dup2\n        /* \"libs/HomeWork_libs2/ArrayLibrary.sol\":487:501  i < arr.length */\n      lt\n        /* \"libs/HomeWork_libs2/ArrayLibrary.sol\":470:554  for (uint i = 0; i < arr.length; i++) {... */\n      iszero\n      tag_13\n      jumpi\n        /* \"libs/HomeWork_libs2/ArrayLibrary.sol\":537:540  arr */\n      dup4\n        /* \"libs/HomeWork_libs2/ArrayLibrary.sol\":541:542  i */\n      dup2\n        /* \"libs/HomeWork_libs2/ArrayLibrary.sol\":537:543  arr[i] */\n      dup2\n      mload\n      dup2\n      lt\n      tag_15\n      jumpi\n      mstore(0x00, shl(0xe0, 0x4e487b71))\n      mstore(0x04, 0x32)\n      revert(0x00, 0x24)\n    tag_15:\n      0x20\n      mul\n      0x20\n      add\n      add\n      mload\n        /* \"libs/HomeWork_libs2/ArrayLibrary.sol\":522:531  sortedArr */\n      dup3\n        /* \"libs/HomeWork_libs2/ArrayLibrary.sol\":532:533  i */\n      dup3\n        /* \"libs/HomeWork_libs2/ArrayLibrary.sol\":522:534  sortedArr[i] */\n      dup2\n      mload\n      dup2\n      lt\n      tag_16\n      jumpi\n      mstore(0x00, shl(0xe0, 0x4e487b71))\n      mstore(0x04, 0x32)\n      revert(0x00, 0x24)\n    tag_16:\n      0x20\n      swap1\n      dup2\n      mul\n      swap2\n      swap1\n      swap2\n      add\n      add\n        /* \"libs/HomeWork_libs2/ArrayLibrary.sol\":522:543  sortedArr[i] = arr[i] */\n      mstore\n        /* \"libs/HomeWork_libs2/ArrayLibrary.sol\":503:506  i++ */\n      dup1\n      tag_17\n      dup2\n      tag_18\n      jump\t// in\n    tag_17:\n      swap2\n      pop\n      pop\n        /* \"libs/HomeWork_libs2/ArrayLibrary.sol\":470:554  for (uint i = 0; i < arr.length; i++) {... */\n      jump(tag_12)\n    tag_13:\n      pop\n        /* \"libs/HomeWork_libs2/ArrayLibrary.sol\":577:583  uint i */\n      0x00\n        /* \"libs/HomeWork_libs2/ArrayLibrary.sol\":572:857  for (uint i = 0; i < sortedArr.length - 1; i++) {... */\n    tag_19:\n        /* \"libs/HomeWork_libs2/ArrayLibrary.sol\":612:613  1 */\n      0x01\n        /* \"libs/HomeWork_libs2/ArrayLibrary.sol\":593:602  sortedArr */\n      dup3\n        /* \"libs/HomeWork_libs2/ArrayLibrary.sol\":593:609  sortedArr.length */\n      mload\n        /* \"libs/HomeWork_libs2/ArrayLibrary.sol\":593:613  sortedArr.length - 1 */\n      tag_22\n      swap2\n      swap1\n      tag_23\n      jump\t// in\n    tag_22:\n        /* \"libs/HomeWork_libs2/ArrayLibrary.sol\":589:590  i */\n      dup2\n        /* \"libs/HomeWork_libs2/ArrayLibrary.sol\":589:613  i < sortedArr.length - 1 */\n      lt\n        /* \"libs/HomeWork_libs2/ArrayLibrary.sol\":572:857  for (uint i = 0; i < sortedArr.length - 1; i++) {... */\n      iszero\n      tag_20\n      jumpi\n        /* \"libs/HomeWork_libs2/ArrayLibrary.sol\":639:645  uint j */\n      0x00\n        /* \"libs/HomeWork_libs2/ArrayLibrary.sol\":648:653  i + 1 */\n      tag_27\n        /* \"libs/HomeWork_libs2/ArrayLibrary.sol\":648:649  i */\n      dup3\n        /* \"libs/HomeWork_libs2/ArrayLibrary.sol\":652:653  1 */\n      0x01\n        /* \"libs/HomeWork_libs2/ArrayLibrary.sol\":648:653  i + 1 */\n      tag_28\n      jump\t// in\n    tag_27:\n        /* \"libs/HomeWork_libs2/ArrayLibrary.sol\":639:653  uint j = i + 1 */\n      swap1\n      pop\n        /* \"libs/HomeWork_libs2/ArrayLibrary.sol\":634:847  for (uint j = i + 1; j < sortedArr.length; j++) {... */\n    tag_24:\n        /* \"libs/HomeWork_libs2/ArrayLibrary.sol\":659:668  sortedArr */\n      dup3\n        /* \"libs/HomeWork_libs2/ArrayLibrary.sol\":659:675  sortedArr.length */\n      mload\n        /* \"libs/HomeWork_libs2/ArrayLibrary.sol\":655:656  j */\n      dup2\n        /* \"libs/HomeWork_libs2/ArrayLibrary.sol\":655:675  j < sortedArr.length */\n      lt\n        /* \"libs/HomeWork_libs2/ArrayLibrary.sol\":634:847  for (uint j = i + 1; j < sortedArr.length; j++) {... */\n      iszero\n      tag_25\n      jumpi\n        /* \"libs/HomeWork_libs2/ArrayLibrary.sol\":719:728  sortedArr */\n      dup3\n        /* \"libs/HomeWork_libs2/ArrayLibrary.sol\":729:730  j */\n      dup2\n        /* \"libs/HomeWork_libs2/ArrayLibrary.sol\":719:731  sortedArr[j] */\n      dup2\n      mload\n      dup2\n      lt\n      tag_29\n      jumpi\n      mstore(0x00, shl(0xe0, 0x4e487b71))\n      mstore(0x04, 0x32)\n      revert(0x00, 0x24)\n    tag_29:\n      0x20\n      mul\n      0x20\n      add\n      add\n      mload\n        /* \"libs/HomeWork_libs2/ArrayLibrary.sol\":704:713  sortedArr */\n      dup4\n        /* \"libs/HomeWork_libs2/ArrayLibrary.sol\":714:715  i */\n      dup4\n        /* \"libs/HomeWork_libs2/ArrayLibrary.sol\":704:716  sortedArr[i] */\n      dup2\n      mload\n      dup2\n      lt\n      tag_30\n      jumpi\n      mstore(0x00, shl(0xe0, 0x4e487b71))\n      mstore(0x04, 0x32)\n      revert(0x00, 0x24)\n    tag_30:\n      0x20\n      mul\n      0x20\n      add\n      add\n      mload\n        /* \"libs/HomeWork_libs2/ArrayLibrary.sol\":704:731  sortedArr[i] > sortedArr[j] */\n      gt\n        /* \"libs/HomeWork_libs2/ArrayLibrary.sol\":700:833  if (sortedArr[i] > sortedArr[j]) {... */\n      iszero\n      tag_31\n      jumpi\n        /* \"libs/HomeWork_libs2/ArrayLibrary.sol\":787:796  sortedArr */\n      dup3\n        /* \"libs/HomeWork_libs2/ArrayLibrary.sol\":797:798  j */\n      dup2\n        /* \"libs/HomeWork_libs2/ArrayLibrary.sol\":787:799  sortedArr[j] */\n      dup2\n      mload\n      dup2\n      lt\n      tag_32\n      jumpi\n      mstore(0x00, shl(0xe0, 0x4e487b71))\n      mstore(0x04, 0x32)\n      revert(0x00, 0x24)\n    tag_32:\n      0x20\n      mul\n      0x20\n      add\n      add\n      mload\n        /* \"libs/HomeWork_libs2/ArrayLibrary.sol\":801:810  sortedArr */\n      dup4\n        /* \"libs/HomeWork_libs2/ArrayLibrary.sol\":811:812  i */\n      dup4\n        /* \"libs/HomeWork_libs2/ArrayLibrary.sol\":801:813  sortedArr[i] */\n      dup2\n      mload\n      dup2\n      lt\n      tag_33\n      jumpi\n      mstore(0x00, shl(0xe0, 0x4e487b71))\n      mstore(0x04, 0x32)\n      revert(0x00, 0x24)\n    tag_33:\n      0x20\n      mul\n      0x20\n      add\n      add\n      mload\n        /* \"libs/HomeWork_libs2/ArrayLibrary.sol\":756:765  sortedArr */\n      dup5\n        /* \"libs/HomeWork_libs2/ArrayLibrary.sol\":766:767  i */\n      dup5\n        /* \"libs/HomeWork_libs2/ArrayLibrary.sol\":756:768  sortedArr[i] */\n      dup2\n      mload\n      dup2\n      lt\n      tag_34\n      jumpi\n      mstore(0x00, shl(0xe0, 0x4e487b71))\n      mstore(0x04, 0x32)\n      revert(0x00, 0x24)\n    tag_34:\n      0x20\n      mul\n      0x20\n      add\n      add\n        /* \"libs/HomeWork_libs2/ArrayLibrary.sol\":770:779  sortedArr */\n      dup6\n        /* \"libs/HomeWork_libs2/ArrayLibrary.sol\":780:781  j */\n      dup5\n        /* \"libs/HomeWork_libs2/ArrayLibrary.sol\":770:782  sortedArr[j] */\n      dup2\n      mload\n      dup2\n      lt\n      tag_35\n      jumpi\n      mstore(0x00, shl(0xe0, 0x4e487b71))\n      mstore(0x04, 0x32)\n      revert(0x00, 0x24)\n    tag_35:\n      0x20\n      swap1\n      dup2\n      mul\n      swap2\n      swap1\n      swap2\n      add\n      add\n        /* \"libs/HomeWork_libs2/ArrayLibrary.sol\":755:814  (sortedArr[i], sortedArr[j]) = (sortedArr[j], sortedArr[i]) */\n      swap2\n      swap1\n      swap2\n      mstore\n      mstore\n        /* \"libs/HomeWork_libs2/ArrayLibrary.sol\":700:833  if (sortedArr[i] > sortedArr[j]) {... */\n    tag_31:\n        /* \"libs/HomeWork_libs2/ArrayLibrary.sol\":677:680  j++ */\n      dup1\n      tag_36\n      dup2\n      tag_18\n      jump\t// in\n    tag_36:\n      swap2\n      pop\n      pop\n        /* \"libs/HomeWork_libs2/ArrayLibrary.sol\":634:847  for (uint j = i + 1; j < sortedArr.length; j++) {... */\n      jump(tag_24)\n    tag_25:\n      pop\n        /* \"libs/HomeWork_libs2/ArrayLibrary.sol\":615:618  i++ */\n      dup1\n      tag_37\n      dup2\n      tag_18\n      jump\t// in\n    tag_37:\n      swap2\n      pop\n      pop\n        /* \"libs/HomeWork_libs2/ArrayLibrary.sol\":572:857  for (uint i = 0; i < sortedArr.length - 1; i++) {... */\n      jump(tag_19)\n    tag_20:\n      pop\n        /* \"libs/HomeWork_libs2/ArrayLibrary.sol\":873:882  sortedArr */\n      swap3\n        /* \"libs/HomeWork_libs2/ArrayLibrary.sol\":333:889  function sort(uint[] memory arr) public pure returns (uint[] memory) {... */\n      swap2\n      pop\n      pop\n      jump\t// out\n        /* \"#utility.yul\":14:1172   */\n    tag_5:\n      0x00\n        /* \"#utility.yul\":129:131   */\n      0x20\n        /* \"#utility.yul\":172:174   */\n      dup1\n        /* \"#utility.yul\":160:169   */\n      dup4\n        /* \"#utility.yul\":151:158   */\n      dup6\n        /* \"#utility.yul\":147:170   */\n      sub\n        /* \"#utility.yul\":143:175   */\n      slt\n        /* \"#utility.yul\":140:142   */\n      iszero\n      tag_40\n      jumpi\n        /* \"#utility.yul\":193:199   */\n      dup2\n        /* \"#utility.yul\":185:191   */\n      dup3\n        /* \"#utility.yul\":178:200   */\n      revert\n        /* \"#utility.yul\":140:142   */\n    tag_40:\n        /* \"#utility.yul\":238:247   */\n      dup3\n        /* \"#utility.yul\":225:248   */\n      calldataload\n        /* \"#utility.yul\":267:285   */\n      0xffffffffffffffff\n        /* \"#utility.yul\":308:310   */\n      dup1\n        /* \"#utility.yul\":300:306   */\n      dup3\n        /* \"#utility.yul\":297:311   */\n      gt\n        /* \"#utility.yul\":294:296   */\n      iszero\n      tag_41\n      jumpi\n        /* \"#utility.yul\":329:335   */\n      dup4\n        /* \"#utility.yul\":321:327   */\n      dup5\n        /* \"#utility.yul\":314:336   */\n      revert\n        /* \"#utility.yul\":294:296   */\n    tag_41:\n        /* \"#utility.yul\":372:378   */\n      dup2\n        /* \"#utility.yul\":361:370   */\n      dup6\n        /* \"#utility.yul\":357:379   */\n      add\n        /* \"#utility.yul\":347:379   */\n      swap2\n      pop\n        /* \"#utility.yul\":417:424   */\n      dup6\n        /* \"#utility.yul\":410:414   */\n      0x1f\n        /* \"#utility.yul\":406:408   */\n      dup4\n        /* \"#utility.yul\":402:415   */\n      add\n        /* \"#utility.yul\":398:425   */\n      slt\n        /* \"#utility.yul\":388:390   */\n      tag_42\n      jumpi\n        /* \"#utility.yul\":444:450   */\n      dup4\n        /* \"#utility.yul\":436:442   */\n      dup5\n        /* \"#utility.yul\":429:451   */\n      revert\n        /* \"#utility.yul\":388:390   */\n    tag_42:\n        /* \"#utility.yul\":485:487   */\n      dup2\n        /* \"#utility.yul\":472:488   */\n      calldataload\n        /* \"#utility.yul\":507:509   */\n      dup2\n        /* \"#utility.yul\":503:505   */\n      dup2\n        /* \"#utility.yul\":500:510   */\n      gt\n        /* \"#utility.yul\":497:499   */\n      iszero\n      tag_44\n      jumpi\n        /* \"#utility.yul\":513:531   */\n      tag_44\n      tag_45\n      jump\t// in\n    tag_44:\n        /* \"#utility.yul\":560:562   */\n      dup4\n        /* \"#utility.yul\":556:558   */\n      dup2\n        /* \"#utility.yul\":552:563   */\n      mul\n        /* \"#utility.yul\":592:594   */\n      0x40\n        /* \"#utility.yul\":586:595   */\n      mload\n        /* \"#utility.yul\":643:645   */\n      dup6\n        /* \"#utility.yul\":638:640   */\n      dup3\n        /* \"#utility.yul\":630:636   */\n      dup3\n        /* \"#utility.yul\":626:641   */\n      add\n        /* \"#utility.yul\":622:646   */\n      add\n        /* \"#utility.yul\":696:702   */\n      dup2\n        /* \"#utility.yul\":684:694   */\n      dup2\n        /* \"#utility.yul\":681:703   */\n      lt\n        /* \"#utility.yul\":676:678   */\n      dup6\n        /* \"#utility.yul\":664:674   */\n      dup3\n        /* \"#utility.yul\":661:679   */\n      gt\n        /* \"#utility.yul\":658:704   */\n      or\n        /* \"#utility.yul\":655:657   */\n      iszero\n      tag_47\n      jumpi\n        /* \"#utility.yul\":707:725   */\n      tag_47\n      tag_45\n      jump\t// in\n    tag_47:\n        /* \"#utility.yul\":743:745   */\n      0x40\n        /* \"#utility.yul\":736:758   */\n      mstore\n        /* \"#utility.yul\":793:811   */\n      dup3\n      dup2\n      mstore\n        /* \"#utility.yul\":827:842   */\n      dup6\n      dup2\n      add\n      swap4\n      pop\n        /* \"#utility.yul\":862:873   */\n      dup5\n      dup7\n      add\n        /* \"#utility.yul\":892:903   */\n      dup3\n      dup7\n      add\n        /* \"#utility.yul\":888:908   */\n      dup8\n      add\n        /* \"#utility.yul\":885:918   */\n      dup11\n      lt\n        /* \"#utility.yul\":882:884   */\n      iszero\n      tag_48\n      jumpi\n        /* \"#utility.yul\":936:942   */\n      dup8\n        /* \"#utility.yul\":928:934   */\n      dup9\n        /* \"#utility.yul\":921:943   */\n      revert\n        /* \"#utility.yul\":882:884   */\n    tag_48:\n        /* \"#utility.yul\":963:969   */\n      dup8\n        /* \"#utility.yul\":954:969   */\n      swap6\n      pop\n        /* \"#utility.yul\":978:1141   */\n    tag_49:\n        /* \"#utility.yul\":992:994   */\n      dup4\n        /* \"#utility.yul\":989:990   */\n      dup7\n        /* \"#utility.yul\":986:995   */\n      lt\n        /* \"#utility.yul\":978:1141   */\n      iszero\n      tag_51\n      jumpi\n        /* \"#utility.yul\":1049:1066   */\n      dup1\n      calldataload\n        /* \"#utility.yul\":1037:1067   */\n      dup6\n      mstore\n        /* \"#utility.yul\":1010:1011   */\n      0x01\n        /* \"#utility.yul\":1003:1012   */\n      swap6\n      swap1\n      swap6\n      add\n      swap5\n        /* \"#utility.yul\":1087:1099   */\n      swap4\n      dup7\n      add\n      swap4\n        /* \"#utility.yul\":1119:1131   */\n      dup7\n      add\n        /* \"#utility.yul\":978:1141   */\n      jump(tag_49)\n    tag_51:\n      pop\n        /* \"#utility.yul\":1160:1166   */\n      swap9\n        /* \"#utility.yul\":109:1172   */\n      swap8\n      pop\n      pop\n      pop\n      pop\n      pop\n      pop\n      pop\n      pop\n      jump\t// out\n        /* \"#utility.yul\":1177:1820   */\n    tag_8:\n        /* \"#utility.yul\":1356:1358   */\n      0x20\n        /* \"#utility.yul\":1408:1429   */\n      dup1\n      dup3\n      mstore\n        /* \"#utility.yul\":1478:1491   */\n      dup3\n      mload\n        /* \"#utility.yul\":1381:1399   */\n      dup3\n      dup3\n      add\n        /* \"#utility.yul\":1500:1522   */\n      dup2\n      swap1\n      mstore\n        /* \"#utility.yul\":1177:1820   */\n      0x00\n      swap2\n        /* \"#utility.yul\":1356:1358   */\n      swap1\n        /* \"#utility.yul\":1579:1594   */\n      dup5\n      dup3\n      add\n      swap1\n        /* \"#utility.yul\":1553:1555   */\n      0x40\n        /* \"#utility.yul\":1538:1556   */\n      dup6\n      add\n      swap1\n        /* \"#utility.yul\":1177:1820   */\n      dup5\n        /* \"#utility.yul\":1625:1794   */\n    tag_53:\n        /* \"#utility.yul\":1639:1645   */\n      dup2\n        /* \"#utility.yul\":1636:1637   */\n      dup2\n        /* \"#utility.yul\":1633:1646   */\n      lt\n        /* \"#utility.yul\":1625:1794   */\n      iszero\n      tag_55\n      jumpi\n        /* \"#utility.yul\":1700:1713   */\n      dup4\n      mload\n        /* \"#utility.yul\":1688:1714   */\n      dup4\n      mstore\n        /* \"#utility.yul\":1769:1784   */\n      swap3\n      dup5\n      add\n      swap3\n        /* \"#utility.yul\":1734:1746   */\n      swap2\n      dup5\n      add\n      swap2\n        /* \"#utility.yul\":1661:1662   */\n      0x01\n        /* \"#utility.yul\":1654:1663   */\n      add\n        /* \"#utility.yul\":1625:1794   */\n      jump(tag_53)\n    tag_55:\n      pop\n        /* \"#utility.yul\":1811:1814   */\n      swap1\n      swap7\n        /* \"#utility.yul\":1336:1820   */\n      swap6\n      pop\n      pop\n      pop\n      pop\n      pop\n      pop\n      jump\t// out\n        /* \"#utility.yul\":1825:1953   */\n    tag_28:\n      0x00\n        /* \"#utility.yul\":1896:1897   */\n      dup3\n        /* \"#utility.yul\":1892:1898   */\n      not\n        /* \"#utility.yul\":1889:1890   */\n      dup3\n        /* \"#utility.yul\":1886:1899   */\n      gt\n        /* \"#utility.yul\":1883:1885   */\n      iszero\n      tag_58\n      jumpi\n        /* \"#utility.yul\":1902:1920   */\n      tag_58\n      tag_59\n      jump\t// in\n    tag_58:\n      pop\n        /* \"#utility.yul\":1938:1947   */\n      add\n      swap1\n        /* \"#utility.yul\":1873:1953   */\n      jump\t// out\n        /* \"#utility.yul\":1958:2083   */\n    tag_23:\n      0x00\n        /* \"#utility.yul\":2026:2027   */\n      dup3\n        /* \"#utility.yul\":2023:2024   */\n      dup3\n        /* \"#utility.yul\":2020:2028   */\n      lt\n        /* \"#utility.yul\":2017:2019   */\n      iszero\n      tag_62\n      jumpi\n        /* \"#utility.yul\":2031:2049   */\n      tag_62\n      tag_59\n      jump\t// in\n    tag_62:\n      pop\n        /* \"#utility.yul\":2068:2077   */\n      sub\n      swap1\n        /* \"#utility.yul\":2007:2083   */\n      jump\t// out\n        /* \"#utility.yul\":2088:2223   */\n    tag_18:\n      0x00\n      not(0x00)\n        /* \"#utility.yul\":2148:2165   */\n      dup3\n      eq\n        /* \"#utility.yul\":2145:2147   */\n      iszero\n      tag_65\n      jumpi\n        /* \"#utility.yul\":2168:2186   */\n      tag_65\n      tag_59\n      jump\t// in\n    tag_65:\n      pop\n        /* \"#utility.yul\":2215:2216   */\n      0x01\n        /* \"#utility.yul\":2204:2217   */\n      add\n      swap1\n        /* \"#utility.yul\":2135:2223   */\n      jump\t// out\n        /* \"#utility.yul\":2228:2355   */\n    tag_59:\n        /* \"#utility.yul\":2289:2299   */\n      0x4e487b71\n        /* \"#utility.yul\":2284:2287   */\n      0xe0\n        /* \"#utility.yul\":2280:2300   */\n      shl\n        /* \"#utility.yul\":2277:2278   */\n      0x00\n        /* \"#utility.yul\":2270:2301   */\n      mstore\n        /* \"#utility.yul\":2320:2324   */\n      0x11\n        /* \"#utility.yul\":2317:2318   */\n      0x04\n        /* \"#utility.yul\":2310:2325   */\n      mstore\n        /* \"#utility.yul\":2344:2348   */\n      0x24\n        /* \"#utility.yul\":2341:2342   */\n      0x00\n        /* \"#utility.yul\":2334:2349   */\n      revert\n        /* \"#utility.yul\":2360:2487   */\n    tag_45:\n        /* \"#utility.yul\":2421:2431   */\n      0x4e487b71\n        /* \"#utility.yul\":2416:2419   */\n      0xe0\n        /* \"#utility.yul\":2412:2432   */\n      shl\n        /* \"#utility.yul\":2409:2410   */\n      0x00\n        /* \"#utility.yul\":2402:2433   */\n      mstore\n        /* \"#utility.yul\":2452:2456   */\n      0x41\n        /* \"#utility.yul\":2449:2450   */\n      0x04\n        /* \"#utility.yul\":2442:2457   */\n      mstore\n        /* \"#utility.yul\":2476:2480   */\n      0x24\n        /* \"#utility.yul\":2473:2474   */\n      0x00\n        /* \"#utility.yul\":2466:2481   */\n      revert\n\n    auxdata: 0xa26469706673582212200aa302876f0c666a938a265036c7c1e9472c08676b995506679470b31cb5a95264736f6c63430008000033\n}\n",
				"bytecode": {
					"linkReferences": {},
					"object": "61043161003a600b82828239805160001a60731461002d57634e487b7160e01b600052600060045260246000fd5b30600052607381538281f3fe73000000000000000000000000000000000000000030146080604052600436106100355760003560e01c80639ec8b0261461003a575b600080fd5b61004d610048366004610287565b610063565b60405161005a9190610341565b60405180910390f35b60606000825167ffffffffffffffff81111561008f57634e487b7160e01b600052604160045260246000fd5b6040519080825280602002602001820160405280156100b8578160200160208202803683370190505b50905060005b835181101561012c578381815181106100e757634e487b7160e01b600052603260045260246000fd5b602002602001015182828151811061010f57634e487b7160e01b600052603260045260246000fd5b602090810291909101015280610124816103b4565b9150506100be565b5060005b6001825161013e919061039d565b811015610280576000610152826001610385565b90505b825181101561026d5782818151811061017e57634e487b7160e01b600052603260045260246000fd5b60200260200101518383815181106101a657634e487b7160e01b600052603260045260246000fd5b6020026020010151111561025b578281815181106101d457634e487b7160e01b600052603260045260246000fd5b60200260200101518383815181106101fc57634e487b7160e01b600052603260045260246000fd5b602002602001015184848151811061022457634e487b7160e01b600052603260045260246000fd5b6020026020010185848151811061024b57634e487b7160e01b600052603260045260246000fd5b6020908102919091010191909152525b80610265816103b4565b915050610155565b5080610278816103b4565b915050610130565b5092915050565b60006020808385031215610299578182fd5b823567ffffffffffffffff808211156102b0578384fd5b818501915085601f8301126102c3578384fd5b8135818111156102d5576102d56103e5565b838102604051858282010181811085821117156102f4576102f46103e5565b604052828152858101935084860182860187018a1015610312578788fd5b8795505b83861015610334578035855260019590950194938601938601610316565b5098975050505050505050565b6020808252825182820181905260009190848201906040850190845b818110156103795783518352928401929184019160010161035d565b50909695505050505050565b60008219821115610398576103986103cf565b500190565b6000828210156103af576103af6103cf565b500390565b60006000198214156103c8576103c86103cf565b5060010190565b634e487b7160e01b600052601160045260246000fd5b634e487b7160e01b600052604160045260246000fdfea26469706673582212200aa302876f0c666a938a265036c7c1e9472c08676b995506679470b31cb5a95264736f6c63430008000033",
					"opcodes": "PUSH2 0x431 PUSH2 0x3A PUSH1 0xB DUP3 DUP3 DUP3 CODECOPY DUP1 MLOAD PUSH1 0x0 BYTE PUSH1 0x73 EQ PUSH2 0x2D JUMPI PUSH4 0x4E487B71 PUSH1 0xE0 SHL PUSH1 0x0 MSTORE PUSH1 0x0 PUSH1 0x4 MSTORE PUSH1 0x24 PUSH1 0x0 REVERT JUMPDEST ADDRESS PUSH1 0x0 MSTORE PUSH1 0x73 DUP2 MSTORE8 DUP3 DUP2 RETURN INVALID PUSH20 0x0 ADDRESS EQ PUSH1 0x80 PUSH1 0x40 MSTORE PUSH1 0x4 CALLDATASIZE LT PUSH2 0x35 JUMPI PUSH1 0x0 CALLDATALOAD PUSH1 0xE0 SHR DUP1 PUSH4 0x9EC8B026 EQ PUSH2 0x3A JUMPI JUMPDEST PUSH1 0x0 DUP1 REVERT JUMPDEST PUSH2 0x4D PUSH2 0x48 CALLDATASIZE PUSH1 0x4 PUSH2 0x287 JUMP JUMPDEST PUSH2 0x63 JUMP JUMPDEST PUSH1 0x40 MLOAD PUSH2 0x5A SWAP2 SWAP1 PUSH2 0x341 JUMP JUMPDEST PUSH1 0x40 MLOAD DUP1 SWAP2 SUB SWAP1 RETURN JUMPDEST PUSH1 0x60 PUSH1 0x0 DUP3 MLOAD PUSH8 0xFFFFFFFFFFFFFFFF DUP2 GT ISZERO PUSH2 0x8F JUMPI PUSH4 0x4E487B71 PUSH1 0xE0 SHL PUSH1 0x0 MSTORE PUSH1 0x41 PUSH1 0x4 MSTORE PUSH1 0x24 PUSH1 0x0 REVERT JUMPDEST PUSH1 0x40 MLOAD SWAP1 DUP1 DUP3 MSTORE DUP1 PUSH1 0x20 MUL PUSH1 0x20 ADD DUP3 ADD PUSH1 0x40 MSTORE DUP1 ISZERO PUSH2 0xB8 JUMPI DUP2 PUSH1 0x20 ADD PUSH1 0x20 DUP3 MUL DUP1 CALLDATASIZE DUP4 CALLDATACOPY ADD SWAP1 POP JUMPDEST POP SWAP1 POP PUSH1 0x0 JUMPDEST DUP4 MLOAD DUP2 LT ISZERO PUSH2 0x12C JUMPI DUP4 DUP2 DUP2 MLOAD DUP2 LT PUSH2 0xE7 JUMPI PUSH4 0x4E487B71 PUSH1 0xE0 SHL PUSH1 0x0 MSTORE PUSH1 0x32 PUSH1 0x4 MSTORE PUSH1 0x24 PUSH1 0x0 REVERT JUMPDEST PUSH1 0x20 MUL PUSH1 0x20 ADD ADD MLOAD DUP3 DUP3 DUP2 MLOAD DUP2 LT PUSH2 0x10F JUMPI PUSH4 0x4E487B71 PUSH1 0xE0 SHL PUSH1 0x0 MSTORE PUSH1 0x32 PUSH1 0x4 MSTORE PUSH1 0x24 PUSH1 0x0 REVERT JUMPDEST PUSH1 0x20 SWAP1 DUP2 MUL SWAP2 SWAP1 SWAP2 ADD ADD MSTORE DUP1 PUSH2 0x124 DUP2 PUSH2 0x3B4 JUMP JUMPDEST SWAP2 POP POP PUSH2 0xBE JUMP JUMPDEST POP PUSH1 0x0 JUMPDEST PUSH1 0x1 DUP3 MLOAD PUSH2 0x13E SWAP2 SWAP1 PUSH2 0x39D JUMP JUMPDEST DUP2 LT ISZERO PUSH2 0x280 JUMPI PUSH1 0x0 PUSH2 0x152 DUP3 PUSH1 0x1 PUSH2 0x385 JUMP JUMPDEST SWAP1 POP JUMPDEST DUP3 MLOAD DUP2 LT ISZERO PUSH2 0x26D JUMPI DUP3 DUP2 DUP2 MLOAD DUP2 LT PUSH2 0x17E JUMPI PUSH4 0x4E487B71 PUSH1 0xE0 SHL PUSH1 0x0 MSTORE PUSH1 0x32 PUSH1 0x4 MSTORE PUSH1 0x24 PUSH1 0x0 REVERT JUMPDEST PUSH1 0x20 MUL PUSH1 0x20 ADD ADD MLOAD DUP4 DUP4 DUP2 MLOAD DUP2 LT PUSH2 0x1A6 JUMPI PUSH4 0x4E487B71 PUSH1 0xE0 SHL PUSH1 0x0 MSTORE PUSH1 0x32 PUSH1 0x4 MSTORE PUSH1 0x24 PUSH1 0x0 REVERT JUMPDEST PUSH1 0x20 MUL PUSH1 0x20 ADD ADD MLOAD GT ISZERO PUSH2 0x25B JUMPI DUP3 DUP2 DUP2 MLOAD DUP2 LT PUSH2 0x1D4 JUMPI PUSH4 0x4E487B71 PUSH1 0xE0 SHL PUSH1 0x0 MSTORE PUSH1 0x32 PUSH1 0x4 MSTORE PUSH1 0x24 PUSH1 0x0 REVERT JUMPDEST PUSH1 0x20 MUL PUSH1 0x20 ADD ADD MLOAD DUP4 DUP4 DUP2 MLOAD DUP2 LT PUSH2 0x1FC JUMPI PUSH4 0x4E487B71 PUSH1 0xE0 SHL PUSH1 0x0 MSTORE PUSH1 0x32 PUSH1 0x4 MSTORE PUSH1 0x24 PUSH1 0x0 REVERT JUMPDEST PUSH1 0x20 MUL PUSH1 0x20 ADD ADD MLOAD DUP5 DUP5 DUP2 MLOAD DUP2 LT PUSH2 0x224 JUMPI PUSH4 0x4E487B71 PUSH1 0xE0 SHL PUSH1 0x0 MSTORE PUSH1 0x32 PUSH1 0x4 MSTORE PUSH1 0x24 PUSH1 0x0 REVERT JUMPDEST PUSH1 0x20 MUL PUSH1 0x20 ADD ADD DUP6 DUP5 DUP2 MLOAD DUP2 LT PUSH2 0x24B JUMPI PUSH4 0x4E487B71 PUSH1 0xE0 SHL PUSH1 0x0 MSTORE PUSH1 0x32 PUSH1 0x4 MSTORE PUSH1 0x24 PUSH1 0x0 REVERT JUMPDEST PUSH1 0x20 SWAP1 DUP2 MUL SWAP2 SWAP1 SWAP2 ADD ADD SWAP2 SWAP1 SWAP2 MSTORE MSTORE JUMPDEST DUP1 PUSH2 0x265 DUP2 PUSH2 0x3B4 JUMP JUMPDEST SWAP2 POP POP PUSH2 0x155 JUMP JUMPDEST POP DUP1 PUSH2 0x278 DUP2 PUSH2 0x3B4 JUMP JUMPDEST SWAP2 POP POP PUSH2 0x130 JUMP JUMPDEST POP SWAP3 SWAP2 POP POP JUMP JUMPDEST PUSH1 0x0 PUSH1 0x20 DUP1 DUP4 DUP6 SUB SLT ISZERO PUSH2 0x299 JUMPI DUP2 DUP3 REVERT JUMPDEST DUP3 CALLDATALOAD PUSH8 0xFFFFFFFFFFFFFFFF DUP1 DUP3 GT ISZERO PUSH2 0x2B0 JUMPI DUP4 DUP5 REVERT JUMPDEST DUP2 DUP6 ADD SWAP2 POP DUP6 PUSH1 0x1F DUP4 ADD SLT PUSH2 0x2C3 JUMPI DUP4 DUP5 REVERT JUMPDEST DUP2 CALLDATALOAD DUP2 DUP2 GT ISZERO PUSH2 0x2D5 JUMPI PUSH2 0x2D5 PUSH2 0x3E5 JUMP JUMPDEST DUP4 DUP2 MUL PUSH1 0x40 MLOAD DUP6 DUP3 DUP3 ADD ADD DUP2 DUP2 LT DUP6 DUP3 GT OR ISZERO PUSH2 0x2F4 JUMPI PUSH2 0x2F4 PUSH2 0x3E5 JUMP JUMPDEST PUSH1 0x40 MSTORE DUP3 DUP2 MSTORE DUP6 DUP2 ADD SWAP4 POP DUP5 DUP7 ADD DUP3 DUP7 ADD DUP8 ADD DUP11 LT ISZERO PUSH2 0x312 JUMPI DUP8 DUP9 REVERT JUMPDEST DUP8 SWAP6 POP JUMPDEST DUP4 DUP7 LT ISZERO PUSH2 0x334 JUMPI DUP1 CALLDATALOAD DUP6 MSTORE PUSH1 0x1 SWAP6 SWAP1 SWAP6 ADD SWAP5 SWAP4 DUP7 ADD SWAP4 DUP7 ADD PUSH2 0x316 JUMP JUMPDEST POP SWAP9 SWAP8 POP POP POP POP POP POP POP POP JUMP JUMPDEST PUSH1 0x20 DUP1 DUP3 MSTORE DUP3 MLOAD DUP3 DUP3 ADD DUP2 SWAP1 MSTORE PUSH1 0x0 SWAP2 SWAP1 DUP5 DUP3 ADD SWAP1 PUSH1 0x40 DUP6 ADD SWAP1 DUP5 JUMPDEST DUP2 DUP2 LT ISZERO PUSH2 0x379 JUMPI DUP4 MLOAD DUP4 MSTORE SWAP3 DUP5 ADD SWAP3 SWAP2 DUP5 ADD SWAP2 PUSH1 0x1 ADD PUSH2 0x35D JUMP JUMPDEST POP SWAP1 SWAP7 SWAP6 POP POP POP POP POP POP JUMP JUMPDEST PUSH1 0x0 DUP3 NOT DUP3 GT ISZERO PUSH2 0x398 JUMPI PUSH2 0x398 PUSH2 0x3CF JUMP JUMPDEST POP ADD SWAP1 JUMP JUMPDEST PUSH1 0x0 DUP3 DUP3 LT ISZERO PUSH2 0x3AF JUMPI PUSH2 0x3AF PUSH2 0x3CF JUMP JUMPDEST POP SUB SWAP1 JUMP JUMPDEST PUSH1 0x0 PUSH1 0x0 NOT DUP3 EQ ISZERO PUSH2 0x3C8 JUMPI PUSH2 0x3C8 PUSH2 0x3CF JUMP JUMPDEST POP PUSH1 0x1 ADD SWAP1 JUMP JUMPDEST PUSH4 0x4E487B71 PUSH1 0xE0 SHL PUSH1 0x0 MSTORE PUSH1 0x11 PUSH1 0x4 MSTORE PUSH1 0x24 PUSH1 0x0 REVERT JUMPDEST PUSH4 0x4E487B71 PUSH1 0xE0 SHL PUSH1 0x0 MSTORE PUSH1 0x41 PUSH1 0x4 MSTORE PUSH1 0x24 PUSH1 0x0 REVERT INVALID LOG2 PUSH5 0x6970667358 0x22 SLT KECCAK256 EXP LOG3 MUL DUP8 PUSH16 0xC666A938A265036C7C1E9472C08676B SWAP10 SSTORE MOD PUSH8 0x9470B31CB5A95264 PUSH20 0x6F6C634300080000330000000000000000000000 "
				},
				"gasEstimates": {
					"creation": {
						"codeDepositCost": "214600",
						"executionCost": "288",
						"totalCost": "214888"
					},
					"external": {
						"sort(uint256[])": "infinite"
					},
					"internal": {
						"find(uint256[] memory,uint256)": "infinite",
						"remove(uint256[] memory,uint256)": "infinite"
					}
				},
				"methodIdentifiers": {
					"sort(uint256[])": "9ec8b026"
				}
			},
			"storageLayout": {
				"storage": [],
				"types": null
			},
			"userdoc": {
				"kind": "user",
				"methods": {},
				"version": 1
			}
		}
	}
}