{
	"contracts/HomeWork_3/ResourceManager.sol": {
		"ResourceManager": {
			"abi": [
				{
					"inputs": [
						{
							"internalType": "address",
							"name": "",
							"type": "address"
						}
					],
					"name": "players",
					"outputs": [
						{
							"internalType": "uint256",
							"name": "energy",
							"type": "uint256"
						},
						{
							"internalType": "uint256",
							"name": "gold",
							"type": "uint256"
						},
						{
							"internalType": "uint256",
							"name": "level",
							"type": "uint256"
						}
					],
					"stateMutability": "view",
					"type": "function"
				},
				{
					"inputs": [],
					"name": "registerPlayer",
					"outputs": [],
					"stateMutability": "nonpayable",
					"type": "function"
				},
				{
					"inputs": [
						{
							"internalType": "address[]",
							"name": "party",
							"type": "address[]"
						},
						{
							"internalType": "uint256",
							"name": "totalEnergyPool",
							"type": "uint256"
						}
					],
					"name": "shareEnergy",
					"outputs": [],
					"stateMutability": "nonpayable",
					"type": "function"
				},
				{
					"inputs": [
						{
							"internalType": "uint256",
							"name": "itemCost",
							"type": "uint256"
						}
					],
					"name": "spendAllGoldOnItems",
					"outputs": [],
					"stateMutability": "nonpayable",
					"type": "function"
				},
				{
					"inputs": [],
					"name": "upgradeSkills",
					"outputs": [],
					"stateMutability": "nonpayable",
					"type": "function"
				}
			],
			"devdoc": {
				"kind": "dev",
				"methods": {},
				"version": 1
			},
			"evm": {
				"assembly": "    /* \"contracts/HomeWork_3/ResourceManager.sol\":118:1495  contract ResourceManager {... */\n  mstore(0x40, 0x80)\n  callvalue\n  dup1\n  iszero\n  tag_1\n  jumpi\n  revert(0x00, 0x00)\ntag_1:\n  pop\n  dataSize(sub_0)\n  dup1\n  dataOffset(sub_0)\n  0x00\n  codecopy\n  0x00\n  return\nstop\n\nsub_0: assembly {\n        /* \"contracts/HomeWork_3/ResourceManager.sol\":118:1495  contract ResourceManager {... */\n      mstore(0x40, 0x80)\n      callvalue\n      dup1\n      iszero\n      tag_1\n      jumpi\n      revert(0x00, 0x00)\n    tag_1:\n      pop\n      jumpi(tag_2, lt(calldatasize, 0x04))\n      shr(0xe0, calldataload(0x00))\n      dup1\n      0x056fc6d1\n      eq\n      tag_3\n      jumpi\n      dup1\n      0x3a76d393\n      eq\n      tag_4\n      jumpi\n      dup1\n      0x5c07a4b0\n      eq\n      tag_5\n      jumpi\n      dup1\n      0xdd032d98\n      eq\n      tag_6\n      jumpi\n      dup1\n      0xe2eb41ff\n      eq\n      tag_7\n      jumpi\n    tag_2:\n      revert(0x00, 0x00)\n        /* \"contracts/HomeWork_3/ResourceManager.sol\":775:1181  function upgradeSkills() external {... */\n    tag_3:\n      tag_8\n      tag_9\n      jump\t// in\n    tag_8:\n      stop\n        /* \"contracts/HomeWork_3/ResourceManager.sol\":477:767  function shareEnergy(address[] calldata party, uint256 totalEnergyPool) external {... */\n    tag_4:\n      tag_10\n      0x04\n      dup1\n      calldatasize\n      sub\n      dup2\n      add\n      swap1\n      tag_11\n      swap2\n      swap1\n      tag_12\n      jump\t// in\n    tag_11:\n      tag_13\n      jump\t// in\n    tag_10:\n      stop\n        /* \"contracts/HomeWork_3/ResourceManager.sol\":302:469  function registerPlayer() external {... */\n    tag_5:\n      tag_14\n      tag_15\n      jump\t// in\n    tag_14:\n      stop\n        /* \"contracts/HomeWork_3/ResourceManager.sol\":1189:1492  function spendAllGoldOnItems(uint256 itemCost) external {... */\n    tag_6:\n      tag_16\n      0x04\n      dup1\n      calldatasize\n      sub\n      dup2\n      add\n      swap1\n      tag_17\n      swap2\n      swap1\n      tag_18\n      jump\t// in\n    tag_17:\n      tag_19\n      jump\t// in\n    tag_16:\n      stop\n        /* \"contracts/HomeWork_3/ResourceManager.sol\":252:293  mapping(address => Player) public players */\n    tag_7:\n      tag_20\n      0x04\n      dup1\n      calldatasize\n      sub\n      dup2\n      add\n      swap1\n      tag_21\n      swap2\n      swap1\n      tag_22\n      jump\t// in\n    tag_21:\n      tag_23\n      jump\t// in\n    tag_20:\n      mload(0x40)\n      tag_24\n      swap4\n      swap3\n      swap2\n      swap1\n      tag_25\n      jump\t// in\n    tag_24:\n      mload(0x40)\n      dup1\n      swap2\n      sub\n      swap1\n      return\n        /* \"contracts/HomeWork_3/ResourceManager.sol\":775:1181  function upgradeSkills() external {... */\n    tag_9:\n        /* \"contracts/HomeWork_3/ResourceManager.sol\":820:841  Player storage player */\n      0x00\n        /* \"contracts/HomeWork_3/ResourceManager.sol\":844:851  players */\n      0x00\n        /* \"contracts/HomeWork_3/ResourceManager.sol\":844:863  players[msg.sender] */\n      0x00\n        /* \"contracts/HomeWork_3/ResourceManager.sol\":852:862  msg.sender */\n      caller\n        /* \"contracts/HomeWork_3/ResourceManager.sol\":844:863  players[msg.sender] */\n      0xffffffffffffffffffffffffffffffffffffffff\n      and\n      0xffffffffffffffffffffffffffffffffffffffff\n      and\n      dup2\n      mstore\n      0x20\n      add\n      swap1\n      dup2\n      mstore\n      0x20\n      add\n      0x00\n      keccak256\n        /* \"contracts/HomeWork_3/ResourceManager.sol\":820:863  Player storage player = players[msg.sender] */\n      swap1\n      pop\n        /* \"contracts/HomeWork_3/ResourceManager.sol\":897:898  0 */\n      0x00\n        /* \"contracts/HomeWork_3/ResourceManager.sol\":882:888  player */\n      dup2\n        /* \"contracts/HomeWork_3/ResourceManager.sol\":882:894  player.level */\n      0x02\n      add\n      sload\n        /* \"contracts/HomeWork_3/ResourceManager.sol\":882:898  player.level > 0 */\n      gt\n        /* \"contracts/HomeWork_3/ResourceManager.sol\":874:917  require(player.level > 0, \"Register first\") */\n      tag_27\n      jumpi\n      mload(0x40)\n      0x08c379a000000000000000000000000000000000000000000000000000000000\n      dup2\n      mstore\n      0x04\n      add\n      tag_28\n      swap1\n      tag_29\n      jump\t// in\n    tag_28:\n      mload(0x40)\n      dup1\n      swap2\n      sub\n      swap1\n      revert\n    tag_27:\n        /* \"contracts/HomeWork_3/ResourceManager.sol\":930:948  uint256 multiplier */\n      0x00\n        /* \"contracts/HomeWork_3/ResourceManager.sol\":951:954  150 */\n      0x96\n        /* \"contracts/HomeWork_3/ResourceManager.sol\":930:954  uint256 multiplier = 150 */\n      swap1\n      pop\n        /* \"contracts/HomeWork_3/ResourceManager.sol\":965:977  uint256 cost */\n      0x00\n        /* \"contracts/HomeWork_3/ResourceManager.sol\":980:1040  ResourceUtils.calculateUpgradeCost(player.level, multiplier) */\n      tag_30\n        /* \"contracts/HomeWork_3/ResourceManager.sol\":1015:1021  player */\n      dup4\n        /* \"contracts/HomeWork_3/ResourceManager.sol\":1015:1027  player.level */\n      0x02\n      add\n      sload\n        /* \"contracts/HomeWork_3/ResourceManager.sol\":1029:1039  multiplier */\n      dup4\n        /* \"contracts/HomeWork_3/ResourceManager.sol\":980:1014  ResourceUtils.calculateUpgradeCost */\n      tag_31\n        /* \"contracts/HomeWork_3/ResourceManager.sol\":980:1040  ResourceUtils.calculateUpgradeCost(player.level, multiplier) */\n      jump\t// in\n    tag_30:\n        /* \"contracts/HomeWork_3/ResourceManager.sol\":965:1040  uint256 cost = ResourceUtils.calculateUpgradeCost(player.level, multiplier) */\n      swap1\n      pop\n        /* \"contracts/HomeWork_3/ResourceManager.sol\":1084:1088  cost */\n      dup1\n        /* \"contracts/HomeWork_3/ResourceManager.sol\":1069:1075  player */\n      dup4\n        /* \"contracts/HomeWork_3/ResourceManager.sol\":1069:1080  player.gold */\n      0x01\n      add\n      sload\n        /* \"contracts/HomeWork_3/ResourceManager.sol\":1069:1088  player.gold >= cost */\n      lt\n      iszero\n        /* \"contracts/HomeWork_3/ResourceManager.sol\":1061:1108  require(player.gold >= cost, \"Not enough gold\") */\n      tag_32\n      jumpi\n      mload(0x40)\n      0x08c379a000000000000000000000000000000000000000000000000000000000\n      dup2\n      mstore\n      0x04\n      add\n      tag_33\n      swap1\n      tag_34\n      jump\t// in\n    tag_33:\n      mload(0x40)\n      dup1\n      swap2\n      sub\n      swap1\n      revert\n    tag_32:\n        /* \"contracts/HomeWork_3/ResourceManager.sol\":1144:1148  cost */\n      dup1\n        /* \"contracts/HomeWork_3/ResourceManager.sol\":1129:1135  player */\n      dup4\n        /* \"contracts/HomeWork_3/ResourceManager.sol\":1129:1140  player.gold */\n      0x01\n      add\n      0x00\n        /* \"contracts/HomeWork_3/ResourceManager.sol\":1129:1148  player.gold -= cost */\n      dup3\n      dup3\n      sload\n      tag_35\n      swap2\n      swap1\n      tag_36\n      jump\t// in\n    tag_35:\n      swap3\n      pop\n      pop\n      dup2\n      swap1\n      sstore\n      pop\n        /* \"contracts/HomeWork_3/ResourceManager.sol\":1159:1165  player */\n      dup3\n        /* \"contracts/HomeWork_3/ResourceManager.sol\":1159:1171  player.level */\n      0x02\n      add\n      0x00\n        /* \"contracts/HomeWork_3/ResourceManager.sol\":1159:1173  player.level++ */\n      dup2\n      sload\n      dup1\n      swap3\n      swap2\n      swap1\n      tag_37\n      swap1\n      tag_38\n      jump\t// in\n    tag_37:\n      swap2\n      swap1\n      pop\n      sstore\n      pop\n        /* \"contracts/HomeWork_3/ResourceManager.sol\":809:1181  {... */\n      pop\n      pop\n      pop\n        /* \"contracts/HomeWork_3/ResourceManager.sol\":775:1181  function upgradeSkills() external {... */\n      jump\t// out\n        /* \"contracts/HomeWork_3/ResourceManager.sol\":477:767  function shareEnergy(address[] calldata party, uint256 totalEnergyPool) external {... */\n    tag_13:\n        /* \"contracts/HomeWork_3/ResourceManager.sol\":569:582  uint256 share */\n      0x00\n        /* \"contracts/HomeWork_3/ResourceManager.sol\":585:646  ResourceUtils.distributeEnergy(totalEnergyPool, party.length) */\n      tag_40\n        /* \"contracts/HomeWork_3/ResourceManager.sol\":616:631  totalEnergyPool */\n      dup3\n        /* \"contracts/HomeWork_3/ResourceManager.sol\":633:638  party */\n      dup6\n      dup6\n        /* \"contracts/HomeWork_3/ResourceManager.sol\":633:645  party.length */\n      swap1\n      pop\n        /* \"contracts/HomeWork_3/ResourceManager.sol\":585:615  ResourceUtils.distributeEnergy */\n      tag_41\n        /* \"contracts/HomeWork_3/ResourceManager.sol\":585:646  ResourceUtils.distributeEnergy(totalEnergyPool, party.length) */\n      jump\t// in\n    tag_40:\n        /* \"contracts/HomeWork_3/ResourceManager.sol\":569:646  uint256 share = ResourceUtils.distributeEnergy(totalEnergyPool, party.length) */\n      swap1\n      pop\n        /* \"contracts/HomeWork_3/ResourceManager.sol\":662:671  uint256 i */\n      0x00\n        /* \"contracts/HomeWork_3/ResourceManager.sol\":674:675  0 */\n      0x00\n        /* \"contracts/HomeWork_3/ResourceManager.sol\":662:675  uint256 i = 0 */\n      swap1\n      pop\n        /* \"contracts/HomeWork_3/ResourceManager.sol\":657:760  for (uint256 i = 0; i < party.length; i++) {... */\n    tag_42:\n        /* \"contracts/HomeWork_3/ResourceManager.sol\":681:686  party */\n      dup5\n      dup5\n        /* \"contracts/HomeWork_3/ResourceManager.sol\":681:693  party.length */\n      swap1\n      pop\n        /* \"contracts/HomeWork_3/ResourceManager.sol\":677:678  i */\n      dup2\n        /* \"contracts/HomeWork_3/ResourceManager.sol\":677:693  i < party.length */\n      lt\n        /* \"contracts/HomeWork_3/ResourceManager.sol\":657:760  for (uint256 i = 0; i < party.length; i++) {... */\n      iszero\n      tag_43\n      jumpi\n        /* \"contracts/HomeWork_3/ResourceManager.sol\":743:748  share */\n      dup2\n        /* \"contracts/HomeWork_3/ResourceManager.sol\":715:722  players */\n      0x00\n        /* \"contracts/HomeWork_3/ResourceManager.sol\":715:732  players[party[i]] */\n      0x00\n        /* \"contracts/HomeWork_3/ResourceManager.sol\":723:728  party */\n      dup8\n      dup8\n        /* \"contracts/HomeWork_3/ResourceManager.sol\":729:730  i */\n      dup6\n        /* \"contracts/HomeWork_3/ResourceManager.sol\":723:731  party[i] */\n      dup2\n      dup2\n      lt\n      tag_45\n      jumpi\n      tag_46\n      tag_47\n      jump\t// in\n    tag_46:\n    tag_45:\n      swap1\n      pop\n      0x20\n      mul\n      add\n      0x20\n      dup2\n      add\n      swap1\n      tag_48\n      swap2\n      swap1\n      tag_22\n      jump\t// in\n    tag_48:\n        /* \"contracts/HomeWork_3/ResourceManager.sol\":715:732  players[party[i]] */\n      0xffffffffffffffffffffffffffffffffffffffff\n      and\n      0xffffffffffffffffffffffffffffffffffffffff\n      and\n      dup2\n      mstore\n      0x20\n      add\n      swap1\n      dup2\n      mstore\n      0x20\n      add\n      0x00\n      keccak256\n        /* \"contracts/HomeWork_3/ResourceManager.sol\":715:739  players[party[i]].energy */\n      0x00\n      add\n      0x00\n        /* \"contracts/HomeWork_3/ResourceManager.sol\":715:748  players[party[i]].energy += share */\n      dup3\n      dup3\n      sload\n      tag_49\n      swap2\n      swap1\n      tag_50\n      jump\t// in\n    tag_49:\n      swap3\n      pop\n      pop\n      dup2\n      swap1\n      sstore\n      pop\n        /* \"contracts/HomeWork_3/ResourceManager.sol\":695:698  i++ */\n      dup1\n      dup1\n      0x01\n      add\n      swap2\n      pop\n      pop\n        /* \"contracts/HomeWork_3/ResourceManager.sol\":657:760  for (uint256 i = 0; i < party.length; i++) {... */\n      jump(tag_42)\n    tag_43:\n      pop\n        /* \"contracts/HomeWork_3/ResourceManager.sol\":558:767  {... */\n      pop\n        /* \"contracts/HomeWork_3/ResourceManager.sol\":477:767  function shareEnergy(address[] calldata party, uint256 totalEnergyPool) external {... */\n      pop\n      pop\n      pop\n      jump\t// out\n        /* \"contracts/HomeWork_3/ResourceManager.sol\":302:469  function registerPlayer() external {... */\n    tag_15:\n        /* \"contracts/HomeWork_3/ResourceManager.sol\":385:386  0 */\n      0x00\n        /* \"contracts/HomeWork_3/ResourceManager.sol\":356:363  players */\n      0x00\n        /* \"contracts/HomeWork_3/ResourceManager.sol\":356:375  players[msg.sender] */\n      0x00\n        /* \"contracts/HomeWork_3/ResourceManager.sol\":364:374  msg.sender */\n      caller\n        /* \"contracts/HomeWork_3/ResourceManager.sol\":356:375  players[msg.sender] */\n      0xffffffffffffffffffffffffffffffffffffffff\n      and\n      0xffffffffffffffffffffffffffffffffffffffff\n      and\n      dup2\n      mstore\n      0x20\n      add\n      swap1\n      dup2\n      mstore\n      0x20\n      add\n      0x00\n      keccak256\n        /* \"contracts/HomeWork_3/ResourceManager.sol\":356:381  players[msg.sender].level */\n      0x02\n      add\n      sload\n        /* \"contracts/HomeWork_3/ResourceManager.sol\":356:386  players[msg.sender].level == 0 */\n      eq\n        /* \"contracts/HomeWork_3/ResourceManager.sol\":348:409  require(players[msg.sender].level == 0, \"Already registered\") */\n      tag_52\n      jumpi\n      mload(0x40)\n      0x08c379a000000000000000000000000000000000000000000000000000000000\n      dup2\n      mstore\n      0x04\n      add\n      tag_53\n      swap1\n      tag_54\n      jump\t// in\n    tag_53:\n      mload(0x40)\n      dup1\n      swap2\n      sub\n      swap1\n      revert\n    tag_52:\n        /* \"contracts/HomeWork_3/ResourceManager.sol\":442:461  Player(100, 500, 1) */\n      mload(0x40)\n      dup1\n      0x60\n      add\n      0x40\n      mstore\n      dup1\n        /* \"contracts/HomeWork_3/ResourceManager.sol\":449:452  100 */\n      0x64\n        /* \"contracts/HomeWork_3/ResourceManager.sol\":442:461  Player(100, 500, 1) */\n      dup2\n      mstore\n      0x20\n      add\n        /* \"contracts/HomeWork_3/ResourceManager.sol\":454:457  500 */\n      0x01f4\n        /* \"contracts/HomeWork_3/ResourceManager.sol\":442:461  Player(100, 500, 1) */\n      dup2\n      mstore\n      0x20\n      add\n        /* \"contracts/HomeWork_3/ResourceManager.sol\":459:460  1 */\n      0x01\n        /* \"contracts/HomeWork_3/ResourceManager.sol\":442:461  Player(100, 500, 1) */\n      dup2\n      mstore\n      pop\n        /* \"contracts/HomeWork_3/ResourceManager.sol\":420:427  players */\n      0x00\n        /* \"contracts/HomeWork_3/ResourceManager.sol\":420:439  players[msg.sender] */\n      0x00\n        /* \"contracts/HomeWork_3/ResourceManager.sol\":428:438  msg.sender */\n      caller\n        /* \"contracts/HomeWork_3/ResourceManager.sol\":420:439  players[msg.sender] */\n      0xffffffffffffffffffffffffffffffffffffffff\n      and\n      0xffffffffffffffffffffffffffffffffffffffff\n      and\n      dup2\n      mstore\n      0x20\n      add\n      swap1\n      dup2\n      mstore\n      0x20\n      add\n      0x00\n      keccak256\n        /* \"contracts/HomeWork_3/ResourceManager.sol\":420:461  players[msg.sender] = Player(100, 500, 1) */\n      0x00\n      dup3\n      add\n      mload\n      dup2\n      0x00\n      add\n      sstore\n      0x20\n      dup3\n      add\n      mload\n      dup2\n      0x01\n      add\n      sstore\n      0x40\n      dup3\n      add\n      mload\n      dup2\n      0x02\n      add\n      sstore\n      swap1\n      pop\n      pop\n        /* \"contracts/HomeWork_3/ResourceManager.sol\":302:469  function registerPlayer() external {... */\n      jump\t// out\n        /* \"contracts/HomeWork_3/ResourceManager.sol\":1189:1492  function spendAllGoldOnItems(uint256 itemCost) external {... */\n    tag_19:\n        /* \"contracts/HomeWork_3/ResourceManager.sol\":1256:1277  Player storage player */\n      0x00\n        /* \"contracts/HomeWork_3/ResourceManager.sol\":1280:1287  players */\n      0x00\n        /* \"contracts/HomeWork_3/ResourceManager.sol\":1280:1299  players[msg.sender] */\n      0x00\n        /* \"contracts/HomeWork_3/ResourceManager.sol\":1288:1298  msg.sender */\n      caller\n        /* \"contracts/HomeWork_3/ResourceManager.sol\":1280:1299  players[msg.sender] */\n      0xffffffffffffffffffffffffffffffffffffffff\n      and\n      0xffffffffffffffffffffffffffffffffffffffff\n      and\n      dup2\n      mstore\n      0x20\n      add\n      swap1\n      dup2\n      mstore\n      0x20\n      add\n      0x00\n      keccak256\n        /* \"contracts/HomeWork_3/ResourceManager.sol\":1256:1299  Player storage player = players[msg.sender] */\n      swap1\n      pop\n        /* \"contracts/HomeWork_3/ResourceManager.sol\":1333:1341  itemCost */\n      dup2\n        /* \"contracts/HomeWork_3/ResourceManager.sol\":1318:1324  player */\n      dup2\n        /* \"contracts/HomeWork_3/ResourceManager.sol\":1318:1329  player.gold */\n      0x01\n      add\n      sload\n        /* \"contracts/HomeWork_3/ResourceManager.sol\":1318:1341  player.gold >= itemCost */\n      lt\n      iszero\n        /* \"contracts/HomeWork_3/ResourceManager.sol\":1310:1367  require(player.gold >= itemCost, \"Can't afford even one\") */\n      tag_56\n      jumpi\n      mload(0x40)\n      0x08c379a000000000000000000000000000000000000000000000000000000000\n      dup2\n      mstore\n      0x04\n      add\n      tag_57\n      swap1\n      tag_58\n      jump\t// in\n    tag_57:\n      mload(0x40)\n      dup1\n      swap2\n      sub\n      swap1\n      revert\n    tag_56:\n        /* \"contracts/HomeWork_3/ResourceManager.sol\":1378:1392  uint256 change */\n      0x00\n        /* \"contracts/HomeWork_3/ResourceManager.sol\":1395:1452  ResourceUtils.optimizeGoldSpending(player.gold, itemCost) */\n      tag_59\n        /* \"contracts/HomeWork_3/ResourceManager.sol\":1430:1436  player */\n      dup3\n        /* \"contracts/HomeWork_3/ResourceManager.sol\":1430:1441  player.gold */\n      0x01\n      add\n      sload\n        /* \"contracts/HomeWork_3/ResourceManager.sol\":1443:1451  itemCost */\n      dup5\n        /* \"contracts/HomeWork_3/ResourceManager.sol\":1395:1429  ResourceUtils.optimizeGoldSpending */\n      tag_60\n        /* \"contracts/HomeWork_3/ResourceManager.sol\":1395:1452  ResourceUtils.optimizeGoldSpending(player.gold, itemCost) */\n      jump\t// in\n    tag_59:\n        /* \"contracts/HomeWork_3/ResourceManager.sol\":1378:1452  uint256 change = ResourceUtils.optimizeGoldSpending(player.gold, itemCost) */\n      swap1\n      pop\n        /* \"contracts/HomeWork_3/ResourceManager.sol\":1477:1483  change */\n      dup1\n        /* \"contracts/HomeWork_3/ResourceManager.sol\":1463:1469  player */\n      dup3\n        /* \"contracts/HomeWork_3/ResourceManager.sol\":1463:1474  player.gold */\n      0x01\n      add\n        /* \"contracts/HomeWork_3/ResourceManager.sol\":1463:1483  player.gold = change */\n      dup2\n      swap1\n      sstore\n      pop\n        /* \"contracts/HomeWork_3/ResourceManager.sol\":1245:1492  {... */\n      pop\n      pop\n        /* \"contracts/HomeWork_3/ResourceManager.sol\":1189:1492  function spendAllGoldOnItems(uint256 itemCost) external {... */\n      pop\n      jump\t// out\n        /* \"contracts/HomeWork_3/ResourceManager.sol\":252:293  mapping(address => Player) public players */\n    tag_23:\n      mstore(0x20, 0x00)\n      dup1\n      0x00\n      mstore\n      keccak256(0x00, 0x40)\n      0x00\n      swap2\n      pop\n      swap1\n      pop\n      dup1\n      0x00\n      add\n      sload\n      swap1\n      dup1\n      0x01\n      add\n      sload\n      swap1\n      dup1\n      0x02\n      add\n      sload\n      swap1\n      pop\n      dup4\n      jump\t// out\n        /* \"libs/HomeWork_libs3/ResourceUtils.sol\":310:456  function calculateUpgradeCost(uint currentLevel, uint multiplier) internal pure returns (uint) {... */\n    tag_31:\n        /* \"libs/HomeWork_libs3/ResourceUtils.sol\":399:403  uint */\n      0x00\n        /* \"libs/HomeWork_libs3/ResourceUtils.sol\":438:448  multiplier */\n      dup2\n        /* \"libs/HomeWork_libs3/ResourceUtils.sol\":423:435  currentLevel */\n      dup4\n        /* \"libs/HomeWork_libs3/ResourceUtils.sol\":423:448  currentLevel * multiplier */\n      tag_62\n      swap2\n      swap1\n      tag_63\n      jump\t// in\n    tag_62:\n        /* \"libs/HomeWork_libs3/ResourceUtils.sol\":416:448  return currentLevel * multiplier */\n      swap1\n      pop\n        /* \"libs/HomeWork_libs3/ResourceUtils.sol\":310:456  function calculateUpgradeCost(uint currentLevel, uint multiplier) internal pure returns (uint) {... */\n      swap3\n      swap2\n      pop\n      pop\n      jump\t// out\n        /* \"libs/HomeWork_libs3/ResourceUtils.sol\":90:302  function distributeEnergy(uint totalEnergy, uint playersCount) internal pure returns (uint) {... */\n    tag_41:\n        /* \"libs/HomeWork_libs3/ResourceUtils.sol\":176:180  uint */\n      0x00\n        /* \"libs/HomeWork_libs3/ResourceUtils.sol\":216:217  0 */\n      0x00\n        /* \"libs/HomeWork_libs3/ResourceUtils.sol\":201:213  playersCount */\n      dup3\n        /* \"libs/HomeWork_libs3/ResourceUtils.sol\":201:217  playersCount > 0 */\n      gt\n        /* \"libs/HomeWork_libs3/ResourceUtils.sol\":193:250  require(playersCount > 0, \"Players count cannot be zero\") */\n      tag_65\n      jumpi\n      mload(0x40)\n      0x08c379a000000000000000000000000000000000000000000000000000000000\n      dup2\n      mstore\n      0x04\n      add\n      tag_66\n      swap1\n      tag_67\n      jump\t// in\n    tag_66:\n      mload(0x40)\n      dup1\n      swap2\n      sub\n      swap1\n      revert\n    tag_65:\n        /* \"libs/HomeWork_libs3/ResourceUtils.sol\":282:294  playersCount */\n      dup2\n        /* \"libs/HomeWork_libs3/ResourceUtils.sol\":268:279  totalEnergy */\n      dup4\n        /* \"libs/HomeWork_libs3/ResourceUtils.sol\":268:294  totalEnergy / playersCount */\n      tag_68\n      swap2\n      swap1\n      tag_69\n      jump\t// in\n    tag_68:\n        /* \"libs/HomeWork_libs3/ResourceUtils.sol\":261:294  return totalEnergy / playersCount */\n      swap1\n      pop\n        /* \"libs/HomeWork_libs3/ResourceUtils.sol\":90:302  function distributeEnergy(uint totalEnergy, uint playersCount) internal pure returns (uint) {... */\n      swap3\n      swap2\n      pop\n      pop\n      jump\t// out\n        /* \"libs/HomeWork_libs3/ResourceUtils.sol\":464:633  function optimizeGoldSpending(uint gold, uint cost) internal pure returns (uint) {... */\n    tag_60:\n        /* \"libs/HomeWork_libs3/ResourceUtils.sol\":539:543  uint */\n      0x00\n        /* \"libs/HomeWork_libs3/ResourceUtils.sol\":571:572  0 */\n      0x00\n        /* \"libs/HomeWork_libs3/ResourceUtils.sol\":564:568  cost */\n      dup3\n        /* \"libs/HomeWork_libs3/ResourceUtils.sol\":564:572  cost > 0 */\n      gt\n        /* \"libs/HomeWork_libs3/ResourceUtils.sol\":556:596  require(cost > 0, \"Cost cannot be zero\") */\n      tag_71\n      jumpi\n      mload(0x40)\n      0x08c379a000000000000000000000000000000000000000000000000000000000\n      dup2\n      mstore\n      0x04\n      add\n      tag_72\n      swap1\n      tag_73\n      jump\t// in\n    tag_72:\n      mload(0x40)\n      dup1\n      swap2\n      sub\n      swap1\n      revert\n    tag_71:\n        /* \"libs/HomeWork_libs3/ResourceUtils.sol\":621:625  cost */\n      dup2\n        /* \"libs/HomeWork_libs3/ResourceUtils.sol\":614:618  gold */\n      dup4\n        /* \"libs/HomeWork_libs3/ResourceUtils.sol\":614:625  gold % cost */\n      tag_74\n      swap2\n      swap1\n      tag_75\n      jump\t// in\n    tag_74:\n        /* \"libs/HomeWork_libs3/ResourceUtils.sol\":607:625  return gold % cost */\n      swap1\n      pop\n        /* \"libs/HomeWork_libs3/ResourceUtils.sol\":464:633  function optimizeGoldSpending(uint gold, uint cost) internal pure returns (uint) {... */\n      swap3\n      swap2\n      pop\n      pop\n      jump\t// out\n        /* \"#utility.yul\":88:205   */\n    tag_77:\n        /* \"#utility.yul\":197:198   */\n      0x00\n        /* \"#utility.yul\":194:195   */\n      0x00\n        /* \"#utility.yul\":187:199   */\n      revert\n        /* \"#utility.yul\":211:328   */\n    tag_78:\n        /* \"#utility.yul\":320:321   */\n      0x00\n        /* \"#utility.yul\":317:318   */\n      0x00\n        /* \"#utility.yul\":310:322   */\n      revert\n        /* \"#utility.yul\":334:451   */\n    tag_79:\n        /* \"#utility.yul\":443:444   */\n      0x00\n        /* \"#utility.yul\":440:441   */\n      0x00\n        /* \"#utility.yul\":433:445   */\n      revert\n        /* \"#utility.yul\":457:574   */\n    tag_80:\n        /* \"#utility.yul\":566:567   */\n      0x00\n        /* \"#utility.yul\":563:564   */\n      0x00\n        /* \"#utility.yul\":556:568   */\n      revert\n        /* \"#utility.yul\":580:697   */\n    tag_81:\n        /* \"#utility.yul\":689:690   */\n      0x00\n        /* \"#utility.yul\":686:687   */\n      0x00\n        /* \"#utility.yul\":679:691   */\n      revert\n        /* \"#utility.yul\":720:1288   */\n    tag_82:\n        /* \"#utility.yul\":793:801   */\n      0x00\n        /* \"#utility.yul\":803:809   */\n      0x00\n        /* \"#utility.yul\":853:856   */\n      dup4\n        /* \"#utility.yul\":846:850   */\n      0x1f\n        /* \"#utility.yul\":838:844   */\n      dup5\n        /* \"#utility.yul\":834:851   */\n      add\n        /* \"#utility.yul\":830:857   */\n      slt\n        /* \"#utility.yul\":820:942   */\n      tag_114\n      jumpi\n        /* \"#utility.yul\":861:940   */\n      tag_115\n      tag_79\n      jump\t// in\n    tag_115:\n        /* \"#utility.yul\":820:942   */\n    tag_114:\n        /* \"#utility.yul\":974:980   */\n      dup3\n        /* \"#utility.yul\":961:981   */\n      calldataload\n        /* \"#utility.yul\":951:981   */\n      swap1\n      pop\n        /* \"#utility.yul\":1004:1022   */\n      0xffffffffffffffff\n        /* \"#utility.yul\":996:1002   */\n      dup2\n        /* \"#utility.yul\":993:1023   */\n      gt\n        /* \"#utility.yul\":990:1107   */\n      iszero\n      tag_116\n      jumpi\n        /* \"#utility.yul\":1026:1105   */\n      tag_117\n      tag_80\n      jump\t// in\n    tag_117:\n        /* \"#utility.yul\":990:1107   */\n    tag_116:\n        /* \"#utility.yul\":1140:1144   */\n      0x20\n        /* \"#utility.yul\":1132:1138   */\n      dup4\n        /* \"#utility.yul\":1128:1145   */\n      add\n        /* \"#utility.yul\":1116:1145   */\n      swap2\n      pop\n        /* \"#utility.yul\":1194:1197   */\n      dup4\n        /* \"#utility.yul\":1186:1190   */\n      0x20\n        /* \"#utility.yul\":1178:1184   */\n      dup3\n        /* \"#utility.yul\":1174:1191   */\n      mul\n        /* \"#utility.yul\":1164:1172   */\n      dup4\n        /* \"#utility.yul\":1160:1192   */\n      add\n        /* \"#utility.yul\":1157:1198   */\n      gt\n        /* \"#utility.yul\":1154:1282   */\n      iszero\n      tag_118\n      jumpi\n        /* \"#utility.yul\":1201:1280   */\n      tag_119\n      tag_81\n      jump\t// in\n    tag_119:\n        /* \"#utility.yul\":1154:1282   */\n    tag_118:\n        /* \"#utility.yul\":720:1288   */\n      swap3\n      pop\n      swap3\n      swap1\n      pop\n      jump\t// out\n        /* \"#utility.yul\":1294:1371   */\n    tag_83:\n        /* \"#utility.yul\":1331:1338   */\n      0x00\n        /* \"#utility.yul\":1360:1365   */\n      dup2\n        /* \"#utility.yul\":1349:1365   */\n      swap1\n      pop\n        /* \"#utility.yul\":1294:1371   */\n      swap2\n      swap1\n      pop\n      jump\t// out\n        /* \"#utility.yul\":1377:1499   */\n    tag_84:\n        /* \"#utility.yul\":1450:1474   */\n      tag_122\n        /* \"#utility.yul\":1468:1473   */\n      dup2\n        /* \"#utility.yul\":1450:1474   */\n      tag_83\n      jump\t// in\n    tag_122:\n        /* \"#utility.yul\":1443:1448   */\n      dup2\n        /* \"#utility.yul\":1440:1475   */\n      eq\n        /* \"#utility.yul\":1430:1493   */\n      tag_123\n      jumpi\n        /* \"#utility.yul\":1489:1490   */\n      0x00\n        /* \"#utility.yul\":1486:1487   */\n      0x00\n        /* \"#utility.yul\":1479:1491   */\n      revert\n        /* \"#utility.yul\":1430:1493   */\n    tag_123:\n        /* \"#utility.yul\":1377:1499   */\n      pop\n      jump\t// out\n        /* \"#utility.yul\":1505:1644   */\n    tag_85:\n        /* \"#utility.yul\":1551:1556   */\n      0x00\n        /* \"#utility.yul\":1589:1595   */\n      dup2\n        /* \"#utility.yul\":1576:1596   */\n      calldataload\n        /* \"#utility.yul\":1567:1596   */\n      swap1\n      pop\n        /* \"#utility.yul\":1605:1638   */\n      tag_125\n        /* \"#utility.yul\":1632:1637   */\n      dup2\n        /* \"#utility.yul\":1605:1638   */\n      tag_84\n      jump\t// in\n    tag_125:\n        /* \"#utility.yul\":1505:1644   */\n      swap3\n      swap2\n      pop\n      pop\n      jump\t// out\n        /* \"#utility.yul\":1650:2354   */\n    tag_12:\n        /* \"#utility.yul\":1745:1751   */\n      0x00\n        /* \"#utility.yul\":1753:1759   */\n      0x00\n        /* \"#utility.yul\":1761:1767   */\n      0x00\n        /* \"#utility.yul\":1810:1812   */\n      0x40\n        /* \"#utility.yul\":1798:1807   */\n      dup5\n        /* \"#utility.yul\":1789:1796   */\n      dup7\n        /* \"#utility.yul\":1785:1808   */\n      sub\n        /* \"#utility.yul\":1781:1813   */\n      slt\n        /* \"#utility.yul\":1778:1897   */\n      iszero\n      tag_127\n      jumpi\n        /* \"#utility.yul\":1816:1895   */\n      tag_128\n      tag_77\n      jump\t// in\n    tag_128:\n        /* \"#utility.yul\":1778:1897   */\n    tag_127:\n        /* \"#utility.yul\":1964:1965   */\n      0x00\n        /* \"#utility.yul\":1953:1962   */\n      dup5\n        /* \"#utility.yul\":1949:1966   */\n      add\n        /* \"#utility.yul\":1936:1967   */\n      calldataload\n        /* \"#utility.yul\":1994:2012   */\n      0xffffffffffffffff\n        /* \"#utility.yul\":1986:1992   */\n      dup2\n        /* \"#utility.yul\":1983:2013   */\n      gt\n        /* \"#utility.yul\":1980:2097   */\n      iszero\n      tag_129\n      jumpi\n        /* \"#utility.yul\":2016:2095   */\n      tag_130\n      tag_78\n      jump\t// in\n    tag_130:\n        /* \"#utility.yul\":1980:2097   */\n    tag_129:\n        /* \"#utility.yul\":2129:2209   */\n      tag_131\n        /* \"#utility.yul\":2201:2208   */\n      dup7\n        /* \"#utility.yul\":2192:2198   */\n      dup3\n        /* \"#utility.yul\":2181:2190   */\n      dup8\n        /* \"#utility.yul\":2177:2199   */\n      add\n        /* \"#utility.yul\":2129:2209   */\n      tag_82\n      jump\t// in\n    tag_131:\n        /* \"#utility.yul\":2111:2209   */\n      swap4\n      pop\n      swap4\n      pop\n        /* \"#utility.yul\":1907:2219   */\n      pop\n        /* \"#utility.yul\":2258:2260   */\n      0x20\n        /* \"#utility.yul\":2284:2337   */\n      tag_132\n        /* \"#utility.yul\":2329:2336   */\n      dup7\n        /* \"#utility.yul\":2320:2326   */\n      dup3\n        /* \"#utility.yul\":2309:2318   */\n      dup8\n        /* \"#utility.yul\":2305:2327   */\n      add\n        /* \"#utility.yul\":2284:2337   */\n      tag_85\n      jump\t// in\n    tag_132:\n        /* \"#utility.yul\":2274:2337   */\n      swap2\n      pop\n        /* \"#utility.yul\":2229:2347   */\n      pop\n        /* \"#utility.yul\":1650:2354   */\n      swap3\n      pop\n      swap3\n      pop\n      swap3\n      jump\t// out\n        /* \"#utility.yul\":2360:2689   */\n    tag_18:\n        /* \"#utility.yul\":2419:2425   */\n      0x00\n        /* \"#utility.yul\":2468:2470   */\n      0x20\n        /* \"#utility.yul\":2456:2465   */\n      dup3\n        /* \"#utility.yul\":2447:2454   */\n      dup5\n        /* \"#utility.yul\":2443:2466   */\n      sub\n        /* \"#utility.yul\":2439:2471   */\n      slt\n        /* \"#utility.yul\":2436:2555   */\n      iszero\n      tag_134\n      jumpi\n        /* \"#utility.yul\":2474:2553   */\n      tag_135\n      tag_77\n      jump\t// in\n    tag_135:\n        /* \"#utility.yul\":2436:2555   */\n    tag_134:\n        /* \"#utility.yul\":2594:2595   */\n      0x00\n        /* \"#utility.yul\":2619:2672   */\n      tag_136\n        /* \"#utility.yul\":2664:2671   */\n      dup5\n        /* \"#utility.yul\":2655:2661   */\n      dup3\n        /* \"#utility.yul\":2644:2653   */\n      dup6\n        /* \"#utility.yul\":2640:2662   */\n      add\n        /* \"#utility.yul\":2619:2672   */\n      tag_85\n      jump\t// in\n    tag_136:\n        /* \"#utility.yul\":2609:2672   */\n      swap2\n      pop\n        /* \"#utility.yul\":2565:2682   */\n      pop\n        /* \"#utility.yul\":2360:2689   */\n      swap3\n      swap2\n      pop\n      pop\n      jump\t// out\n        /* \"#utility.yul\":2695:2821   */\n    tag_86:\n        /* \"#utility.yul\":2732:2739   */\n      0x00\n        /* \"#utility.yul\":2772:2814   */\n      0xffffffffffffffffffffffffffffffffffffffff\n        /* \"#utility.yul\":2765:2770   */\n      dup3\n        /* \"#utility.yul\":2761:2815   */\n      and\n        /* \"#utility.yul\":2750:2815   */\n      swap1\n      pop\n        /* \"#utility.yul\":2695:2821   */\n      swap2\n      swap1\n      pop\n      jump\t// out\n        /* \"#utility.yul\":2827:2923   */\n    tag_87:\n        /* \"#utility.yul\":2864:2871   */\n      0x00\n        /* \"#utility.yul\":2893:2917   */\n      tag_139\n        /* \"#utility.yul\":2911:2916   */\n      dup3\n        /* \"#utility.yul\":2893:2917   */\n      tag_86\n      jump\t// in\n    tag_139:\n        /* \"#utility.yul\":2882:2917   */\n      swap1\n      pop\n        /* \"#utility.yul\":2827:2923   */\n      swap2\n      swap1\n      pop\n      jump\t// out\n        /* \"#utility.yul\":2929:3051   */\n    tag_88:\n        /* \"#utility.yul\":3002:3026   */\n      tag_141\n        /* \"#utility.yul\":3020:3025   */\n      dup2\n        /* \"#utility.yul\":3002:3026   */\n      tag_87\n      jump\t// in\n    tag_141:\n        /* \"#utility.yul\":2995:3000   */\n      dup2\n        /* \"#utility.yul\":2992:3027   */\n      eq\n        /* \"#utility.yul\":2982:3045   */\n      tag_142\n      jumpi\n        /* \"#utility.yul\":3041:3042   */\n      0x00\n        /* \"#utility.yul\":3038:3039   */\n      0x00\n        /* \"#utility.yul\":3031:3043   */\n      revert\n        /* \"#utility.yul\":2982:3045   */\n    tag_142:\n        /* \"#utility.yul\":2929:3051   */\n      pop\n      jump\t// out\n        /* \"#utility.yul\":3057:3196   */\n    tag_89:\n        /* \"#utility.yul\":3103:3108   */\n      0x00\n        /* \"#utility.yul\":3141:3147   */\n      dup2\n        /* \"#utility.yul\":3128:3148   */\n      calldataload\n        /* \"#utility.yul\":3119:3148   */\n      swap1\n      pop\n        /* \"#utility.yul\":3157:3190   */\n      tag_144\n        /* \"#utility.yul\":3184:3189   */\n      dup2\n        /* \"#utility.yul\":3157:3190   */\n      tag_88\n      jump\t// in\n    tag_144:\n        /* \"#utility.yul\":3057:3196   */\n      swap3\n      swap2\n      pop\n      pop\n      jump\t// out\n        /* \"#utility.yul\":3202:3531   */\n    tag_22:\n        /* \"#utility.yul\":3261:3267   */\n      0x00\n        /* \"#utility.yul\":3310:3312   */\n      0x20\n        /* \"#utility.yul\":3298:3307   */\n      dup3\n        /* \"#utility.yul\":3289:3296   */\n      dup5\n        /* \"#utility.yul\":3285:3308   */\n      sub\n        /* \"#utility.yul\":3281:3313   */\n      slt\n        /* \"#utility.yul\":3278:3397   */\n      iszero\n      tag_146\n      jumpi\n        /* \"#utility.yul\":3316:3395   */\n      tag_147\n      tag_77\n      jump\t// in\n    tag_147:\n        /* \"#utility.yul\":3278:3397   */\n    tag_146:\n        /* \"#utility.yul\":3436:3437   */\n      0x00\n        /* \"#utility.yul\":3461:3514   */\n      tag_148\n        /* \"#utility.yul\":3506:3513   */\n      dup5\n        /* \"#utility.yul\":3497:3503   */\n      dup3\n        /* \"#utility.yul\":3486:3495   */\n      dup6\n        /* \"#utility.yul\":3482:3504   */\n      add\n        /* \"#utility.yul\":3461:3514   */\n      tag_89\n      jump\t// in\n    tag_148:\n        /* \"#utility.yul\":3451:3514   */\n      swap2\n      pop\n        /* \"#utility.yul\":3407:3524   */\n      pop\n        /* \"#utility.yul\":3202:3531   */\n      swap3\n      swap2\n      pop\n      pop\n      jump\t// out\n        /* \"#utility.yul\":3537:3655   */\n    tag_90:\n        /* \"#utility.yul\":3624:3648   */\n      tag_150\n        /* \"#utility.yul\":3642:3647   */\n      dup2\n        /* \"#utility.yul\":3624:3648   */\n      tag_83\n      jump\t// in\n    tag_150:\n        /* \"#utility.yul\":3619:3622   */\n      dup3\n        /* \"#utility.yul\":3612:3649   */\n      mstore\n        /* \"#utility.yul\":3537:3655   */\n      pop\n      pop\n      jump\t// out\n        /* \"#utility.yul\":3661:4103   */\n    tag_25:\n        /* \"#utility.yul\":3810:3814   */\n      0x00\n        /* \"#utility.yul\":3848:3850   */\n      0x60\n        /* \"#utility.yul\":3837:3846   */\n      dup3\n        /* \"#utility.yul\":3833:3851   */\n      add\n        /* \"#utility.yul\":3825:3851   */\n      swap1\n      pop\n        /* \"#utility.yul\":3861:3932   */\n      tag_152\n        /* \"#utility.yul\":3929:3930   */\n      0x00\n        /* \"#utility.yul\":3918:3927   */\n      dup4\n        /* \"#utility.yul\":3914:3931   */\n      add\n        /* \"#utility.yul\":3905:3911   */\n      dup7\n        /* \"#utility.yul\":3861:3932   */\n      tag_90\n      jump\t// in\n    tag_152:\n        /* \"#utility.yul\":3942:4014   */\n      tag_153\n        /* \"#utility.yul\":4010:4012   */\n      0x20\n        /* \"#utility.yul\":3999:4008   */\n      dup4\n        /* \"#utility.yul\":3995:4013   */\n      add\n        /* \"#utility.yul\":3986:3992   */\n      dup6\n        /* \"#utility.yul\":3942:4014   */\n      tag_90\n      jump\t// in\n    tag_153:\n        /* \"#utility.yul\":4024:4096   */\n      tag_154\n        /* \"#utility.yul\":4092:4094   */\n      0x40\n        /* \"#utility.yul\":4081:4090   */\n      dup4\n        /* \"#utility.yul\":4077:4095   */\n      add\n        /* \"#utility.yul\":4068:4074   */\n      dup5\n        /* \"#utility.yul\":4024:4096   */\n      tag_90\n      jump\t// in\n    tag_154:\n        /* \"#utility.yul\":3661:4103   */\n      swap5\n      swap4\n      pop\n      pop\n      pop\n      pop\n      jump\t// out\n        /* \"#utility.yul\":4109:4278   */\n    tag_91:\n        /* \"#utility.yul\":4193:4204   */\n      0x00\n        /* \"#utility.yul\":4227:4233   */\n      dup3\n        /* \"#utility.yul\":4222:4225   */\n      dup3\n        /* \"#utility.yul\":4215:4234   */\n      mstore\n        /* \"#utility.yul\":4267:4271   */\n      0x20\n        /* \"#utility.yul\":4262:4265   */\n      dup3\n        /* \"#utility.yul\":4258:4272   */\n      add\n        /* \"#utility.yul\":4243:4272   */\n      swap1\n      pop\n        /* \"#utility.yul\":4109:4278   */\n      swap3\n      swap2\n      pop\n      pop\n      jump\t// out\n        /* \"#utility.yul\":4284:4448   */\n    tag_92:\n        /* \"#utility.yul\":4424:4440   */\n      0x5265676973746572206669727374000000000000000000000000000000000000\n        /* \"#utility.yul\":4420:4421   */\n      0x00\n        /* \"#utility.yul\":4412:4418   */\n      dup3\n        /* \"#utility.yul\":4408:4422   */\n      add\n        /* \"#utility.yul\":4401:4441   */\n      mstore\n        /* \"#utility.yul\":4284:4448   */\n      pop\n      jump\t// out\n        /* \"#utility.yul\":4454:4820   */\n    tag_93:\n        /* \"#utility.yul\":4596:4599   */\n      0x00\n        /* \"#utility.yul\":4617:4684   */\n      tag_158\n        /* \"#utility.yul\":4681:4683   */\n      0x0e\n        /* \"#utility.yul\":4676:4679   */\n      dup4\n        /* \"#utility.yul\":4617:4684   */\n      tag_91\n      jump\t// in\n    tag_158:\n        /* \"#utility.yul\":4610:4684   */\n      swap2\n      pop\n        /* \"#utility.yul\":4693:4786   */\n      tag_159\n        /* \"#utility.yul\":4782:4785   */\n      dup3\n        /* \"#utility.yul\":4693:4786   */\n      tag_92\n      jump\t// in\n    tag_159:\n        /* \"#utility.yul\":4811:4813   */\n      0x20\n        /* \"#utility.yul\":4806:4809   */\n      dup3\n        /* \"#utility.yul\":4802:4814   */\n      add\n        /* \"#utility.yul\":4795:4814   */\n      swap1\n      pop\n        /* \"#utility.yul\":4454:4820   */\n      swap2\n      swap1\n      pop\n      jump\t// out\n        /* \"#utility.yul\":4826:5245   */\n    tag_29:\n        /* \"#utility.yul\":4992:4996   */\n      0x00\n        /* \"#utility.yul\":5030:5032   */\n      0x20\n        /* \"#utility.yul\":5019:5028   */\n      dup3\n        /* \"#utility.yul\":5015:5033   */\n      add\n        /* \"#utility.yul\":5007:5033   */\n      swap1\n      pop\n        /* \"#utility.yul\":5079:5088   */\n      dup2\n        /* \"#utility.yul\":5073:5077   */\n      dup2\n        /* \"#utility.yul\":5069:5089   */\n      sub\n        /* \"#utility.yul\":5065:5066   */\n      0x00\n        /* \"#utility.yul\":5054:5063   */\n      dup4\n        /* \"#utility.yul\":5050:5067   */\n      add\n        /* \"#utility.yul\":5043:5090   */\n      mstore\n        /* \"#utility.yul\":5107:5238   */\n      tag_161\n        /* \"#utility.yul\":5233:5237   */\n      dup2\n        /* \"#utility.yul\":5107:5238   */\n      tag_93\n      jump\t// in\n    tag_161:\n        /* \"#utility.yul\":5099:5238   */\n      swap1\n      pop\n        /* \"#utility.yul\":4826:5245   */\n      swap2\n      swap1\n      pop\n      jump\t// out\n        /* \"#utility.yul\":5251:5416   */\n    tag_94:\n        /* \"#utility.yul\":5391:5408   */\n      0x4e6f7420656e6f75676820676f6c640000000000000000000000000000000000\n        /* \"#utility.yul\":5387:5388   */\n      0x00\n        /* \"#utility.yul\":5379:5385   */\n      dup3\n        /* \"#utility.yul\":5375:5389   */\n      add\n        /* \"#utility.yul\":5368:5409   */\n      mstore\n        /* \"#utility.yul\":5251:5416   */\n      pop\n      jump\t// out\n        /* \"#utility.yul\":5422:5788   */\n    tag_95:\n        /* \"#utility.yul\":5564:5567   */\n      0x00\n        /* \"#utility.yul\":5585:5652   */\n      tag_164\n        /* \"#utility.yul\":5649:5651   */\n      0x0f\n        /* \"#utility.yul\":5644:5647   */\n      dup4\n        /* \"#utility.yul\":5585:5652   */\n      tag_91\n      jump\t// in\n    tag_164:\n        /* \"#utility.yul\":5578:5652   */\n      swap2\n      pop\n        /* \"#utility.yul\":5661:5754   */\n      tag_165\n        /* \"#utility.yul\":5750:5753   */\n      dup3\n        /* \"#utility.yul\":5661:5754   */\n      tag_94\n      jump\t// in\n    tag_165:\n        /* \"#utility.yul\":5779:5781   */\n      0x20\n        /* \"#utility.yul\":5774:5777   */\n      dup3\n        /* \"#utility.yul\":5770:5782   */\n      add\n        /* \"#utility.yul\":5763:5782   */\n      swap1\n      pop\n        /* \"#utility.yul\":5422:5788   */\n      swap2\n      swap1\n      pop\n      jump\t// out\n        /* \"#utility.yul\":5794:6213   */\n    tag_34:\n        /* \"#utility.yul\":5960:5964   */\n      0x00\n        /* \"#utility.yul\":5998:6000   */\n      0x20\n        /* \"#utility.yul\":5987:5996   */\n      dup3\n        /* \"#utility.yul\":5983:6001   */\n      add\n        /* \"#utility.yul\":5975:6001   */\n      swap1\n      pop\n        /* \"#utility.yul\":6047:6056   */\n      dup2\n        /* \"#utility.yul\":6041:6045   */\n      dup2\n        /* \"#utility.yul\":6037:6057   */\n      sub\n        /* \"#utility.yul\":6033:6034   */\n      0x00\n        /* \"#utility.yul\":6022:6031   */\n      dup4\n        /* \"#utility.yul\":6018:6035   */\n      add\n        /* \"#utility.yul\":6011:6058   */\n      mstore\n        /* \"#utility.yul\":6075:6206   */\n      tag_167\n        /* \"#utility.yul\":6201:6205   */\n      dup2\n        /* \"#utility.yul\":6075:6206   */\n      tag_95\n      jump\t// in\n    tag_167:\n        /* \"#utility.yul\":6067:6206   */\n      swap1\n      pop\n        /* \"#utility.yul\":5794:6213   */\n      swap2\n      swap1\n      pop\n      jump\t// out\n        /* \"#utility.yul\":6219:6399   */\n    tag_96:\n        /* \"#utility.yul\":6267:6344   */\n      0x4e487b7100000000000000000000000000000000000000000000000000000000\n        /* \"#utility.yul\":6264:6265   */\n      0x00\n        /* \"#utility.yul\":6257:6345   */\n      mstore\n        /* \"#utility.yul\":6364:6368   */\n      0x11\n        /* \"#utility.yul\":6361:6362   */\n      0x04\n        /* \"#utility.yul\":6354:6369   */\n      mstore\n        /* \"#utility.yul\":6388:6392   */\n      0x24\n        /* \"#utility.yul\":6385:6386   */\n      0x00\n        /* \"#utility.yul\":6378:6393   */\n      revert\n        /* \"#utility.yul\":6405:6599   */\n    tag_36:\n        /* \"#utility.yul\":6445:6449   */\n      0x00\n        /* \"#utility.yul\":6465:6485   */\n      tag_170\n        /* \"#utility.yul\":6483:6484   */\n      dup3\n        /* \"#utility.yul\":6465:6485   */\n      tag_83\n      jump\t// in\n    tag_170:\n        /* \"#utility.yul\":6460:6485   */\n      swap2\n      pop\n        /* \"#utility.yul\":6499:6519   */\n      tag_171\n        /* \"#utility.yul\":6517:6518   */\n      dup4\n        /* \"#utility.yul\":6499:6519   */\n      tag_83\n      jump\t// in\n    tag_171:\n        /* \"#utility.yul\":6494:6519   */\n      swap3\n      pop\n        /* \"#utility.yul\":6543:6544   */\n      dup3\n        /* \"#utility.yul\":6540:6541   */\n      dup3\n        /* \"#utility.yul\":6536:6545   */\n      sub\n        /* \"#utility.yul\":6528:6545   */\n      swap1\n      pop\n        /* \"#utility.yul\":6567:6568   */\n      dup2\n        /* \"#utility.yul\":6561:6565   */\n      dup2\n        /* \"#utility.yul\":6558:6569   */\n      gt\n        /* \"#utility.yul\":6555:6592   */\n      iszero\n      tag_172\n      jumpi\n        /* \"#utility.yul\":6572:6590   */\n      tag_173\n      tag_96\n      jump\t// in\n    tag_173:\n        /* \"#utility.yul\":6555:6592   */\n    tag_172:\n        /* \"#utility.yul\":6405:6599   */\n      swap3\n      swap2\n      pop\n      pop\n      jump\t// out\n        /* \"#utility.yul\":6605:6838   */\n    tag_38:\n        /* \"#utility.yul\":6644:6647   */\n      0x00\n        /* \"#utility.yul\":6667:6691   */\n      tag_175\n        /* \"#utility.yul\":6685:6690   */\n      dup3\n        /* \"#utility.yul\":6667:6691   */\n      tag_83\n      jump\t// in\n    tag_175:\n        /* \"#utility.yul\":6658:6691   */\n      swap2\n      pop\n        /* \"#utility.yul\":6713:6779   */\n      0xffffffffffffffffffffffffffffffffffffffffffffffffffffffffffffffff\n        /* \"#utility.yul\":6706:6711   */\n      dup3\n        /* \"#utility.yul\":6703:6780   */\n      sub\n        /* \"#utility.yul\":6700:6803   */\n      tag_176\n      jumpi\n        /* \"#utility.yul\":6783:6801   */\n      tag_177\n      tag_96\n      jump\t// in\n    tag_177:\n        /* \"#utility.yul\":6700:6803   */\n    tag_176:\n        /* \"#utility.yul\":6830:6831   */\n      0x01\n        /* \"#utility.yul\":6823:6828   */\n      dup3\n        /* \"#utility.yul\":6819:6832   */\n      add\n        /* \"#utility.yul\":6812:6832   */\n      swap1\n      pop\n        /* \"#utility.yul\":6605:6838   */\n      swap2\n      swap1\n      pop\n      jump\t// out\n        /* \"#utility.yul\":6844:7024   */\n    tag_47:\n        /* \"#utility.yul\":6892:6969   */\n      0x4e487b7100000000000000000000000000000000000000000000000000000000\n        /* \"#utility.yul\":6889:6890   */\n      0x00\n        /* \"#utility.yul\":6882:6970   */\n      mstore\n        /* \"#utility.yul\":6989:6993   */\n      0x32\n        /* \"#utility.yul\":6986:6987   */\n      0x04\n        /* \"#utility.yul\":6979:6994   */\n      mstore\n        /* \"#utility.yul\":7013:7017   */\n      0x24\n        /* \"#utility.yul\":7010:7011   */\n      0x00\n        /* \"#utility.yul\":7003:7018   */\n      revert\n        /* \"#utility.yul\":7030:7221   */\n    tag_50:\n        /* \"#utility.yul\":7070:7073   */\n      0x00\n        /* \"#utility.yul\":7089:7109   */\n      tag_180\n        /* \"#utility.yul\":7107:7108   */\n      dup3\n        /* \"#utility.yul\":7089:7109   */\n      tag_83\n      jump\t// in\n    tag_180:\n        /* \"#utility.yul\":7084:7109   */\n      swap2\n      pop\n        /* \"#utility.yul\":7123:7143   */\n      tag_181\n        /* \"#utility.yul\":7141:7142   */\n      dup4\n        /* \"#utility.yul\":7123:7143   */\n      tag_83\n      jump\t// in\n    tag_181:\n        /* \"#utility.yul\":7118:7143   */\n      swap3\n      pop\n        /* \"#utility.yul\":7166:7167   */\n      dup3\n        /* \"#utility.yul\":7163:7164   */\n      dup3\n        /* \"#utility.yul\":7159:7168   */\n      add\n        /* \"#utility.yul\":7152:7168   */\n      swap1\n      pop\n        /* \"#utility.yul\":7187:7190   */\n      dup1\n        /* \"#utility.yul\":7184:7185   */\n      dup3\n        /* \"#utility.yul\":7181:7191   */\n      gt\n        /* \"#utility.yul\":7178:7214   */\n      iszero\n      tag_182\n      jumpi\n        /* \"#utility.yul\":7194:7212   */\n      tag_183\n      tag_96\n      jump\t// in\n    tag_183:\n        /* \"#utility.yul\":7178:7214   */\n    tag_182:\n        /* \"#utility.yul\":7030:7221   */\n      swap3\n      swap2\n      pop\n      pop\n      jump\t// out\n        /* \"#utility.yul\":7227:7395   */\n    tag_97:\n        /* \"#utility.yul\":7367:7387   */\n      0x416c726561647920726567697374657265640000000000000000000000000000\n        /* \"#utility.yul\":7363:7364   */\n      0x00\n        /* \"#utility.yul\":7355:7361   */\n      dup3\n        /* \"#utility.yul\":7351:7365   */\n      add\n        /* \"#utility.yul\":7344:7388   */\n      mstore\n        /* \"#utility.yul\":7227:7395   */\n      pop\n      jump\t// out\n        /* \"#utility.yul\":7401:7767   */\n    tag_98:\n        /* \"#utility.yul\":7543:7546   */\n      0x00\n        /* \"#utility.yul\":7564:7631   */\n      tag_186\n        /* \"#utility.yul\":7628:7630   */\n      0x12\n        /* \"#utility.yul\":7623:7626   */\n      dup4\n        /* \"#utility.yul\":7564:7631   */\n      tag_91\n      jump\t// in\n    tag_186:\n        /* \"#utility.yul\":7557:7631   */\n      swap2\n      pop\n        /* \"#utility.yul\":7640:7733   */\n      tag_187\n        /* \"#utility.yul\":7729:7732   */\n      dup3\n        /* \"#utility.yul\":7640:7733   */\n      tag_97\n      jump\t// in\n    tag_187:\n        /* \"#utility.yul\":7758:7760   */\n      0x20\n        /* \"#utility.yul\":7753:7756   */\n      dup3\n        /* \"#utility.yul\":7749:7761   */\n      add\n        /* \"#utility.yul\":7742:7761   */\n      swap1\n      pop\n        /* \"#utility.yul\":7401:7767   */\n      swap2\n      swap1\n      pop\n      jump\t// out\n        /* \"#utility.yul\":7773:8192   */\n    tag_54:\n        /* \"#utility.yul\":7939:7943   */\n      0x00\n        /* \"#utility.yul\":7977:7979   */\n      0x20\n        /* \"#utility.yul\":7966:7975   */\n      dup3\n        /* \"#utility.yul\":7962:7980   */\n      add\n        /* \"#utility.yul\":7954:7980   */\n      swap1\n      pop\n        /* \"#utility.yul\":8026:8035   */\n      dup2\n        /* \"#utility.yul\":8020:8024   */\n      dup2\n        /* \"#utility.yul\":8016:8036   */\n      sub\n        /* \"#utility.yul\":8012:8013   */\n      0x00\n        /* \"#utility.yul\":8001:8010   */\n      dup4\n        /* \"#utility.yul\":7997:8014   */\n      add\n        /* \"#utility.yul\":7990:8037   */\n      mstore\n        /* \"#utility.yul\":8054:8185   */\n      tag_189\n        /* \"#utility.yul\":8180:8184   */\n      dup2\n        /* \"#utility.yul\":8054:8185   */\n      tag_98\n      jump\t// in\n    tag_189:\n        /* \"#utility.yul\":8046:8185   */\n      swap1\n      pop\n        /* \"#utility.yul\":7773:8192   */\n      swap2\n      swap1\n      pop\n      jump\t// out\n        /* \"#utility.yul\":8198:8369   */\n    tag_99:\n        /* \"#utility.yul\":8338:8361   */\n      0x43616e2774206166666f7264206576656e206f6e650000000000000000000000\n        /* \"#utility.yul\":8334:8335   */\n      0x00\n        /* \"#utility.yul\":8326:8332   */\n      dup3\n        /* \"#utility.yul\":8322:8336   */\n      add\n        /* \"#utility.yul\":8315:8362   */\n      mstore\n        /* \"#utility.yul\":8198:8369   */\n      pop\n      jump\t// out\n        /* \"#utility.yul\":8375:8741   */\n    tag_100:\n        /* \"#utility.yul\":8517:8520   */\n      0x00\n        /* \"#utility.yul\":8538:8605   */\n      tag_192\n        /* \"#utility.yul\":8602:8604   */\n      0x15\n        /* \"#utility.yul\":8597:8600   */\n      dup4\n        /* \"#utility.yul\":8538:8605   */\n      tag_91\n      jump\t// in\n    tag_192:\n        /* \"#utility.yul\":8531:8605   */\n      swap2\n      pop\n        /* \"#utility.yul\":8614:8707   */\n      tag_193\n        /* \"#utility.yul\":8703:8706   */\n      dup3\n        /* \"#utility.yul\":8614:8707   */\n      tag_99\n      jump\t// in\n    tag_193:\n        /* \"#utility.yul\":8732:8734   */\n      0x20\n        /* \"#utility.yul\":8727:8730   */\n      dup3\n        /* \"#utility.yul\":8723:8735   */\n      add\n        /* \"#utility.yul\":8716:8735   */\n      swap1\n      pop\n        /* \"#utility.yul\":8375:8741   */\n      swap2\n      swap1\n      pop\n      jump\t// out\n        /* \"#utility.yul\":8747:9166   */\n    tag_58:\n        /* \"#utility.yul\":8913:8917   */\n      0x00\n        /* \"#utility.yul\":8951:8953   */\n      0x20\n        /* \"#utility.yul\":8940:8949   */\n      dup3\n        /* \"#utility.yul\":8936:8954   */\n      add\n        /* \"#utility.yul\":8928:8954   */\n      swap1\n      pop\n        /* \"#utility.yul\":9000:9009   */\n      dup2\n        /* \"#utility.yul\":8994:8998   */\n      dup2\n        /* \"#utility.yul\":8990:9010   */\n      sub\n        /* \"#utility.yul\":8986:8987   */\n      0x00\n        /* \"#utility.yul\":8975:8984   */\n      dup4\n        /* \"#utility.yul\":8971:8988   */\n      add\n        /* \"#utility.yul\":8964:9011   */\n      mstore\n        /* \"#utility.yul\":9028:9159   */\n      tag_195\n        /* \"#utility.yul\":9154:9158   */\n      dup2\n        /* \"#utility.yul\":9028:9159   */\n      tag_100\n      jump\t// in\n    tag_195:\n        /* \"#utility.yul\":9020:9159   */\n      swap1\n      pop\n        /* \"#utility.yul\":8747:9166   */\n      swap2\n      swap1\n      pop\n      jump\t// out\n        /* \"#utility.yul\":9172:9582   */\n    tag_63:\n        /* \"#utility.yul\":9212:9219   */\n      0x00\n        /* \"#utility.yul\":9235:9255   */\n      tag_197\n        /* \"#utility.yul\":9253:9254   */\n      dup3\n        /* \"#utility.yul\":9235:9255   */\n      tag_83\n      jump\t// in\n    tag_197:\n        /* \"#utility.yul\":9230:9255   */\n      swap2\n      pop\n        /* \"#utility.yul\":9269:9289   */\n      tag_198\n        /* \"#utility.yul\":9287:9288   */\n      dup4\n        /* \"#utility.yul\":9269:9289   */\n      tag_83\n      jump\t// in\n    tag_198:\n        /* \"#utility.yul\":9264:9289   */\n      swap3\n      pop\n        /* \"#utility.yul\":9324:9325   */\n      dup3\n        /* \"#utility.yul\":9321:9322   */\n      dup3\n        /* \"#utility.yul\":9317:9326   */\n      mul\n        /* \"#utility.yul\":9346:9376   */\n      tag_199\n        /* \"#utility.yul\":9364:9375   */\n      dup2\n        /* \"#utility.yul\":9346:9376   */\n      tag_83\n      jump\t// in\n    tag_199:\n        /* \"#utility.yul\":9335:9376   */\n      swap2\n      pop\n        /* \"#utility.yul\":9525:9526   */\n      dup3\n        /* \"#utility.yul\":9516:9523   */\n      dup3\n        /* \"#utility.yul\":9512:9527   */\n      div\n        /* \"#utility.yul\":9509:9510   */\n      dup5\n        /* \"#utility.yul\":9506:9528   */\n      eq\n        /* \"#utility.yul\":9486:9487   */\n      dup4\n        /* \"#utility.yul\":9479:9488   */\n      iszero\n        /* \"#utility.yul\":9459:9542   */\n      or\n        /* \"#utility.yul\":9436:9575   */\n      tag_200\n      jumpi\n        /* \"#utility.yul\":9555:9573   */\n      tag_201\n      tag_96\n      jump\t// in\n    tag_201:\n        /* \"#utility.yul\":9436:9575   */\n    tag_200:\n        /* \"#utility.yul\":9220:9582   */\n      pop\n        /* \"#utility.yul\":9172:9582   */\n      swap3\n      swap2\n      pop\n      pop\n      jump\t// out\n        /* \"#utility.yul\":9588:9766   */\n    tag_101:\n        /* \"#utility.yul\":9728:9758   */\n      0x506c617965727320636f756e742063616e6e6f74206265207a65726f00000000\n        /* \"#utility.yul\":9724:9725   */\n      0x00\n        /* \"#utility.yul\":9716:9722   */\n      dup3\n        /* \"#utility.yul\":9712:9726   */\n      add\n        /* \"#utility.yul\":9705:9759   */\n      mstore\n        /* \"#utility.yul\":9588:9766   */\n      pop\n      jump\t// out\n        /* \"#utility.yul\":9772:10138   */\n    tag_102:\n        /* \"#utility.yul\":9914:9917   */\n      0x00\n        /* \"#utility.yul\":9935:10002   */\n      tag_204\n        /* \"#utility.yul\":9999:10001   */\n      0x1c\n        /* \"#utility.yul\":9994:9997   */\n      dup4\n        /* \"#utility.yul\":9935:10002   */\n      tag_91\n      jump\t// in\n    tag_204:\n        /* \"#utility.yul\":9928:10002   */\n      swap2\n      pop\n        /* \"#utility.yul\":10011:10104   */\n      tag_205\n        /* \"#utility.yul\":10100:10103   */\n      dup3\n        /* \"#utility.yul\":10011:10104   */\n      tag_101\n      jump\t// in\n    tag_205:\n        /* \"#utility.yul\":10129:10131   */\n      0x20\n        /* \"#utility.yul\":10124:10127   */\n      dup3\n        /* \"#utility.yul\":10120:10132   */\n      add\n        /* \"#utility.yul\":10113:10132   */\n      swap1\n      pop\n        /* \"#utility.yul\":9772:10138   */\n      swap2\n      swap1\n      pop\n      jump\t// out\n        /* \"#utility.yul\":10144:10563   */\n    tag_67:\n        /* \"#utility.yul\":10310:10314   */\n      0x00\n        /* \"#utility.yul\":10348:10350   */\n      0x20\n        /* \"#utility.yul\":10337:10346   */\n      dup3\n        /* \"#utility.yul\":10333:10351   */\n      add\n        /* \"#utility.yul\":10325:10351   */\n      swap1\n      pop\n        /* \"#utility.yul\":10397:10406   */\n      dup2\n        /* \"#utility.yul\":10391:10395   */\n      dup2\n        /* \"#utility.yul\":10387:10407   */\n      sub\n        /* \"#utility.yul\":10383:10384   */\n      0x00\n        /* \"#utility.yul\":10372:10381   */\n      dup4\n        /* \"#utility.yul\":10368:10385   */\n      add\n        /* \"#utility.yul\":10361:10408   */\n      mstore\n        /* \"#utility.yul\":10425:10556   */\n      tag_207\n        /* \"#utility.yul\":10551:10555   */\n      dup2\n        /* \"#utility.yul\":10425:10556   */\n      tag_102\n      jump\t// in\n    tag_207:\n        /* \"#utility.yul\":10417:10556   */\n      swap1\n      pop\n        /* \"#utility.yul\":10144:10563   */\n      swap2\n      swap1\n      pop\n      jump\t// out\n        /* \"#utility.yul\":10569:10749   */\n    tag_103:\n        /* \"#utility.yul\":10617:10694   */\n      0x4e487b7100000000000000000000000000000000000000000000000000000000\n        /* \"#utility.yul\":10614:10615   */\n      0x00\n        /* \"#utility.yul\":10607:10695   */\n      mstore\n        /* \"#utility.yul\":10714:10718   */\n      0x12\n        /* \"#utility.yul\":10711:10712   */\n      0x04\n        /* \"#utility.yul\":10704:10719   */\n      mstore\n        /* \"#utility.yul\":10738:10742   */\n      0x24\n        /* \"#utility.yul\":10735:10736   */\n      0x00\n        /* \"#utility.yul\":10728:10743   */\n      revert\n        /* \"#utility.yul\":10755:10940   */\n    tag_69:\n        /* \"#utility.yul\":10795:10796   */\n      0x00\n        /* \"#utility.yul\":10812:10832   */\n      tag_210\n        /* \"#utility.yul\":10830:10831   */\n      dup3\n        /* \"#utility.yul\":10812:10832   */\n      tag_83\n      jump\t// in\n    tag_210:\n        /* \"#utility.yul\":10807:10832   */\n      swap2\n      pop\n        /* \"#utility.yul\":10846:10866   */\n      tag_211\n        /* \"#utility.yul\":10864:10865   */\n      dup4\n        /* \"#utility.yul\":10846:10866   */\n      tag_83\n      jump\t// in\n    tag_211:\n        /* \"#utility.yul\":10841:10866   */\n      swap3\n      pop\n        /* \"#utility.yul\":10885:10886   */\n      dup3\n        /* \"#utility.yul\":10875:10910   */\n      tag_212\n      jumpi\n        /* \"#utility.yul\":10890:10908   */\n      tag_213\n      tag_103\n      jump\t// in\n    tag_213:\n        /* \"#utility.yul\":10875:10910   */\n    tag_212:\n        /* \"#utility.yul\":10932:10933   */\n      dup3\n        /* \"#utility.yul\":10929:10930   */\n      dup3\n        /* \"#utility.yul\":10925:10934   */\n      div\n        /* \"#utility.yul\":10920:10934   */\n      swap1\n      pop\n        /* \"#utility.yul\":10755:10940   */\n      swap3\n      swap2\n      pop\n      pop\n      jump\t// out\n        /* \"#utility.yul\":10946:11115   */\n    tag_104:\n        /* \"#utility.yul\":11086:11107   */\n      0x436f73742063616e6e6f74206265207a65726f00000000000000000000000000\n        /* \"#utility.yul\":11082:11083   */\n      0x00\n        /* \"#utility.yul\":11074:11080   */\n      dup3\n        /* \"#utility.yul\":11070:11084   */\n      add\n        /* \"#utility.yul\":11063:11108   */\n      mstore\n        /* \"#utility.yul\":10946:11115   */\n      pop\n      jump\t// out\n        /* \"#utility.yul\":11121:11487   */\n    tag_105:\n        /* \"#utility.yul\":11263:11266   */\n      0x00\n        /* \"#utility.yul\":11284:11351   */\n      tag_216\n        /* \"#utility.yul\":11348:11350   */\n      0x13\n        /* \"#utility.yul\":11343:11346   */\n      dup4\n        /* \"#utility.yul\":11284:11351   */\n      tag_91\n      jump\t// in\n    tag_216:\n        /* \"#utility.yul\":11277:11351   */\n      swap2\n      pop\n        /* \"#utility.yul\":11360:11453   */\n      tag_217\n        /* \"#utility.yul\":11449:11452   */\n      dup3\n        /* \"#utility.yul\":11360:11453   */\n      tag_104\n      jump\t// in\n    tag_217:\n        /* \"#utility.yul\":11478:11480   */\n      0x20\n        /* \"#utility.yul\":11473:11476   */\n      dup3\n        /* \"#utility.yul\":11469:11481   */\n      add\n        /* \"#utility.yul\":11462:11481   */\n      swap1\n      pop\n        /* \"#utility.yul\":11121:11487   */\n      swap2\n      swap1\n      pop\n      jump\t// out\n        /* \"#utility.yul\":11493:11912   */\n    tag_73:\n        /* \"#utility.yul\":11659:11663   */\n      0x00\n        /* \"#utility.yul\":11697:11699   */\n      0x20\n        /* \"#utility.yul\":11686:11695   */\n      dup3\n        /* \"#utility.yul\":11682:11700   */\n      add\n        /* \"#utility.yul\":11674:11700   */\n      swap1\n      pop\n        /* \"#utility.yul\":11746:11755   */\n      dup2\n        /* \"#utility.yul\":11740:11744   */\n      dup2\n        /* \"#utility.yul\":11736:11756   */\n      sub\n        /* \"#utility.yul\":11732:11733   */\n      0x00\n        /* \"#utility.yul\":11721:11730   */\n      dup4\n        /* \"#utility.yul\":11717:11734   */\n      add\n        /* \"#utility.yul\":11710:11757   */\n      mstore\n        /* \"#utility.yul\":11774:11905   */\n      tag_219\n        /* \"#utility.yul\":11900:11904   */\n      dup2\n        /* \"#utility.yul\":11774:11905   */\n      tag_105\n      jump\t// in\n    tag_219:\n        /* \"#utility.yul\":11766:11905   */\n      swap1\n      pop\n        /* \"#utility.yul\":11493:11912   */\n      swap2\n      swap1\n      pop\n      jump\t// out\n        /* \"#utility.yul\":11918:12094   */\n    tag_75:\n        /* \"#utility.yul\":11950:11951   */\n      0x00\n        /* \"#utility.yul\":11967:11987   */\n      tag_221\n        /* \"#utility.yul\":11985:11986   */\n      dup3\n        /* \"#utility.yul\":11967:11987   */\n      tag_83\n      jump\t// in\n    tag_221:\n        /* \"#utility.yul\":11962:11987   */\n      swap2\n      pop\n        /* \"#utility.yul\":12001:12021   */\n      tag_222\n        /* \"#utility.yul\":12019:12020   */\n      dup4\n        /* \"#utility.yul\":12001:12021   */\n      tag_83\n      jump\t// in\n    tag_222:\n        /* \"#utility.yul\":11996:12021   */\n      swap3\n      pop\n        /* \"#utility.yul\":12040:12041   */\n      dup3\n        /* \"#utility.yul\":12030:12065   */\n      tag_223\n      jumpi\n        /* \"#utility.yul\":12045:12063   */\n      tag_224\n      tag_103\n      jump\t// in\n    tag_224:\n        /* \"#utility.yul\":12030:12065   */\n    tag_223:\n        /* \"#utility.yul\":12086:12087   */\n      dup3\n        /* \"#utility.yul\":12083:12084   */\n      dup3\n        /* \"#utility.yul\":12079:12088   */\n      mod\n        /* \"#utility.yul\":12074:12088   */\n      swap1\n      pop\n        /* \"#utility.yul\":11918:12094   */\n      swap3\n      swap2\n      pop\n      pop\n      jump\t// out\n\n    auxdata: 0xa264697066735822122024bf86584a9375094d56c518ca3e8d3656b2c639c9c423f452808f700e00dade64736f6c63430008220033\n}\n",
				"bytecode": {
					"linkReferences": {},
					"object": "6080604052348015600e575f5ffd5b50610ba28061001c5f395ff3fe608060405234801561000f575f5ffd5b5060043610610055575f3560e01c8063056fc6d1146100595780633a76d393146100635780635c07a4b01461007f578063dd032d9814610089578063e2eb41ff146100a5575b5f5ffd5b6100616100d7565b005b61007d600480360381019061007891906105c6565b6101f1565b005b6100876102a0565b005b6100a3600480360381019061009e9190610623565b61039d565b005b6100bf60048036038101906100ba91906106a8565b610442565b6040516100ce939291906106e2565b60405180910390f35b5f5f5f3373ffffffffffffffffffffffffffffffffffffffff1673ffffffffffffffffffffffffffffffffffffffff1681526020019081526020015f2090505f81600201541161015c576040517f08c379a000000000000000000000000000000000000000000000000000000000815260040161015390610771565b60405180910390fd5b5f609690505f610170836002015483610467565b905080836001015410156101b9576040517f08c379a00000000000000000000000000000000000000000000000000000000081526004016101b0906107d9565b60405180910390fd5b80836001015f8282546101cc9190610824565b92505081905550826002015f8154809291906101e790610857565b9190505550505050565b5f6101ff828585905061047c565b90505f5f90505b8484905081101561029957815f5f8787858181106102275761022661089e565b5b905060200201602081019061023c91906106a8565b73ffffffffffffffffffffffffffffffffffffffff1673ffffffffffffffffffffffffffffffffffffffff1681526020019081526020015f205f015f82825461028591906108cb565b925050819055508080600101915050610206565b5050505050565b5f5f5f3373ffffffffffffffffffffffffffffffffffffffff1673ffffffffffffffffffffffffffffffffffffffff1681526020019081526020015f206002015414610321576040517f08c379a000000000000000000000000000000000000000000000000000000000815260040161031890610948565b60405180910390fd5b6040518060600160405280606481526020016101f4815260200160018152505f5f3373ffffffffffffffffffffffffffffffffffffffff1673ffffffffffffffffffffffffffffffffffffffff1681526020019081526020015f205f820151815f01556020820151816001015560408201518160020155905050565b5f5f5f3373ffffffffffffffffffffffffffffffffffffffff1673ffffffffffffffffffffffffffffffffffffffff1681526020019081526020015f2090508181600101541015610423576040517f08c379a000000000000000000000000000000000000000000000000000000000815260040161041a906109b0565b60405180910390fd5b5f6104328260010154846104d3565b9050808260010181905550505050565b5f602052805f5260405f205f91509050805f0154908060010154908060020154905083565b5f818361047491906109ce565b905092915050565b5f5f82116104bf576040517f08c379a00000000000000000000000000000000000000000000000000000000081526004016104b690610a59565b60405180910390fd5b81836104cb9190610aa4565b905092915050565b5f5f8211610516576040517f08c379a000000000000000000000000000000000000000000000000000000000815260040161050d90610b1e565b60405180910390fd5b81836105229190610b3c565b905092915050565b5f5ffd5b5f5ffd5b5f5ffd5b5f5ffd5b5f5ffd5b5f5f83601f84011261055357610552610532565b5b8235905067ffffffffffffffff8111156105705761056f610536565b5b60208301915083602082028301111561058c5761058b61053a565b5b9250929050565b5f819050919050565b6105a581610593565b81146105af575f5ffd5b50565b5f813590506105c08161059c565b92915050565b5f5f5f604084860312156105dd576105dc61052a565b5b5f84013567ffffffffffffffff8111156105fa576105f961052e565b5b6106068682870161053e565b93509350506020610619868287016105b2565b9150509250925092565b5f602082840312156106385761063761052a565b5b5f610645848285016105b2565b91505092915050565b5f73ffffffffffffffffffffffffffffffffffffffff82169050919050565b5f6106778261064e565b9050919050565b6106878161066d565b8114610691575f5ffd5b50565b5f813590506106a28161067e565b92915050565b5f602082840312156106bd576106bc61052a565b5b5f6106ca84828501610694565b91505092915050565b6106dc81610593565b82525050565b5f6060820190506106f55f8301866106d3565b61070260208301856106d3565b61070f60408301846106d3565b949350505050565b5f82825260208201905092915050565b7f52656769737465722066697273740000000000000000000000000000000000005f82015250565b5f61075b600e83610717565b915061076682610727565b602082019050919050565b5f6020820190508181035f8301526107888161074f565b9050919050565b7f4e6f7420656e6f75676820676f6c6400000000000000000000000000000000005f82015250565b5f6107c3600f83610717565b91506107ce8261078f565b602082019050919050565b5f6020820190508181035f8301526107f0816107b7565b9050919050565b7f4e487b71000000000000000000000000000000000000000000000000000000005f52601160045260245ffd5b5f61082e82610593565b915061083983610593565b9250828203905081811115610851576108506107f7565b5b92915050565b5f61086182610593565b91507fffffffffffffffffffffffffffffffffffffffffffffffffffffffffffffffff8203610893576108926107f7565b5b600182019050919050565b7f4e487b71000000000000000000000000000000000000000000000000000000005f52603260045260245ffd5b5f6108d582610593565b91506108e083610593565b92508282019050808211156108f8576108f76107f7565b5b92915050565b7f416c7265616479207265676973746572656400000000000000000000000000005f82015250565b5f610932601283610717565b915061093d826108fe565b602082019050919050565b5f6020820190508181035f83015261095f81610926565b9050919050565b7f43616e2774206166666f7264206576656e206f6e6500000000000000000000005f82015250565b5f61099a601583610717565b91506109a582610966565b602082019050919050565b5f6020820190508181035f8301526109c78161098e565b9050919050565b5f6109d882610593565b91506109e383610593565b92508282026109f181610593565b91508282048414831517610a0857610a076107f7565b5b5092915050565b7f506c617965727320636f756e742063616e6e6f74206265207a65726f000000005f82015250565b5f610a43601c83610717565b9150610a4e82610a0f565b602082019050919050565b5f6020820190508181035f830152610a7081610a37565b9050919050565b7f4e487b71000000000000000000000000000000000000000000000000000000005f52601260045260245ffd5b5f610aae82610593565b9150610ab983610593565b925082610ac957610ac8610a77565b5b828204905092915050565b7f436f73742063616e6e6f74206265207a65726f000000000000000000000000005f82015250565b5f610b08601383610717565b9150610b1382610ad4565b602082019050919050565b5f6020820190508181035f830152610b3581610afc565b9050919050565b5f610b4682610593565b9150610b5183610593565b925082610b6157610b60610a77565b5b82820690509291505056fea264697066735822122024bf86584a9375094d56c518ca3e8d3656b2c639c9c423f452808f700e00dade64736f6c63430008220033",
					"opcodes": "PUSH1 0x80 PUSH1 0x40 MSTORE CALLVALUE DUP1 ISZERO PUSH1 0xE JUMPI PUSH0 PUSH0 REVERT JUMPDEST POP PUSH2 0xBA2 DUP1 PUSH2 0x1C PUSH0 CODECOPY PUSH0 RETURN INVALID PUSH1 0x80 PUSH1 0x40 MSTORE CALLVALUE DUP1 ISZERO PUSH2 0xF JUMPI PUSH0 PUSH0 REVERT JUMPDEST POP PUSH1 0x4 CALLDATASIZE LT PUSH2 0x55 JUMPI PUSH0 CALLDATALOAD PUSH1 0xE0 SHR DUP1 PUSH4 0x56FC6D1 EQ PUSH2 0x59 JUMPI DUP1 PUSH4 0x3A76D393 EQ PUSH2 0x63 JUMPI DUP1 PUSH4 0x5C07A4B0 EQ PUSH2 0x7F JUMPI DUP1 PUSH4 0xDD032D98 EQ PUSH2 0x89 JUMPI DUP1 PUSH4 0xE2EB41FF EQ PUSH2 0xA5 JUMPI JUMPDEST PUSH0 PUSH0 REVERT JUMPDEST PUSH2 0x61 PUSH2 0xD7 JUMP JUMPDEST STOP JUMPDEST PUSH2 0x7D PUSH1 0x4 DUP1 CALLDATASIZE SUB DUP2 ADD SWAP1 PUSH2 0x78 SWAP2 SWAP1 PUSH2 0x5C6 JUMP JUMPDEST PUSH2 0x1F1 JUMP JUMPDEST STOP JUMPDEST PUSH2 0x87 PUSH2 0x2A0 JUMP JUMPDEST STOP JUMPDEST PUSH2 0xA3 PUSH1 0x4 DUP1 CALLDATASIZE SUB DUP2 ADD SWAP1 PUSH2 0x9E SWAP2 SWAP1 PUSH2 0x623 JUMP JUMPDEST PUSH2 0x39D JUMP JUMPDEST STOP JUMPDEST PUSH2 0xBF PUSH1 0x4 DUP1 CALLDATASIZE SUB DUP2 ADD SWAP1 PUSH2 0xBA SWAP2 SWAP1 PUSH2 0x6A8 JUMP JUMPDEST PUSH2 0x442 JUMP JUMPDEST PUSH1 0x40 MLOAD PUSH2 0xCE SWAP4 SWAP3 SWAP2 SWAP1 PUSH2 0x6E2 JUMP JUMPDEST PUSH1 0x40 MLOAD DUP1 SWAP2 SUB SWAP1 RETURN JUMPDEST PUSH0 PUSH0 PUSH0 CALLER PUSH20 0xFFFFFFFFFFFFFFFFFFFFFFFFFFFFFFFFFFFFFFFF AND PUSH20 0xFFFFFFFFFFFFFFFFFFFFFFFFFFFFFFFFFFFFFFFF AND DUP2 MSTORE PUSH1 0x20 ADD SWAP1 DUP2 MSTORE PUSH1 0x20 ADD PUSH0 KECCAK256 SWAP1 POP PUSH0 DUP2 PUSH1 0x2 ADD SLOAD GT PUSH2 0x15C JUMPI PUSH1 0x40 MLOAD PUSH32 0x8C379A000000000000000000000000000000000000000000000000000000000 DUP2 MSTORE PUSH1 0x4 ADD PUSH2 0x153 SWAP1 PUSH2 0x771 JUMP JUMPDEST PUSH1 0x40 MLOAD DUP1 SWAP2 SUB SWAP1 REVERT JUMPDEST PUSH0 PUSH1 0x96 SWAP1 POP PUSH0 PUSH2 0x170 DUP4 PUSH1 0x2 ADD SLOAD DUP4 PUSH2 0x467 JUMP JUMPDEST SWAP1 POP DUP1 DUP4 PUSH1 0x1 ADD SLOAD LT ISZERO PUSH2 0x1B9 JUMPI PUSH1 0x40 MLOAD PUSH32 0x8C379A000000000000000000000000000000000000000000000000000000000 DUP2 MSTORE PUSH1 0x4 ADD PUSH2 0x1B0 SWAP1 PUSH2 0x7D9 JUMP JUMPDEST PUSH1 0x40 MLOAD DUP1 SWAP2 SUB SWAP1 REVERT JUMPDEST DUP1 DUP4 PUSH1 0x1 ADD PUSH0 DUP3 DUP3 SLOAD PUSH2 0x1CC SWAP2 SWAP1 PUSH2 0x824 JUMP JUMPDEST SWAP3 POP POP DUP2 SWAP1 SSTORE POP DUP3 PUSH1 0x2 ADD PUSH0 DUP2 SLOAD DUP1 SWAP3 SWAP2 SWAP1 PUSH2 0x1E7 SWAP1 PUSH2 0x857 JUMP JUMPDEST SWAP2 SWAP1 POP SSTORE POP POP POP POP JUMP JUMPDEST PUSH0 PUSH2 0x1FF DUP3 DUP6 DUP6 SWAP1 POP PUSH2 0x47C JUMP JUMPDEST SWAP1 POP PUSH0 PUSH0 SWAP1 POP JUMPDEST DUP5 DUP5 SWAP1 POP DUP2 LT ISZERO PUSH2 0x299 JUMPI DUP2 PUSH0 PUSH0 DUP8 DUP8 DUP6 DUP2 DUP2 LT PUSH2 0x227 JUMPI PUSH2 0x226 PUSH2 0x89E JUMP JUMPDEST JUMPDEST SWAP1 POP PUSH1 0x20 MUL ADD PUSH1 0x20 DUP2 ADD SWAP1 PUSH2 0x23C SWAP2 SWAP1 PUSH2 0x6A8 JUMP JUMPDEST PUSH20 0xFFFFFFFFFFFFFFFFFFFFFFFFFFFFFFFFFFFFFFFF AND PUSH20 0xFFFFFFFFFFFFFFFFFFFFFFFFFFFFFFFFFFFFFFFF AND DUP2 MSTORE PUSH1 0x20 ADD SWAP1 DUP2 MSTORE PUSH1 0x20 ADD PUSH0 KECCAK256 PUSH0 ADD PUSH0 DUP3 DUP3 SLOAD PUSH2 0x285 SWAP2 SWAP1 PUSH2 0x8CB JUMP JUMPDEST SWAP3 POP POP DUP2 SWAP1 SSTORE POP DUP1 DUP1 PUSH1 0x1 ADD SWAP2 POP POP PUSH2 0x206 JUMP JUMPDEST POP POP POP POP POP JUMP JUMPDEST PUSH0 PUSH0 PUSH0 CALLER PUSH20 0xFFFFFFFFFFFFFFFFFFFFFFFFFFFFFFFFFFFFFFFF AND PUSH20 0xFFFFFFFFFFFFFFFFFFFFFFFFFFFFFFFFFFFFFFFF AND DUP2 MSTORE PUSH1 0x20 ADD SWAP1 DUP2 MSTORE PUSH1 0x20 ADD PUSH0 KECCAK256 PUSH1 0x2 ADD SLOAD EQ PUSH2 0x321 JUMPI PUSH1 0x40 MLOAD PUSH32 0x8C379A000000000000000000000000000000000000000000000000000000000 DUP2 MSTORE PUSH1 0x4 ADD PUSH2 0x318 SWAP1 PUSH2 0x948 JUMP JUMPDEST PUSH1 0x40 MLOAD DUP1 SWAP2 SUB SWAP1 REVERT JUMPDEST PUSH1 0x40 MLOAD DUP1 PUSH1 0x60 ADD PUSH1 0x40 MSTORE DUP1 PUSH1 0x64 DUP2 MSTORE PUSH1 0x20 ADD PUSH2 0x1F4 DUP2 MSTORE PUSH1 0x20 ADD PUSH1 0x1 DUP2 MSTORE POP PUSH0 PUSH0 CALLER PUSH20 0xFFFFFFFFFFFFFFFFFFFFFFFFFFFFFFFFFFFFFFFF AND PUSH20 0xFFFFFFFFFFFFFFFFFFFFFFFFFFFFFFFFFFFFFFFF AND DUP2 MSTORE PUSH1 0x20 ADD SWAP1 DUP2 MSTORE PUSH1 0x20 ADD PUSH0 KECCAK256 PUSH0 DUP3 ADD MLOAD DUP2 PUSH0 ADD SSTORE PUSH1 0x20 DUP3 ADD MLOAD DUP2 PUSH1 0x1 ADD SSTORE PUSH1 0x40 DUP3 ADD MLOAD DUP2 PUSH1 0x2 ADD SSTORE SWAP1 POP POP JUMP JUMPDEST PUSH0 PUSH0 PUSH0 CALLER PUSH20 0xFFFFFFFFFFFFFFFFFFFFFFFFFFFFFFFFFFFFFFFF AND PUSH20 0xFFFFFFFFFFFFFFFFFFFFFFFFFFFFFFFFFFFFFFFF AND DUP2 MSTORE PUSH1 0x20 ADD SWAP1 DUP2 MSTORE PUSH1 0x20 ADD PUSH0 KECCAK256 SWAP1 POP DUP2 DUP2 PUSH1 0x1 ADD SLOAD LT ISZERO PUSH2 0x423 JUMPI PUSH1 0x40 MLOAD PUSH32 0x8C379A000000000000000000000000000000000000000000000000000000000 DUP2 MSTORE PUSH1 0x4 ADD PUSH2 0x41A SWAP1 PUSH2 0x9B0 JUMP JUMPDEST PUSH1 0x40 MLOAD DUP1 SWAP2 SUB SWAP1 REVERT JUMPDEST PUSH0 PUSH2 0x432 DUP3 PUSH1 0x1 ADD SLOAD DUP5 PUSH2 0x4D3 JUMP JUMPDEST SWAP1 POP DUP1 DUP3 PUSH1 0x1 ADD DUP2 SWAP1 SSTORE POP POP POP POP JUMP JUMPDEST PUSH0 PUSH1 0x20 MSTORE DUP1 PUSH0 MSTORE PUSH1 0x40 PUSH0 KECCAK256 PUSH0 SWAP2 POP SWAP1 POP DUP1 PUSH0 ADD SLOAD SWAP1 DUP1 PUSH1 0x1 ADD SLOAD SWAP1 DUP1 PUSH1 0x2 ADD SLOAD SWAP1 POP DUP4 JUMP JUMPDEST PUSH0 DUP2 DUP4 PUSH2 0x474 SWAP2 SWAP1 PUSH2 0x9CE JUMP JUMPDEST SWAP1 POP SWAP3 SWAP2 POP POP JUMP JUMPDEST PUSH0 PUSH0 DUP3 GT PUSH2 0x4BF JUMPI PUSH1 0x40 MLOAD PUSH32 0x8C379A000000000000000000000000000000000000000000000000000000000 DUP2 MSTORE PUSH1 0x4 ADD PUSH2 0x4B6 SWAP1 PUSH2 0xA59 JUMP JUMPDEST PUSH1 0x40 MLOAD DUP1 SWAP2 SUB SWAP1 REVERT JUMPDEST DUP2 DUP4 PUSH2 0x4CB SWAP2 SWAP1 PUSH2 0xAA4 JUMP JUMPDEST SWAP1 POP SWAP3 SWAP2 POP POP JUMP JUMPDEST PUSH0 PUSH0 DUP3 GT PUSH2 0x516 JUMPI PUSH1 0x40 MLOAD PUSH32 0x8C379A000000000000000000000000000000000000000000000000000000000 DUP2 MSTORE PUSH1 0x4 ADD PUSH2 0x50D SWAP1 PUSH2 0xB1E JUMP JUMPDEST PUSH1 0x40 MLOAD DUP1 SWAP2 SUB SWAP1 REVERT JUMPDEST DUP2 DUP4 PUSH2 0x522 SWAP2 SWAP1 PUSH2 0xB3C JUMP JUMPDEST SWAP1 POP SWAP3 SWAP2 POP POP JUMP JUMPDEST PUSH0 PUSH0 REVERT JUMPDEST PUSH0 PUSH0 REVERT JUMPDEST PUSH0 PUSH0 REVERT JUMPDEST PUSH0 PUSH0 REVERT JUMPDEST PUSH0 PUSH0 REVERT JUMPDEST PUSH0 PUSH0 DUP4 PUSH1 0x1F DUP5 ADD SLT PUSH2 0x553 JUMPI PUSH2 0x552 PUSH2 0x532 JUMP JUMPDEST JUMPDEST DUP3 CALLDATALOAD SWAP1 POP PUSH8 0xFFFFFFFFFFFFFFFF DUP2 GT ISZERO PUSH2 0x570 JUMPI PUSH2 0x56F PUSH2 0x536 JUMP JUMPDEST JUMPDEST PUSH1 0x20 DUP4 ADD SWAP2 POP DUP4 PUSH1 0x20 DUP3 MUL DUP4 ADD GT ISZERO PUSH2 0x58C JUMPI PUSH2 0x58B PUSH2 0x53A JUMP JUMPDEST JUMPDEST SWAP3 POP SWAP3 SWAP1 POP JUMP JUMPDEST PUSH0 DUP2 SWAP1 POP SWAP2 SWAP1 POP JUMP JUMPDEST PUSH2 0x5A5 DUP2 PUSH2 0x593 JUMP JUMPDEST DUP2 EQ PUSH2 0x5AF JUMPI PUSH0 PUSH0 REVERT JUMPDEST POP JUMP JUMPDEST PUSH0 DUP2 CALLDATALOAD SWAP1 POP PUSH2 0x5C0 DUP2 PUSH2 0x59C JUMP JUMPDEST SWAP3 SWAP2 POP POP JUMP JUMPDEST PUSH0 PUSH0 PUSH0 PUSH1 0x40 DUP5 DUP7 SUB SLT ISZERO PUSH2 0x5DD JUMPI PUSH2 0x5DC PUSH2 0x52A JUMP JUMPDEST JUMPDEST PUSH0 DUP5 ADD CALLDATALOAD PUSH8 0xFFFFFFFFFFFFFFFF DUP2 GT ISZERO PUSH2 0x5FA JUMPI PUSH2 0x5F9 PUSH2 0x52E JUMP JUMPDEST JUMPDEST PUSH2 0x606 DUP7 DUP3 DUP8 ADD PUSH2 0x53E JUMP JUMPDEST SWAP4 POP SWAP4 POP POP PUSH1 0x20 PUSH2 0x619 DUP7 DUP3 DUP8 ADD PUSH2 0x5B2 JUMP JUMPDEST SWAP2 POP POP SWAP3 POP SWAP3 POP SWAP3 JUMP JUMPDEST PUSH0 PUSH1 0x20 DUP3 DUP5 SUB SLT ISZERO PUSH2 0x638 JUMPI PUSH2 0x637 PUSH2 0x52A JUMP JUMPDEST JUMPDEST PUSH0 PUSH2 0x645 DUP5 DUP3 DUP6 ADD PUSH2 0x5B2 JUMP JUMPDEST SWAP2 POP POP SWAP3 SWAP2 POP POP JUMP JUMPDEST PUSH0 PUSH20 0xFFFFFFFFFFFFFFFFFFFFFFFFFFFFFFFFFFFFFFFF DUP3 AND SWAP1 POP SWAP2 SWAP1 POP JUMP JUMPDEST PUSH0 PUSH2 0x677 DUP3 PUSH2 0x64E JUMP JUMPDEST SWAP1 POP SWAP2 SWAP1 POP JUMP JUMPDEST PUSH2 0x687 DUP2 PUSH2 0x66D JUMP JUMPDEST DUP2 EQ PUSH2 0x691 JUMPI PUSH0 PUSH0 REVERT JUMPDEST POP JUMP JUMPDEST PUSH0 DUP2 CALLDATALOAD SWAP1 POP PUSH2 0x6A2 DUP2 PUSH2 0x67E JUMP JUMPDEST SWAP3 SWAP2 POP POP JUMP JUMPDEST PUSH0 PUSH1 0x20 DUP3 DUP5 SUB SLT ISZERO PUSH2 0x6BD JUMPI PUSH2 0x6BC PUSH2 0x52A JUMP JUMPDEST JUMPDEST PUSH0 PUSH2 0x6CA DUP5 DUP3 DUP6 ADD PUSH2 0x694 JUMP JUMPDEST SWAP2 POP POP SWAP3 SWAP2 POP POP JUMP JUMPDEST PUSH2 0x6DC DUP2 PUSH2 0x593 JUMP JUMPDEST DUP3 MSTORE POP POP JUMP JUMPDEST PUSH0 PUSH1 0x60 DUP3 ADD SWAP1 POP PUSH2 0x6F5 PUSH0 DUP4 ADD DUP7 PUSH2 0x6D3 JUMP JUMPDEST PUSH2 0x702 PUSH1 0x20 DUP4 ADD DUP6 PUSH2 0x6D3 JUMP JUMPDEST PUSH2 0x70F PUSH1 0x40 DUP4 ADD DUP5 PUSH2 0x6D3 JUMP JUMPDEST SWAP5 SWAP4 POP POP POP POP JUMP JUMPDEST PUSH0 DUP3 DUP3 MSTORE PUSH1 0x20 DUP3 ADD SWAP1 POP SWAP3 SWAP2 POP POP JUMP JUMPDEST PUSH32 0x5265676973746572206669727374000000000000000000000000000000000000 PUSH0 DUP3 ADD MSTORE POP JUMP JUMPDEST PUSH0 PUSH2 0x75B PUSH1 0xE DUP4 PUSH2 0x717 JUMP JUMPDEST SWAP2 POP PUSH2 0x766 DUP3 PUSH2 0x727 JUMP JUMPDEST PUSH1 0x20 DUP3 ADD SWAP1 POP SWAP2 SWAP1 POP JUMP JUMPDEST PUSH0 PUSH1 0x20 DUP3 ADD SWAP1 POP DUP2 DUP2 SUB PUSH0 DUP4 ADD MSTORE PUSH2 0x788 DUP2 PUSH2 0x74F JUMP JUMPDEST SWAP1 POP SWAP2 SWAP1 POP JUMP JUMPDEST PUSH32 0x4E6F7420656E6F75676820676F6C640000000000000000000000000000000000 PUSH0 DUP3 ADD MSTORE POP JUMP JUMPDEST PUSH0 PUSH2 0x7C3 PUSH1 0xF DUP4 PUSH2 0x717 JUMP JUMPDEST SWAP2 POP PUSH2 0x7CE DUP3 PUSH2 0x78F JUMP JUMPDEST PUSH1 0x20 DUP3 ADD SWAP1 POP SWAP2 SWAP1 POP JUMP JUMPDEST PUSH0 PUSH1 0x20 DUP3 ADD SWAP1 POP DUP2 DUP2 SUB PUSH0 DUP4 ADD MSTORE PUSH2 0x7F0 DUP2 PUSH2 0x7B7 JUMP JUMPDEST SWAP1 POP SWAP2 SWAP1 POP JUMP JUMPDEST PUSH32 0x4E487B7100000000000000000000000000000000000000000000000000000000 PUSH0 MSTORE PUSH1 0x11 PUSH1 0x4 MSTORE PUSH1 0x24 PUSH0 REVERT JUMPDEST PUSH0 PUSH2 0x82E DUP3 PUSH2 0x593 JUMP JUMPDEST SWAP2 POP PUSH2 0x839 DUP4 PUSH2 0x593 JUMP JUMPDEST SWAP3 POP DUP3 DUP3 SUB SWAP1 POP DUP2 DUP2 GT ISZERO PUSH2 0x851 JUMPI PUSH2 0x850 PUSH2 0x7F7 JUMP JUMPDEST JUMPDEST SWAP3 SWAP2 POP POP JUMP JUMPDEST PUSH0 PUSH2 0x861 DUP3 PUSH2 0x593 JUMP JUMPDEST SWAP2 POP PUSH32 0xFFFFFFFFFFFFFFFFFFFFFFFFFFFFFFFFFFFFFFFFFFFFFFFFFFFFFFFFFFFFFFFF DUP3 SUB PUSH2 0x893 JUMPI PUSH2 0x892 PUSH2 0x7F7 JUMP JUMPDEST JUMPDEST PUSH1 0x1 DUP3 ADD SWAP1 POP SWAP2 SWAP1 POP JUMP JUMPDEST PUSH32 0x4E487B7100000000000000000000000000000000000000000000000000000000 PUSH0 MSTORE PUSH1 0x32 PUSH1 0x4 MSTORE PUSH1 0x24 PUSH0 REVERT JUMPDEST PUSH0 PUSH2 0x8D5 DUP3 PUSH2 0x593 JUMP JUMPDEST SWAP2 POP PUSH2 0x8E0 DUP4 PUSH2 0x593 JUMP JUMPDEST SWAP3 POP DUP3 DUP3 ADD SWAP1 POP DUP1 DUP3 GT ISZERO PUSH2 0x8F8 JUMPI PUSH2 0x8F7 PUSH2 0x7F7 JUMP JUMPDEST JUMPDEST SWAP3 SWAP2 POP POP JUMP JUMPDEST PUSH32 0x416C726561647920726567697374657265640000000000000000000000000000 PUSH0 DUP3 ADD MSTORE POP JUMP JUMPDEST PUSH0 PUSH2 0x932 PUSH1 0x12 DUP4 PUSH2 0x717 JUMP JUMPDEST SWAP2 POP PUSH2 0x93D DUP3 PUSH2 0x8FE JUMP JUMPDEST PUSH1 0x20 DUP3 ADD SWAP1 POP SWAP2 SWAP1 POP JUMP JUMPDEST PUSH0 PUSH1 0x20 DUP3 ADD SWAP1 POP DUP2 DUP2 SUB PUSH0 DUP4 ADD MSTORE PUSH2 0x95F DUP2 PUSH2 0x926 JUMP JUMPDEST SWAP1 POP SWAP2 SWAP1 POP JUMP JUMPDEST PUSH32 0x43616E2774206166666F7264206576656E206F6E650000000000000000000000 PUSH0 DUP3 ADD MSTORE POP JUMP JUMPDEST PUSH0 PUSH2 0x99A PUSH1 0x15 DUP4 PUSH2 0x717 JUMP JUMPDEST SWAP2 POP PUSH2 0x9A5 DUP3 PUSH2 0x966 JUMP JUMPDEST PUSH1 0x20 DUP3 ADD SWAP1 POP SWAP2 SWAP1 POP JUMP JUMPDEST PUSH0 PUSH1 0x20 DUP3 ADD SWAP1 POP DUP2 DUP2 SUB PUSH0 DUP4 ADD MSTORE PUSH2 0x9C7 DUP2 PUSH2 0x98E JUMP JUMPDEST SWAP1 POP SWAP2 SWAP1 POP JUMP JUMPDEST PUSH0 PUSH2 0x9D8 DUP3 PUSH2 0x593 JUMP JUMPDEST SWAP2 POP PUSH2 0x9E3 DUP4 PUSH2 0x593 JUMP JUMPDEST SWAP3 POP DUP3 DUP3 MUL PUSH2 0x9F1 DUP2 PUSH2 0x593 JUMP JUMPDEST SWAP2 POP DUP3 DUP3 DIV DUP5 EQ DUP4 ISZERO OR PUSH2 0xA08 JUMPI PUSH2 0xA07 PUSH2 0x7F7 JUMP JUMPDEST JUMPDEST POP SWAP3 SWAP2 POP POP JUMP JUMPDEST PUSH32 0x506C617965727320636F756E742063616E6E6F74206265207A65726F00000000 PUSH0 DUP3 ADD MSTORE POP JUMP JUMPDEST PUSH0 PUSH2 0xA43 PUSH1 0x1C DUP4 PUSH2 0x717 JUMP JUMPDEST SWAP2 POP PUSH2 0xA4E DUP3 PUSH2 0xA0F JUMP JUMPDEST PUSH1 0x20 DUP3 ADD SWAP1 POP SWAP2 SWAP1 POP JUMP JUMPDEST PUSH0 PUSH1 0x20 DUP3 ADD SWAP1 POP DUP2 DUP2 SUB PUSH0 DUP4 ADD MSTORE PUSH2 0xA70 DUP2 PUSH2 0xA37 JUMP JUMPDEST SWAP1 POP SWAP2 SWAP1 POP JUMP JUMPDEST PUSH32 0x4E487B7100000000000000000000000000000000000000000000000000000000 PUSH0 MSTORE PUSH1 0x12 PUSH1 0x4 MSTORE PUSH1 0x24 PUSH0 REVERT JUMPDEST PUSH0 PUSH2 0xAAE DUP3 PUSH2 0x593 JUMP JUMPDEST SWAP2 POP PUSH2 0xAB9 DUP4 PUSH2 0x593 JUMP JUMPDEST SWAP3 POP DUP3 PUSH2 0xAC9 JUMPI PUSH2 0xAC8 PUSH2 0xA77 JUMP JUMPDEST JUMPDEST DUP3 DUP3 DIV SWAP1 POP SWAP3 SWAP2 POP POP JUMP JUMPDEST PUSH32 0x436F73742063616E6E6F74206265207A65726F00000000000000000000000000 PUSH0 DUP3 ADD MSTORE POP JUMP JUMPDEST PUSH0 PUSH2 0xB08 PUSH1 0x13 DUP4 PUSH2 0x717 JUMP JUMPDEST SWAP2 POP PUSH2 0xB13 DUP3 PUSH2 0xAD4 JUMP JUMPDEST PUSH1 0x20 DUP3 ADD SWAP1 POP SWAP2 SWAP1 POP JUMP JUMPDEST PUSH0 PUSH1 0x20 DUP3 ADD SWAP1 POP DUP2 DUP2 SUB PUSH0 DUP4 ADD MSTORE PUSH2 0xB35 DUP2 PUSH2 0xAFC JUMP JUMPDEST SWAP1 POP SWAP2 SWAP1 POP JUMP JUMPDEST PUSH0 PUSH2 0xB46 DUP3 PUSH2 0x593 JUMP JUMPDEST SWAP2 POP PUSH2 0xB51 DUP4 PUSH2 0x593 JUMP JUMPDEST SWAP3 POP DUP3 PUSH2 0xB61 JUMPI PUSH2 0xB60 PUSH2 0xA77 JUMP JUMPDEST JUMPDEST DUP3 DUP3 MOD SWAP1 POP SWAP3 SWAP2 POP POP JUMP INVALID LOG2 PUSH5 0x6970667358 0x22 SLT KECCAK256 0x24 0xBF DUP7 PC BLOBBASEFEE SWAP4 PUSH22 0x94D56C518CA3E8D3656B2C639C9C423F452808F700E STOP 0xDA 0xDE PUSH5 0x736F6C6343 STOP ADDMOD 0x22 STOP CALLER "
				},
				"gasEstimates": {
					"creation": {
						"codeDepositCost": "595600",
						"executionCost": "630",
						"totalCost": "596230"
					},
					"external": {
						"players(address)": "infinite",
						"registerPlayer()": "68913",
						"shareEnergy(address[],uint256)": "infinite",
						"spendAllGoldOnItems(uint256)": "infinite",
						"upgradeSkills()": "infinite"
					}
				},
				"methodIdentifiers": {
					"players(address)": "e2eb41ff",
					"registerPlayer()": "5c07a4b0",
					"shareEnergy(address[],uint256)": "3a76d393",
					"spendAllGoldOnItems(uint256)": "dd032d98",
					"upgradeSkills()": "056fc6d1"
				}
			},
			"storageLayout": {
				"storage": [
					{
						"astId": 14,
						"contract": "contracts/HomeWork_3/ResourceManager.sol:ResourceManager",
						"label": "players",
						"offset": 0,
						"slot": "0",
						"type": "t_mapping(t_address,t_struct(Player)9_storage)"
					}
				],
				"types": {
					"t_address": {
						"encoding": "inplace",
						"label": "address",
						"numberOfBytes": "20"
					},
					"t_mapping(t_address,t_struct(Player)9_storage)": {
						"encoding": "mapping",
						"key": "t_address",
						"label": "mapping(address => struct ResourceManager.Player)",
						"numberOfBytes": "32",
						"value": "t_struct(Player)9_storage"
					},
					"t_struct(Player)9_storage": {
						"encoding": "inplace",
						"label": "struct ResourceManager.Player",
						"members": [
							{
								"astId": 4,
								"contract": "contracts/HomeWork_3/ResourceManager.sol:ResourceManager",
								"label": "energy",
								"offset": 0,
								"slot": "0",
								"type": "t_uint256"
							},
							{
								"astId": 6,
								"contract": "contracts/HomeWork_3/ResourceManager.sol:ResourceManager",
								"label": "gold",
								"offset": 0,
								"slot": "1",
								"type": "t_uint256"
							},
							{
								"astId": 8,
								"contract": "contracts/HomeWork_3/ResourceManager.sol:ResourceManager",
								"label": "level",
								"offset": 0,
								"slot": "2",
								"type": "t_uint256"
							}
						],
						"numberOfBytes": "96"
					},
					"t_uint256": {
						"encoding": "inplace",
						"label": "uint256",
						"numberOfBytes": "32"
					}
				}
			},
			"userdoc": {
				"kind": "user",
				"methods": {},
				"version": 1
			}
		}
	}
}