{
	"contracts/HomeWork_1/Counter.sol": {
		"Counter": {
			"abi": [
				{
					"inputs": [],
					"name": "decrement",
					"outputs": [],
					"stateMutability": "nonpayable",
					"type": "function"
				},
				{
					"inputs": [],
					"name": "getCounter",
					"outputs": [
						{
							"internalType": "uint256",
							"name": "",
							"type": "uint256"
						}
					],
					"stateMutability": "view",
					"type": "function"
				},
				{
					"inputs": [],
					"name": "increment",
					"outputs": [],
					"stateMutability": "nonpayable",
					"type": "function"
				}
			],
			"devdoc": {
				"kind": "dev",
				"methods": {},
				"version": 1
			},
			"evm": {
				"assembly": "    /* \"contracts/HomeWork_1/Counter.sol\":57:385  contract Counter {... */\n  mstore(0x40, 0x80)\n  callvalue\n  dup1\n  iszero\n  tag_1\n  jumpi\n  0x00\n  dup1\n  revert\ntag_1:\n  pop\n  dataSize(sub_0)\n  dup1\n  dataOffset(sub_0)\n  0x00\n  codecopy\n  0x00\n  return\nstop\n\nsub_0: assembly {\n        /* \"contracts/HomeWork_1/Counter.sol\":57:385  contract Counter {... */\n      mstore(0x40, 0x80)\n      callvalue\n      dup1\n      iszero\n      tag_1\n      jumpi\n      0x00\n      dup1\n      revert\n    tag_1:\n      pop\n      jumpi(tag_2, lt(calldatasize, 0x04))\n      shr(0xe0, calldataload(0x00))\n      dup1\n      0x2baeceb7\n      eq\n      tag_3\n      jumpi\n      dup1\n      0x8ada066e\n      eq\n      tag_4\n      jumpi\n      dup1\n      0xd09de08a\n      eq\n      tag_5\n      jumpi\n    tag_2:\n      0x00\n      dup1\n      revert\n        /* \"contracts/HomeWork_1/Counter.sol\":170:294  function decrement() public {... */\n    tag_3:\n      tag_6\n      tag_7\n      jump\t// in\n    tag_6:\n      stop\n        /* \"contracts/HomeWork_1/Counter.sol\":300:383  function getCounter() public view returns (uint256) {... */\n    tag_4:\n      tag_8\n      tag_9\n      jump\t// in\n    tag_8:\n      mload(0x40)\n      tag_10\n      swap2\n      swap1\n      tag_11\n      jump\t// in\n    tag_10:\n      mload(0x40)\n      dup1\n      swap2\n      sub\n      swap1\n      return\n        /* \"contracts/HomeWork_1/Counter.sol\":110:164  function increment() public {... */\n    tag_5:\n      tag_6\n      tag_13\n      jump\t// in\n        /* \"contracts/HomeWork_1/Counter.sol\":170:294  function decrement() public {... */\n    tag_7:\n        /* \"contracts/HomeWork_1/Counter.sol\":226:227  0 */\n      0x00\n        /* \"contracts/HomeWork_1/Counter.sol\":216:223  counter */\n      dup1\n      sload\n        /* \"contracts/HomeWork_1/Counter.sol\":216:227  counter > 0 */\n      gt\n        /* \"contracts/HomeWork_1/Counter.sol\":208:268  require(counter > 0, \"Counter: cannot decrement below zero\") */\n      tag_15\n      jumpi\n      mload(0x40)\n      shl(0xe5, 0x461bcd)\n      dup2\n      mstore\n      0x04\n      add\n      tag_16\n      swap1\n      tag_17\n      jump\t// in\n    tag_16:\n      mload(0x40)\n      dup1\n      swap2\n      sub\n      swap1\n      revert\n    tag_15:\n        /* \"contracts/HomeWork_1/Counter.sol\":278:285  counter */\n      0x00\n        /* \"contracts/HomeWork_1/Counter.sol\":278:287  counter-- */\n      dup1\n      sload\n      swap1\n        /* \"contracts/HomeWork_1/Counter.sol\":278:285  counter */\n      dup1\n        /* \"contracts/HomeWork_1/Counter.sol\":278:287  counter-- */\n      tag_18\n      dup4\n      tag_19\n      jump\t// in\n    tag_18:\n      swap2\n      swap1\n      pop\n      sstore\n      pop\n        /* \"contracts/HomeWork_1/Counter.sol\":170:294  function decrement() public {... */\n      jump\t// out\n        /* \"contracts/HomeWork_1/Counter.sol\":300:383  function getCounter() public view returns (uint256) {... */\n    tag_9:\n        /* \"contracts/HomeWork_1/Counter.sol\":343:350  uint256 */\n      0x00\n        /* \"contracts/HomeWork_1/Counter.sol\":369:376  counter */\n      sload\n        /* \"contracts/HomeWork_1/Counter.sol\":300:383  function getCounter() public view returns (uint256) {... */\n      swap1\n      jump\t// out\n        /* \"contracts/HomeWork_1/Counter.sol\":110:164  function increment() public {... */\n    tag_13:\n        /* \"contracts/HomeWork_1/Counter.sol\":148:155  counter */\n      0x00\n        /* \"contracts/HomeWork_1/Counter.sol\":148:157  counter++ */\n      dup1\n      sload\n      swap1\n        /* \"contracts/HomeWork_1/Counter.sol\":148:155  counter */\n      dup1\n        /* \"contracts/HomeWork_1/Counter.sol\":148:157  counter++ */\n      tag_18\n      dup4\n      tag_23\n      jump\t// in\n        /* \"#utility.yul\":14:414   */\n    tag_17:\n        /* \"#utility.yul\":216:218   */\n      0x20\n        /* \"#utility.yul\":198:219   */\n      dup1\n      dup3\n      mstore\n        /* \"#utility.yul\":255:257   */\n      0x24\n        /* \"#utility.yul\":235:253   */\n      swap1\n      dup3\n      add\n        /* \"#utility.yul\":228:258   */\n      mstore\n        /* \"#utility.yul\":294:328   */\n      0x436f756e7465723a2063616e6e6f742064656372656d656e742062656c6f7720\n        /* \"#utility.yul\":289:291   */\n      0x40\n        /* \"#utility.yul\":274:292   */\n      dup3\n      add\n        /* \"#utility.yul\":267:329   */\n      mstore\n      shl(0xe0, 0x7a65726f)\n        /* \"#utility.yul\":360:362   */\n      0x60\n        /* \"#utility.yul\":345:363   */\n      dup3\n      add\n        /* \"#utility.yul\":338:372   */\n      mstore\n        /* \"#utility.yul\":404:407   */\n      0x80\n        /* \"#utility.yul\":389:408   */\n      add\n      swap1\n        /* \"#utility.yul\":188:414   */\n      jump\t// out\n        /* \"#utility.yul\":419:596   */\n    tag_11:\n        /* \"#utility.yul\":565:590   */\n      swap1\n      dup2\n      mstore\n        /* \"#utility.yul\":553:555   */\n      0x20\n        /* \"#utility.yul\":538:556   */\n      add\n      swap1\n        /* \"#utility.yul\":520:596   */\n      jump\t// out\n        /* \"#utility.yul\":601:737   */\n    tag_19:\n      0x00\n        /* \"#utility.yul\":668:673   */\n      dup2\n        /* \"#utility.yul\":658:660   */\n      tag_29\n      jumpi\n        /* \"#utility.yul\":677:695   */\n      tag_29\n      tag_30\n      jump\t// in\n    tag_29:\n      pop\n      not(0x00)\n        /* \"#utility.yul\":713:731   */\n      add\n      swap1\n        /* \"#utility.yul\":648:737   */\n      jump\t// out\n        /* \"#utility.yul\":742:877   */\n    tag_23:\n      0x00\n      not(0x00)\n        /* \"#utility.yul\":802:819   */\n      dup3\n      eq\n        /* \"#utility.yul\":799:801   */\n      iszero\n      tag_33\n      jumpi\n        /* \"#utility.yul\":822:840   */\n      tag_33\n      tag_30\n      jump\t// in\n    tag_33:\n      pop\n        /* \"#utility.yul\":869:870   */\n      0x01\n        /* \"#utility.yul\":858:871   */\n      add\n      swap1\n        /* \"#utility.yul\":789:877   */\n      jump\t// out\n        /* \"#utility.yul\":882:1009   */\n    tag_30:\n        /* \"#utility.yul\":943:953   */\n      0x4e487b71\n        /* \"#utility.yul\":938:941   */\n      0xe0\n        /* \"#utility.yul\":934:954   */\n      shl\n        /* \"#utility.yul\":931:932   */\n      0x00\n        /* \"#utility.yul\":924:955   */\n      mstore\n        /* \"#utility.yul\":974:978   */\n      0x11\n        /* \"#utility.yul\":971:972   */\n      0x04\n        /* \"#utility.yul\":964:979   */\n      mstore\n        /* \"#utility.yul\":998:1002   */\n      0x24\n        /* \"#utility.yul\":995:996   */\n      0x00\n        /* \"#utility.yul\":988:1003   */\n      revert\n\n    auxdata: 0xa2646970667358221220639712335329c549c4a794c586aef053e38d07520dba32773260c1277c57d28b64736f6c63430008000033\n}\n",
				"bytecode": {
					"linkReferences": {},
					"object": "608060405234801561001057600080fd5b50610196806100206000396000f3fe608060405234801561001057600080fd5b50600436106100415760003560e01c80632baeceb7146100465780638ada066e14610050578063d09de08a1461006e575b600080fd5b61004e610076565b005b6100586100b6565b604051610065919061010f565b60405180910390f35b61004e6100bc565b60008054116100a05760405162461bcd60e51b8152600401610097906100cb565b60405180910390fd5b6000805490806100af83610118565b9190505550565b60005490565b6000805490806100af8361012f565b60208082526024908201527f436f756e7465723a2063616e6e6f742064656372656d656e742062656c6f77206040820152637a65726f60e01b606082015260800190565b90815260200190565b6000816101275761012761014a565b506000190190565b60006000198214156101435761014361014a565b5060010190565b634e487b7160e01b600052601160045260246000fdfea2646970667358221220639712335329c549c4a794c586aef053e38d07520dba32773260c1277c57d28b64736f6c63430008000033",
					"opcodes": "PUSH1 0x80 PUSH1 0x40 MSTORE CALLVALUE DUP1 ISZERO PUSH2 0x10 JUMPI PUSH1 0x0 DUP1 REVERT JUMPDEST POP PUSH2 0x196 DUP1 PUSH2 0x20 PUSH1 0x0 CODECOPY PUSH1 0x0 RETURN INVALID PUSH1 0x80 PUSH1 0x40 MSTORE CALLVALUE DUP1 ISZERO PUSH2 0x10 JUMPI PUSH1 0x0 DUP1 REVERT JUMPDEST POP PUSH1 0x4 CALLDATASIZE LT PUSH2 0x41 JUMPI PUSH1 0x0 CALLDATALOAD PUSH1 0xE0 SHR DUP1 PUSH4 0x2BAECEB7 EQ PUSH2 0x46 JUMPI DUP1 PUSH4 0x8ADA066E EQ PUSH2 0x50 JUMPI DUP1 PUSH4 0xD09DE08A EQ PUSH2 0x6E JUMPI JUMPDEST PUSH1 0x0 DUP1 REVERT JUMPDEST PUSH2 0x4E PUSH2 0x76 JUMP JUMPDEST STOP JUMPDEST PUSH2 0x58 PUSH2 0xB6 JUMP JUMPDEST PUSH1 0x40 MLOAD PUSH2 0x65 SWAP2 SWAP1 PUSH2 0x10F JUMP JUMPDEST PUSH1 0x40 MLOAD DUP1 SWAP2 SUB SWAP1 RETURN JUMPDEST PUSH2 0x4E PUSH2 0xBC JUMP JUMPDEST PUSH1 0x0 DUP1 SLOAD GT PUSH2 0xA0 JUMPI PUSH1 0x40 MLOAD PUSH3 0x461BCD PUSH1 0xE5 SHL DUP2 MSTORE PUSH1 0x4 ADD PUSH2 0x97 SWAP1 PUSH2 0xCB JUMP JUMPDEST PUSH1 0x40 MLOAD DUP1 SWAP2 SUB SWAP1 REVERT JUMPDEST PUSH1 0x0 DUP1 SLOAD SWAP1 DUP1 PUSH2 0xAF DUP4 PUSH2 0x118 JUMP JUMPDEST SWAP2 SWAP1 POP SSTORE POP JUMP JUMPDEST PUSH1 0x0 SLOAD SWAP1 JUMP JUMPDEST PUSH1 0x0 DUP1 SLOAD SWAP1 DUP1 PUSH2 0xAF DUP4 PUSH2 0x12F JUMP JUMPDEST PUSH1 0x20 DUP1 DUP3 MSTORE PUSH1 0x24 SWAP1 DUP3 ADD MSTORE PUSH32 0x436F756E7465723A2063616E6E6F742064656372656D656E742062656C6F7720 PUSH1 0x40 DUP3 ADD MSTORE PUSH4 0x7A65726F PUSH1 0xE0 SHL PUSH1 0x60 DUP3 ADD MSTORE PUSH1 0x80 ADD SWAP1 JUMP JUMPDEST SWAP1 DUP2 MSTORE PUSH1 0x20 ADD SWAP1 JUMP JUMPDEST PUSH1 0x0 DUP2 PUSH2 0x127 JUMPI PUSH2 0x127 PUSH2 0x14A JUMP JUMPDEST POP PUSH1 0x0 NOT ADD SWAP1 JUMP JUMPDEST PUSH1 0x0 PUSH1 0x0 NOT DUP3 EQ ISZERO PUSH2 0x143 JUMPI PUSH2 0x143 PUSH2 0x14A JUMP JUMPDEST POP PUSH1 0x1 ADD SWAP1 JUMP JUMPDEST PUSH4 0x4E487B71 PUSH1 0xE0 SHL PUSH1 0x0 MSTORE PUSH1 0x11 PUSH1 0x4 MSTORE PUSH1 0x24 PUSH1 0x0 REVERT INVALID LOG2 PUSH5 0x6970667358 0x22 SLT KECCAK256 PUSH4 0x97123353 0x29 0xC5 0x49 0xC4 0xA7 SWAP5 0xC5 DUP7 0xAE CREATE MSTORE8 0xE3 DUP14 SMOD MSTORE 0xD 0xBA ORIGIN PUSH24 0x3260C1277C57D28B64736F6C634300080000330000000000 "
				},
				"gasEstimates": {
					"creation": {
						"codeDepositCost": "81200",
						"executionCost": "129",
						"totalCost": "81329"
					},
					"external": {
						"decrement()": "21828",
						"getCounter()": "1028",
						"increment()": "21058"
					}
				},
				"methodIdentifiers": {
					"decrement()": "2baeceb7",
					"getCounter()": "8ada066e",
					"increment()": "d09de08a"
				}
			},
			"storageLayout": {
				"storage": [
					{
						"astId": 3,
						"contract": "contracts/HomeWork_1/Counter.sol:Counter",
						"label": "counter",
						"offset": 0,
						"slot": "0",
						"type": "t_uint256"
					}
				],
				"types": {
					"t_uint256": {
						"encoding": "inplace",
						"label": "uint256",
						"numberOfBytes": "32"
					}
				}
			},
			"userdoc": {
				"kind": "user",
				"methods": {},
				"version": 1
			}
		}
	}
}