{
	"contracts/HomeWork_1/ProductShop.sol": {
		"ProductShop": {
			"abi": [
				{
					"inputs": [],
					"stateMutability": "nonpayable",
					"type": "constructor"
				},
				{
					"inputs": [
						{
							"internalType": "string",
							"name": "_name",
							"type": "string"
						},
						{
							"internalType": "uint256",
							"name": "_price",
							"type": "uint256"
						}
					],
					"name": "addProduct",
					"outputs": [],
					"stateMutability": "nonpayable",
					"type": "function"
				},
				{
					"inputs": [
						{
							"internalType": "uint256",
							"name": "_index",
							"type": "uint256"
						}
					],
					"name": "buyProduct",
					"outputs": [],
					"stateMutability": "payable",
					"type": "function"
				},
				{
					"inputs": [],
					"name": "getProducts",
					"outputs": [
						{
							"components": [
								{
									"internalType": "string",
									"name": "name",
									"type": "string"
								},
								{
									"internalType": "uint256",
									"name": "price",
									"type": "uint256"
								}
							],
							"internalType": "struct ProductShop.Product[]",
							"name": "",
							"type": "tuple[]"
						}
					],
					"stateMutability": "view",
					"type": "function"
				},
				{
					"inputs": [],
					"name": "owner",
					"outputs": [
						{
							"internalType": "address",
							"name": "",
							"type": "address"
						}
					],
					"stateMutability": "view",
					"type": "function"
				}
			],
			"devdoc": {
				"kind": "dev",
				"methods": {},
				"version": 1
			},
			"evm": {
				"assembly": "    /* \"contracts/HomeWork_1/ProductShop.sol\":57:864  contract ProductShop {... */\n  mstore(0x40, 0x80)\n    /* \"contracts/HomeWork_1/ProductShop.sol\":215:264  constructor() {... */\n  callvalue\n  dup1\n  iszero\n  tag_1\n  jumpi\n  0x00\n  dup1\n  revert\ntag_1:\n  pop\n    /* \"contracts/HomeWork_1/ProductShop.sol\":239:244  owner */\n  0x01\n    /* \"contracts/HomeWork_1/ProductShop.sol\":239:257  owner = msg.sender */\n  dup1\n  sload\n  not(sub(shl(0xa0, 0x01), 0x01))\n  and\n    /* \"contracts/HomeWork_1/ProductShop.sol\":247:257  msg.sender */\n  caller\n    /* \"contracts/HomeWork_1/ProductShop.sol\":239:257  owner = msg.sender */\n  or\n  swap1\n  sstore\n    /* \"contracts/HomeWork_1/ProductShop.sol\":57:864  contract ProductShop {... */\n  dataSize(sub_0)\n  dup1\n  dataOffset(sub_0)\n  0x00\n  codecopy\n  0x00\n  return\nstop\n\nsub_0: assembly {\n        /* \"contracts/HomeWork_1/ProductShop.sol\":57:864  contract ProductShop {... */\n      mstore(0x40, 0x80)\n      jumpi(tag_1, lt(calldatasize, 0x04))\n      shr(0xe0, calldataload(0x00))\n      dup1\n      0x8642269e\n      eq\n      tag_2\n      jumpi\n      dup1\n      0x8da5cb5b\n      eq\n      tag_3\n      jumpi\n      dup1\n      0xb15247d9\n      eq\n      tag_4\n      jumpi\n      dup1\n      0xc29b2f20\n      eq\n      tag_5\n      jumpi\n    tag_1:\n      0x00\n      dup1\n      revert\n        /* \"contracts/HomeWork_1/ProductShop.sol\":476:762  function buyProduct(uint256 _index) public payable {... */\n    tag_2:\n      tag_6\n      tag_7\n      calldatasize\n      0x04\n      tag_8\n      jump\t// in\n    tag_7:\n      tag_9\n      jump\t// in\n    tag_6:\n      stop\n        /* \"contracts/HomeWork_1/ProductShop.sol\":188:208  address public owner */\n    tag_3:\n      callvalue\n      dup1\n      iszero\n      tag_10\n      jumpi\n      0x00\n      dup1\n      revert\n    tag_10:\n      pop\n      tag_11\n      tag_12\n      jump\t// in\n    tag_11:\n      mload(0x40)\n      tag_13\n      swap2\n      swap1\n      tag_14\n      jump\t// in\n    tag_13:\n      mload(0x40)\n      dup1\n      swap2\n      sub\n      swap1\n      return\n        /* \"contracts/HomeWork_1/ProductShop.sol\":270:470  function addProduct(string memory _name, uint256 _price) public {... */\n    tag_4:\n      callvalue\n      dup1\n      iszero\n      tag_15\n      jumpi\n      0x00\n      dup1\n      revert\n    tag_15:\n      pop\n      tag_6\n      tag_17\n      calldatasize\n      0x04\n      tag_18\n      jump\t// in\n    tag_17:\n      tag_19\n      jump\t// in\n        /* \"contracts/HomeWork_1/ProductShop.sol\":768:862  function getProducts() public view returns (Product[] memory) {... */\n    tag_5:\n      callvalue\n      dup1\n      iszero\n      tag_20\n      jumpi\n      0x00\n      dup1\n      revert\n    tag_20:\n      pop\n      tag_21\n      tag_22\n      jump\t// in\n    tag_21:\n      mload(0x40)\n      tag_13\n      swap2\n      swap1\n      tag_24\n      jump\t// in\n        /* \"contracts/HomeWork_1/ProductShop.sol\":476:762  function buyProduct(uint256 _index) public payable {... */\n    tag_9:\n        /* \"contracts/HomeWork_1/ProductShop.sol\":554:562  products */\n      0x00\n        /* \"contracts/HomeWork_1/ProductShop.sol\":554:569  products.length */\n      sload\n        /* \"contracts/HomeWork_1/ProductShop.sol\":545:569  _index < products.length */\n      dup2\n      lt\n        /* \"contracts/HomeWork_1/ProductShop.sol\":537:609  require(_index < products.length, \"ProductShop: product does not exist\") */\n      tag_26\n      jumpi\n      mload(0x40)\n      shl(0xe5, 0x461bcd)\n      dup2\n      mstore\n      0x04\n      add\n      tag_27\n      swap1\n      tag_28\n      jump\t// in\n    tag_27:\n      mload(0x40)\n      dup1\n      swap2\n      sub\n      swap1\n      revert\n    tag_26:\n        /* \"contracts/HomeWork_1/ProductShop.sol\":640:648  products */\n      0x00\n        /* \"contracts/HomeWork_1/ProductShop.sol\":649:655  _index */\n      dup2\n        /* \"contracts/HomeWork_1/ProductShop.sol\":640:656  products[_index] */\n      dup2\n      sload\n      dup2\n      lt\n      tag_29\n      jumpi\n      mstore(0x00, shl(0xe0, 0x4e487b71))\n      mstore(0x04, 0x32)\n      revert(0x00, 0x24)\n    tag_29:\n      swap1\n      0x00\n      mstore\n      keccak256(0x00, 0x20)\n      swap1\n      0x02\n      mul\n      add\n        /* \"contracts/HomeWork_1/ProductShop.sol\":640:662  products[_index].price */\n      0x01\n      add\n      sload\n        /* \"contracts/HomeWork_1/ProductShop.sol\":627:636  msg.value */\n      callvalue\n        /* \"contracts/HomeWork_1/ProductShop.sol\":627:662  msg.value >= products[_index].price */\n      lt\n      iszero\n        /* \"contracts/HomeWork_1/ProductShop.sol\":619:698  require(msg.value >= products[_index].price, \"ProductShop: insufficient funds\") */\n      tag_31\n      jumpi\n      mload(0x40)\n      shl(0xe5, 0x461bcd)\n      dup2\n      mstore\n      0x04\n      add\n      tag_27\n      swap1\n      tag_33\n      jump\t// in\n    tag_31:\n        /* \"contracts/HomeWork_1/ProductShop.sol\":716:721  owner */\n      sload(0x01)\n      0x00\n        /* \"contracts/HomeWork_1/ProductShop.sol\":732:748  products[_index] */\n      dup1\n      sload\n      sub(shl(0xa0, 0x01), 0x01)\n        /* \"contracts/HomeWork_1/ProductShop.sol\":716:721  owner */\n      swap1\n      swap3\n      and\n      swap2\n        /* \"contracts/HomeWork_1/ProductShop.sol\":708:755  payable(owner).transfer(products[_index].price) */\n      0x08fc\n      swap2\n        /* \"contracts/HomeWork_1/ProductShop.sol\":716:721  owner */\n      swap1\n        /* \"contracts/HomeWork_1/ProductShop.sol\":741:747  _index */\n      dup5\n      swap1\n        /* \"contracts/HomeWork_1/ProductShop.sol\":732:748  products[_index] */\n      dup2\n      lt\n      tag_34\n      jumpi\n      mstore(0x00, shl(0xe0, 0x4e487b71))\n      mstore(0x04, 0x32)\n      revert(0x00, 0x24)\n    tag_34:\n      swap1\n      0x00\n      mstore\n      keccak256(0x00, 0x20)\n      swap1\n      0x02\n      mul\n      add\n        /* \"contracts/HomeWork_1/ProductShop.sol\":732:754  products[_index].price */\n      0x01\n      add\n      sload\n        /* \"contracts/HomeWork_1/ProductShop.sol\":708:755  payable(owner).transfer(products[_index].price) */\n      swap1\n      dup2\n      iszero\n      mul\n      swap1\n      mload(0x40)\n      0x00\n      mload(0x40)\n      dup1\n      dup4\n      sub\n      dup2\n      dup6\n      dup9\n      dup9\n      call\n      swap4\n      pop\n      pop\n      pop\n      pop\n      iszero\n      dup1\n      iszero\n      tag_37\n      jumpi\n      returndatasize\n      0x00\n      dup1\n      returndatacopy\n      revert(0x00, returndatasize)\n    tag_37:\n      pop\n        /* \"contracts/HomeWork_1/ProductShop.sol\":476:762  function buyProduct(uint256 _index) public payable {... */\n      pop\n      jump\t// out\n        /* \"contracts/HomeWork_1/ProductShop.sol\":188:208  address public owner */\n    tag_12:\n      and(sub(shl(0xa0, 0x01), 0x01), sload(0x01))\n      dup2\n      jump\t// out\n        /* \"contracts/HomeWork_1/ProductShop.sol\":270:470  function addProduct(string memory _name, uint256 _price) public {... */\n    tag_19:\n        /* \"contracts/HomeWork_1/ProductShop.sol\":366:371  owner */\n      and(sub(shl(0xa0, 0x01), 0x01), sload(0x01))\n        /* \"contracts/HomeWork_1/ProductShop.sol\":352:362  msg.sender */\n      caller\n        /* \"contracts/HomeWork_1/ProductShop.sol\":352:371  msg.sender == owner */\n      eq\n        /* \"contracts/HomeWork_1/ProductShop.sol\":344:416  require(msg.sender == owner, \"ProductShop: only owner can add products\") */\n      tag_39\n      jumpi\n      mload(0x40)\n      shl(0xe5, 0x461bcd)\n      dup2\n      mstore\n      0x04\n      add\n      tag_27\n      swap1\n      tag_41\n      jump\t// in\n    tag_39:\n        /* \"contracts/HomeWork_1/ProductShop.sol\":440:462  Product(_name, _price) */\n      0x40\n      dup1\n      mload\n      dup1\n      dup3\n      add\n      swap1\n      swap2\n      mstore\n      dup3\n      dup2\n      mstore\n      0x20\n      dup1\n      dup3\n      add\n      dup4\n      swap1\n      mstore\n        /* \"contracts/HomeWork_1/ProductShop.sol\":426:434  products */\n      0x00\n        /* \"contracts/HomeWork_1/ProductShop.sol\":426:463  products.push(Product(_name, _price)) */\n      dup1\n      sload\n      0x01\n      dup2\n      add\n      dup3\n      sstore\n      swap1\n      dup1\n      mstore\n      dup3\n      mload\n      dup1\n      mload\n      0x02\n      swap1\n      swap3\n      mul\n      0x290decd9548b62a8d60345a988386fc84ba6bc95484008f6362f93160ef3e563\n      add\n      swap3\n      tag_43\n      swap3\n      dup5\n      swap3\n      swap1\n      swap2\n      add\n      swap1\n      tag_44\n      jump\t// in\n    tag_43:\n      pop\n      0x20\n      dup3\n      add\n      mload\n      dup2\n      0x01\n      add\n      sstore\n      pop\n      pop\n        /* \"contracts/HomeWork_1/ProductShop.sol\":270:470  function addProduct(string memory _name, uint256 _price) public {... */\n      pop\n      pop\n      jump\t// out\n        /* \"contracts/HomeWork_1/ProductShop.sol\":768:862  function getProducts() public view returns (Product[] memory) {... */\n    tag_22:\n        /* \"contracts/HomeWork_1/ProductShop.sol\":812:828  Product[] memory */\n      0x60\n        /* \"contracts/HomeWork_1/ProductShop.sol\":847:855  products */\n      0x00\n        /* \"contracts/HomeWork_1/ProductShop.sol\":840:855  return products */\n      dup1\n      sload\n      dup1\n      0x20\n      mul\n      0x20\n      add\n      mload(0x40)\n      swap1\n      dup2\n      add\n      0x40\n      mstore\n      dup1\n      swap3\n      swap2\n      swap1\n      dup2\n      dup2\n      mstore\n      0x20\n      add\n      0x00\n      swap1\n    tag_46:\n      dup3\n      dup3\n      lt\n      iszero\n      tag_47\n      jumpi\n      dup4\n      dup3\n      swap1\n      0x00\n      mstore\n      keccak256(0x00, 0x20)\n      swap1\n      0x02\n      mul\n      add\n      mload(0x40)\n      dup1\n      0x40\n      add\n      0x40\n      mstore\n      swap1\n      dup2\n      0x00\n      dup3\n      add\n      dup1\n      sload\n      tag_49\n      swap1\n      tag_50\n      jump\t// in\n    tag_49:\n      dup1\n      0x1f\n      add\n      0x20\n      dup1\n      swap2\n      div\n      mul\n      0x20\n      add\n      mload(0x40)\n      swap1\n      dup2\n      add\n      0x40\n      mstore\n      dup1\n      swap3\n      swap2\n      swap1\n      dup2\n      dup2\n      mstore\n      0x20\n      add\n      dup3\n      dup1\n      sload\n      tag_51\n      swap1\n      tag_50\n      jump\t// in\n    tag_51:\n      dup1\n      iszero\n      tag_52\n      jumpi\n      dup1\n      0x1f\n      lt\n      tag_53\n      jumpi\n      0x0100\n      dup1\n      dup4\n      sload\n      div\n      mul\n      dup4\n      mstore\n      swap2\n      0x20\n      add\n      swap2\n      jump(tag_52)\n    tag_53:\n      dup3\n      add\n      swap2\n      swap1\n      0x00\n      mstore\n      keccak256(0x00, 0x20)\n      swap1\n    tag_54:\n      dup2\n      sload\n      dup2\n      mstore\n      swap1\n      0x01\n      add\n      swap1\n      0x20\n      add\n      dup1\n      dup4\n      gt\n      tag_54\n      jumpi\n      dup3\n      swap1\n      sub\n      0x1f\n      and\n      dup3\n      add\n      swap2\n    tag_52:\n      pop\n      pop\n      pop\n      pop\n      pop\n      dup2\n      mstore\n      0x20\n      add\n      0x01\n      dup3\n      add\n      sload\n      dup2\n      mstore\n      pop\n      pop\n      dup2\n      mstore\n      0x20\n      add\n      swap1\n      0x01\n      add\n      swap1\n      jump(tag_46)\n    tag_47:\n      pop\n      pop\n      pop\n      pop\n      swap1\n      pop\n        /* \"contracts/HomeWork_1/ProductShop.sol\":768:862  function getProducts() public view returns (Product[] memory) {... */\n      swap1\n      jump\t// out\n    tag_44:\n      dup3\n      dup1\n      sload\n      tag_55\n      swap1\n      tag_50\n      jump\t// in\n    tag_55:\n      swap1\n      0x00\n      mstore\n      keccak256(0x00, 0x20)\n      swap1\n      0x1f\n      add\n      0x20\n      swap1\n      div\n      dup2\n      add\n      swap3\n      dup3\n      tag_57\n      jumpi\n      0x00\n      dup6\n      sstore\n      jump(tag_60)\n    tag_57:\n      dup3\n      0x1f\n      lt\n      tag_58\n      jumpi\n      dup1\n      mload\n      not(0xff)\n      and\n      dup4\n      dup1\n      add\n      or\n      dup6\n      sstore\n      jump(tag_60)\n    tag_58:\n      dup3\n      dup1\n      add\n      0x01\n      add\n      dup6\n      sstore\n      dup3\n      iszero\n      tag_60\n      jumpi\n      swap2\n      dup3\n      add\n    tag_59:\n      dup3\n      dup2\n      gt\n      iszero\n      tag_60\n      jumpi\n      dup3\n      mload\n      dup3\n      sstore\n      swap2\n      0x20\n      add\n      swap2\n      swap1\n      0x01\n      add\n      swap1\n      jump(tag_59)\n    tag_60:\n      pop\n      tag_61\n      swap3\n      swap2\n      pop\n      tag_62\n      jump\t// in\n    tag_61:\n      pop\n      swap1\n      jump\t// out\n    tag_62:\n    tag_63:\n      dup1\n      dup3\n      gt\n      iszero\n      tag_61\n      jumpi\n      0x00\n      dup2\n      sstore\n      0x01\n      add\n      jump(tag_63)\n        /* \"#utility.yul\":14:1042   */\n    tag_18:\n      0x00\n      dup1\n        /* \"#utility.yul\":153:155   */\n      0x40\n        /* \"#utility.yul\":141:150   */\n      dup4\n        /* \"#utility.yul\":132:139   */\n      dup6\n        /* \"#utility.yul\":128:151   */\n      sub\n        /* \"#utility.yul\":124:156   */\n      slt\n        /* \"#utility.yul\":121:123   */\n      iszero\n      tag_67\n      jumpi\n        /* \"#utility.yul\":174:180   */\n      dup2\n        /* \"#utility.yul\":166:172   */\n      dup3\n        /* \"#utility.yul\":159:181   */\n      revert\n        /* \"#utility.yul\":121:123   */\n    tag_67:\n        /* \"#utility.yul\":219:228   */\n      dup3\n        /* \"#utility.yul\":206:229   */\n      calldataload\n        /* \"#utility.yul\":248:266   */\n      0xffffffffffffffff\n        /* \"#utility.yul\":289:291   */\n      dup1\n        /* \"#utility.yul\":281:287   */\n      dup3\n        /* \"#utility.yul\":278:292   */\n      gt\n        /* \"#utility.yul\":275:277   */\n      iszero\n      tag_68\n      jumpi\n        /* \"#utility.yul\":310:316   */\n      dup4\n        /* \"#utility.yul\":302:308   */\n      dup5\n        /* \"#utility.yul\":295:317   */\n      revert\n        /* \"#utility.yul\":275:277   */\n    tag_68:\n        /* \"#utility.yul\":353:359   */\n      dup2\n        /* \"#utility.yul\":342:351   */\n      dup6\n        /* \"#utility.yul\":338:360   */\n      add\n        /* \"#utility.yul\":328:360   */\n      swap2\n      pop\n        /* \"#utility.yul\":398:405   */\n      dup6\n        /* \"#utility.yul\":391:395   */\n      0x1f\n        /* \"#utility.yul\":387:389   */\n      dup4\n        /* \"#utility.yul\":383:396   */\n      add\n        /* \"#utility.yul\":379:406   */\n      slt\n        /* \"#utility.yul\":369:371   */\n      tag_69\n      jumpi\n        /* \"#utility.yul\":425:431   */\n      dup4\n        /* \"#utility.yul\":417:423   */\n      dup5\n        /* \"#utility.yul\":410:432   */\n      revert\n        /* \"#utility.yul\":369:371   */\n    tag_69:\n        /* \"#utility.yul\":466:468   */\n      dup2\n        /* \"#utility.yul\":453:469   */\n      calldataload\n        /* \"#utility.yul\":488:492   */\n      0x20\n        /* \"#utility.yul\":511:513   */\n      dup3\n        /* \"#utility.yul\":507:509   */\n      dup3\n        /* \"#utility.yul\":504:514   */\n      gt\n        /* \"#utility.yul\":501:503   */\n      iszero\n      tag_71\n      jumpi\n        /* \"#utility.yul\":517:535   */\n      tag_71\n      tag_72\n      jump\t// in\n    tag_71:\n        /* \"#utility.yul\":566:568   */\n      0x40\n        /* \"#utility.yul\":560:569   */\n      mload\n        /* \"#utility.yul\":635:637   */\n      0x1f\n        /* \"#utility.yul\":616:629   */\n      dup4\n      add\n      not(0x1f)\n        /* \"#utility.yul\":612:639   */\n      and\n        /* \"#utility.yul\":600:640   */\n      dup2\n      add\n        /* \"#utility.yul\":596:645   */\n      dup3\n      add\n        /* \"#utility.yul\":660:678   */\n      dup5\n      dup2\n      gt\n        /* \"#utility.yul\":680:702   */\n      dup3\n      dup3\n      lt\n        /* \"#utility.yul\":657:703   */\n      or\n        /* \"#utility.yul\":654:656   */\n      iszero\n      tag_74\n      jumpi\n        /* \"#utility.yul\":706:724   */\n      tag_74\n      tag_72\n      jump\t// in\n    tag_74:\n        /* \"#utility.yul\":742:744   */\n      0x40\n        /* \"#utility.yul\":735:757   */\n      mstore\n        /* \"#utility.yul\":766:784   */\n      dup3\n      dup2\n      mstore\n        /* \"#utility.yul\":803:814   */\n      dup5\n      dup4\n      add\n        /* \"#utility.yul\":799:819   */\n      dup3\n      add\n        /* \"#utility.yul\":796:829   */\n      dup10\n      lt\n        /* \"#utility.yul\":793:795   */\n      iszero\n      tag_75\n      jumpi\n        /* \"#utility.yul\":847:853   */\n      dup7\n        /* \"#utility.yul\":839:845   */\n      dup8\n        /* \"#utility.yul\":832:854   */\n      revert\n        /* \"#utility.yul\":793:795   */\n    tag_75:\n        /* \"#utility.yul\":908:910   */\n      dup3\n        /* \"#utility.yul\":903:905   */\n      dup3\n        /* \"#utility.yul\":899:901   */\n      dup7\n        /* \"#utility.yul\":895:906   */\n      add\n        /* \"#utility.yul\":890:892   */\n      dup4\n        /* \"#utility.yul\":882:888   */\n      dup4\n        /* \"#utility.yul\":878:893   */\n      add\n        /* \"#utility.yul\":865:911   */\n      calldatacopy\n        /* \"#utility.yul\":931:946   */\n      swap2\n      dup3\n      add\n        /* \"#utility.yul\":927:951   */\n      dup2\n      add\n        /* \"#utility.yul\":920:960   */\n      swap6\n      swap1\n      swap6\n      mstore\n        /* \"#utility.yul\":935:941   */\n      swap7\n        /* \"#utility.yul\":1017:1035   */\n      swap5\n      swap1\n      swap4\n      add\n        /* \"#utility.yul\":1004:1036   */\n      calldataload\n      swap5\n      pop\n      pop\n      pop\n      pop\n        /* \"#utility.yul\":111:1042   */\n      jump\t// out\n        /* \"#utility.yul\":1047:1237   */\n    tag_8:\n      0x00\n        /* \"#utility.yul\":1159:1161   */\n      0x20\n        /* \"#utility.yul\":1147:1156   */\n      dup3\n        /* \"#utility.yul\":1138:1145   */\n      dup5\n        /* \"#utility.yul\":1134:1157   */\n      sub\n        /* \"#utility.yul\":1130:1162   */\n      slt\n        /* \"#utility.yul\":1127:1129   */\n      iszero\n      tag_77\n      jumpi\n        /* \"#utility.yul\":1180:1186   */\n      dup1\n        /* \"#utility.yul\":1172:1178   */\n      dup2\n        /* \"#utility.yul\":1165:1187   */\n      revert\n        /* \"#utility.yul\":1127:1129   */\n    tag_77:\n      pop\n        /* \"#utility.yul\":1208:1231   */\n      calldataload\n      swap2\n        /* \"#utility.yul\":1117:1237   */\n      swap1\n      pop\n      jump\t// out\n        /* \"#utility.yul\":1242:1445   */\n    tag_14:\n      sub(shl(0xa0, 0x01), 0x01)\n        /* \"#utility.yul\":1406:1438   */\n      swap2\n      swap1\n      swap2\n      and\n        /* \"#utility.yul\":1388:1439   */\n      dup2\n      mstore\n        /* \"#utility.yul\":1376:1378   */\n      0x20\n        /* \"#utility.yul\":1361:1379   */\n      add\n      swap1\n        /* \"#utility.yul\":1343:1445   */\n      jump\t// out\n        /* \"#utility.yul\":1450:2904   */\n    tag_24:\n        /* \"#utility.yul\":1665:1667   */\n      0x20\n        /* \"#utility.yul\":1717:1738   */\n      dup1\n      dup3\n      mstore\n        /* \"#utility.yul\":1787:1800   */\n      dup3\n      mload\n        /* \"#utility.yul\":1690:1708   */\n      dup3\n      dup3\n      add\n        /* \"#utility.yul\":1809:1831   */\n      dup2\n      swap1\n      mstore\n        /* \"#utility.yul\":1450:2904   */\n      0x00\n      swap2\n        /* \"#utility.yul\":1665:1667   */\n      swap1\n        /* \"#utility.yul\":1850:1852   */\n      0x40\n      swap1\n        /* \"#utility.yul\":1868:1886   */\n      dup2\n      dup6\n      add\n      swap1\n        /* \"#utility.yul\":1928:1943   */\n      dup1\n      dup5\n      mul\n        /* \"#utility.yul\":1913:1944   */\n      dup7\n      add\n        /* \"#utility.yul\":1909:1949   */\n      dup4\n      add\n        /* \"#utility.yul\":1972:1987   */\n      dup8\n      dup6\n      add\n        /* \"#utility.yul\":1450:2904   */\n      dup7\n        /* \"#utility.yul\":2018:2875   */\n    tag_80:\n        /* \"#utility.yul\":2032:2038   */\n      dup4\n        /* \"#utility.yul\":2029:2030   */\n      dup2\n        /* \"#utility.yul\":2026:2039   */\n      lt\n        /* \"#utility.yul\":2018:2875   */\n      iszero\n      tag_82\n      jumpi\n        /* \"#utility.yul\":2125:2127   */\n      0x3f\n        /* \"#utility.yul\":2121:2128   */\n      not\n        /* \"#utility.yul\":2109:2118   */\n      dup10\n        /* \"#utility.yul\":2101:2107   */\n      dup5\n        /* \"#utility.yul\":2097:2119   */\n      sub\n        /* \"#utility.yul\":2093:2129   */\n      add\n        /* \"#utility.yul\":2088:2091   */\n      dup6\n        /* \"#utility.yul\":2081:2130   */\n      mstore\n        /* \"#utility.yul\":2159:2165   */\n      dup2\n        /* \"#utility.yul\":2153:2166   */\n      mload\n        /* \"#utility.yul\":2205:2207   */\n      dup1\n        /* \"#utility.yul\":2199:2208   */\n      mload\n        /* \"#utility.yul\":2236:2238   */\n      dup8\n        /* \"#utility.yul\":2228:2234   */\n      dup6\n        /* \"#utility.yul\":2221:2239   */\n      mstore\n        /* \"#utility.yul\":2274:2286   */\n      dup1\n        /* \"#utility.yul\":2268:2287   */\n      mload\n        /* \"#utility.yul\":2324:2332   */\n      dup1\n        /* \"#utility.yul\":2319:2321   */\n      dup10\n        /* \"#utility.yul\":2311:2317   */\n      dup8\n        /* \"#utility.yul\":2307:2322   */\n      add\n        /* \"#utility.yul\":2300:2333   */\n      mstore\n        /* \"#utility.yul\":2357:2361   */\n      dup11\n        /* \"#utility.yul\":2374:2541   */\n    tag_83:\n        /* \"#utility.yul\":2390:2398   */\n      dup2\n        /* \"#utility.yul\":2385:2388   */\n      dup2\n        /* \"#utility.yul\":2382:2399   */\n      lt\n        /* \"#utility.yul\":2374:2541   */\n      iszero\n      tag_85\n      jumpi\n        /* \"#utility.yul\":2498:2520   */\n      dup3\n      dup2\n      add\n        /* \"#utility.yul\":2494:2525   */\n      dup12\n      add\n        /* \"#utility.yul\":2488:2526   */\n      mload\n        /* \"#utility.yul\":2465:2481   */\n      dup8\n      dup3\n      add\n        /* \"#utility.yul\":2483:2485   */\n      0x60\n        /* \"#utility.yul\":2461:2486   */\n      add\n        /* \"#utility.yul\":2454:2527   */\n      mstore\n        /* \"#utility.yul\":2409:2421   */\n      dup11\n      add\n        /* \"#utility.yul\":2374:2541   */\n      jump(tag_83)\n    tag_85:\n        /* \"#utility.yul\":2565:2573   */\n      dup2\n        /* \"#utility.yul\":2560:2563   */\n      dup2\n        /* \"#utility.yul\":2557:2574   */\n      gt\n        /* \"#utility.yul\":2554:2556   */\n      iszero\n      tag_86\n      jumpi\n        /* \"#utility.yul\":2644:2648   */\n      dup12\n        /* \"#utility.yul\":2639:2641   */\n      0x60\n        /* \"#utility.yul\":2628:2636   */\n      dup4\n        /* \"#utility.yul\":2620:2626   */\n      dup10\n        /* \"#utility.yul\":2616:2637   */\n      add\n        /* \"#utility.yul\":2612:2642   */\n      add\n        /* \"#utility.yul\":2605:2649   */\n      mstore\n        /* \"#utility.yul\":2554:2556   */\n    tag_86:\n      pop\n        /* \"#utility.yul\":2706:2717   */\n      swap2\n      dup10\n      add\n        /* \"#utility.yul\":2700:2718   */\n      mload\n        /* \"#utility.yul\":2683:2698   */\n      dup6\n      dup11\n      add\n        /* \"#utility.yul\":2676:2719   */\n      mstore\n      pop\n        /* \"#utility.yul\":2853:2865   */\n      swap5\n      dup8\n      add\n      swap5\n        /* \"#utility.yul\":2785:2787   */\n      0x1f\n        /* \"#utility.yul\":2762:2779   */\n      add\n      not(0x1f)\n        /* \"#utility.yul\":2758:2789   */\n      and\n        /* \"#utility.yul\":2746:2790   */\n      swap1\n      swap3\n      add\n        /* \"#utility.yul\":2792:2794   */\n      0x60\n        /* \"#utility.yul\":2742:2795   */\n      add\n      swap2\n        /* \"#utility.yul\":2818:2833   */\n      swap1\n      dup7\n      add\n      swap1\n        /* \"#utility.yul\":2054:2055   */\n      0x01\n        /* \"#utility.yul\":2047:2056   */\n      add\n        /* \"#utility.yul\":2018:2875   */\n      jump(tag_80)\n    tag_82:\n      pop\n        /* \"#utility.yul\":2892:2898   */\n      swap1\n      swap9\n        /* \"#utility.yul\":1645:2904   */\n      swap8\n      pop\n      pop\n      pop\n      pop\n      pop\n      pop\n      pop\n      pop\n      jump\t// out\n        /* \"#utility.yul\":2909:3313   */\n    tag_41:\n        /* \"#utility.yul\":3111:3113   */\n      0x20\n        /* \"#utility.yul\":3093:3114   */\n      dup1\n      dup3\n      mstore\n        /* \"#utility.yul\":3150:3152   */\n      0x28\n        /* \"#utility.yul\":3130:3148   */\n      swap1\n      dup3\n      add\n        /* \"#utility.yul\":3123:3153   */\n      mstore\n        /* \"#utility.yul\":3189:3223   */\n      0x50726f6475637453686f703a206f6e6c79206f776e65722063616e2061646420\n        /* \"#utility.yul\":3184:3186   */\n      0x40\n        /* \"#utility.yul\":3169:3187   */\n      dup3\n      add\n        /* \"#utility.yul\":3162:3224   */\n      mstore\n      shl(0xc0, 0x70726f6475637473)\n        /* \"#utility.yul\":3255:3257   */\n      0x60\n        /* \"#utility.yul\":3240:3258   */\n      dup3\n      add\n        /* \"#utility.yul\":3233:3271   */\n      mstore\n        /* \"#utility.yul\":3303:3306   */\n      0x80\n        /* \"#utility.yul\":3288:3307   */\n      add\n      swap1\n        /* \"#utility.yul\":3083:3313   */\n      jump\t// out\n        /* \"#utility.yul\":3318:3673   */\n    tag_33:\n        /* \"#utility.yul\":3520:3522   */\n      0x20\n        /* \"#utility.yul\":3502:3523   */\n      dup1\n      dup3\n      mstore\n        /* \"#utility.yul\":3559:3561   */\n      0x1f\n        /* \"#utility.yul\":3539:3557   */\n      swap1\n      dup3\n      add\n        /* \"#utility.yul\":3532:3562   */\n      mstore\n        /* \"#utility.yul\":3598:3631   */\n      0x50726f6475637453686f703a20696e73756666696369656e742066756e647300\n        /* \"#utility.yul\":3593:3595   */\n      0x40\n        /* \"#utility.yul\":3578:3596   */\n      dup3\n      add\n        /* \"#utility.yul\":3571:3632   */\n      mstore\n        /* \"#utility.yul\":3664:3666   */\n      0x60\n        /* \"#utility.yul\":3649:3667   */\n      add\n      swap1\n        /* \"#utility.yul\":3492:3673   */\n      jump\t// out\n        /* \"#utility.yul\":3678:4077   */\n    tag_28:\n        /* \"#utility.yul\":3880:3882   */\n      0x20\n        /* \"#utility.yul\":3862:3883   */\n      dup1\n      dup3\n      mstore\n        /* \"#utility.yul\":3919:3921   */\n      0x23\n        /* \"#utility.yul\":3899:3917   */\n      swap1\n      dup3\n      add\n        /* \"#utility.yul\":3892:3922   */\n      mstore\n        /* \"#utility.yul\":3958:3992   */\n      0x50726f6475637453686f703a2070726f6475637420646f6573206e6f74206578\n        /* \"#utility.yul\":3953:3955   */\n      0x40\n        /* \"#utility.yul\":3938:3956   */\n      dup3\n      add\n        /* \"#utility.yul\":3931:3993   */\n      mstore\n      shl(0xea, 0x1a5cdd)\n        /* \"#utility.yul\":4024:4026   */\n      0x60\n        /* \"#utility.yul\":4009:4027   */\n      dup3\n      add\n        /* \"#utility.yul\":4002:4035   */\n      mstore\n        /* \"#utility.yul\":4067:4070   */\n      0x80\n        /* \"#utility.yul\":4052:4071   */\n      add\n      swap1\n        /* \"#utility.yul\":3852:4077   */\n      jump\t// out\n        /* \"#utility.yul\":4082:4462   */\n    tag_50:\n        /* \"#utility.yul\":4167:4168   */\n      0x02\n        /* \"#utility.yul\":4157:4169   */\n      dup2\n      div\n        /* \"#utility.yul\":4214:4215   */\n      0x01\n        /* \"#utility.yul\":4204:4216   */\n      dup3\n      and\n      dup1\n        /* \"#utility.yul\":4225:4227   */\n      tag_91\n      jumpi\n        /* \"#utility.yul\":4279:4283   */\n      0x7f\n        /* \"#utility.yul\":4271:4277   */\n      dup3\n        /* \"#utility.yul\":4267:4284   */\n      and\n        /* \"#utility.yul\":4257:4284   */\n      swap2\n      pop\n        /* \"#utility.yul\":4225:4227   */\n    tag_91:\n        /* \"#utility.yul\":4332:4334   */\n      0x20\n        /* \"#utility.yul\":4324:4330   */\n      dup3\n        /* \"#utility.yul\":4321:4335   */\n      lt\n        /* \"#utility.yul\":4301:4319   */\n      dup2\n        /* \"#utility.yul\":4298:4336   */\n      eq\n        /* \"#utility.yul\":4295:4297   */\n      iszero\n      tag_92\n      jumpi\n        /* \"#utility.yul\":4378:4388   */\n      0x4e487b71\n        /* \"#utility.yul\":4373:4376   */\n      0xe0\n        /* \"#utility.yul\":4369:4389   */\n      shl\n        /* \"#utility.yul\":4366:4367   */\n      0x00\n        /* \"#utility.yul\":4359:4390   */\n      mstore\n        /* \"#utility.yul\":4413:4417   */\n      0x22\n        /* \"#utility.yul\":4410:4411   */\n      0x04\n        /* \"#utility.yul\":4403:4418   */\n      mstore\n        /* \"#utility.yul\":4441:4445   */\n      0x24\n        /* \"#utility.yul\":4438:4439   */\n      0x00\n        /* \"#utility.yul\":4431:4446   */\n      revert\n        /* \"#utility.yul\":4295:4297   */\n    tag_92:\n      pop\n        /* \"#utility.yul\":4137:4462   */\n      swap2\n      swap1\n      pop\n      jump\t// out\n        /* \"#utility.yul\":4467:4594   */\n    tag_72:\n        /* \"#utility.yul\":4528:4538   */\n      0x4e487b71\n        /* \"#utility.yul\":4523:4526   */\n      0xe0\n        /* \"#utility.yul\":4519:4539   */\n      shl\n        /* \"#utility.yul\":4516:4517   */\n      0x00\n        /* \"#utility.yul\":4509:4540   */\n      mstore\n        /* \"#utility.yul\":4559:4563   */\n      0x41\n        /* \"#utility.yul\":4556:4557   */\n      0x04\n        /* \"#utility.yul\":4549:4564   */\n      mstore\n        /* \"#utility.yul\":4583:4587   */\n      0x24\n        /* \"#utility.yul\":4580:4581   */\n      0x00\n        /* \"#utility.yul\":4573:4588   */\n      revert\n\n    auxdata: 0xa2646970667358221220c191da3c7e0697b1427dd543210d4f3848e4f043c225bc5a99bfd8221709d4e564736f6c63430008000033\n}\n",
				"bytecode": {
					"linkReferences": {},
					"object": "608060405234801561001057600080fd5b50600180546001600160a01b031916331790556106b8806100326000396000f3fe60806040526004361061003f5760003560e01c80638642269e146100445780638da5cb5b14610059578063b15247d914610084578063c29b2f20146100a4575b600080fd5b61005761005236600461049b565b6100c6565b005b34801561006557600080fd5b5061006e6101b9565b60405161007b91906104b3565b60405180910390f35b34801561009057600080fd5b5061005761009f3660046103f4565b6101c8565b3480156100b057600080fd5b506100b9610260565b60405161007b91906104c7565b60005481106100f05760405162461bcd60e51b81526004016100e7906105ee565b60405180910390fd5b6000818154811061011157634e487b7160e01b600052603260045260246000fd5b9060005260206000209060020201600101543410156101425760405162461bcd60e51b81526004016100e7906105b7565b600154600080546001600160a01b03909216916108fc91908490811061017857634e487b7160e01b600052603260045260246000fd5b9060005260206000209060020201600101549081150290604051600060405180830381858888f193505050501580156101b5573d6000803e3d6000fd5b5050565b6001546001600160a01b031681565b6001546001600160a01b031633146101f25760405162461bcd60e51b81526004016100e79061056f565b604080518082019091528281526020808201839052600080546001810182559080528251805160029092027f290decd9548b62a8d60345a988386fc84ba6bc95484008f6362f93160ef3e563019261024f9284929091019061035b565b506020820151816001015550505050565b60606000805480602002602001604051908101604052809291908181526020016000905b8282101561035257838290600052602060002090600202016040518060400160405290816000820180546102b790610631565b80601f01602080910402602001604051908101604052809291908181526020018280546102e390610631565b80156103305780601f1061030557610100808354040283529160200191610330565b820191906000526020600020905b81548152906001019060200180831161031357829003601f168201915b5050505050815260200160018201548152505081526020019060010190610284565b50505050905090565b82805461036790610631565b90600052602060002090601f01602090048101928261038957600085556103cf565b82601f106103a257805160ff19168380011785556103cf565b828001600101855582156103cf579182015b828111156103cf5782518255916020019190600101906103b4565b506103db9291506103df565b5090565b5b808211156103db57600081556001016103e0565b60008060408385031215610406578182fd5b823567ffffffffffffffff8082111561041d578384fd5b818501915085601f830112610430578384fd5b81356020828211156104445761044461066c565b604051601f8301601f19168101820184811182821017156104675761046761066c565b604052828152848301820189101561047d578687fd5b82828601838301379182018101959095529694909301359450505050565b6000602082840312156104ac578081fd5b5035919050565b6001600160a01b0391909116815260200190565b60208082528251828201819052600091906040908185019080840286018301878501865b8381101561056157603f1989840301855281518051878552805180898701528a5b81811015610528578281018b0151878201606001528a0161050c565b81811115610539578b606083890101525b5091890151858a01525094870194601f01601f191690920160600191908601906001016104eb565b509098975050505050505050565b60208082526028908201527f50726f6475637453686f703a206f6e6c79206f776e65722063616e206164642060408201526770726f647563747360c01b606082015260800190565b6020808252601f908201527f50726f6475637453686f703a20696e73756666696369656e742066756e647300604082015260600190565b60208082526023908201527f50726f6475637453686f703a2070726f6475637420646f6573206e6f742065786040820152621a5cdd60ea1b606082015260800190565b60028104600182168061064557607f821691505b6020821081141561066657634e487b7160e01b600052602260045260246000fd5b50919050565b634e487b7160e01b600052604160045260246000fdfea2646970667358221220c191da3c7e0697b1427dd543210d4f3848e4f043c225bc5a99bfd8221709d4e564736f6c63430008000033",
					"opcodes": "PUSH1 0x80 PUSH1 0x40 MSTORE CALLVALUE DUP1 ISZERO PUSH2 0x10 JUMPI PUSH1 0x0 DUP1 REVERT JUMPDEST POP PUSH1 0x1 DUP1 SLOAD PUSH1 0x1 PUSH1 0x1 PUSH1 0xA0 SHL SUB NOT AND CALLER OR SWAP1 SSTORE PUSH2 0x6B8 DUP1 PUSH2 0x32 PUSH1 0x0 CODECOPY PUSH1 0x0 RETURN INVALID PUSH1 0x80 PUSH1 0x40 MSTORE PUSH1 0x4 CALLDATASIZE LT PUSH2 0x3F JUMPI PUSH1 0x0 CALLDATALOAD PUSH1 0xE0 SHR DUP1 PUSH4 0x8642269E EQ PUSH2 0x44 JUMPI DUP1 PUSH4 0x8DA5CB5B EQ PUSH2 0x59 JUMPI DUP1 PUSH4 0xB15247D9 EQ PUSH2 0x84 JUMPI DUP1 PUSH4 0xC29B2F20 EQ PUSH2 0xA4 JUMPI JUMPDEST PUSH1 0x0 DUP1 REVERT JUMPDEST PUSH2 0x57 PUSH2 0x52 CALLDATASIZE PUSH1 0x4 PUSH2 0x49B JUMP JUMPDEST PUSH2 0xC6 JUMP JUMPDEST STOP JUMPDEST CALLVALUE DUP1 ISZERO PUSH2 0x65 JUMPI PUSH1 0x0 DUP1 REVERT JUMPDEST POP PUSH2 0x6E PUSH2 0x1B9 JUMP JUMPDEST PUSH1 0x40 MLOAD PUSH2 0x7B SWAP2 SWAP1 PUSH2 0x4B3 JUMP JUMPDEST PUSH1 0x40 MLOAD DUP1 SWAP2 SUB SWAP1 RETURN JUMPDEST CALLVALUE DUP1 ISZERO PUSH2 0x90 JUMPI PUSH1 0x0 DUP1 REVERT JUMPDEST POP PUSH2 0x57 PUSH2 0x9F CALLDATASIZE PUSH1 0x4 PUSH2 0x3F4 JUMP JUMPDEST PUSH2 0x1C8 JUMP JUMPDEST CALLVALUE DUP1 ISZERO PUSH2 0xB0 JUMPI PUSH1 0x0 DUP1 REVERT JUMPDEST POP PUSH2 0xB9 PUSH2 0x260 JUMP JUMPDEST PUSH1 0x40 MLOAD PUSH2 0x7B SWAP2 SWAP1 PUSH2 0x4C7 JUMP JUMPDEST PUSH1 0x0 SLOAD DUP2 LT PUSH2 0xF0 JUMPI PUSH1 0x40 MLOAD PUSH3 0x461BCD PUSH1 0xE5 SHL DUP2 MSTORE PUSH1 0x4 ADD PUSH2 0xE7 SWAP1 PUSH2 0x5EE JUMP JUMPDEST PUSH1 0x40 MLOAD DUP1 SWAP2 SUB SWAP1 REVERT JUMPDEST PUSH1 0x0 DUP2 DUP2 SLOAD DUP2 LT PUSH2 0x111 JUMPI PUSH4 0x4E487B71 PUSH1 0xE0 SHL PUSH1 0x0 MSTORE PUSH1 0x32 PUSH1 0x4 MSTORE PUSH1 0x24 PUSH1 0x0 REVERT JUMPDEST SWAP1 PUSH1 0x0 MSTORE PUSH1 0x20 PUSH1 0x0 KECCAK256 SWAP1 PUSH1 0x2 MUL ADD PUSH1 0x1 ADD SLOAD CALLVALUE LT ISZERO PUSH2 0x142 JUMPI PUSH1 0x40 MLOAD PUSH3 0x461BCD PUSH1 0xE5 SHL DUP2 MSTORE PUSH1 0x4 ADD PUSH2 0xE7 SWAP1 PUSH2 0x5B7 JUMP JUMPDEST PUSH1 0x1 SLOAD PUSH1 0x0 DUP1 SLOAD PUSH1 0x1 PUSH1 0x1 PUSH1 0xA0 SHL SUB SWAP1 SWAP3 AND SWAP2 PUSH2 0x8FC SWAP2 SWAP1 DUP5 SWAP1 DUP2 LT PUSH2 0x178 JUMPI PUSH4 0x4E487B71 PUSH1 0xE0 SHL PUSH1 0x0 MSTORE PUSH1 0x32 PUSH1 0x4 MSTORE PUSH1 0x24 PUSH1 0x0 REVERT JUMPDEST SWAP1 PUSH1 0x0 MSTORE PUSH1 0x20 PUSH1 0x0 KECCAK256 SWAP1 PUSH1 0x2 MUL ADD PUSH1 0x1 ADD SLOAD SWAP1 DUP2 ISZERO MUL SWAP1 PUSH1 0x40 MLOAD PUSH1 0x0 PUSH1 0x40 MLOAD DUP1 DUP4 SUB DUP2 DUP6 DUP9 DUP9 CALL SWAP4 POP POP POP POP ISZERO DUP1 ISZERO PUSH2 0x1B5 JUMPI RETURNDATASIZE PUSH1 0x0 DUP1 RETURNDATACOPY RETURNDATASIZE PUSH1 0x0 REVERT JUMPDEST POP POP JUMP JUMPDEST PUSH1 0x1 SLOAD PUSH1 0x1 PUSH1 0x1 PUSH1 0xA0 SHL SUB AND DUP2 JUMP JUMPDEST PUSH1 0x1 SLOAD PUSH1 0x1 PUSH1 0x1 PUSH1 0xA0 SHL SUB AND CALLER EQ PUSH2 0x1F2 JUMPI PUSH1 0x40 MLOAD PUSH3 0x461BCD PUSH1 0xE5 SHL DUP2 MSTORE PUSH1 0x4 ADD PUSH2 0xE7 SWAP1 PUSH2 0x56F JUMP JUMPDEST PUSH1 0x40 DUP1 MLOAD DUP1 DUP3 ADD SWAP1 SWAP2 MSTORE DUP3 DUP2 MSTORE PUSH1 0x20 DUP1 DUP3 ADD DUP4 SWAP1 MSTORE PUSH1 0x0 DUP1 SLOAD PUSH1 0x1 DUP2 ADD DUP3 SSTORE SWAP1 DUP1 MSTORE DUP3 MLOAD DUP1 MLOAD PUSH1 0x2 SWAP1 SWAP3 MUL PUSH32 0x290DECD9548B62A8D60345A988386FC84BA6BC95484008F6362F93160EF3E563 ADD SWAP3 PUSH2 0x24F SWAP3 DUP5 SWAP3 SWAP1 SWAP2 ADD SWAP1 PUSH2 0x35B JUMP JUMPDEST POP PUSH1 0x20 DUP3 ADD MLOAD DUP2 PUSH1 0x1 ADD SSTORE POP POP POP POP JUMP JUMPDEST PUSH1 0x60 PUSH1 0x0 DUP1 SLOAD DUP1 PUSH1 0x20 MUL PUSH1 0x20 ADD PUSH1 0x40 MLOAD SWAP1 DUP2 ADD PUSH1 0x40 MSTORE DUP1 SWAP3 SWAP2 SWAP1 DUP2 DUP2 MSTORE PUSH1 0x20 ADD PUSH1 0x0 SWAP1 JUMPDEST DUP3 DUP3 LT ISZERO PUSH2 0x352 JUMPI DUP4 DUP3 SWAP1 PUSH1 0x0 MSTORE PUSH1 0x20 PUSH1 0x0 KECCAK256 SWAP1 PUSH1 0x2 MUL ADD PUSH1 0x40 MLOAD DUP1 PUSH1 0x40 ADD PUSH1 0x40 MSTORE SWAP1 DUP2 PUSH1 0x0 DUP3 ADD DUP1 SLOAD PUSH2 0x2B7 SWAP1 PUSH2 0x631 JUMP JUMPDEST DUP1 PUSH1 0x1F ADD PUSH1 0x20 DUP1 SWAP2 DIV MUL PUSH1 0x20 ADD PUSH1 0x40 MLOAD SWAP1 DUP2 ADD PUSH1 0x40 MSTORE DUP1 SWAP3 SWAP2 SWAP1 DUP2 DUP2 MSTORE PUSH1 0x20 ADD DUP3 DUP1 SLOAD PUSH2 0x2E3 SWAP1 PUSH2 0x631 JUMP JUMPDEST DUP1 ISZERO PUSH2 0x330 JUMPI DUP1 PUSH1 0x1F LT PUSH2 0x305 JUMPI PUSH2 0x100 DUP1 DUP4 SLOAD DIV MUL DUP4 MSTORE SWAP2 PUSH1 0x20 ADD SWAP2 PUSH2 0x330 JUMP JUMPDEST DUP3 ADD SWAP2 SWAP1 PUSH1 0x0 MSTORE PUSH1 0x20 PUSH1 0x0 KECCAK256 SWAP1 JUMPDEST DUP2 SLOAD DUP2 MSTORE SWAP1 PUSH1 0x1 ADD SWAP1 PUSH1 0x20 ADD DUP1 DUP4 GT PUSH2 0x313 JUMPI DUP3 SWAP1 SUB PUSH1 0x1F AND DUP3 ADD SWAP2 JUMPDEST POP POP POP POP POP DUP2 MSTORE PUSH1 0x20 ADD PUSH1 0x1 DUP3 ADD SLOAD DUP2 MSTORE POP POP DUP2 MSTORE PUSH1 0x20 ADD SWAP1 PUSH1 0x1 ADD SWAP1 PUSH2 0x284 JUMP JUMPDEST POP POP POP POP SWAP1 POP SWAP1 JUMP JUMPDEST DUP3 DUP1 SLOAD PUSH2 0x367 SWAP1 PUSH2 0x631 JUMP JUMPDEST SWAP1 PUSH1 0x0 MSTORE PUSH1 0x20 PUSH1 0x0 KECCAK256 SWAP1 PUSH1 0x1F ADD PUSH1 0x20 SWAP1 DIV DUP2 ADD SWAP3 DUP3 PUSH2 0x389 JUMPI PUSH1 0x0 DUP6 SSTORE PUSH2 0x3CF JUMP JUMPDEST DUP3 PUSH1 0x1F LT PUSH2 0x3A2 JUMPI DUP1 MLOAD PUSH1 0xFF NOT AND DUP4 DUP1 ADD OR DUP6 SSTORE PUSH2 0x3CF JUMP JUMPDEST DUP3 DUP1 ADD PUSH1 0x1 ADD DUP6 SSTORE DUP3 ISZERO PUSH2 0x3CF JUMPI SWAP2 DUP3 ADD JUMPDEST DUP3 DUP2 GT ISZERO PUSH2 0x3CF JUMPI DUP3 MLOAD DUP3 SSTORE SWAP2 PUSH1 0x20 ADD SWAP2 SWAP1 PUSH1 0x1 ADD SWAP1 PUSH2 0x3B4 JUMP JUMPDEST POP PUSH2 0x3DB SWAP3 SWAP2 POP PUSH2 0x3DF JUMP JUMPDEST POP SWAP1 JUMP JUMPDEST JUMPDEST DUP1 DUP3 GT ISZERO PUSH2 0x3DB JUMPI PUSH1 0x0 DUP2 SSTORE PUSH1 0x1 ADD PUSH2 0x3E0 JUMP JUMPDEST PUSH1 0x0 DUP1 PUSH1 0x40 DUP4 DUP6 SUB SLT ISZERO PUSH2 0x406 JUMPI DUP2 DUP3 REVERT JUMPDEST DUP3 CALLDATALOAD PUSH8 0xFFFFFFFFFFFFFFFF DUP1 DUP3 GT ISZERO PUSH2 0x41D JUMPI DUP4 DUP5 REVERT JUMPDEST DUP2 DUP6 ADD SWAP2 POP DUP6 PUSH1 0x1F DUP4 ADD SLT PUSH2 0x430 JUMPI DUP4 DUP5 REVERT JUMPDEST DUP2 CALLDATALOAD PUSH1 0x20 DUP3 DUP3 GT ISZERO PUSH2 0x444 JUMPI PUSH2 0x444 PUSH2 0x66C JUMP JUMPDEST PUSH1 0x40 MLOAD PUSH1 0x1F DUP4 ADD PUSH1 0x1F NOT AND DUP2 ADD DUP3 ADD DUP5 DUP2 GT DUP3 DUP3 LT OR ISZERO PUSH2 0x467 JUMPI PUSH2 0x467 PUSH2 0x66C JUMP JUMPDEST PUSH1 0x40 MSTORE DUP3 DUP2 MSTORE DUP5 DUP4 ADD DUP3 ADD DUP10 LT ISZERO PUSH2 0x47D JUMPI DUP7 DUP8 REVERT JUMPDEST DUP3 DUP3 DUP7 ADD DUP4 DUP4 ADD CALLDATACOPY SWAP2 DUP3 ADD DUP2 ADD SWAP6 SWAP1 SWAP6 MSTORE SWAP7 SWAP5 SWAP1 SWAP4 ADD CALLDATALOAD SWAP5 POP POP POP POP JUMP JUMPDEST PUSH1 0x0 PUSH1 0x20 DUP3 DUP5 SUB SLT ISZERO PUSH2 0x4AC JUMPI DUP1 DUP2 REVERT JUMPDEST POP CALLDATALOAD SWAP2 SWAP1 POP JUMP JUMPDEST PUSH1 0x1 PUSH1 0x1 PUSH1 0xA0 SHL SUB SWAP2 SWAP1 SWAP2 AND DUP2 MSTORE PUSH1 0x20 ADD SWAP1 JUMP JUMPDEST PUSH1 0x20 DUP1 DUP3 MSTORE DUP3 MLOAD DUP3 DUP3 ADD DUP2 SWAP1 MSTORE PUSH1 0x0 SWAP2 SWAP1 PUSH1 0x40 SWAP1 DUP2 DUP6 ADD SWAP1 DUP1 DUP5 MUL DUP7 ADD DUP4 ADD DUP8 DUP6 ADD DUP7 JUMPDEST DUP4 DUP2 LT ISZERO PUSH2 0x561 JUMPI PUSH1 0x3F NOT DUP10 DUP5 SUB ADD DUP6 MSTORE DUP2 MLOAD DUP1 MLOAD DUP8 DUP6 MSTORE DUP1 MLOAD DUP1 DUP10 DUP8 ADD MSTORE DUP11 JUMPDEST DUP2 DUP2 LT ISZERO PUSH2 0x528 JUMPI DUP3 DUP2 ADD DUP12 ADD MLOAD DUP8 DUP3 ADD PUSH1 0x60 ADD MSTORE DUP11 ADD PUSH2 0x50C JUMP JUMPDEST DUP2 DUP2 GT ISZERO PUSH2 0x539 JUMPI DUP12 PUSH1 0x60 DUP4 DUP10 ADD ADD MSTORE JUMPDEST POP SWAP2 DUP10 ADD MLOAD DUP6 DUP11 ADD MSTORE POP SWAP5 DUP8 ADD SWAP5 PUSH1 0x1F ADD PUSH1 0x1F NOT AND SWAP1 SWAP3 ADD PUSH1 0x60 ADD SWAP2 SWAP1 DUP7 ADD SWAP1 PUSH1 0x1 ADD PUSH2 0x4EB JUMP JUMPDEST POP SWAP1 SWAP9 SWAP8 POP POP POP POP POP POP POP POP JUMP JUMPDEST PUSH1 0x20 DUP1 DUP3 MSTORE PUSH1 0x28 SWAP1 DUP3 ADD MSTORE PUSH32 0x50726F6475637453686F703A206F6E6C79206F776E65722063616E2061646420 PUSH1 0x40 DUP3 ADD MSTORE PUSH8 0x70726F6475637473 PUSH1 0xC0 SHL PUSH1 0x60 DUP3 ADD MSTORE PUSH1 0x80 ADD SWAP1 JUMP JUMPDEST PUSH1 0x20 DUP1 DUP3 MSTORE PUSH1 0x1F SWAP1 DUP3 ADD MSTORE PUSH32 0x50726F6475637453686F703A20696E73756666696369656E742066756E647300 PUSH1 0x40 DUP3 ADD MSTORE PUSH1 0x60 ADD SWAP1 JUMP JUMPDEST PUSH1 0x20 DUP1 DUP3 MSTORE PUSH1 0x23 SWAP1 DUP3 ADD MSTORE PUSH32 0x50726F6475637453686F703A2070726F6475637420646F6573206E6F74206578 PUSH1 0x40 DUP3 ADD MSTORE PUSH3 0x1A5CDD PUSH1 0xEA SHL PUSH1 0x60 DUP3 ADD MSTORE PUSH1 0x80 ADD SWAP1 JUMP JUMPDEST PUSH1 0x2 DUP2 DIV PUSH1 0x1 DUP3 AND DUP1 PUSH2 0x645 JUMPI PUSH1 0x7F DUP3 AND SWAP2 POP JUMPDEST PUSH1 0x20 DUP3 LT DUP2 EQ ISZERO PUSH2 0x666 JUMPI PUSH4 0x4E487B71 PUSH1 0xE0 SHL PUSH1 0x0 MSTORE PUSH1 0x22 PUSH1 0x4 MSTORE PUSH1 0x24 PUSH1 0x0 REVERT JUMPDEST POP SWAP2 SWAP1 POP JUMP JUMPDEST PUSH4 0x4E487B71 PUSH1 0xE0 SHL PUSH1 0x0 MSTORE PUSH1 0x41 PUSH1 0x4 MSTORE PUSH1 0x24 PUSH1 0x0 REVERT INVALID LOG2 PUSH5 0x6970667358 0x22 SLT KECCAK256 0xC1 SWAP2 0xDA EXTCODECOPY PUSH31 0x697B1427DD543210D4F3848E4F043C225BC5A99BFD8221709D4E564736F6C PUSH4 0x43000800 STOP CALLER "
				},
				"gasEstimates": {
					"creation": {
						"codeDepositCost": "344000",
						"executionCost": "21215",
						"totalCost": "365215"
					},
					"external": {
						"addProduct(string,uint256)": "infinite",
						"buyProduct(uint256)": "infinite",
						"getProducts()": "infinite",
						"owner()": "1070"
					}
				},
				"methodIdentifiers": {
					"addProduct(string,uint256)": "b15247d9",
					"buyProduct(uint256)": "8642269e",
					"getProducts()": "c29b2f20",
					"owner()": "8da5cb5b"
				}
			},
			"storageLayout": {
				"storage": [
					{
						"astId": 10,
						"contract": "contracts/HomeWork_1/ProductShop.sol:ProductShop",
						"label": "products",
						"offset": 0,
						"slot": "0",
						"type": "t_array(t_struct(Product)6_storage)dyn_storage"
					},
					{
						"astId": 12,
						"contract": "contracts/HomeWork_1/ProductShop.sol:ProductShop",
						"label": "owner",
						"offset": 0,
						"slot": "1",
						"type": "t_address"
					}
				],
				"types": {
					"t_address": {
						"encoding": "inplace",
						"label": "address",
						"numberOfBytes": "20"
					},
					"t_array(t_struct(Product)6_storage)dyn_storage": {
						"base": "t_struct(Product)6_storage",
						"encoding": "dynamic_array",
						"label": "struct ProductShop.Product[]",
						"numberOfBytes": "32"
					},
					"t_string_storage": {
						"encoding": "bytes",
						"label": "string",
						"numberOfBytes": "32"
					},
					"t_struct(Product)6_storage": {
						"encoding": "inplace",
						"label": "struct ProductShop.Product",
						"members": [
							{
								"astId": 3,
								"contract": "contracts/HomeWork_1/ProductShop.sol:ProductShop",
								"label": "name",
								"offset": 0,
								"slot": "0",
								"type": "t_string_storage"
							},
							{
								"astId": 5,
								"contract": "contracts/HomeWork_1/ProductShop.sol:ProductShop",
								"label": "price",
								"offset": 0,
								"slot": "1",
								"type": "t_uint256"
							}
						],
						"numberOfBytes": "64"
					},
					"t_uint256": {
						"encoding": "inplace",
						"label": "uint256",
						"numberOfBytes": "32"
					}
				}
			},
			"userdoc": {
				"kind": "user",
				"methods": {},
				"version": 1
			}
		}
	}
}