{
	"contracts/HomeWork_2/GrandmaETH.sol": {
		"GrandmaETH": {
			"abi": [
				{
					"inputs": [],
					"stateMutability": "nonpayable",
					"type": "constructor"
				},
				{
					"anonymous": false,
					"inputs": [
						{
							"indexed": true,
							"internalType": "address",
							"name": "sender",
							"type": "address"
						},
						{
							"indexed": false,
							"internalType": "uint256",
							"name": "amount",
							"type": "uint256"
						}
					],
					"name": "DepositMade",
					"type": "event"
				},
				{
					"anonymous": false,
					"inputs": [
						{
							"indexed": true,
							"internalType": "address",
							"name": "grandchild",
							"type": "address"
						},
						{
							"indexed": false,
							"internalType": "uint256",
							"name": "amount",
							"type": "uint256"
						}
					],
					"name": "GiftClaimed",
					"type": "event"
				},
				{
					"inputs": [
						{
							"internalType": "address payable",
							"name": "_grandchild",
							"type": "address"
						},
						{
							"internalType": "uint256",
							"name": "_birthdayTimestamp",
							"type": "uint256"
						}
					],
					"name": "addGrandchild",
					"outputs": [],
					"stateMutability": "nonpayable",
					"type": "function"
				},
				{
					"inputs": [],
					"name": "claimGift",
					"outputs": [],
					"stateMutability": "nonpayable",
					"type": "function"
				},
				{
					"inputs": [],
					"name": "deposit",
					"outputs": [],
					"stateMutability": "payable",
					"type": "function"
				},
				{
					"inputs": [],
					"name": "distributeGifts",
					"outputs": [],
					"stateMutability": "nonpayable",
					"type": "function"
				},
				{
					"inputs": [
						{
							"internalType": "uint256",
							"name": "",
							"type": "uint256"
						}
					],
					"name": "grandchildren",
					"outputs": [
						{
							"internalType": "address payable",
							"name": "wallet",
							"type": "address"
						},
						{
							"internalType": "uint256",
							"name": "birthdayTimestamp",
							"type": "uint256"
						},
						{
							"internalType": "bool",
							"name": "hasClaimed",
							"type": "bool"
						}
					],
					"stateMutability": "view",
					"type": "function"
				},
				{
					"inputs": [],
					"name": "grandma",
					"outputs": [
						{
							"internalType": "address",
							"name": "",
							"type": "address"
						}
					],
					"stateMutability": "view",
					"type": "function"
				},
				{
					"inputs": [],
					"name": "isDistributed",
					"outputs": [
						{
							"internalType": "bool",
							"name": "",
							"type": "bool"
						}
					],
					"stateMutability": "view",
					"type": "function"
				},
				{
					"inputs": [],
					"name": "totalDeposit",
					"outputs": [
						{
							"internalType": "uint256",
							"name": "",
							"type": "uint256"
						}
					],
					"stateMutability": "view",
					"type": "function"
				},
				{
					"inputs": [],
					"name": "withdrawRemaining",
					"outputs": [],
					"stateMutability": "nonpayable",
					"type": "function"
				}
			],
			"devdoc": {
				"kind": "dev",
				"methods": {},
				"version": 1
			},
			"evm": {
				"assembly": "    /* \"contracts/HomeWork_2/GrandmaETH.sol\":57:2838  contract GrandmaETH {... */\n  mstore(0x40, 0x80)\n    /* \"contracts/HomeWork_2/GrandmaETH.sol\":466:517  constructor() {... */\n  callvalue\n  dup1\n  iszero\n  tag_1\n  jumpi\n  0x00\n  dup1\n  revert\ntag_1:\n  pop\n    /* \"contracts/HomeWork_2/GrandmaETH.sol\":490:497  grandma */\n  0x00\n    /* \"contracts/HomeWork_2/GrandmaETH.sol\":490:510  grandma = msg.sender */\n  dup1\n  sload\n  not(sub(shl(0xa0, 0x01), 0x01))\n  and\n    /* \"contracts/HomeWork_2/GrandmaETH.sol\":500:510  msg.sender */\n  caller\n    /* \"contracts/HomeWork_2/GrandmaETH.sol\":490:510  grandma = msg.sender */\n  or\n  swap1\n  sstore\n    /* \"contracts/HomeWork_2/GrandmaETH.sol\":57:2838  contract GrandmaETH {... */\n  dataSize(sub_0)\n  dup1\n  dataOffset(sub_0)\n  0x00\n  codecopy\n  0x00\n  return\nstop\n\nsub_0: assembly {\n        /* \"contracts/HomeWork_2/GrandmaETH.sol\":57:2838  contract GrandmaETH {... */\n      mstore(0x40, 0x80)\n      jumpi(tag_1, lt(calldatasize, 0x04))\n      shr(0xe0, calldataload(0x00))\n      dup1\n      0x8f7c8d10\n      gt\n      tag_11\n      jumpi\n      dup1\n      0x8f7c8d10\n      eq\n      tag_6\n      jumpi\n      dup1\n      0xd0e30db0\n      eq\n      tag_7\n      jumpi\n      dup1\n      0xee38db95\n      eq\n      tag_8\n      jumpi\n      dup1\n      0xf6153ccd\n      eq\n      tag_9\n      jumpi\n      dup1\n      0xf677cf0d\n      eq\n      tag_10\n      jumpi\n      jump(tag_1)\n    tag_11:\n      dup1\n      0x01cce010\n      eq\n      tag_2\n      jumpi\n      dup1\n      0x135f4930\n      eq\n      tag_3\n      jumpi\n      dup1\n      0x15deb623\n      eq\n      tag_4\n      jumpi\n      dup1\n      0x4746eb7c\n      eq\n      tag_5\n      jumpi\n    tag_1:\n      0x00\n      dup1\n      revert\n        /* \"contracts/HomeWork_2/GrandmaETH.sol\":83:105  address public grandma */\n    tag_2:\n      callvalue\n      dup1\n      iszero\n      tag_12\n      jumpi\n      0x00\n      dup1\n      revert\n    tag_12:\n      pop\n      tag_13\n      tag_14\n      jump\t// in\n    tag_13:\n      mload(0x40)\n      tag_15\n      swap2\n      swap1\n      tag_16\n      jump\t// in\n    tag_15:\n      mload(0x40)\n      dup1\n      swap2\n      sub\n      swap1\n      return\n        /* \"contracts/HomeWork_2/GrandmaETH.sol\":1005:1426  function addGrandchild(address payable _grandchild, uint _birthdayTimestamp) external onlyGrandma notDistributed {... */\n    tag_3:\n      callvalue\n      dup1\n      iszero\n      tag_17\n      jumpi\n      0x00\n      dup1\n      revert\n    tag_17:\n      pop\n      tag_18\n      tag_19\n      calldatasize\n      0x04\n      tag_20\n      jump\t// in\n    tag_19:\n      tag_21\n      jump\t// in\n    tag_18:\n      stop\n        /* \"contracts/HomeWork_2/GrandmaETH.sol\":2341:2569  function distributeGifts() external onlyGrandma notDistributed {... */\n    tag_4:\n      callvalue\n      dup1\n      iszero\n      tag_22\n      jumpi\n      0x00\n      dup1\n      revert\n    tag_22:\n      pop\n      tag_18\n      tag_24\n      jump\t// in\n        /* \"contracts/HomeWork_2/GrandmaETH.sol\":240:273  Grandchild[] public grandchildren */\n    tag_5:\n      callvalue\n      dup1\n      iszero\n      tag_25\n      jumpi\n      0x00\n      dup1\n      revert\n    tag_25:\n      pop\n      tag_26\n      tag_27\n      calldatasize\n      0x04\n      tag_28\n      jump\t// in\n    tag_27:\n      tag_29\n      jump\t// in\n    tag_26:\n      mload(0x40)\n      tag_15\n      swap4\n      swap3\n      swap2\n      swap1\n      tag_31\n      jump\t// in\n        /* \"contracts/HomeWork_2/GrandmaETH.sol\":1432:2335  function claimGift() external {... */\n    tag_6:\n      callvalue\n      dup1\n      iszero\n      tag_32\n      jumpi\n      0x00\n      dup1\n      revert\n    tag_32:\n      pop\n      tag_18\n      tag_34\n      jump\t// in\n        /* \"contracts/HomeWork_2/GrandmaETH.sol\":772:999  function deposit() external payable onlyGrandma notDistributed {... */\n    tag_7:\n      tag_18\n      tag_36\n      jump\t// in\n        /* \"contracts/HomeWork_2/GrandmaETH.sol\":2575:2836  function withdrawRemaining() external onlyGrandma {... */\n    tag_8:\n      callvalue\n      dup1\n      iszero\n      tag_37\n      jumpi\n      0x00\n      dup1\n      revert\n    tag_37:\n      pop\n      tag_18\n      tag_39\n      jump\t// in\n        /* \"contracts/HomeWork_2/GrandmaETH.sol\":279:303  uint public totalDeposit */\n    tag_9:\n      callvalue\n      dup1\n      iszero\n      tag_40\n      jumpi\n      0x00\n      dup1\n      revert\n    tag_40:\n      pop\n      tag_41\n      tag_42\n      jump\t// in\n    tag_41:\n      mload(0x40)\n      tag_15\n      swap2\n      swap1\n      tag_44\n      jump\t// in\n        /* \"contracts/HomeWork_2/GrandmaETH.sol\":309:334  bool public isDistributed */\n    tag_10:\n      callvalue\n      dup1\n      iszero\n      tag_45\n      jumpi\n      0x00\n      dup1\n      revert\n    tag_45:\n      pop\n      tag_46\n      tag_47\n      jump\t// in\n    tag_46:\n      mload(0x40)\n      tag_15\n      swap2\n      swap1\n      tag_49\n      jump\t// in\n        /* \"contracts/HomeWork_2/GrandmaETH.sol\":83:105  address public grandma */\n    tag_14:\n      and(sub(shl(0xa0, 0x01), 0x01), sload(0x00))\n      dup2\n      jump\t// out\n        /* \"contracts/HomeWork_2/GrandmaETH.sol\":1005:1426  function addGrandchild(address payable _grandchild, uint _birthdayTimestamp) external onlyGrandma notDistributed {... */\n    tag_21:\n        /* \"contracts/HomeWork_2/GrandmaETH.sol\":578:585  grandma */\n      and(sub(shl(0xa0, 0x01), 0x01), sload(0x00))\n        /* \"contracts/HomeWork_2/GrandmaETH.sol\":564:574  msg.sender */\n      caller\n        /* \"contracts/HomeWork_2/GrandmaETH.sol\":564:585  msg.sender == grandma */\n      eq\n        /* \"contracts/HomeWork_2/GrandmaETH.sol\":556:626  require(msg.sender == grandma, \"Only grandma can perform this action\") */\n      tag_51\n      jumpi\n      mload(0x40)\n      shl(0xe5, 0x461bcd)\n      dup2\n      mstore\n      0x04\n      add\n      tag_52\n      swap1\n      tag_53\n      jump\t// in\n    tag_52:\n      mload(0x40)\n      dup1\n      swap2\n      sub\n      swap1\n      revert\n    tag_51:\n        /* \"contracts/HomeWork_2/GrandmaETH.sol\":695:708  isDistributed */\n      and(0xff, sload(0x03))\n        /* \"contracts/HomeWork_2/GrandmaETH.sol\":694:708  !isDistributed */\n      iszero\n        /* \"contracts/HomeWork_2/GrandmaETH.sol\":686:748  require(!isDistributed, \"Gifts have already been distributed\") */\n      tag_55\n      jumpi\n      mload(0x40)\n      shl(0xe5, 0x461bcd)\n      dup2\n      mstore\n      0x04\n      add\n      tag_52\n      swap1\n      tag_57\n      jump\t// in\n    tag_55:\n      sub(shl(0xa0, 0x01), 0x01)\n        /* \"contracts/HomeWork_2/GrandmaETH.sol\":1136:1161  _grandchild != address(0) */\n      dup3\n      and\n        /* \"contracts/HomeWork_2/GrandmaETH.sol\":1128:1181  require(_grandchild != address(0), \"Invalid address\") */\n      tag_59\n      jumpi\n      mload(0x40)\n      shl(0xe5, 0x461bcd)\n      dup2\n      mstore\n      0x04\n      add\n      tag_52\n      swap1\n      tag_61\n      jump\t// in\n    tag_59:\n        /* \"contracts/HomeWork_2/GrandmaETH.sol\":1220:1221  0 */\n      0x00\n        /* \"contracts/HomeWork_2/GrandmaETH.sol\":1199:1217  _birthdayTimestamp */\n      dup2\n        /* \"contracts/HomeWork_2/GrandmaETH.sol\":1199:1221  _birthdayTimestamp > 0 */\n      gt\n        /* \"contracts/HomeWork_2/GrandmaETH.sol\":1191:1252  require(_birthdayTimestamp > 0, \"Invalid birthday timestamp\") */\n      tag_62\n      jumpi\n      mload(0x40)\n      shl(0xe5, 0x461bcd)\n      dup2\n      mstore\n      0x04\n      add\n      tag_52\n      swap1\n      tag_64\n      jump\t// in\n    tag_62:\n        /* \"contracts/HomeWork_2/GrandmaETH.sol\":1281:1418  Grandchild({... */\n      0x40\n      dup1\n      mload\n      0x60\n      dup2\n      add\n      dup3\n      mstore\n      sub(shl(0xa0, 0x01), 0x01)\n      swap4\n      dup5\n      and\n      dup2\n      mstore\n      0x20\n      dup2\n      add\n      swap3\n      dup4\n      mstore\n      0x00\n      swap2\n      dup2\n      add\n      dup3\n      dup2\n      mstore\n        /* \"contracts/HomeWork_2/GrandmaETH.sol\":1262:1275  grandchildren */\n      0x01\n        /* \"contracts/HomeWork_2/GrandmaETH.sol\":1262:1419  grandchildren.push(Grandchild({... */\n      dup1\n      sload\n      dup1\n      dup3\n      add\n      dup3\n      sstore\n      swap4\n      mstore\n      swap1\n      mload\n      0xb10e2d527612073b26eecdfd717e6a320cf44b4afac2b0732d9fcbe2b7fa0cf6\n      0x03\n      swap1\n      swap4\n      mul\n      swap3\n      dup4\n      add\n      dup1\n      sload\n      not(sub(shl(0xa0, 0x01), 0x01))\n      and\n      swap2\n      swap1\n      swap6\n      and\n      or\n      swap1\n      swap4\n      sstore\n      swap1\n      mload\n      0xb10e2d527612073b26eecdfd717e6a320cf44b4afac2b0732d9fcbe2b7fa0cf7\n      dup3\n      add\n      sstore\n      swap1\n      mload\n      0xb10e2d527612073b26eecdfd717e6a320cf44b4afac2b0732d9fcbe2b7fa0cf8\n      swap1\n      swap2\n      add\n      dup1\n      sload\n      not(0xff)\n      and\n      swap2\n      iszero\n      iszero\n      swap2\n      swap1\n      swap2\n      or\n      swap1\n      sstore\n        /* \"contracts/HomeWork_2/GrandmaETH.sol\":1005:1426  function addGrandchild(address payable _grandchild, uint _birthdayTimestamp) external onlyGrandma notDistributed {... */\n      jump\t// out\n        /* \"contracts/HomeWork_2/GrandmaETH.sol\":2341:2569  function distributeGifts() external onlyGrandma notDistributed {... */\n    tag_24:\n        /* \"contracts/HomeWork_2/GrandmaETH.sol\":578:585  grandma */\n      and(sub(shl(0xa0, 0x01), 0x01), sload(0x00))\n        /* \"contracts/HomeWork_2/GrandmaETH.sol\":564:574  msg.sender */\n      caller\n        /* \"contracts/HomeWork_2/GrandmaETH.sol\":564:585  msg.sender == grandma */\n      eq\n        /* \"contracts/HomeWork_2/GrandmaETH.sol\":556:626  require(msg.sender == grandma, \"Only grandma can perform this action\") */\n      tag_67\n      jumpi\n      mload(0x40)\n      shl(0xe5, 0x461bcd)\n      dup2\n      mstore\n      0x04\n      add\n      tag_52\n      swap1\n      tag_53\n      jump\t// in\n    tag_67:\n        /* \"contracts/HomeWork_2/GrandmaETH.sol\":695:708  isDistributed */\n      and(0xff, sload(0x03))\n        /* \"contracts/HomeWork_2/GrandmaETH.sol\":694:708  !isDistributed */\n      iszero\n        /* \"contracts/HomeWork_2/GrandmaETH.sol\":686:748  require(!isDistributed, \"Gifts have already been distributed\") */\n      tag_70\n      jumpi\n      mload(0x40)\n      shl(0xe5, 0x461bcd)\n      dup2\n      mstore\n      0x04\n      add\n      tag_52\n      swap1\n      tag_57\n      jump\t// in\n    tag_70:\n        /* \"contracts/HomeWork_2/GrandmaETH.sol\":2437:2438  0 */\n      0x00\n        /* \"contracts/HomeWork_2/GrandmaETH.sol\":2422:2434  totalDeposit */\n      sload(0x02)\n        /* \"contracts/HomeWork_2/GrandmaETH.sol\":2422:2438  totalDeposit > 0 */\n      gt\n        /* \"contracts/HomeWork_2/GrandmaETH.sol\":2414:2463  require(totalDeposit > 0, \"No deposit available\") */\n      tag_73\n      jumpi\n      mload(0x40)\n      shl(0xe5, 0x461bcd)\n      dup2\n      mstore\n      0x04\n      add\n      tag_52\n      swap1\n      tag_75\n      jump\t// in\n    tag_73:\n        /* \"contracts/HomeWork_2/GrandmaETH.sol\":2481:2494  grandchildren */\n      0x01\n        /* \"contracts/HomeWork_2/GrandmaETH.sol\":2481:2501  grandchildren.length */\n      sload\n        /* \"contracts/HomeWork_2/GrandmaETH.sol\":2473:2532  require(grandchildren.length > 0, \"No grandchildren added\") */\n      tag_76\n      jumpi\n      mload(0x40)\n      shl(0xe5, 0x461bcd)\n      dup2\n      mstore\n      0x04\n      add\n      tag_52\n      swap1\n      tag_78\n      jump\t// in\n    tag_76:\n        /* \"contracts/HomeWork_2/GrandmaETH.sol\":2542:2555  isDistributed */\n      0x03\n        /* \"contracts/HomeWork_2/GrandmaETH.sol\":2542:2562  isDistributed = true */\n      dup1\n      sload\n      not(0xff)\n      and\n        /* \"contracts/HomeWork_2/GrandmaETH.sol\":2558:2562  true */\n      0x01\n        /* \"contracts/HomeWork_2/GrandmaETH.sol\":2542:2562  isDistributed = true */\n      or\n      swap1\n      sstore\n        /* \"contracts/HomeWork_2/GrandmaETH.sol\":2341:2569  function distributeGifts() external onlyGrandma notDistributed {... */\n      jump\t// out\n        /* \"contracts/HomeWork_2/GrandmaETH.sol\":240:273  Grandchild[] public grandchildren */\n    tag_29:\n      0x01\n      dup2\n      dup2\n      sload\n      dup2\n      lt\n      tag_79\n      jumpi\n      0x00\n      dup1\n      revert\n    tag_79:\n      0x00\n      swap2\n      dup3\n      mstore\n      0x20\n      swap1\n      swap2\n      keccak256\n      0x03\n      swap1\n      swap2\n      mul\n      add\n      dup1\n      sload\n      0x01\n      dup3\n      add\n      sload\n      0x02\n      swap1\n      swap3\n      add\n      sload\n      sub(shl(0xa0, 0x01), 0x01)\n      swap1\n      swap2\n      and\n      swap3\n      pop\n      0xff\n      and\n      dup4\n      jump\t// out\n        /* \"contracts/HomeWork_2/GrandmaETH.sol\":1432:2335  function claimGift() external {... */\n    tag_34:\n        /* \"contracts/HomeWork_2/GrandmaETH.sol\":1480:1493  isDistributed */\n      and(0xff, sload(0x03))\n        /* \"contracts/HomeWork_2/GrandmaETH.sol\":1472:1525  require(isDistributed, \"Gifts are not yet available\") */\n      tag_82\n      jumpi\n      mload(0x40)\n      shl(0xe5, 0x461bcd)\n      dup2\n      mstore\n      0x04\n      add\n      tag_52\n      swap1\n      tag_84\n      jump\t// in\n    tag_82:\n        /* \"contracts/HomeWork_2/GrandmaETH.sol\":1568:1581  grandchildren */\n      0x01\n        /* \"contracts/HomeWork_2/GrandmaETH.sol\":1568:1588  grandchildren.length */\n      sload\n        /* \"contracts/HomeWork_2/GrandmaETH.sol\":1553:1565  totalDeposit */\n      sload(0x02)\n        /* \"contracts/HomeWork_2/GrandmaETH.sol\":1535:1550  uint giftAmount */\n      0x00\n      swap2\n        /* \"contracts/HomeWork_2/GrandmaETH.sol\":1553:1588  totalDeposit / grandchildren.length */\n      tag_85\n      swap2\n      tag_86\n      jump\t// in\n    tag_85:\n        /* \"contracts/HomeWork_2/GrandmaETH.sol\":1535:1588  uint giftAmount = totalDeposit / grandchildren.length */\n      swap1\n      pop\n        /* \"contracts/HomeWork_2/GrandmaETH.sol\":1619:1620  0 */\n      0x00\n        /* \"contracts/HomeWork_2/GrandmaETH.sol\":1606:1616  giftAmount */\n      dup2\n        /* \"contracts/HomeWork_2/GrandmaETH.sol\":1606:1620  giftAmount > 0 */\n      gt\n        /* \"contracts/HomeWork_2/GrandmaETH.sol\":1598:1645  require(giftAmount > 0, \"No deposit available\") */\n      tag_87\n      jumpi\n      mload(0x40)\n      shl(0xe5, 0x461bcd)\n      dup2\n      mstore\n      0x04\n      add\n      tag_52\n      swap1\n      tag_75\n      jump\t// in\n    tag_87:\n        /* \"contracts/HomeWork_2/GrandmaETH.sol\":1664:1681  bool isGrandchild */\n      0x00\n        /* \"contracts/HomeWork_2/GrandmaETH.sol\":1704:1710  uint i */\n      dup1\n        /* \"contracts/HomeWork_2/GrandmaETH.sol\":1699:2259  for (uint i = 0; i < grandchildren.length; i++) {... */\n    tag_89:\n        /* \"contracts/HomeWork_2/GrandmaETH.sol\":1720:1733  grandchildren */\n      0x01\n        /* \"contracts/HomeWork_2/GrandmaETH.sol\":1720:1740  grandchildren.length */\n      sload\n        /* \"contracts/HomeWork_2/GrandmaETH.sol\":1716:1740  i < grandchildren.length */\n      dup2\n      lt\n        /* \"contracts/HomeWork_2/GrandmaETH.sol\":1699:2259  for (uint i = 0; i < grandchildren.length; i++) {... */\n      iszero\n      tag_90\n      jumpi\n        /* \"contracts/HomeWork_2/GrandmaETH.sol\":1792:1802  msg.sender */\n      caller\n      sub(shl(0xa0, 0x01), 0x01)\n        /* \"contracts/HomeWork_2/GrandmaETH.sol\":1765:1802  grandchildren[i].wallet == msg.sender */\n      and\n        /* \"contracts/HomeWork_2/GrandmaETH.sol\":1765:1778  grandchildren */\n      0x01\n        /* \"contracts/HomeWork_2/GrandmaETH.sol\":1779:1780  i */\n      dup3\n        /* \"contracts/HomeWork_2/GrandmaETH.sol\":1765:1781  grandchildren[i] */\n      dup2\n      sload\n      dup2\n      lt\n      tag_92\n      jumpi\n      mstore(0x00, shl(0xe0, 0x4e487b71))\n      mstore(0x04, 0x32)\n      revert(0x00, 0x24)\n    tag_92:\n      0x00\n      swap2\n      dup3\n      mstore\n      0x20\n      swap1\n      swap2\n      keccak256\n      0x03\n      swap1\n      swap2\n      mul\n      add\n        /* \"contracts/HomeWork_2/GrandmaETH.sol\":1765:1788  grandchildren[i].wallet */\n      sload\n      sub(shl(0xa0, 0x01), 0x01)\n      and\n        /* \"contracts/HomeWork_2/GrandmaETH.sol\":1765:1802  grandchildren[i].wallet == msg.sender */\n      eq\n        /* \"contracts/HomeWork_2/GrandmaETH.sol\":1761:2249  if (grandchildren[i].wallet == msg.sender) {... */\n      iszero\n      tag_94\n      jumpi\n        /* \"contracts/HomeWork_2/GrandmaETH.sol\":1837:1841  true */\n      0x01\n        /* \"contracts/HomeWork_2/GrandmaETH.sol\":1822:1841  isGrandchild = true */\n      swap2\n      pop\n        /* \"contracts/HomeWork_2/GrandmaETH.sol\":1868:1881  grandchildren */\n      0x01\n        /* \"contracts/HomeWork_2/GrandmaETH.sol\":1882:1883  i */\n      dup2\n        /* \"contracts/HomeWork_2/GrandmaETH.sol\":1868:1884  grandchildren[i] */\n      dup2\n      sload\n      dup2\n      lt\n      tag_95\n      jumpi\n      mstore(0x00, shl(0xe0, 0x4e487b71))\n      mstore(0x04, 0x32)\n      revert(0x00, 0x24)\n    tag_95:\n      0x00\n      swap2\n      dup3\n      mstore\n      0x20\n      swap1\n      swap2\n      keccak256\n        /* \"contracts/HomeWork_2/GrandmaETH.sol\":1868:1895  grandchildren[i].hasClaimed */\n      0x02\n        /* \"contracts/HomeWork_2/GrandmaETH.sol\":1868:1884  grandchildren[i] */\n      0x03\n      swap1\n      swap3\n      mul\n      add\n        /* \"contracts/HomeWork_2/GrandmaETH.sol\":1868:1895  grandchildren[i].hasClaimed */\n      add\n      sload\n      0xff\n      and\n        /* \"contracts/HomeWork_2/GrandmaETH.sol\":1867:1895  !grandchildren[i].hasClaimed */\n      iszero\n        /* \"contracts/HomeWork_2/GrandmaETH.sol\":1859:1920  require(!grandchildren[i].hasClaimed, \"Gift already claimed\") */\n      tag_97\n      jumpi\n      mload(0x40)\n      shl(0xe5, 0x461bcd)\n      dup2\n      mstore\n      0x04\n      add\n      tag_52\n      swap1\n      tag_99\n      jump\t// in\n    tag_97:\n        /* \"contracts/HomeWork_2/GrandmaETH.sol\":1965:1978  grandchildren */\n      0x01\n        /* \"contracts/HomeWork_2/GrandmaETH.sol\":1979:1980  i */\n      dup2\n        /* \"contracts/HomeWork_2/GrandmaETH.sol\":1965:1981  grandchildren[i] */\n      dup2\n      sload\n      dup2\n      lt\n      tag_100\n      jumpi\n      mstore(0x00, shl(0xe0, 0x4e487b71))\n      mstore(0x04, 0x32)\n      revert(0x00, 0x24)\n    tag_100:\n      swap1\n      0x00\n      mstore\n      keccak256(0x00, 0x20)\n      swap1\n      0x03\n      mul\n      add\n        /* \"contracts/HomeWork_2/GrandmaETH.sol\":1965:1999  grandchildren[i].birthdayTimestamp */\n      0x01\n      add\n      sload\n        /* \"contracts/HomeWork_2/GrandmaETH.sol\":1946:1961  block.timestamp */\n      timestamp\n        /* \"contracts/HomeWork_2/GrandmaETH.sol\":1946:1999  block.timestamp >= grandchildren[i].birthdayTimestamp */\n      lt\n      iszero\n        /* \"contracts/HomeWork_2/GrandmaETH.sol\":1938:2026  require(block.timestamp >= grandchildren[i].birthdayTimestamp, \"Gift not yet available\") */\n      tag_102\n      jumpi\n      mload(0x40)\n      shl(0xe5, 0x461bcd)\n      dup2\n      mstore\n      0x04\n      add\n      tag_52\n      swap1\n      tag_104\n      jump\t// in\n    tag_102:\n        /* \"contracts/HomeWork_2/GrandmaETH.sol\":2091:2095  true */\n      0x01\n        /* \"contracts/HomeWork_2/GrandmaETH.sol\":2061:2074  grandchildren */\n      dup1\n        /* \"contracts/HomeWork_2/GrandmaETH.sol\":2075:2076  i */\n      dup3\n        /* \"contracts/HomeWork_2/GrandmaETH.sol\":2061:2077  grandchildren[i] */\n      dup2\n      sload\n      dup2\n      lt\n      tag_105\n      jumpi\n      mstore(0x00, shl(0xe0, 0x4e487b71))\n      mstore(0x04, 0x32)\n      revert(0x00, 0x24)\n    tag_105:\n      0x00\n      swap2\n      dup3\n      mstore\n      0x20\n      dup3\n      keccak256\n      0x03\n      swap2\n      swap1\n      swap2\n      mul\n      add\n        /* \"contracts/HomeWork_2/GrandmaETH.sol\":2061:2088  grandchildren[i].hasClaimed */\n      0x02\n      add\n        /* \"contracts/HomeWork_2/GrandmaETH.sol\":2061:2095  grandchildren[i].hasClaimed = true */\n      dup1\n      sload\n      not(0xff)\n      and\n      swap3\n      iszero\n      iszero\n      swap3\n      swap1\n      swap3\n      or\n      swap1\n      swap2\n      sstore\n        /* \"contracts/HomeWork_2/GrandmaETH.sol\":2113:2153  payable(msg.sender).transfer(giftAmount) */\n      mload(0x40)\n        /* \"contracts/HomeWork_2/GrandmaETH.sol\":2121:2131  msg.sender */\n      caller\n      swap2\n        /* \"contracts/HomeWork_2/GrandmaETH.sol\":2113:2153  payable(msg.sender).transfer(giftAmount) */\n      0x08fc\n      dup7\n      iszero\n      mul\n      swap2\n      dup7\n      swap2\n      dup2\n        /* \"contracts/HomeWork_2/GrandmaETH.sol\":2061:2077  grandchildren[i] */\n      dup2\n        /* \"contracts/HomeWork_2/GrandmaETH.sol\":2113:2153  payable(msg.sender).transfer(giftAmount) */\n      dup2\n      dup6\n        /* \"contracts/HomeWork_2/GrandmaETH.sol\":2121:2131  msg.sender */\n      dup9\n        /* \"contracts/HomeWork_2/GrandmaETH.sol\":2113:2153  payable(msg.sender).transfer(giftAmount) */\n      dup9\n      call\n      swap4\n      pop\n      pop\n      pop\n      pop\n      iszero\n      dup1\n      iszero\n      tag_108\n      jumpi\n      returndatasize\n      0x00\n      dup1\n      returndatacopy\n      revert(0x00, returndatasize)\n    tag_108:\n      pop\n        /* \"contracts/HomeWork_2/GrandmaETH.sol\":2188:2198  msg.sender */\n      caller\n      sub(shl(0xa0, 0x01), 0x01)\n        /* \"contracts/HomeWork_2/GrandmaETH.sol\":2176:2211  GiftClaimed(msg.sender, giftAmount) */\n      and\n      0x63470d7f30c22aa66a80557958389b03c1a5d7d61f31b9bd0642097d2aae3a9a\n        /* \"contracts/HomeWork_2/GrandmaETH.sol\":2200:2210  giftAmount */\n      dup5\n        /* \"contracts/HomeWork_2/GrandmaETH.sol\":2176:2211  GiftClaimed(msg.sender, giftAmount) */\n      mload(0x40)\n      tag_109\n      swap2\n      swap1\n      tag_44\n      jump\t// in\n    tag_109:\n      mload(0x40)\n      dup1\n      swap2\n      sub\n      swap1\n      log2\n        /* \"contracts/HomeWork_2/GrandmaETH.sol\":2229:2234  break */\n      jump(tag_90)\n        /* \"contracts/HomeWork_2/GrandmaETH.sol\":1761:2249  if (grandchildren[i].wallet == msg.sender) {... */\n    tag_94:\n        /* \"contracts/HomeWork_2/GrandmaETH.sol\":1742:1745  i++ */\n      dup1\n      tag_110\n      dup2\n      tag_111\n      jump\t// in\n    tag_110:\n      swap2\n      pop\n      pop\n        /* \"contracts/HomeWork_2/GrandmaETH.sol\":1699:2259  for (uint i = 0; i < grandchildren.length; i++) {... */\n      jump(tag_89)\n    tag_90:\n      pop\n        /* \"contracts/HomeWork_2/GrandmaETH.sol\":2276:2288  isGrandchild */\n      dup1\n        /* \"contracts/HomeWork_2/GrandmaETH.sol\":2268:2327  require(isGrandchild, \"Only grandchildren can claim gifts\") */\n      tag_112\n      jumpi\n      mload(0x40)\n      shl(0xe5, 0x461bcd)\n      dup2\n      mstore\n      0x04\n      add\n      tag_52\n      swap1\n      tag_114\n      jump\t// in\n    tag_112:\n        /* \"contracts/HomeWork_2/GrandmaETH.sol\":1432:2335  function claimGift() external {... */\n      pop\n      pop\n      jump\t// out\n        /* \"contracts/HomeWork_2/GrandmaETH.sol\":772:999  function deposit() external payable onlyGrandma notDistributed {... */\n    tag_36:\n        /* \"contracts/HomeWork_2/GrandmaETH.sol\":578:585  grandma */\n      and(sub(shl(0xa0, 0x01), 0x01), sload(0x00))\n        /* \"contracts/HomeWork_2/GrandmaETH.sol\":564:574  msg.sender */\n      caller\n        /* \"contracts/HomeWork_2/GrandmaETH.sol\":564:585  msg.sender == grandma */\n      eq\n        /* \"contracts/HomeWork_2/GrandmaETH.sol\":556:626  require(msg.sender == grandma, \"Only grandma can perform this action\") */\n      tag_116\n      jumpi\n      mload(0x40)\n      shl(0xe5, 0x461bcd)\n      dup2\n      mstore\n      0x04\n      add\n      tag_52\n      swap1\n      tag_53\n      jump\t// in\n    tag_116:\n        /* \"contracts/HomeWork_2/GrandmaETH.sol\":695:708  isDistributed */\n      and(0xff, sload(0x03))\n        /* \"contracts/HomeWork_2/GrandmaETH.sol\":694:708  !isDistributed */\n      iszero\n        /* \"contracts/HomeWork_2/GrandmaETH.sol\":686:748  require(!isDistributed, \"Gifts have already been distributed\") */\n      tag_119\n      jumpi\n      mload(0x40)\n      shl(0xe5, 0x461bcd)\n      dup2\n      mstore\n      0x04\n      add\n      tag_52\n      swap1\n      tag_57\n      jump\t// in\n    tag_119:\n        /* \"contracts/HomeWork_2/GrandmaETH.sol\":865:866  0 */\n      0x00\n        /* \"contracts/HomeWork_2/GrandmaETH.sol\":853:862  msg.value */\n      callvalue\n        /* \"contracts/HomeWork_2/GrandmaETH.sol\":853:866  msg.value > 0 */\n      gt\n        /* \"contracts/HomeWork_2/GrandmaETH.sol\":845:908  require(msg.value > 0, \"Deposit amount must be greater than 0\") */\n      tag_122\n      jumpi\n      mload(0x40)\n      shl(0xe5, 0x461bcd)\n      dup2\n      mstore\n      0x04\n      add\n      tag_52\n      swap1\n      tag_124\n      jump\t// in\n    tag_122:\n        /* \"contracts/HomeWork_2/GrandmaETH.sol\":934:943  msg.value */\n      callvalue\n        /* \"contracts/HomeWork_2/GrandmaETH.sol\":918:930  totalDeposit */\n      0x02\n      0x00\n        /* \"contracts/HomeWork_2/GrandmaETH.sol\":918:943  totalDeposit += msg.value */\n      dup3\n      dup3\n      sload\n      tag_125\n      swap2\n      swap1\n      tag_126\n      jump\t// in\n    tag_125:\n      swap1\n      swap2\n      sstore\n      pop\n      pop\n        /* \"contracts/HomeWork_2/GrandmaETH.sol\":958:992  DepositMade(msg.sender, msg.value) */\n      mload(0x40)\n        /* \"contracts/HomeWork_2/GrandmaETH.sol\":970:980  msg.sender */\n      caller\n      swap1\n        /* \"contracts/HomeWork_2/GrandmaETH.sol\":958:992  DepositMade(msg.sender, msg.value) */\n      0xd15c9547ea5c06670c0010ce19bc32d54682a4b3801ece7f3ab0c3f17106b4bb\n      swap1\n      tag_127\n      swap1\n        /* \"contracts/HomeWork_2/GrandmaETH.sol\":982:991  msg.value */\n      callvalue\n      swap1\n        /* \"contracts/HomeWork_2/GrandmaETH.sol\":958:992  DepositMade(msg.sender, msg.value) */\n      tag_44\n      jump\t// in\n    tag_127:\n      mload(0x40)\n      dup1\n      swap2\n      sub\n      swap1\n      log2\n        /* \"contracts/HomeWork_2/GrandmaETH.sol\":772:999  function deposit() external payable onlyGrandma notDistributed {... */\n      jump\t// out\n        /* \"contracts/HomeWork_2/GrandmaETH.sol\":2575:2836  function withdrawRemaining() external onlyGrandma {... */\n    tag_39:\n        /* \"contracts/HomeWork_2/GrandmaETH.sol\":578:585  grandma */\n      and(sub(shl(0xa0, 0x01), 0x01), sload(0x00))\n        /* \"contracts/HomeWork_2/GrandmaETH.sol\":564:574  msg.sender */\n      caller\n        /* \"contracts/HomeWork_2/GrandmaETH.sol\":564:585  msg.sender == grandma */\n      eq\n        /* \"contracts/HomeWork_2/GrandmaETH.sol\":556:626  require(msg.sender == grandma, \"Only grandma can perform this action\") */\n      tag_129\n      jumpi\n      mload(0x40)\n      shl(0xe5, 0x461bcd)\n      dup2\n      mstore\n      0x04\n      add\n      tag_52\n      swap1\n      tag_53\n      jump\t// in\n    tag_129:\n        /* \"contracts/HomeWork_2/GrandmaETH.sol\":2643:2656  isDistributed */\n      and(0xff, sload(0x03))\n        /* \"contracts/HomeWork_2/GrandmaETH.sol\":2635:2692  require(isDistributed, \"Gifts must be distributed first\") */\n      tag_132\n      jumpi\n      mload(0x40)\n      shl(0xe5, 0x461bcd)\n      dup2\n      mstore\n      0x04\n      add\n      tag_52\n      swap1\n      tag_134\n      jump\t// in\n    tag_132:\n        /* \"contracts/HomeWork_2/GrandmaETH.sol\":2719:2740  address(this).balance */\n      selfbalance\n        /* \"contracts/HomeWork_2/GrandmaETH.sol\":2754:2767  remaining > 0 */\n      dup1\n      iszero\n        /* \"contracts/HomeWork_2/GrandmaETH.sol\":2750:2830  if (remaining > 0) {... */\n      tag_135\n      jumpi\n        /* \"contracts/HomeWork_2/GrandmaETH.sol\":2791:2798  grandma */\n      0x00\n      dup1\n      sload\n        /* \"contracts/HomeWork_2/GrandmaETH.sol\":2783:2819  payable(grandma).transfer(remaining) */\n      mload(0x40)\n      sub(shl(0xa0, 0x01), 0x01)\n        /* \"contracts/HomeWork_2/GrandmaETH.sol\":2791:2798  grandma */\n      swap1\n      swap2\n      and\n      swap2\n        /* \"contracts/HomeWork_2/GrandmaETH.sol\":2783:2819  payable(grandma).transfer(remaining) */\n      dup4\n      iszero\n      0x08fc\n      mul\n      swap2\n        /* \"contracts/HomeWork_2/GrandmaETH.sol\":2809:2818  remaining */\n      dup5\n      swap2\n        /* \"contracts/HomeWork_2/GrandmaETH.sol\":2783:2819  payable(grandma).transfer(remaining) */\n      dup2\n        /* \"contracts/HomeWork_2/GrandmaETH.sol\":2791:2798  grandma */\n      dup2\n        /* \"contracts/HomeWork_2/GrandmaETH.sol\":2783:2819  payable(grandma).transfer(remaining) */\n      dup2\n        /* \"contracts/HomeWork_2/GrandmaETH.sol\":2809:2818  remaining */\n      dup6\n        /* \"contracts/HomeWork_2/GrandmaETH.sol\":2791:2798  grandma */\n      dup9\n        /* \"contracts/HomeWork_2/GrandmaETH.sol\":2783:2819  payable(grandma).transfer(remaining) */\n      dup9\n      call\n      swap4\n      pop\n      pop\n      pop\n      pop\n      iszero\n      dup1\n      iszero\n      tag_112\n      jumpi\n      returndatasize\n      0x00\n      dup1\n      returndatacopy\n      revert(0x00, returndatasize)\n        /* \"contracts/HomeWork_2/GrandmaETH.sol\":2750:2830  if (remaining > 0) {... */\n    tag_135:\n        /* \"contracts/HomeWork_2/GrandmaETH.sol\":636:637  _ */\n      pop\n        /* \"contracts/HomeWork_2/GrandmaETH.sol\":2575:2836  function withdrawRemaining() external onlyGrandma {... */\n      jump\t// out\n        /* \"contracts/HomeWork_2/GrandmaETH.sol\":279:303  uint public totalDeposit */\n    tag_42:\n      sload(0x02)\n      dup2\n      jump\t// out\n        /* \"contracts/HomeWork_2/GrandmaETH.sol\":309:334  bool public isDistributed */\n    tag_47:\n      and(0xff, sload(0x03))\n      dup2\n      jump\t// out\n        /* \"#utility.yul\":14:396   */\n    tag_20:\n      0x00\n      dup1\n        /* \"#utility.yul\":151:153   */\n      0x40\n        /* \"#utility.yul\":139:148   */\n      dup4\n        /* \"#utility.yul\":130:137   */\n      dup6\n        /* \"#utility.yul\":126:149   */\n      sub\n        /* \"#utility.yul\":122:154   */\n      slt\n        /* \"#utility.yul\":119:121   */\n      iszero\n      tag_140\n      jumpi\n        /* \"#utility.yul\":172:178   */\n      dup2\n        /* \"#utility.yul\":164:170   */\n      dup3\n        /* \"#utility.yul\":157:179   */\n      revert\n        /* \"#utility.yul\":119:121   */\n    tag_140:\n        /* \"#utility.yul\":203:226   */\n      dup3\n      calldataload\n      sub(shl(0xa0, 0x01), 0x01)\n        /* \"#utility.yul\":255:286   */\n      dup2\n      and\n        /* \"#utility.yul\":245:287   */\n      dup2\n      eq\n        /* \"#utility.yul\":235:237   */\n      tag_141\n      jumpi\n        /* \"#utility.yul\":306:312   */\n      dup3\n        /* \"#utility.yul\":298:304   */\n      dup4\n        /* \"#utility.yul\":291:313   */\n      revert\n        /* \"#utility.yul\":235:237   */\n    tag_141:\n        /* \"#utility.yul\":334:339   */\n      swap5\n        /* \"#utility.yul\":386:388   */\n      0x20\n        /* \"#utility.yul\":371:389   */\n      swap4\n      swap1\n      swap4\n      add\n        /* \"#utility.yul\":358:390   */\n      calldataload\n      swap4\n      pop\n      pop\n      pop\n        /* \"#utility.yul\":109:396   */\n      jump\t// out\n        /* \"#utility.yul\":401:591   */\n    tag_28:\n      0x00\n        /* \"#utility.yul\":513:515   */\n      0x20\n        /* \"#utility.yul\":501:510   */\n      dup3\n        /* \"#utility.yul\":492:499   */\n      dup5\n        /* \"#utility.yul\":488:511   */\n      sub\n        /* \"#utility.yul\":484:516   */\n      slt\n        /* \"#utility.yul\":481:483   */\n      iszero\n      tag_143\n      jumpi\n        /* \"#utility.yul\":534:540   */\n      dup1\n        /* \"#utility.yul\":526:532   */\n      dup2\n        /* \"#utility.yul\":519:541   */\n      revert\n        /* \"#utility.yul\":481:483   */\n    tag_143:\n      pop\n        /* \"#utility.yul\":562:585   */\n      calldataload\n      swap2\n        /* \"#utility.yul\":471:591   */\n      swap1\n      pop\n      jump\t// out\n        /* \"#utility.yul\":596:799   */\n    tag_16:\n      sub(shl(0xa0, 0x01), 0x01)\n        /* \"#utility.yul\":760:792   */\n      swap2\n      swap1\n      swap2\n      and\n        /* \"#utility.yul\":742:793   */\n      dup2\n      mstore\n        /* \"#utility.yul\":730:732   */\n      0x20\n        /* \"#utility.yul\":715:733   */\n      add\n      swap1\n        /* \"#utility.yul\":697:799   */\n      jump\t// out\n        /* \"#utility.yul\":804:1175   */\n    tag_31:\n      sub(shl(0xa0, 0x01), 0x01)\n        /* \"#utility.yul\":1034:1066   */\n      swap4\n      swap1\n      swap4\n      and\n        /* \"#utility.yul\":1016:1067   */\n      dup4\n      mstore\n        /* \"#utility.yul\":1098:1100   */\n      0x20\n        /* \"#utility.yul\":1083:1101   */\n      dup4\n      add\n        /* \"#utility.yul\":1076:1110   */\n      swap2\n      swap1\n      swap2\n      mstore\n        /* \"#utility.yul\":1153:1167   */\n      iszero\n        /* \"#utility.yul\":1146:1168   */\n      iszero\n        /* \"#utility.yul\":1141:1143   */\n      0x40\n        /* \"#utility.yul\":1126:1144   */\n      dup3\n      add\n        /* \"#utility.yul\":1119:1169   */\n      mstore\n        /* \"#utility.yul\":1004:1006   */\n      0x60\n        /* \"#utility.yul\":989:1007   */\n      add\n      swap1\n        /* \"#utility.yul\":971:1175   */\n      jump\t// out\n        /* \"#utility.yul\":1180:1367   */\n    tag_49:\n        /* \"#utility.yul\":1345:1359   */\n      swap1\n      iszero\n        /* \"#utility.yul\":1338:1360   */\n      iszero\n        /* \"#utility.yul\":1320:1361   */\n      dup2\n      mstore\n        /* \"#utility.yul\":1308:1310   */\n      0x20\n        /* \"#utility.yul\":1293:1311   */\n      add\n      swap1\n        /* \"#utility.yul\":1275:1367   */\n      jump\t// out\n        /* \"#utility.yul\":1372:1711   */\n    tag_61:\n        /* \"#utility.yul\":1574:1576   */\n      0x20\n        /* \"#utility.yul\":1556:1577   */\n      dup1\n      dup3\n      mstore\n        /* \"#utility.yul\":1613:1615   */\n      0x0f\n        /* \"#utility.yul\":1593:1611   */\n      swap1\n      dup3\n      add\n        /* \"#utility.yul\":1586:1616   */\n      mstore\n      shl(0x88, 0x496e76616c69642061646472657373)\n        /* \"#utility.yul\":1647:1649   */\n      0x40\n        /* \"#utility.yul\":1632:1650   */\n      dup3\n      add\n        /* \"#utility.yul\":1625:1670   */\n      mstore\n        /* \"#utility.yul\":1702:1704   */\n      0x60\n        /* \"#utility.yul\":1687:1705   */\n      add\n      swap1\n        /* \"#utility.yul\":1546:1711   */\n      jump\t// out\n        /* \"#utility.yul\":1716:2116   */\n    tag_53:\n        /* \"#utility.yul\":1918:1920   */\n      0x20\n        /* \"#utility.yul\":1900:1921   */\n      dup1\n      dup3\n      mstore\n        /* \"#utility.yul\":1957:1959   */\n      0x24\n        /* \"#utility.yul\":1937:1955   */\n      swap1\n      dup3\n      add\n        /* \"#utility.yul\":1930:1960   */\n      mstore\n        /* \"#utility.yul\":1996:2030   */\n      0x4f6e6c79206772616e646d612063616e20706572666f726d2074686973206163\n        /* \"#utility.yul\":1991:1993   */\n      0x40\n        /* \"#utility.yul\":1976:1994   */\n      dup3\n      add\n        /* \"#utility.yul\":1969:2031   */\n      mstore\n      shl(0xe1, 0x3a34b7b7)\n        /* \"#utility.yul\":2062:2064   */\n      0x60\n        /* \"#utility.yul\":2047:2065   */\n      dup3\n      add\n        /* \"#utility.yul\":2040:2074   */\n      mstore\n        /* \"#utility.yul\":2106:2109   */\n      0x80\n        /* \"#utility.yul\":2091:2110   */\n      add\n      swap1\n        /* \"#utility.yul\":1890:2116   */\n      jump\t// out\n        /* \"#utility.yul\":2121:2522   */\n    tag_124:\n        /* \"#utility.yul\":2323:2325   */\n      0x20\n        /* \"#utility.yul\":2305:2326   */\n      dup1\n      dup3\n      mstore\n        /* \"#utility.yul\":2362:2364   */\n      0x25\n        /* \"#utility.yul\":2342:2360   */\n      swap1\n      dup3\n      add\n        /* \"#utility.yul\":2335:2365   */\n      mstore\n        /* \"#utility.yul\":2401:2435   */\n      0x4465706f73697420616d6f756e74206d75737420626520677265617465722074\n        /* \"#utility.yul\":2396:2398   */\n      0x40\n        /* \"#utility.yul\":2381:2399   */\n      dup3\n      add\n        /* \"#utility.yul\":2374:2436   */\n      mstore\n      shl(0xdc, 0x068616e203)\n        /* \"#utility.yul\":2467:2469   */\n      0x60\n        /* \"#utility.yul\":2452:2470   */\n      dup3\n      add\n        /* \"#utility.yul\":2445:2480   */\n      mstore\n        /* \"#utility.yul\":2512:2515   */\n      0x80\n        /* \"#utility.yul\":2497:2516   */\n      add\n      swap1\n        /* \"#utility.yul\":2295:2522   */\n      jump\t// out\n        /* \"#utility.yul\":2527:2925   */\n    tag_114:\n        /* \"#utility.yul\":2729:2731   */\n      0x20\n        /* \"#utility.yul\":2711:2732   */\n      dup1\n      dup3\n      mstore\n        /* \"#utility.yul\":2768:2770   */\n      0x22\n        /* \"#utility.yul\":2748:2766   */\n      swap1\n      dup3\n      add\n        /* \"#utility.yul\":2741:2771   */\n      mstore\n        /* \"#utility.yul\":2807:2841   */\n      0x4f6e6c79206772616e646368696c6472656e2063616e20636c61696d20676966\n        /* \"#utility.yul\":2802:2804   */\n      0x40\n        /* \"#utility.yul\":2787:2805   */\n      dup3\n      add\n        /* \"#utility.yul\":2780:2842   */\n      mstore\n      shl(0xf0, 0x7473)\n        /* \"#utility.yul\":2873:2875   */\n      0x60\n        /* \"#utility.yul\":2858:2876   */\n      dup3\n      add\n        /* \"#utility.yul\":2851:2883   */\n      mstore\n        /* \"#utility.yul\":2915:2918   */\n      0x80\n        /* \"#utility.yul\":2900:2919   */\n      add\n      swap1\n        /* \"#utility.yul\":2701:2925   */\n      jump\t// out\n        /* \"#utility.yul\":2930:3329   */\n    tag_57:\n        /* \"#utility.yul\":3132:3134   */\n      0x20\n        /* \"#utility.yul\":3114:3135   */\n      dup1\n      dup3\n      mstore\n        /* \"#utility.yul\":3171:3173   */\n      0x23\n        /* \"#utility.yul\":3151:3169   */\n      swap1\n      dup3\n      add\n        /* \"#utility.yul\":3144:3174   */\n      mstore\n        /* \"#utility.yul\":3210:3244   */\n      0x4769667473206861766520616c7265616479206265656e206469737472696275\n        /* \"#utility.yul\":3205:3207   */\n      0x40\n        /* \"#utility.yul\":3190:3208   */\n      dup3\n      add\n        /* \"#utility.yul\":3183:3245   */\n      mstore\n      shl(0xea, 0x1d1959)\n        /* \"#utility.yul\":3276:3278   */\n      0x60\n        /* \"#utility.yul\":3261:3279   */\n      dup3\n      add\n        /* \"#utility.yul\":3254:3287   */\n      mstore\n        /* \"#utility.yul\":3319:3322   */\n      0x80\n        /* \"#utility.yul\":3304:3323   */\n      add\n      swap1\n        /* \"#utility.yul\":3104:3329   */\n      jump\t// out\n        /* \"#utility.yul\":3334:3680   */\n    tag_104:\n        /* \"#utility.yul\":3536:3538   */\n      0x20\n        /* \"#utility.yul\":3518:3539   */\n      dup1\n      dup3\n      mstore\n        /* \"#utility.yul\":3575:3577   */\n      0x16\n        /* \"#utility.yul\":3555:3573   */\n      swap1\n      dup3\n      add\n        /* \"#utility.yul\":3548:3578   */\n      mstore\n      shl(0x50, 0x47696674206e6f742079657420617661696c61626c65)\n        /* \"#utility.yul\":3609:3611   */\n      0x40\n        /* \"#utility.yul\":3594:3612   */\n      dup3\n      add\n        /* \"#utility.yul\":3587:3639   */\n      mstore\n        /* \"#utility.yul\":3671:3673   */\n      0x60\n        /* \"#utility.yul\":3656:3674   */\n      add\n      swap1\n        /* \"#utility.yul\":3508:3680   */\n      jump\t// out\n        /* \"#utility.yul\":3685:4029   */\n    tag_75:\n        /* \"#utility.yul\":3887:3889   */\n      0x20\n        /* \"#utility.yul\":3869:3890   */\n      dup1\n      dup3\n      mstore\n        /* \"#utility.yul\":3926:3928   */\n      0x14\n        /* \"#utility.yul\":3906:3924   */\n      swap1\n      dup3\n      add\n        /* \"#utility.yul\":3899:3929   */\n      mstore\n      shl(0x60, 0x4e6f206465706f73697420617661696c61626c65)\n        /* \"#utility.yul\":3960:3962   */\n      0x40\n        /* \"#utility.yul\":3945:3963   */\n      dup3\n      add\n        /* \"#utility.yul\":3938:3988   */\n      mstore\n        /* \"#utility.yul\":4020:4022   */\n      0x60\n        /* \"#utility.yul\":4005:4023   */\n      add\n      swap1\n        /* \"#utility.yul\":3859:4029   */\n      jump\t// out\n        /* \"#utility.yul\":4034:4389   */\n    tag_134:\n        /* \"#utility.yul\":4236:4238   */\n      0x20\n        /* \"#utility.yul\":4218:4239   */\n      dup1\n      dup3\n      mstore\n        /* \"#utility.yul\":4275:4277   */\n      0x1f\n        /* \"#utility.yul\":4255:4273   */\n      swap1\n      dup3\n      add\n        /* \"#utility.yul\":4248:4278   */\n      mstore\n        /* \"#utility.yul\":4314:4347   */\n      0x4769667473206d75737420626520646973747269627574656420666972737400\n        /* \"#utility.yul\":4309:4311   */\n      0x40\n        /* \"#utility.yul\":4294:4312   */\n      dup3\n      add\n        /* \"#utility.yul\":4287:4348   */\n      mstore\n        /* \"#utility.yul\":4380:4382   */\n      0x60\n        /* \"#utility.yul\":4365:4383   */\n      add\n      swap1\n        /* \"#utility.yul\":4208:4389   */\n      jump\t// out\n        /* \"#utility.yul\":4394:4738   */\n    tag_99:\n        /* \"#utility.yul\":4596:4598   */\n      0x20\n        /* \"#utility.yul\":4578:4599   */\n      dup1\n      dup3\n      mstore\n        /* \"#utility.yul\":4635:4637   */\n      0x14\n        /* \"#utility.yul\":4615:4633   */\n      swap1\n      dup3\n      add\n        /* \"#utility.yul\":4608:4638   */\n      mstore\n      shl(0x62, 0x11da599d08185b1c9958591e4818db185a5b5959)\n        /* \"#utility.yul\":4669:4671   */\n      0x40\n        /* \"#utility.yul\":4654:4672   */\n      dup3\n      add\n        /* \"#utility.yul\":4647:4697   */\n      mstore\n        /* \"#utility.yul\":4729:4731   */\n      0x60\n        /* \"#utility.yul\":4714:4732   */\n      add\n      swap1\n        /* \"#utility.yul\":4568:4738   */\n      jump\t// out\n        /* \"#utility.yul\":4743:5094   */\n    tag_84:\n        /* \"#utility.yul\":4945:4947   */\n      0x20\n        /* \"#utility.yul\":4927:4948   */\n      dup1\n      dup3\n      mstore\n        /* \"#utility.yul\":4984:4986   */\n      0x1b\n        /* \"#utility.yul\":4964:4982   */\n      swap1\n      dup3\n      add\n        /* \"#utility.yul\":4957:4987   */\n      mstore\n        /* \"#utility.yul\":5023:5052   */\n      0x476966747320617265206e6f742079657420617661696c61626c650000000000\n        /* \"#utility.yul\":5018:5020   */\n      0x40\n        /* \"#utility.yul\":5003:5021   */\n      dup3\n      add\n        /* \"#utility.yul\":4996:5053   */\n      mstore\n        /* \"#utility.yul\":5085:5087   */\n      0x60\n        /* \"#utility.yul\":5070:5088   */\n      add\n      swap1\n        /* \"#utility.yul\":4917:5094   */\n      jump\t// out\n        /* \"#utility.yul\":5099:5445   */\n    tag_78:\n        /* \"#utility.yul\":5301:5303   */\n      0x20\n        /* \"#utility.yul\":5283:5304   */\n      dup1\n      dup3\n      mstore\n        /* \"#utility.yul\":5340:5342   */\n      0x16\n        /* \"#utility.yul\":5320:5338   */\n      swap1\n      dup3\n      add\n        /* \"#utility.yul\":5313:5343   */\n      mstore\n      shl(0x52, 0x139bc819dc985b9918da1a5b191c995b881859191959)\n        /* \"#utility.yul\":5374:5376   */\n      0x40\n        /* \"#utility.yul\":5359:5377   */\n      dup3\n      add\n        /* \"#utility.yul\":5352:5404   */\n      mstore\n        /* \"#utility.yul\":5436:5438   */\n      0x60\n        /* \"#utility.yul\":5421:5439   */\n      add\n      swap1\n        /* \"#utility.yul\":5273:5445   */\n      jump\t// out\n        /* \"#utility.yul\":5450:5800   */\n    tag_64:\n        /* \"#utility.yul\":5652:5654   */\n      0x20\n        /* \"#utility.yul\":5634:5655   */\n      dup1\n      dup3\n      mstore\n        /* \"#utility.yul\":5691:5693   */\n      0x1a\n        /* \"#utility.yul\":5671:5689   */\n      swap1\n      dup3\n      add\n        /* \"#utility.yul\":5664:5694   */\n      mstore\n        /* \"#utility.yul\":5730:5758   */\n      0x496e76616c69642062697274686461792074696d657374616d70000000000000\n        /* \"#utility.yul\":5725:5727   */\n      0x40\n        /* \"#utility.yul\":5710:5728   */\n      dup3\n      add\n        /* \"#utility.yul\":5703:5759   */\n      mstore\n        /* \"#utility.yul\":5791:5793   */\n      0x60\n        /* \"#utility.yul\":5776:5794   */\n      add\n      swap1\n        /* \"#utility.yul\":5624:5800   */\n      jump\t// out\n        /* \"#utility.yul\":5805:5982   */\n    tag_44:\n        /* \"#utility.yul\":5951:5976   */\n      swap1\n      dup2\n      mstore\n        /* \"#utility.yul\":5939:5941   */\n      0x20\n        /* \"#utility.yul\":5924:5942   */\n      add\n      swap1\n        /* \"#utility.yul\":5906:5982   */\n      jump\t// out\n        /* \"#utility.yul\":5987:6115   */\n    tag_126:\n      0x00\n        /* \"#utility.yul\":6058:6059   */\n      dup3\n        /* \"#utility.yul\":6054:6060   */\n      not\n        /* \"#utility.yul\":6051:6052   */\n      dup3\n        /* \"#utility.yul\":6048:6061   */\n      gt\n        /* \"#utility.yul\":6045:6047   */\n      iszero\n      tag_162\n      jumpi\n        /* \"#utility.yul\":6064:6082   */\n      tag_162\n      tag_163\n      jump\t// in\n    tag_162:\n      pop\n        /* \"#utility.yul\":6100:6109   */\n      add\n      swap1\n        /* \"#utility.yul\":6035:6115   */\n      jump\t// out\n        /* \"#utility.yul\":6120:6337   */\n    tag_86:\n      0x00\n        /* \"#utility.yul\":6186:6187   */\n      dup3\n        /* \"#utility.yul\":6176:6178   */\n      tag_165\n      jumpi\n      shl(0xe0, 0x4e487b71)\n        /* \"#utility.yul\":6211:6242   */\n      dup2\n      mstore\n        /* \"#utility.yul\":6265:6269   */\n      0x12\n        /* \"#utility.yul\":6262:6263   */\n      0x04\n        /* \"#utility.yul\":6255:6270   */\n      mstore\n        /* \"#utility.yul\":6293:6297   */\n      0x24\n        /* \"#utility.yul\":6218:6219   */\n      dup2\n        /* \"#utility.yul\":6283:6298   */\n      revert\n        /* \"#utility.yul\":6176:6178   */\n    tag_165:\n      pop\n        /* \"#utility.yul\":6322:6331   */\n      div\n      swap1\n        /* \"#utility.yul\":6166:6337   */\n      jump\t// out\n        /* \"#utility.yul\":6342:6477   */\n    tag_111:\n      0x00\n      not(0x00)\n        /* \"#utility.yul\":6402:6419   */\n      dup3\n      eq\n        /* \"#utility.yul\":6399:6401   */\n      iszero\n      tag_168\n      jumpi\n        /* \"#utility.yul\":6422:6440   */\n      tag_168\n      tag_163\n      jump\t// in\n    tag_168:\n      pop\n        /* \"#utility.yul\":6469:6470   */\n      0x01\n        /* \"#utility.yul\":6458:6471   */\n      add\n      swap1\n        /* \"#utility.yul\":6389:6477   */\n      jump\t// out\n        /* \"#utility.yul\":6482:6609   */\n    tag_163:\n        /* \"#utility.yul\":6543:6553   */\n      0x4e487b71\n        /* \"#utility.yul\":6538:6541   */\n      0xe0\n        /* \"#utility.yul\":6534:6554   */\n      shl\n        /* \"#utility.yul\":6531:6532   */\n      0x00\n        /* \"#utility.yul\":6524:6555   */\n      mstore\n        /* \"#utility.yul\":6574:6578   */\n      0x11\n        /* \"#utility.yul\":6571:6572   */\n      0x04\n        /* \"#utility.yul\":6564:6579   */\n      mstore\n        /* \"#utility.yul\":6598:6602   */\n      0x24\n        /* \"#utility.yul\":6595:6596   */\n      0x00\n        /* \"#utility.yul\":6588:6603   */\n      revert\n\n    auxdata: 0xa2646970667358221220d78967989789a9ccdfd0cb16b2cc514852a96d844d6006badf3f619a29695f4564736f6c63430008000033\n}\n",
				"bytecode": {
					"linkReferences": {},
					"object": "608060405234801561001057600080fd5b50600080546001600160a01b03191633179055610b5a806100326000396000f3fe6080604052600436106100865760003560e01c80638f7c8d10116100595780638f7c8d101461011c578063d0e30db014610131578063ee38db9514610139578063f6153ccd1461014e578063f677cf0d1461017057610086565b806301cce0101461008b578063135f4930146100b657806315deb623146100d85780634746eb7c146100ed575b600080fd5b34801561009757600080fd5b506100a0610192565b6040516100ad91906107d8565b60405180910390f35b3480156100c257600080fd5b506100d66100d136600461078a565b6101a1565b005b3480156100e457600080fd5b506100d661030a565b3480156100f957600080fd5b5061010d6101083660046107c0565b6103a7565b6040516100ad939291906107ec565b34801561012857600080fd5b506100d66103e7565b6100d661062c565b34801561014557600080fd5b506100d66106ec565b34801561015a57600080fd5b5061016361077b565b6040516100ad9190610ab2565b34801561017c57600080fd5b50610185610781565b6040516100ad919061080f565b6000546001600160a01b031681565b6000546001600160a01b031633146101d45760405162461bcd60e51b81526004016101cb90610843565b60405180910390fd5b60035460ff16156101f75760405162461bcd60e51b81526004016101cb9061090e565b6001600160a01b03821661021d5760405162461bcd60e51b81526004016101cb9061081a565b6000811161023d5760405162461bcd60e51b81526004016101cb90610a7b565b604080516060810182526001600160a01b039384168152602081019283526000918101828152600180548082018255935290517fb10e2d527612073b26eecdfd717e6a320cf44b4afac2b0732d9fcbe2b7fa0cf6600390930292830180546001600160a01b031916919095161790935590517fb10e2d527612073b26eecdfd717e6a320cf44b4afac2b0732d9fcbe2b7fa0cf782015590517fb10e2d527612073b26eecdfd717e6a320cf44b4afac2b0732d9fcbe2b7fa0cf8909101805460ff1916911515919091179055565b6000546001600160a01b031633146103345760405162461bcd60e51b81526004016101cb90610843565b60035460ff16156103575760405162461bcd60e51b81526004016101cb9061090e565b6000600254116103795760405162461bcd60e51b81526004016101cb90610981565b6001546103985760405162461bcd60e51b81526004016101cb90610a4b565b6003805460ff19166001179055565b600181815481106103b757600080fd5b60009182526020909120600390910201805460018201546002909201546001600160a01b03909116925060ff1683565b60035460ff166104095760405162461bcd60e51b81526004016101cb90610a14565b60015460025460009161041b91610ad3565b90506000811161043d5760405162461bcd60e51b81526004016101cb90610981565b6000805b60015481101561060a57336001600160a01b03166001828154811061047657634e487b7160e01b600052603260045260246000fd5b60009182526020909120600390910201546001600160a01b031614156105f85760019150600181815481106104bb57634e487b7160e01b600052603260045260246000fd5b600091825260209091206002600390920201015460ff16156104ef5760405162461bcd60e51b81526004016101cb906109e6565b6001818154811061051057634e487b7160e01b600052603260045260246000fd5b9060005260206000209060030201600101544210156105415760405162461bcd60e51b81526004016101cb90610951565b600180828154811061056357634e487b7160e01b600052603260045260246000fd5b60009182526020822060039190910201600201805460ff19169215159290921790915560405133916108fc861502918691818181858888f193505050501580156105b1573d6000803e3d6000fd5b50336001600160a01b03167f63470d7f30c22aa66a80557958389b03c1a5d7d61f31b9bd0642097d2aae3a9a846040516105eb9190610ab2565b60405180910390a261060a565b8061060281610af3565b915050610441565b50806106285760405162461bcd60e51b81526004016101cb906108cc565b5050565b6000546001600160a01b031633146106565760405162461bcd60e51b81526004016101cb90610843565b60035460ff16156106795760405162461bcd60e51b81526004016101cb9061090e565b600034116106995760405162461bcd60e51b81526004016101cb90610887565b34600260008282546106ab9190610abb565b909155505060405133907fd15c9547ea5c06670c0010ce19bc32d54682a4b3801ece7f3ab0c3f17106b4bb906106e2903490610ab2565b60405180910390a2565b6000546001600160a01b031633146107165760405162461bcd60e51b81526004016101cb90610843565b60035460ff166107385760405162461bcd60e51b81526004016101cb906109af565b47801561077857600080546040516001600160a01b039091169183156108fc02918491818181858888f19350505050158015610628573d6000803e3d6000fd5b50565b60025481565b60035460ff1681565b6000806040838503121561079c578182fd5b82356001600160a01b03811681146107b2578283fd5b946020939093013593505050565b6000602082840312156107d1578081fd5b5035919050565b6001600160a01b0391909116815260200190565b6001600160a01b0393909316835260208301919091521515604082015260600190565b901515815260200190565b6020808252600f908201526e496e76616c6964206164647265737360881b604082015260600190565b60208082526024908201527f4f6e6c79206772616e646d612063616e20706572666f726d20746869732061636040820152633a34b7b760e11b606082015260800190565b60208082526025908201527f4465706f73697420616d6f756e74206d75737420626520677265617465722074604082015264068616e20360dc1b606082015260800190565b60208082526022908201527f4f6e6c79206772616e646368696c6472656e2063616e20636c61696d20676966604082015261747360f01b606082015260800190565b60208082526023908201527f4769667473206861766520616c7265616479206265656e2064697374726962756040820152621d195960ea1b606082015260800190565b60208082526016908201527547696674206e6f742079657420617661696c61626c6560501b604082015260600190565b6020808252601490820152734e6f206465706f73697420617661696c61626c6560601b604082015260600190565b6020808252601f908201527f4769667473206d75737420626520646973747269627574656420666972737400604082015260600190565b60208082526014908201527311da599d08185b1c9958591e4818db185a5b595960621b604082015260600190565b6020808252601b908201527f476966747320617265206e6f742079657420617661696c61626c650000000000604082015260600190565b602080825260169082015275139bc819dc985b9918da1a5b191c995b88185919195960521b604082015260600190565b6020808252601a908201527f496e76616c69642062697274686461792074696d657374616d70000000000000604082015260600190565b90815260200190565b60008219821115610ace57610ace610b0e565b500190565b600082610aee57634e487b7160e01b81526012600452602481fd5b500490565b6000600019821415610b0757610b07610b0e565b5060010190565b634e487b7160e01b600052601160045260246000fdfea2646970667358221220d78967989789a9ccdfd0cb16b2cc514852a96d844d6006badf3f619a29695f4564736f6c63430008000033",
					"opcodes": "PUSH1 0x80 PUSH1 0x40 MSTORE CALLVALUE DUP1 ISZERO PUSH2 0x10 JUMPI PUSH1 0x0 DUP1 REVERT JUMPDEST POP PUSH1 0x0 DUP1 SLOAD PUSH1 0x1 PUSH1 0x1 PUSH1 0xA0 SHL SUB NOT AND CALLER OR SWAP1 SSTORE PUSH2 0xB5A DUP1 PUSH2 0x32 PUSH1 0x0 CODECOPY PUSH1 0x0 RETURN INVALID PUSH1 0x80 PUSH1 0x40 MSTORE PUSH1 0x4 CALLDATASIZE LT PUSH2 0x86 JUMPI PUSH1 0x0 CALLDATALOAD PUSH1 0xE0 SHR DUP1 PUSH4 0x8F7C8D10 GT PUSH2 0x59 JUMPI DUP1 PUSH4 0x8F7C8D10 EQ PUSH2 0x11C JUMPI DUP1 PUSH4 0xD0E30DB0 EQ PUSH2 0x131 JUMPI DUP1 PUSH4 0xEE38DB95 EQ PUSH2 0x139 JUMPI DUP1 PUSH4 0xF6153CCD EQ PUSH2 0x14E JUMPI DUP1 PUSH4 0xF677CF0D EQ PUSH2 0x170 JUMPI PUSH2 0x86 JUMP JUMPDEST DUP1 PUSH4 0x1CCE010 EQ PUSH2 0x8B JUMPI DUP1 PUSH4 0x135F4930 EQ PUSH2 0xB6 JUMPI DUP1 PUSH4 0x15DEB623 EQ PUSH2 0xD8 JUMPI DUP1 PUSH4 0x4746EB7C EQ PUSH2 0xED JUMPI JUMPDEST PUSH1 0x0 DUP1 REVERT JUMPDEST CALLVALUE DUP1 ISZERO PUSH2 0x97 JUMPI PUSH1 0x0 DUP1 REVERT JUMPDEST POP PUSH2 0xA0 PUSH2 0x192 JUMP JUMPDEST PUSH1 0x40 MLOAD PUSH2 0xAD SWAP2 SWAP1 PUSH2 0x7D8 JUMP JUMPDEST PUSH1 0x40 MLOAD DUP1 SWAP2 SUB SWAP1 RETURN JUMPDEST CALLVALUE DUP1 ISZERO PUSH2 0xC2 JUMPI PUSH1 0x0 DUP1 REVERT JUMPDEST POP PUSH2 0xD6 PUSH2 0xD1 CALLDATASIZE PUSH1 0x4 PUSH2 0x78A JUMP JUMPDEST PUSH2 0x1A1 JUMP JUMPDEST STOP JUMPDEST CALLVALUE DUP1 ISZERO PUSH2 0xE4 JUMPI PUSH1 0x0 DUP1 REVERT JUMPDEST POP PUSH2 0xD6 PUSH2 0x30A JUMP JUMPDEST CALLVALUE DUP1 ISZERO PUSH2 0xF9 JUMPI PUSH1 0x0 DUP1 REVERT JUMPDEST POP PUSH2 0x10D PUSH2 0x108 CALLDATASIZE PUSH1 0x4 PUSH2 0x7C0 JUMP JUMPDEST PUSH2 0x3A7 JUMP JUMPDEST PUSH1 0x40 MLOAD PUSH2 0xAD SWAP4 SWAP3 SWAP2 SWAP1 PUSH2 0x7EC JUMP JUMPDEST CALLVALUE DUP1 ISZERO PUSH2 0x128 JUMPI PUSH1 0x0 DUP1 REVERT JUMPDEST POP PUSH2 0xD6 PUSH2 0x3E7 JUMP JUMPDEST PUSH2 0xD6 PUSH2 0x62C JUMP JUMPDEST CALLVALUE DUP1 ISZERO PUSH2 0x145 JUMPI PUSH1 0x0 DUP1 REVERT JUMPDEST POP PUSH2 0xD6 PUSH2 0x6EC JUMP JUMPDEST CALLVALUE DUP1 ISZERO PUSH2 0x15A JUMPI PUSH1 0x0 DUP1 REVERT JUMPDEST POP PUSH2 0x163 PUSH2 0x77B JUMP JUMPDEST PUSH1 0x40 MLOAD PUSH2 0xAD SWAP2 SWAP1 PUSH2 0xAB2 JUMP JUMPDEST CALLVALUE DUP1 ISZERO PUSH2 0x17C JUMPI PUSH1 0x0 DUP1 REVERT JUMPDEST POP PUSH2 0x185 PUSH2 0x781 JUMP JUMPDEST PUSH1 0x40 MLOAD PUSH2 0xAD SWAP2 SWAP1 PUSH2 0x80F JUMP JUMPDEST PUSH1 0x0 SLOAD PUSH1 0x1 PUSH1 0x1 PUSH1 0xA0 SHL SUB AND DUP2 JUMP JUMPDEST PUSH1 0x0 SLOAD PUSH1 0x1 PUSH1 0x1 PUSH1 0xA0 SHL SUB AND CALLER EQ PUSH2 0x1D4 JUMPI PUSH1 0x40 MLOAD PUSH3 0x461BCD PUSH1 0xE5 SHL DUP2 MSTORE PUSH1 0x4 ADD PUSH2 0x1CB SWAP1 PUSH2 0x843 JUMP JUMPDEST PUSH1 0x40 MLOAD DUP1 SWAP2 SUB SWAP1 REVERT JUMPDEST PUSH1 0x3 SLOAD PUSH1 0xFF AND ISZERO PUSH2 0x1F7 JUMPI PUSH1 0x40 MLOAD PUSH3 0x461BCD PUSH1 0xE5 SHL DUP2 MSTORE PUSH1 0x4 ADD PUSH2 0x1CB SWAP1 PUSH2 0x90E JUMP JUMPDEST PUSH1 0x1 PUSH1 0x1 PUSH1 0xA0 SHL SUB DUP3 AND PUSH2 0x21D JUMPI PUSH1 0x40 MLOAD PUSH3 0x461BCD PUSH1 0xE5 SHL DUP2 MSTORE PUSH1 0x4 ADD PUSH2 0x1CB SWAP1 PUSH2 0x81A JUMP JUMPDEST PUSH1 0x0 DUP2 GT PUSH2 0x23D JUMPI PUSH1 0x40 MLOAD PUSH3 0x461BCD PUSH1 0xE5 SHL DUP2 MSTORE PUSH1 0x4 ADD PUSH2 0x1CB SWAP1 PUSH2 0xA7B JUMP JUMPDEST PUSH1 0x40 DUP1 MLOAD PUSH1 0x60 DUP2 ADD DUP3 MSTORE PUSH1 0x1 PUSH1 0x1 PUSH1 0xA0 SHL SUB SWAP4 DUP5 AND DUP2 MSTORE PUSH1 0x20 DUP2 ADD SWAP3 DUP4 MSTORE PUSH1 0x0 SWAP2 DUP2 ADD DUP3 DUP2 MSTORE PUSH1 0x1 DUP1 SLOAD DUP1 DUP3 ADD DUP3 SSTORE SWAP4 MSTORE SWAP1 MLOAD PUSH32 0xB10E2D527612073B26EECDFD717E6A320CF44B4AFAC2B0732D9FCBE2B7FA0CF6 PUSH1 0x3 SWAP1 SWAP4 MUL SWAP3 DUP4 ADD DUP1 SLOAD PUSH1 0x1 PUSH1 0x1 PUSH1 0xA0 SHL SUB NOT AND SWAP2 SWAP1 SWAP6 AND OR SWAP1 SWAP4 SSTORE SWAP1 MLOAD PUSH32 0xB10E2D527612073B26EECDFD717E6A320CF44B4AFAC2B0732D9FCBE2B7FA0CF7 DUP3 ADD SSTORE SWAP1 MLOAD PUSH32 0xB10E2D527612073B26EECDFD717E6A320CF44B4AFAC2B0732D9FCBE2B7FA0CF8 SWAP1 SWAP2 ADD DUP1 SLOAD PUSH1 0xFF NOT AND SWAP2 ISZERO ISZERO SWAP2 SWAP1 SWAP2 OR SWAP1 SSTORE JUMP JUMPDEST PUSH1 0x0 SLOAD PUSH1 0x1 PUSH1 0x1 PUSH1 0xA0 SHL SUB AND CALLER EQ PUSH2 0x334 JUMPI PUSH1 0x40 MLOAD PUSH3 0x461BCD PUSH1 0xE5 SHL DUP2 MSTORE PUSH1 0x4 ADD PUSH2 0x1CB SWAP1 PUSH2 0x843 JUMP JUMPDEST PUSH1 0x3 SLOAD PUSH1 0xFF AND ISZERO PUSH2 0x357 JUMPI PUSH1 0x40 MLOAD PUSH3 0x461BCD PUSH1 0xE5 SHL DUP2 MSTORE PUSH1 0x4 ADD PUSH2 0x1CB SWAP1 PUSH2 0x90E JUMP JUMPDEST PUSH1 0x0 PUSH1 0x2 SLOAD GT PUSH2 0x379 JUMPI PUSH1 0x40 MLOAD PUSH3 0x461BCD PUSH1 0xE5 SHL DUP2 MSTORE PUSH1 0x4 ADD PUSH2 0x1CB SWAP1 PUSH2 0x981 JUMP JUMPDEST PUSH1 0x1 SLOAD PUSH2 0x398 JUMPI PUSH1 0x40 MLOAD PUSH3 0x461BCD PUSH1 0xE5 SHL DUP2 MSTORE PUSH1 0x4 ADD PUSH2 0x1CB SWAP1 PUSH2 0xA4B JUMP JUMPDEST PUSH1 0x3 DUP1 SLOAD PUSH1 0xFF NOT AND PUSH1 0x1 OR SWAP1 SSTORE JUMP JUMPDEST PUSH1 0x1 DUP2 DUP2 SLOAD DUP2 LT PUSH2 0x3B7 JUMPI PUSH1 0x0 DUP1 REVERT JUMPDEST PUSH1 0x0 SWAP2 DUP3 MSTORE PUSH1 0x20 SWAP1 SWAP2 KECCAK256 PUSH1 0x3 SWAP1 SWAP2 MUL ADD DUP1 SLOAD PUSH1 0x1 DUP3 ADD SLOAD PUSH1 0x2 SWAP1 SWAP3 ADD SLOAD PUSH1 0x1 PUSH1 0x1 PUSH1 0xA0 SHL SUB SWAP1 SWAP2 AND SWAP3 POP PUSH1 0xFF AND DUP4 JUMP JUMPDEST PUSH1 0x3 SLOAD PUSH1 0xFF AND PUSH2 0x409 JUMPI PUSH1 0x40 MLOAD PUSH3 0x461BCD PUSH1 0xE5 SHL DUP2 MSTORE PUSH1 0x4 ADD PUSH2 0x1CB SWAP1 PUSH2 0xA14 JUMP JUMPDEST PUSH1 0x1 SLOAD PUSH1 0x2 SLOAD PUSH1 0x0 SWAP2 PUSH2 0x41B SWAP2 PUSH2 0xAD3 JUMP JUMPDEST SWAP1 POP PUSH1 0x0 DUP2 GT PUSH2 0x43D JUMPI PUSH1 0x40 MLOAD PUSH3 0x461BCD PUSH1 0xE5 SHL DUP2 MSTORE PUSH1 0x4 ADD PUSH2 0x1CB SWAP1 PUSH2 0x981 JUMP JUMPDEST PUSH1 0x0 DUP1 JUMPDEST PUSH1 0x1 SLOAD DUP2 LT ISZERO PUSH2 0x60A JUMPI CALLER PUSH1 0x1 PUSH1 0x1 PUSH1 0xA0 SHL SUB AND PUSH1 0x1 DUP3 DUP2 SLOAD DUP2 LT PUSH2 0x476 JUMPI PUSH4 0x4E487B71 PUSH1 0xE0 SHL PUSH1 0x0 MSTORE PUSH1 0x32 PUSH1 0x4 MSTORE PUSH1 0x24 PUSH1 0x0 REVERT JUMPDEST PUSH1 0x0 SWAP2 DUP3 MSTORE PUSH1 0x20 SWAP1 SWAP2 KECCAK256 PUSH1 0x3 SWAP1 SWAP2 MUL ADD SLOAD PUSH1 0x1 PUSH1 0x1 PUSH1 0xA0 SHL SUB AND EQ ISZERO PUSH2 0x5F8 JUMPI PUSH1 0x1 SWAP2 POP PUSH1 0x1 DUP2 DUP2 SLOAD DUP2 LT PUSH2 0x4BB JUMPI PUSH4 0x4E487B71 PUSH1 0xE0 SHL PUSH1 0x0 MSTORE PUSH1 0x32 PUSH1 0x4 MSTORE PUSH1 0x24 PUSH1 0x0 REVERT JUMPDEST PUSH1 0x0 SWAP2 DUP3 MSTORE PUSH1 0x20 SWAP1 SWAP2 KECCAK256 PUSH1 0x2 PUSH1 0x3 SWAP1 SWAP3 MUL ADD ADD SLOAD PUSH1 0xFF AND ISZERO PUSH2 0x4EF JUMPI PUSH1 0x40 MLOAD PUSH3 0x461BCD PUSH1 0xE5 SHL DUP2 MSTORE PUSH1 0x4 ADD PUSH2 0x1CB SWAP1 PUSH2 0x9E6 JUMP JUMPDEST PUSH1 0x1 DUP2 DUP2 SLOAD DUP2 LT PUSH2 0x510 JUMPI PUSH4 0x4E487B71 PUSH1 0xE0 SHL PUSH1 0x0 MSTORE PUSH1 0x32 PUSH1 0x4 MSTORE PUSH1 0x24 PUSH1 0x0 REVERT JUMPDEST SWAP1 PUSH1 0x0 MSTORE PUSH1 0x20 PUSH1 0x0 KECCAK256 SWAP1 PUSH1 0x3 MUL ADD PUSH1 0x1 ADD SLOAD TIMESTAMP LT ISZERO PUSH2 0x541 JUMPI PUSH1 0x40 MLOAD PUSH3 0x461BCD PUSH1 0xE5 SHL DUP2 MSTORE PUSH1 0x4 ADD PUSH2 0x1CB SWAP1 PUSH2 0x951 JUMP JUMPDEST PUSH1 0x1 DUP1 DUP3 DUP2 SLOAD DUP2 LT PUSH2 0x563 JUMPI PUSH4 0x4E487B71 PUSH1 0xE0 SHL PUSH1 0x0 MSTORE PUSH1 0x32 PUSH1 0x4 MSTORE PUSH1 0x24 PUSH1 0x0 REVERT JUMPDEST PUSH1 0x0 SWAP2 DUP3 MSTORE PUSH1 0x20 DUP3 KECCAK256 PUSH1 0x3 SWAP2 SWAP1 SWAP2 MUL ADD PUSH1 0x2 ADD DUP1 SLOAD PUSH1 0xFF NOT AND SWAP3 ISZERO ISZERO SWAP3 SWAP1 SWAP3 OR SWAP1 SWAP2 SSTORE PUSH1 0x40 MLOAD CALLER SWAP2 PUSH2 0x8FC DUP7 ISZERO MUL SWAP2 DUP7 SWAP2 DUP2 DUP2 DUP2 DUP6 DUP9 DUP9 CALL SWAP4 POP POP POP POP ISZERO DUP1 ISZERO PUSH2 0x5B1 JUMPI RETURNDATASIZE PUSH1 0x0 DUP1 RETURNDATACOPY RETURNDATASIZE PUSH1 0x0 REVERT JUMPDEST POP CALLER PUSH1 0x1 PUSH1 0x1 PUSH1 0xA0 SHL SUB AND PUSH32 0x63470D7F30C22AA66A80557958389B03C1A5D7D61F31B9BD0642097D2AAE3A9A DUP5 PUSH1 0x40 MLOAD PUSH2 0x5EB SWAP2 SWAP1 PUSH2 0xAB2 JUMP JUMPDEST PUSH1 0x40 MLOAD DUP1 SWAP2 SUB SWAP1 LOG2 PUSH2 0x60A JUMP JUMPDEST DUP1 PUSH2 0x602 DUP2 PUSH2 0xAF3 JUMP JUMPDEST SWAP2 POP POP PUSH2 0x441 JUMP JUMPDEST POP DUP1 PUSH2 0x628 JUMPI PUSH1 0x40 MLOAD PUSH3 0x461BCD PUSH1 0xE5 SHL DUP2 MSTORE PUSH1 0x4 ADD PUSH2 0x1CB SWAP1 PUSH2 0x8CC JUMP JUMPDEST POP POP JUMP JUMPDEST PUSH1 0x0 SLOAD PUSH1 0x1 PUSH1 0x1 PUSH1 0xA0 SHL SUB AND CALLER EQ PUSH2 0x656 JUMPI PUSH1 0x40 MLOAD PUSH3 0x461BCD PUSH1 0xE5 SHL DUP2 MSTORE PUSH1 0x4 ADD PUSH2 0x1CB SWAP1 PUSH2 0x843 JUMP JUMPDEST PUSH1 0x3 SLOAD PUSH1 0xFF AND ISZERO PUSH2 0x679 JUMPI PUSH1 0x40 MLOAD PUSH3 0x461BCD PUSH1 0xE5 SHL DUP2 MSTORE PUSH1 0x4 ADD PUSH2 0x1CB SWAP1 PUSH2 0x90E JUMP JUMPDEST PUSH1 0x0 CALLVALUE GT PUSH2 0x699 JUMPI PUSH1 0x40 MLOAD PUSH3 0x461BCD PUSH1 0xE5 SHL DUP2 MSTORE PUSH1 0x4 ADD PUSH2 0x1CB SWAP1 PUSH2 0x887 JUMP JUMPDEST CALLVALUE PUSH1 0x2 PUSH1 0x0 DUP3 DUP3 SLOAD PUSH2 0x6AB SWAP2 SWAP1 PUSH2 0xABB JUMP JUMPDEST SWAP1 SWAP2 SSTORE POP POP PUSH1 0x40 MLOAD CALLER SWAP1 PUSH32 0xD15C9547EA5C06670C0010CE19BC32D54682A4B3801ECE7F3AB0C3F17106B4BB SWAP1 PUSH2 0x6E2 SWAP1 CALLVALUE SWAP1 PUSH2 0xAB2 JUMP JUMPDEST PUSH1 0x40 MLOAD DUP1 SWAP2 SUB SWAP1 LOG2 JUMP JUMPDEST PUSH1 0x0 SLOAD PUSH1 0x1 PUSH1 0x1 PUSH1 0xA0 SHL SUB AND CALLER EQ PUSH2 0x716 JUMPI PUSH1 0x40 MLOAD PUSH3 0x461BCD PUSH1 0xE5 SHL DUP2 MSTORE PUSH1 0x4 ADD PUSH2 0x1CB SWAP1 PUSH2 0x843 JUMP JUMPDEST PUSH1 0x3 SLOAD PUSH1 0xFF AND PUSH2 0x738 JUMPI PUSH1 0x40 MLOAD PUSH3 0x461BCD PUSH1 0xE5 SHL DUP2 MSTORE PUSH1 0x4 ADD PUSH2 0x1CB SWAP1 PUSH2 0x9AF JUMP JUMPDEST SELFBALANCE DUP1 ISZERO PUSH2 0x778 JUMPI PUSH1 0x0 DUP1 SLOAD PUSH1 0x40 MLOAD PUSH1 0x1 PUSH1 0x1 PUSH1 0xA0 SHL SUB SWAP1 SWAP2 AND SWAP2 DUP4 ISZERO PUSH2 0x8FC MUL SWAP2 DUP5 SWAP2 DUP2 DUP2 DUP2 DUP6 DUP9 DUP9 CALL SWAP4 POP POP POP POP ISZERO DUP1 ISZERO PUSH2 0x628 JUMPI RETURNDATASIZE PUSH1 0x0 DUP1 RETURNDATACOPY RETURNDATASIZE PUSH1 0x0 REVERT JUMPDEST POP JUMP JUMPDEST PUSH1 0x2 SLOAD DUP2 JUMP JUMPDEST PUSH1 0x3 SLOAD PUSH1 0xFF AND DUP2 JUMP JUMPDEST PUSH1 0x0 DUP1 PUSH1 0x40 DUP4 DUP6 SUB SLT ISZERO PUSH2 0x79C JUMPI DUP2 DUP3 REVERT JUMPDEST DUP3 CALLDATALOAD PUSH1 0x1 PUSH1 0x1 PUSH1 0xA0 SHL SUB DUP2 AND DUP2 EQ PUSH2 0x7B2 JUMPI DUP3 DUP4 REVERT JUMPDEST SWAP5 PUSH1 0x20 SWAP4 SWAP1 SWAP4 ADD CALLDATALOAD SWAP4 POP POP POP JUMP JUMPDEST PUSH1 0x0 PUSH1 0x20 DUP3 DUP5 SUB SLT ISZERO PUSH2 0x7D1 JUMPI DUP1 DUP2 REVERT JUMPDEST POP CALLDATALOAD SWAP2 SWAP1 POP JUMP JUMPDEST PUSH1 0x1 PUSH1 0x1 PUSH1 0xA0 SHL SUB SWAP2 SWAP1 SWAP2 AND DUP2 MSTORE PUSH1 0x20 ADD SWAP1 JUMP JUMPDEST PUSH1 0x1 PUSH1 0x1 PUSH1 0xA0 SHL SUB SWAP4 SWAP1 SWAP4 AND DUP4 MSTORE PUSH1 0x20 DUP4 ADD SWAP2 SWAP1 SWAP2 MSTORE ISZERO ISZERO PUSH1 0x40 DUP3 ADD MSTORE PUSH1 0x60 ADD SWAP1 JUMP JUMPDEST SWAP1 ISZERO ISZERO DUP2 MSTORE PUSH1 0x20 ADD SWAP1 JUMP JUMPDEST PUSH1 0x20 DUP1 DUP3 MSTORE PUSH1 0xF SWAP1 DUP3 ADD MSTORE PUSH15 0x496E76616C69642061646472657373 PUSH1 0x88 SHL PUSH1 0x40 DUP3 ADD MSTORE PUSH1 0x60 ADD SWAP1 JUMP JUMPDEST PUSH1 0x20 DUP1 DUP3 MSTORE PUSH1 0x24 SWAP1 DUP3 ADD MSTORE PUSH32 0x4F6E6C79206772616E646D612063616E20706572666F726D2074686973206163 PUSH1 0x40 DUP3 ADD MSTORE PUSH4 0x3A34B7B7 PUSH1 0xE1 SHL PUSH1 0x60 DUP3 ADD MSTORE PUSH1 0x80 ADD SWAP1 JUMP JUMPDEST PUSH1 0x20 DUP1 DUP3 MSTORE PUSH1 0x25 SWAP1 DUP3 ADD MSTORE PUSH32 0x4465706F73697420616D6F756E74206D75737420626520677265617465722074 PUSH1 0x40 DUP3 ADD MSTORE PUSH5 0x68616E203 PUSH1 0xDC SHL PUSH1 0x60 DUP3 ADD MSTORE PUSH1 0x80 ADD SWAP1 JUMP JUMPDEST PUSH1 0x20 DUP1 DUP3 MSTORE PUSH1 0x22 SWAP1 DUP3 ADD MSTORE PUSH32 0x4F6E6C79206772616E646368696C6472656E2063616E20636C61696D20676966 PUSH1 0x40 DUP3 ADD MSTORE PUSH2 0x7473 PUSH1 0xF0 SHL PUSH1 0x60 DUP3 ADD MSTORE PUSH1 0x80 ADD SWAP1 JUMP JUMPDEST PUSH1 0x20 DUP1 DUP3 MSTORE PUSH1 0x23 SWAP1 DUP3 ADD MSTORE PUSH32 0x4769667473206861766520616C7265616479206265656E206469737472696275 PUSH1 0x40 DUP3 ADD MSTORE PUSH3 0x1D1959 PUSH1 0xEA SHL PUSH1 0x60 DUP3 ADD MSTORE PUSH1 0x80 ADD SWAP1 JUMP JUMPDEST PUSH1 0x20 DUP1 DUP3 MSTORE PUSH1 0x16 SWAP1 DUP3 ADD MSTORE PUSH22 0x47696674206E6F742079657420617661696C61626C65 PUSH1 0x50 SHL PUSH1 0x40 DUP3 ADD MSTORE PUSH1 0x60 ADD SWAP1 JUMP JUMPDEST PUSH1 0x20 DUP1 DUP3 MSTORE PUSH1 0x14 SWAP1 DUP3 ADD MSTORE PUSH20 0x4E6F206465706F73697420617661696C61626C65 PUSH1 0x60 SHL PUSH1 0x40 DUP3 ADD MSTORE PUSH1 0x60 ADD SWAP1 JUMP JUMPDEST PUSH1 0x20 DUP1 DUP3 MSTORE PUSH1 0x1F SWAP1 DUP3 ADD MSTORE PUSH32 0x4769667473206D75737420626520646973747269627574656420666972737400 PUSH1 0x40 DUP3 ADD MSTORE PUSH1 0x60 ADD SWAP1 JUMP JUMPDEST PUSH1 0x20 DUP1 DUP3 MSTORE PUSH1 0x14 SWAP1 DUP3 ADD MSTORE PUSH20 0x11DA599D08185B1C9958591E4818DB185A5B5959 PUSH1 0x62 SHL PUSH1 0x40 DUP3 ADD MSTORE PUSH1 0x60 ADD SWAP1 JUMP JUMPDEST PUSH1 0x20 DUP1 DUP3 MSTORE PUSH1 0x1B SWAP1 DUP3 ADD MSTORE PUSH32 0x476966747320617265206E6F742079657420617661696C61626C650000000000 PUSH1 0x40 DUP3 ADD MSTORE PUSH1 0x60 ADD SWAP1 JUMP JUMPDEST PUSH1 0x20 DUP1 DUP3 MSTORE PUSH1 0x16 SWAP1 DUP3 ADD MSTORE PUSH22 0x139BC819DC985B9918DA1A5B191C995B881859191959 PUSH1 0x52 SHL PUSH1 0x40 DUP3 ADD MSTORE PUSH1 0x60 ADD SWAP1 JUMP JUMPDEST PUSH1 0x20 DUP1 DUP3 MSTORE PUSH1 0x1A SWAP1 DUP3 ADD MSTORE PUSH32 0x496E76616C69642062697274686461792074696D657374616D70000000000000 PUSH1 0x40 DUP3 ADD MSTORE PUSH1 0x60 ADD SWAP1 JUMP JUMPDEST SWAP1 DUP2 MSTORE PUSH1 0x20 ADD SWAP1 JUMP JUMPDEST PUSH1 0x0 DUP3 NOT DUP3 GT ISZERO PUSH2 0xACE JUMPI PUSH2 0xACE PUSH2 0xB0E JUMP JUMPDEST POP ADD SWAP1 JUMP JUMPDEST PUSH1 0x0 DUP3 PUSH2 0xAEE JUMPI PUSH4 0x4E487B71 PUSH1 0xE0 SHL DUP2 MSTORE PUSH1 0x12 PUSH1 0x4 MSTORE PUSH1 0x24 DUP2 REVERT JUMPDEST POP DIV SWAP1 JUMP JUMPDEST PUSH1 0x0 PUSH1 0x0 NOT DUP3 EQ ISZERO PUSH2 0xB07 JUMPI PUSH2 0xB07 PUSH2 0xB0E JUMP JUMPDEST POP PUSH1 0x1 ADD SWAP1 JUMP JUMPDEST PUSH4 0x4E487B71 PUSH1 0xE0 SHL PUSH1 0x0 MSTORE PUSH1 0x11 PUSH1 0x4 MSTORE PUSH1 0x24 PUSH1 0x0 REVERT INVALID LOG2 PUSH5 0x6970667358 0x22 SLT KECCAK256 0xD7 DUP10 PUSH8 0x989789A9CCDFD0CB AND 0xB2 0xCC MLOAD 0x48 MSTORE 0xA9 PUSH14 0x844D6006BADF3F619A29695F4564 PUSH20 0x6F6C634300080000330000000000000000000000 "
				},
				"gasEstimates": {
					"creation": {
						"codeDepositCost": "581200",
						"executionCost": "21448",
						"totalCost": "602648"
					},
					"external": {
						"addGrandchild(address,uint256)": "84710",
						"claimGift()": "infinite",
						"deposit()": "24196",
						"distributeGifts()": "24319",
						"grandchildren(uint256)": "3806",
						"grandma()": "1071",
						"isDistributed()": "1128",
						"totalDeposit()": "1094",
						"withdrawRemaining()": "infinite"
					}
				},
				"methodIdentifiers": {
					"addGrandchild(address,uint256)": "135f4930",
					"claimGift()": "8f7c8d10",
					"deposit()": "d0e30db0",
					"distributeGifts()": "15deb623",
					"grandchildren(uint256)": "4746eb7c",
					"grandma()": "01cce010",
					"isDistributed()": "f677cf0d",
					"totalDeposit()": "f6153ccd",
					"withdrawRemaining()": "ee38db95"
				}
			},
			"storageLayout": {
				"storage": [
					{
						"astId": 3,
						"contract": "contracts/HomeWork_2/GrandmaETH.sol:GrandmaETH",
						"label": "grandma",
						"offset": 0,
						"slot": "0",
						"type": "t_address"
					},
					{
						"astId": 14,
						"contract": "contracts/HomeWork_2/GrandmaETH.sol:GrandmaETH",
						"label": "grandchildren",
						"offset": 0,
						"slot": "1",
						"type": "t_array(t_struct(Grandchild)10_storage)dyn_storage"
					},
					{
						"astId": 16,
						"contract": "contracts/HomeWork_2/GrandmaETH.sol:GrandmaETH",
						"label": "totalDeposit",
						"offset": 0,
						"slot": "2",
						"type": "t_uint256"
					},
					{
						"astId": 18,
						"contract": "contracts/HomeWork_2/GrandmaETH.sol:GrandmaETH",
						"label": "isDistributed",
						"offset": 0,
						"slot": "3",
						"type": "t_bool"
					}
				],
				"types": {
					"t_address": {
						"encoding": "inplace",
						"label": "address",
						"numberOfBytes": "20"
					},
					"t_address_payable": {
						"encoding": "inplace",
						"label": "address payable",
						"numberOfBytes": "20"
					},
					"t_array(t_struct(Grandchild)10_storage)dyn_storage": {
						"base": "t_struct(Grandchild)10_storage",
						"encoding": "dynamic_array",
						"label": "struct GrandmaETH.Grandchild[]",
						"numberOfBytes": "32"
					},
					"t_bool": {
						"encoding": "inplace",
						"label": "bool",
						"numberOfBytes": "1"
					},
					"t_struct(Grandchild)10_storage": {
						"encoding": "inplace",
						"label": "struct GrandmaETH.Grandchild",
						"members": [
							{
								"astId": 5,
								"contract": "contracts/HomeWork_2/GrandmaETH.sol:GrandmaETH",
								"label": "wallet",
								"offset": 0,
								"slot": "0",
								"type": "t_address_payable"
							},
							{
								"astId": 7,
								"contract": "contracts/HomeWork_2/GrandmaETH.sol:GrandmaETH",
								"label": "birthdayTimestamp",
								"offset": 0,
								"slot": "1",
								"type": "t_uint256"
							},
							{
								"astId": 9,
								"contract": "contracts/HomeWork_2/GrandmaETH.sol:GrandmaETH",
								"label": "hasClaimed",
								"offset": 0,
								"slot": "2",
								"type": "t_bool"
							}
						],
						"numberOfBytes": "96"
					},
					"t_uint256": {
						"encoding": "inplace",
						"label": "uint256",
						"numberOfBytes": "32"
					}
				}
			},
			"userdoc": {
				"kind": "user",
				"methods": {},
				"version": 1
			}
		}
	}
}