{
	"data": {
		"bytecode": {
			"linkReferences": {
				"libs/HomeWork_libs2/ArrayLibrary.sol": {
					"ArrayLibrary": [
						{
							"length": 20,
							"start": 245
						}
					]
				}
			},
			"object": "608060405234801561001057600080fd5b5061062f806100206000396000f3fe608060405234801561001057600080fd5b50600436106100415760003560e01c80634d533b2114610046578063573ba9df1461006f5780638fe34aed1461008f575b600080fd5b610059610054366004610478565b6100a2565b60405161006691906104ff565b60405180910390f35b61008261007d366004610478565b6100b7565b60405161006691906104bb565b61008261009d3660046103ad565b6100c3565b60006100ae8383610151565b90505b92915050565b60606100ae83836101b1565b604051634f64581360e11b815260609073__$3ee55e5e92ea25abab26629946380429a0$__90639ec8b026906100fd9085906004016104bb565b60006040518083038186803b15801561011557600080fd5b505af4158015610129573d6000803e3d6000fd5b505050506040513d6000823e601f3d908101601f191682016040526100b191908101906103e8565b6000805b83518110156101a6578284828151811061017f57634e487b7160e01b600052603260045260246000fd5b602002602001015114156101945790506100b1565b8061019e816105b2565b915050610155565b506000199392505050565b6060825182106101dc5760405162461bcd60e51b81526004016101d390610508565b60405180910390fd5b6000600184516101ec919061059b565b67ffffffffffffffff81111561021257634e487b7160e01b600052604160045260246000fd5b60405190808252806020026020018201604052801561023b578160200160208202803683370190505b50905060005b838110156102ae5784818151811061026957634e487b7160e01b600052603260045260246000fd5b602002602001015182828151811061029157634e487b7160e01b600052603260045260246000fd5b6020908102919091010152806102a6816105b2565b915050610241565b5060006102bc846001610583565b90505b8451811015610339578481815181106102e857634e487b7160e01b600052603260045260246000fd5b6020026020010151826001836102fe919061059b565b8151811061031c57634e487b7160e01b600052603260045260246000fd5b602090810291909101015280610331816105b2565b9150506102bf565b509392505050565b600082601f830112610351578081fd5b813560206103666103618361055f565b610535565b8281528181019085830183850287018401881015610382578586fd5b855b858110156103a057813584529284019290840190600101610384565b5090979650505050505050565b6000602082840312156103be578081fd5b813567ffffffffffffffff8111156103d4578182fd5b6103e084828501610341565b949350505050565b600060208083850312156103fa578182fd5b825167ffffffffffffffff811115610410578283fd5b8301601f81018513610420578283fd5b805161042e6103618261055f565b818152838101908385018584028501860189101561044a578687fd5b8694505b8385101561046c57805183526001949094019391850191850161044e565b50979650505050505050565b6000806040838503121561048a578081fd5b823567ffffffffffffffff8111156104a0578182fd5b6104ac85828601610341565b95602094909401359450505050565b6020808252825182820181905260009190848201906040850190845b818110156104f3578351835292840192918401916001016104d7565b50909695505050505050565b90815260200190565b602080825260139082015272496e646578206f7574206f6620626f756e647360681b604082015260600190565b60405181810167ffffffffffffffff81118282101715610557576105576105e3565b604052919050565b600067ffffffffffffffff821115610579576105796105e3565b5060209081020190565b60008219821115610596576105966105cd565b500190565b6000828210156105ad576105ad6105cd565b500390565b60006000198214156105c6576105c66105cd565b5060010190565b634e487b7160e01b600052601160045260246000fd5b634e487b7160e01b600052604160045260246000fdfea264697066735822122016ec009d27bd6af15d446de570c5494af82f5775a3e0dcbd90b2e016db20e4c664736f6c63430008000033",
			"opcodes": "PUSH1 0x80 PUSH1 0x40 MSTORE CALLVALUE DUP1 ISZERO PUSH2 0x10 JUMPI PUSH1 0x0 DUP1 REVERT JUMPDEST POP PUSH2 0x62F DUP1 PUSH2 0x20 PUSH1 0x0 CODECOPY PUSH1 0x0 RETURN INVALID PUSH1 0x80 PUSH1 0x40 MSTORE CALLVALUE DUP1 ISZERO PUSH2 0x10 JUMPI PUSH1 0x0 DUP1 REVERT JUMPDEST POP PUSH1 0x4 CALLDATASIZE LT PUSH2 0x41 JUMPI PUSH1 0x0 CALLDATALOAD PUSH1 0xE0 SHR DUP1 PUSH4 0x4D533B21 EQ PUSH2 0x46 JUMPI DUP1 PUSH4 0x573BA9DF EQ PUSH2 0x6F JUMPI DUP1 PUSH4 0x8FE34AED EQ PUSH2 0x8F JUMPI JUMPDEST PUSH1 0x0 DUP1 REVERT JUMPDEST PUSH2 0x59 PUSH2 0x54 CALLDATASIZE PUSH1 0x4 PUSH2 0x478 JUMP JUMPDEST PUSH2 0xA2 JUMP JUMPDEST PUSH1 0x40 MLOAD PUSH2 0x66 SWAP2 SWAP1 PUSH2 0x4FF JUMP JUMPDEST PUSH1 0x40 MLOAD DUP1 SWAP2 SUB SWAP1 RETURN JUMPDEST PUSH2 0x82 PUSH2 0x7D CALLDATASIZE PUSH1 0x4 PUSH2 0x478 JUMP JUMPDEST PUSH2 0xB7 JUMP JUMPDEST PUSH1 0x40 MLOAD PUSH2 0x66 SWAP2 SWAP1 PUSH2 0x4BB JUMP JUMPDEST PUSH2 0x82 PUSH2 0x9D CALLDATASIZE PUSH1 0x4 PUSH2 0x3AD JUMP JUMPDEST PUSH2 0xC3 JUMP JUMPDEST PUSH1 0x0 PUSH2 0xAE DUP4 DUP4 PUSH2 0x151 JUMP JUMPDEST SWAP1 POP JUMPDEST SWAP3 SWAP2 POP POP JUMP JUMPDEST PUSH1 0x60 PUSH2 0xAE DUP4 DUP4 PUSH2 0x1B1 JUMP JUMPDEST PUSH1 0x40 MLOAD PUSH4 0x4F645813 PUSH1 0xE1 SHL DUP2 MSTORE PUSH1 0x60 SWAP1 PUSH20 0x0 SWAP1 PUSH4 0x9EC8B026 SWAP1 PUSH2 0xFD SWAP1 DUP6 SWAP1 PUSH1 0x4 ADD PUSH2 0x4BB JUMP JUMPDEST PUSH1 0x0 PUSH1 0x40 MLOAD DUP1 DUP4 SUB DUP2 DUP7 DUP1 EXTCODESIZE ISZERO DUP1 ISZERO PUSH2 0x115 JUMPI PUSH1 0x0 DUP1 REVERT JUMPDEST POP GAS DELEGATECALL ISZERO DUP1 ISZERO PUSH2 0x129 JUMPI RETURNDATASIZE PUSH1 0x0 DUP1 RETURNDATACOPY RETURNDATASIZE PUSH1 0x0 REVERT JUMPDEST POP POP POP POP PUSH1 0x40 MLOAD RETURNDATASIZE PUSH1 0x0 DUP3 RETURNDATACOPY PUSH1 0x1F RETURNDATASIZE SWAP1 DUP2 ADD PUSH1 0x1F NOT AND DUP3 ADD PUSH1 0x40 MSTORE PUSH2 0xB1 SWAP2 SWAP1 DUP2 ADD SWAP1 PUSH2 0x3E8 JUMP JUMPDEST PUSH1 0x0 DUP1 JUMPDEST DUP4 MLOAD DUP2 LT ISZERO PUSH2 0x1A6 JUMPI DUP3 DUP5 DUP3 DUP2 MLOAD DUP2 LT PUSH2 0x17F JUMPI PUSH4 0x4E487B71 PUSH1 0xE0 SHL PUSH1 0x0 MSTORE PUSH1 0x32 PUSH1 0x4 MSTORE PUSH1 0x24 PUSH1 0x0 REVERT JUMPDEST PUSH1 0x20 MUL PUSH1 0x20 ADD ADD MLOAD EQ ISZERO PUSH2 0x194 JUMPI SWAP1 POP PUSH2 0xB1 JUMP JUMPDEST DUP1 PUSH2 0x19E DUP2 PUSH2 0x5B2 JUMP JUMPDEST SWAP2 POP POP PUSH2 0x155 JUMP JUMPDEST POP PUSH1 0x0 NOT SWAP4 SWAP3 POP POP POP JUMP JUMPDEST PUSH1 0x60 DUP3 MLOAD DUP3 LT PUSH2 0x1DC JUMPI PUSH1 0x40 MLOAD PUSH3 0x461BCD PUSH1 0xE5 SHL DUP2 MSTORE PUSH1 0x4 ADD PUSH2 0x1D3 SWAP1 PUSH2 0x508 JUMP JUMPDEST PUSH1 0x40 MLOAD DUP1 SWAP2 SUB SWAP1 REVERT JUMPDEST PUSH1 0x0 PUSH1 0x1 DUP5 MLOAD PUSH2 0x1EC SWAP2 SWAP1 PUSH2 0x59B JUMP JUMPDEST PUSH8 0xFFFFFFFFFFFFFFFF DUP2 GT ISZERO PUSH2 0x212 JUMPI PUSH4 0x4E487B71 PUSH1 0xE0 SHL PUSH1 0x0 MSTORE PUSH1 0x41 PUSH1 0x4 MSTORE PUSH1 0x24 PUSH1 0x0 REVERT JUMPDEST PUSH1 0x40 MLOAD SWAP1 DUP1 DUP3 MSTORE DUP1 PUSH1 0x20 MUL PUSH1 0x20 ADD DUP3 ADD PUSH1 0x40 MSTORE DUP1 ISZERO PUSH2 0x23B JUMPI DUP2 PUSH1 0x20 ADD PUSH1 0x20 DUP3 MUL DUP1 CALLDATASIZE DUP4 CALLDATACOPY ADD SWAP1 POP JUMPDEST POP SWAP1 POP PUSH1 0x0 JUMPDEST DUP4 DUP2 LT ISZERO PUSH2 0x2AE JUMPI DUP5 DUP2 DUP2 MLOAD DUP2 LT PUSH2 0x269 JUMPI PUSH4 0x4E487B71 PUSH1 0xE0 SHL PUSH1 0x0 MSTORE PUSH1 0x32 PUSH1 0x4 MSTORE PUSH1 0x24 PUSH1 0x0 REVERT JUMPDEST PUSH1 0x20 MUL PUSH1 0x20 ADD ADD MLOAD DUP3 DUP3 DUP2 MLOAD DUP2 LT PUSH2 0x291 JUMPI PUSH4 0x4E487B71 PUSH1 0xE0 SHL PUSH1 0x0 MSTORE PUSH1 0x32 PUSH1 0x4 MSTORE PUSH1 0x24 PUSH1 0x0 REVERT JUMPDEST PUSH1 0x20 SWAP1 DUP2 MUL SWAP2 SWAP1 SWAP2 ADD ADD MSTORE DUP1 PUSH2 0x2A6 DUP2 PUSH2 0x5B2 JUMP JUMPDEST SWAP2 POP POP PUSH2 0x241 JUMP JUMPDEST POP PUSH1 0x0 PUSH2 0x2BC DUP5 PUSH1 0x1 PUSH2 0x583 JUMP JUMPDEST SWAP1 POP JUMPDEST DUP5 MLOAD DUP2 LT ISZERO PUSH2 0x339 JUMPI DUP5 DUP2 DUP2 MLOAD DUP2 LT PUSH2 0x2E8 JUMPI PUSH4 0x4E487B71 PUSH1 0xE0 SHL PUSH1 0x0 MSTORE PUSH1 0x32 PUSH1 0x4 MSTORE PUSH1 0x24 PUSH1 0x0 REVERT JUMPDEST PUSH1 0x20 MUL PUSH1 0x20 ADD ADD MLOAD DUP3 PUSH1 0x1 DUP4 PUSH2 0x2FE SWAP2 SWAP1 PUSH2 0x59B JUMP JUMPDEST DUP2 MLOAD DUP2 LT PUSH2 0x31C JUMPI PUSH4 0x4E487B71 PUSH1 0xE0 SHL PUSH1 0x0 MSTORE PUSH1 0x32 PUSH1 0x4 MSTORE PUSH1 0x24 PUSH1 0x0 REVERT JUMPDEST PUSH1 0x20 SWAP1 DUP2 MUL SWAP2 SWAP1 SWAP2 ADD ADD MSTORE DUP1 PUSH2 0x331 DUP2 PUSH2 0x5B2 JUMP JUMPDEST SWAP2 POP POP PUSH2 0x2BF JUMP JUMPDEST POP SWAP4 SWAP3 POP POP POP JUMP JUMPDEST PUSH1 0x0 DUP3 PUSH1 0x1F DUP4 ADD SLT PUSH2 0x351 JUMPI DUP1 DUP2 REVERT JUMPDEST DUP2 CALLDATALOAD PUSH1 0x20 PUSH2 0x366 PUSH2 0x361 DUP4 PUSH2 0x55F JUMP JUMPDEST PUSH2 0x535 JUMP JUMPDEST DUP3 DUP2 MSTORE DUP2 DUP2 ADD SWAP1 DUP6 DUP4 ADD DUP4 DUP6 MUL DUP8 ADD DUP5 ADD DUP9 LT ISZERO PUSH2 0x382 JUMPI DUP6 DUP7 REVERT JUMPDEST DUP6 JUMPDEST DUP6 DUP2 LT ISZERO PUSH2 0x3A0 JUMPI DUP2 CALLDATALOAD DUP5 MSTORE SWAP3 DUP5 ADD SWAP3 SWAP1 DUP5 ADD SWAP1 PUSH1 0x1 ADD PUSH2 0x384 JUMP JUMPDEST POP SWAP1 SWAP8 SWAP7 POP POP POP POP POP POP POP JUMP JUMPDEST PUSH1 0x0 PUSH1 0x20 DUP3 DUP5 SUB SLT ISZERO PUSH2 0x3BE JUMPI DUP1 DUP2 REVERT JUMPDEST DUP2 CALLDATALOAD PUSH8 0xFFFFFFFFFFFFFFFF DUP2 GT ISZERO PUSH2 0x3D4 JUMPI DUP2 DUP3 REVERT JUMPDEST PUSH2 0x3E0 DUP5 DUP3 DUP6 ADD PUSH2 0x341 JUMP JUMPDEST SWAP5 SWAP4 POP POP POP POP JUMP JUMPDEST PUSH1 0x0 PUSH1 0x20 DUP1 DUP4 DUP6 SUB SLT ISZERO PUSH2 0x3FA JUMPI DUP2 DUP3 REVERT JUMPDEST DUP3 MLOAD PUSH8 0xFFFFFFFFFFFFFFFF DUP2 GT ISZERO PUSH2 0x410 JUMPI DUP3 DUP4 REVERT JUMPDEST DUP4 ADD PUSH1 0x1F DUP2 ADD DUP6 SGT PUSH2 0x420 JUMPI DUP3 DUP4 REVERT JUMPDEST DUP1 MLOAD PUSH2 0x42E PUSH2 0x361 DUP3 PUSH2 0x55F JUMP JUMPDEST DUP2 DUP2 MSTORE DUP4 DUP2 ADD SWAP1 DUP4 DUP6 ADD DUP6 DUP5 MUL DUP6 ADD DUP7 ADD DUP10 LT ISZERO PUSH2 0x44A JUMPI DUP7 DUP8 REVERT JUMPDEST DUP7 SWAP5 POP JUMPDEST DUP4 DUP6 LT ISZERO PUSH2 0x46C JUMPI DUP1 MLOAD DUP4 MSTORE PUSH1 0x1 SWAP5 SWAP1 SWAP5 ADD SWAP4 SWAP2 DUP6 ADD SWAP2 DUP6 ADD PUSH2 0x44E JUMP JUMPDEST POP SWAP8 SWAP7 POP POP POP POP POP POP POP JUMP JUMPDEST PUSH1 0x0 DUP1 PUSH1 0x40 DUP4 DUP6 SUB SLT ISZERO PUSH2 0x48A JUMPI DUP1 DUP2 REVERT JUMPDEST DUP3 CALLDATALOAD PUSH8 0xFFFFFFFFFFFFFFFF DUP2 GT ISZERO PUSH2 0x4A0 JUMPI DUP2 DUP3 REVERT JUMPDEST PUSH2 0x4AC DUP6 DUP3 DUP7 ADD PUSH2 0x341 JUMP JUMPDEST SWAP6 PUSH1 0x20 SWAP5 SWAP1 SWAP5 ADD CALLDATALOAD SWAP5 POP POP POP POP JUMP JUMPDEST PUSH1 0x20 DUP1 DUP3 MSTORE DUP3 MLOAD DUP3 DUP3 ADD DUP2 SWAP1 MSTORE PUSH1 0x0 SWAP2 SWAP1 DUP5 DUP3 ADD SWAP1 PUSH1 0x40 DUP6 ADD SWAP1 DUP5 JUMPDEST DUP2 DUP2 LT ISZERO PUSH2 0x4F3 JUMPI DUP4 MLOAD DUP4 MSTORE SWAP3 DUP5 ADD SWAP3 SWAP2 DUP5 ADD SWAP2 PUSH1 0x1 ADD PUSH2 0x4D7 JUMP JUMPDEST POP SWAP1 SWAP7 SWAP6 POP POP POP POP POP POP JUMP JUMPDEST SWAP1 DUP2 MSTORE PUSH1 0x20 ADD SWAP1 JUMP JUMPDEST PUSH1 0x20 DUP1 DUP3 MSTORE PUSH1 0x13 SWAP1 DUP3 ADD MSTORE PUSH19 0x496E646578206F7574206F6620626F756E6473 PUSH1 0x68 SHL PUSH1 0x40 DUP3 ADD MSTORE PUSH1 0x60 ADD SWAP1 JUMP JUMPDEST PUSH1 0x40 MLOAD DUP2 DUP2 ADD PUSH8 0xFFFFFFFFFFFFFFFF DUP2 GT DUP3 DUP3 LT OR ISZERO PUSH2 0x557 JUMPI PUSH2 0x557 PUSH2 0x5E3 JUMP JUMPDEST PUSH1 0x40 MSTORE SWAP2 SWAP1 POP JUMP JUMPDEST PUSH1 0x0 PUSH8 0xFFFFFFFFFFFFFFFF DUP3 GT ISZERO PUSH2 0x579 JUMPI PUSH2 0x579 PUSH2 0x5E3 JUMP JUMPDEST POP PUSH1 0x20 SWAP1 DUP2 MUL ADD SWAP1 JUMP JUMPDEST PUSH1 0x0 DUP3 NOT DUP3 GT ISZERO PUSH2 0x596 JUMPI PUSH2 0x596 PUSH2 0x5CD JUMP JUMPDEST POP ADD SWAP1 JUMP JUMPDEST PUSH1 0x0 DUP3 DUP3 LT ISZERO PUSH2 0x5AD JUMPI PUSH2 0x5AD PUSH2 0x5CD JUMP JUMPDEST POP SUB SWAP1 JUMP JUMPDEST PUSH1 0x0 PUSH1 0x0 NOT DUP3 EQ ISZERO PUSH2 0x5C6 JUMPI PUSH2 0x5C6 PUSH2 0x5CD JUMP JUMPDEST POP PUSH1 0x1 ADD SWAP1 JUMP JUMPDEST PUSH4 0x4E487B71 PUSH1 0xE0 SHL PUSH1 0x0 MSTORE PUSH1 0x11 PUSH1 0x4 MSTORE PUSH1 0x24 PUSH1 0x0 REVERT JUMPDEST PUSH4 0x4E487B71 PUSH1 0xE0 SHL PUSH1 0x0 MSTORE PUSH1 0x41 PUSH1 0x4 MSTORE PUSH1 0x24 PUSH1 0x0 REVERT INVALID LOG2 PUSH5 0x6970667358 0x22 SLT KECCAK256 AND 0xEC STOP SWAP14 0x27 0xBD PUSH11 0xF15D446DE570C5494AF82F JUMPI PUSH22 0xA3E0DCBD90B2E016DB20E4C664736F6C634300080000 CALLER "
		},
		"gasEstimates": {
			"creation": {
				"codeDepositCost": "316600",
				"executionCost": "355",
				"totalCost": "316955"
			},
			"external": {
				"testFind(uint256[],uint256)": "infinite",
				"testRemove(uint256[],uint256)": "infinite",
				"testSort(uint256[])": "infinite"
			}
		},
		"methodIdentifiers": {
			"testFind(uint256[],uint256)": "4d533b21",
			"testRemove(uint256[],uint256)": "573ba9df",
			"testSort(uint256[])": "8fe34aed"
		}
	},
	"abi": [
		{
			"inputs": [
				{
					"internalType": "uint256[]",
					"name": "arr",
					"type": "uint256[]"
				},
				{
					"internalType": "uint256",
					"name": "value",
					"type": "uint256"
				}
			],
			"name": "testFind",
			"outputs": [
				{
					"internalType": "int256",
					"name": "",
					"type": "int256"
				}
			],
			"stateMutability": "pure",
			"type": "function"
		},
		{
			"inputs": [
				{
					"internalType": "uint256[]",
					"name": "arr",
					"type": "uint256[]"
				},
				{
					"internalType": "uint256",
					"name": "index",
					"type": "uint256"
				}
			],
			"name": "testRemove",
			"outputs": [
				{
					"internalType": "uint256[]",
					"name": "",
					"type": "uint256[]"
				}
			],
			"stateMutability": "pure",
			"type": "function"
		},
		{
			"inputs": [
				{
					"internalType": "uint256[]",
					"name": "arr",
					"type": "uint256[]"
				}
			],
			"name": "testSort",
			"outputs": [
				{
					"internalType": "uint256[]",
					"name": "",
					"type": "uint256[]"
				}
			],
			"stateMutability": "pure",
			"type": "function"
		}
	]
}