{
	"data": {
		"bytecode": {
			"linkReferences": {},
			"object": "608060405234801561001057600080fd5b50600280546001600160a01b031916331790556109c1806100326000396000f3fe60806040526004361061004a5760003560e01c80630c16d4081461004f5780633a6a4d2e1461007157806383a67d38146100795780638da5cb5b14610099578063dcc60128146100c4575b600080fd5b34801561005b57600080fd5b5061006f61006a3660046105e5565b6100e6565b005b61006f61018e565b34801561008557600080fd5b5061006f61009436600461068c565b610358565b3480156100a557600080fd5b506100ae61041f565b6040516100bb91906106b1565b60405180910390f35b3480156100d057600080fd5b506100d961042e565b6040516100bb91906106c5565b604080516080810182528381526020808201849052600092820183905233606083015282546001810184559280528151805192936004027f290decd9548b62a8d60345a988386fc84ba6bc95484008f6362f93160ef3e563019261014d928492019061054c565b506020820151600182015560408201516002820155606090910151600390910180546001600160a01b0319166001600160a01b039092169190911790555050565b6002546001600160a01b031633146101c15760405162461bcd60e51b81526004016101b890610861565b60405180910390fd5b6000805b60005481101561022157600081815481106101f057634e487b7160e01b600052603260045260246000fd5b9060005260206000209060040201600201548261020d91906108b2565b91508061021981610944565b9150506101c5565b50600081116102425760405162461bcd60e51b81526004016101b890610792565b60005b60005481101561035457600080828154811061027157634e487b7160e01b600052603260045260246000fd5b906000526020600020906004020160020154111561034257600082600083815481106102ad57634e487b7160e01b600052603260045260246000fd5b906000526020600020906004020160020154346102ca91906108ea565b6102d491906108ca565b9050600082815481106102f757634e487b7160e01b600052603260045260246000fd5b600091825260208220600360049092020101546040516001600160a01b039091169183156108fc02918491818181858888f1935050505015801561033f573d6000803e3d6000fd5b50505b8061034c81610944565b915050610245565b5050565b60005481106103795760405162461bcd60e51b81526004016101b8906107c9565b33600090815260016020908152604080832084845290915290205460ff16156103b45760405162461bcd60e51b81526004016101b890610811565b3360009081526001602081815260408084208585529091528220805460ff191690911790558054829081106103f957634e487b7160e01b600052603260045260246000fd5b60009182526020822060026004909202010180549161041783610944565b919050555050565b6002546001600160a01b031681565b60606000805480602002602001604051908101604052809291908181526020016000905b82821015610543578382906000526020600020906004020160405180608001604052908160008201805461048590610909565b80601f01602080910402602001604051908101604052809291908181526020018280546104b190610909565b80156104fe5780601f106104d3576101008083540402835291602001916104fe565b820191906000526020600020905b8154815290600101906020018083116104e157829003601f168201915b5050509183525050600182810154602080840191909152600284015460408401526003909301546001600160a01b031660609092019190915291835292019101610452565b50505050905090565b82805461055890610909565b90600052602060002090601f01602090048101928261057a57600085556105c0565b82601f1061059357805160ff19168380011785556105c0565b828001600101855582156105c0579182015b828111156105c05782518255916020019190600101906105a5565b506105cc9291506105d0565b5090565b5b808211156105cc57600081556001016105d1565b600080604083850312156105f7578182fd5b823567ffffffffffffffff8082111561060e578384fd5b818501915085601f830112610621578384fd5b813560208282111561063557610635610975565b604051601f8301601f191681018201848111828210171561065857610658610975565b604052828152848301820189101561066e578687fd5b82828601838301379182018101959095529694909301359450505050565b60006020828403121561069d578081fd5b5035919050565b6001600160a01b03169052565b6001600160a01b0391909116815260200190565b60208082528251828201819052600091906040908185019080840286018301878501865b8381101561078457603f19898403018552815160808151818652805180838801528b92505b8083101561072c578183018b015187840160a00152918a019161070e565b8083111561073d578b60a082890101525b838b0151878c0152898401518a880152606093840151939250610762838801856106a4565b978a0197601f01601f19169590950160a00194505050908601906001016106e9565b509098975050505050505050565b6020808252601f908201527f436f6d6d756e69747946756e64696e673a206e6f20766f746573206361737400604082015260600190565b60208082526028908201527f436f6d6d756e69747946756e64696e673a2070726f6a65637420646f6573206e6040820152671bdd08195e1a5cdd60c21b606082015260800190565b60208082526030908201527f436f6d6d756e69747946756e64696e673a20616c726561647920766f7465642060408201526f199bdc881d1a1a5cc81c1c9bda9958dd60821b606082015260800190565b60208082526031908201527f436f6d6d756e69747946756e64696e673a206f6e6c79206f776e65722063616e60408201527020646973747269627574652066756e647360781b606082015260800190565b600082198211156108c5576108c561095f565b500190565b6000826108e557634e487b7160e01b81526012600452602481fd5b500490565b60008160001904831182151516156109045761090461095f565b500290565b60028104600182168061091d57607f821691505b6020821081141561093e57634e487b7160e01b600052602260045260246000fd5b50919050565b60006000198214156109585761095861095f565b5060010190565b634e487b7160e01b600052601160045260246000fd5b634e487b7160e01b600052604160045260246000fdfea2646970667358221220b28af889bb24d3287dec1185c0639c4ece1154c606e6a15c1ea854041be8014464736f6c63430008000033",
			"opcodes": "PUSH1 0x80 PUSH1 0x40 MSTORE CALLVALUE DUP1 ISZERO PUSH2 0x10 JUMPI PUSH1 0x0 DUP1 REVERT JUMPDEST POP PUSH1 0x2 DUP1 SLOAD PUSH1 0x1 PUSH1 0x1 PUSH1 0xA0 SHL SUB NOT AND CALLER OR SWAP1 SSTORE PUSH2 0x9C1 DUP1 PUSH2 0x32 PUSH1 0x0 CODECOPY PUSH1 0x0 RETURN INVALID PUSH1 0x80 PUSH1 0x40 MSTORE PUSH1 0x4 CALLDATASIZE LT PUSH2 0x4A JUMPI PUSH1 0x0 CALLDATALOAD PUSH1 0xE0 SHR DUP1 PUSH4 0xC16D408 EQ PUSH2 0x4F JUMPI DUP1 PUSH4 0x3A6A4D2E EQ PUSH2 0x71 JUMPI DUP1 PUSH4 0x83A67D38 EQ PUSH2 0x79 JUMPI DUP1 PUSH4 0x8DA5CB5B EQ PUSH2 0x99 JUMPI DUP1 PUSH4 0xDCC60128 EQ PUSH2 0xC4 JUMPI JUMPDEST PUSH1 0x0 DUP1 REVERT JUMPDEST CALLVALUE DUP1 ISZERO PUSH2 0x5B JUMPI PUSH1 0x0 DUP1 REVERT JUMPDEST POP PUSH2 0x6F PUSH2 0x6A CALLDATASIZE PUSH1 0x4 PUSH2 0x5E5 JUMP JUMPDEST PUSH2 0xE6 JUMP JUMPDEST STOP JUMPDEST PUSH2 0x6F PUSH2 0x18E JUMP JUMPDEST CALLVALUE DUP1 ISZERO PUSH2 0x85 JUMPI PUSH1 0x0 DUP1 REVERT JUMPDEST POP PUSH2 0x6F PUSH2 0x94 CALLDATASIZE PUSH1 0x4 PUSH2 0x68C JUMP JUMPDEST PUSH2 0x358 JUMP JUMPDEST CALLVALUE DUP1 ISZERO PUSH2 0xA5 JUMPI PUSH1 0x0 DUP1 REVERT JUMPDEST POP PUSH2 0xAE PUSH2 0x41F JUMP JUMPDEST PUSH1 0x40 MLOAD PUSH2 0xBB SWAP2 SWAP1 PUSH2 0x6B1 JUMP JUMPDEST PUSH1 0x40 MLOAD DUP1 SWAP2 SUB SWAP1 RETURN JUMPDEST CALLVALUE DUP1 ISZERO PUSH2 0xD0 JUMPI PUSH1 0x0 DUP1 REVERT JUMPDEST POP PUSH2 0xD9 PUSH2 0x42E JUMP JUMPDEST PUSH1 0x40 MLOAD PUSH2 0xBB SWAP2 SWAP1 PUSH2 0x6C5 JUMP JUMPDEST PUSH1 0x40 DUP1 MLOAD PUSH1 0x80 DUP2 ADD DUP3 MSTORE DUP4 DUP2 MSTORE PUSH1 0x20 DUP1 DUP3 ADD DUP5 SWAP1 MSTORE PUSH1 0x0 SWAP3 DUP3 ADD DUP4 SWAP1 MSTORE CALLER PUSH1 0x60 DUP4 ADD MSTORE DUP3 SLOAD PUSH1 0x1 DUP2 ADD DUP5 SSTORE SWAP3 DUP1 MSTORE DUP2 MLOAD DUP1 MLOAD SWAP3 SWAP4 PUSH1 0x4 MUL PUSH32 0x290DECD9548B62A8D60345A988386FC84BA6BC95484008F6362F93160EF3E563 ADD SWAP3 PUSH2 0x14D SWAP3 DUP5 SWAP3 ADD SWAP1 PUSH2 0x54C JUMP JUMPDEST POP PUSH1 0x20 DUP3 ADD MLOAD PUSH1 0x1 DUP3 ADD SSTORE PUSH1 0x40 DUP3 ADD MLOAD PUSH1 0x2 DUP3 ADD SSTORE PUSH1 0x60 SWAP1 SWAP2 ADD MLOAD PUSH1 0x3 SWAP1 SWAP2 ADD DUP1 SLOAD PUSH1 0x1 PUSH1 0x1 PUSH1 0xA0 SHL SUB NOT AND PUSH1 0x1 PUSH1 0x1 PUSH1 0xA0 SHL SUB SWAP1 SWAP3 AND SWAP2 SWAP1 SWAP2 OR SWAP1 SSTORE POP POP JUMP JUMPDEST PUSH1 0x2 SLOAD PUSH1 0x1 PUSH1 0x1 PUSH1 0xA0 SHL SUB AND CALLER EQ PUSH2 0x1C1 JUMPI PUSH1 0x40 MLOAD PUSH3 0x461BCD PUSH1 0xE5 SHL DUP2 MSTORE PUSH1 0x4 ADD PUSH2 0x1B8 SWAP1 PUSH2 0x861 JUMP JUMPDEST PUSH1 0x40 MLOAD DUP1 SWAP2 SUB SWAP1 REVERT JUMPDEST PUSH1 0x0 DUP1 JUMPDEST PUSH1 0x0 SLOAD DUP2 LT ISZERO PUSH2 0x221 JUMPI PUSH1 0x0 DUP2 DUP2 SLOAD DUP2 LT PUSH2 0x1F0 JUMPI PUSH4 0x4E487B71 PUSH1 0xE0 SHL PUSH1 0x0 MSTORE PUSH1 0x32 PUSH1 0x4 MSTORE PUSH1 0x24 PUSH1 0x0 REVERT JUMPDEST SWAP1 PUSH1 0x0 MSTORE PUSH1 0x20 PUSH1 0x0 KECCAK256 SWAP1 PUSH1 0x4 MUL ADD PUSH1 0x2 ADD SLOAD DUP3 PUSH2 0x20D SWAP2 SWAP1 PUSH2 0x8B2 JUMP JUMPDEST SWAP2 POP DUP1 PUSH2 0x219 DUP2 PUSH2 0x944 JUMP JUMPDEST SWAP2 POP POP PUSH2 0x1C5 JUMP JUMPDEST POP PUSH1 0x0 DUP2 GT PUSH2 0x242 JUMPI PUSH1 0x40 MLOAD PUSH3 0x461BCD PUSH1 0xE5 SHL DUP2 MSTORE PUSH1 0x4 ADD PUSH2 0x1B8 SWAP1 PUSH2 0x792 JUMP JUMPDEST PUSH1 0x0 JUMPDEST PUSH1 0x0 SLOAD DUP2 LT ISZERO PUSH2 0x354 JUMPI PUSH1 0x0 DUP1 DUP3 DUP2 SLOAD DUP2 LT PUSH2 0x271 JUMPI PUSH4 0x4E487B71 PUSH1 0xE0 SHL PUSH1 0x0 MSTORE PUSH1 0x32 PUSH1 0x4 MSTORE PUSH1 0x24 PUSH1 0x0 REVERT JUMPDEST SWAP1 PUSH1 0x0 MSTORE PUSH1 0x20 PUSH1 0x0 KECCAK256 SWAP1 PUSH1 0x4 MUL ADD PUSH1 0x2 ADD SLOAD GT ISZERO PUSH2 0x342 JUMPI PUSH1 0x0 DUP3 PUSH1 0x0 DUP4 DUP2 SLOAD DUP2 LT PUSH2 0x2AD JUMPI PUSH4 0x4E487B71 PUSH1 0xE0 SHL PUSH1 0x0 MSTORE PUSH1 0x32 PUSH1 0x4 MSTORE PUSH1 0x24 PUSH1 0x0 REVERT JUMPDEST SWAP1 PUSH1 0x0 MSTORE PUSH1 0x20 PUSH1 0x0 KECCAK256 SWAP1 PUSH1 0x4 MUL ADD PUSH1 0x2 ADD SLOAD CALLVALUE PUSH2 0x2CA SWAP2 SWAP1 PUSH2 0x8EA JUMP JUMPDEST PUSH2 0x2D4 SWAP2 SWAP1 PUSH2 0x8CA JUMP JUMPDEST SWAP1 POP PUSH1 0x0 DUP3 DUP2 SLOAD DUP2 LT PUSH2 0x2F7 JUMPI PUSH4 0x4E487B71 PUSH1 0xE0 SHL PUSH1 0x0 MSTORE PUSH1 0x32 PUSH1 0x4 MSTORE PUSH1 0x24 PUSH1 0x0 REVERT JUMPDEST PUSH1 0x0 SWAP2 DUP3 MSTORE PUSH1 0x20 DUP3 KECCAK256 PUSH1 0x3 PUSH1 0x4 SWAP1 SWAP3 MUL ADD ADD SLOAD PUSH1 0x40 MLOAD PUSH1 0x1 PUSH1 0x1 PUSH1 0xA0 SHL SUB SWAP1 SWAP2 AND SWAP2 DUP4 ISZERO PUSH2 0x8FC MUL SWAP2 DUP5 SWAP2 DUP2 DUP2 DUP2 DUP6 DUP9 DUP9 CALL SWAP4 POP POP POP POP ISZERO DUP1 ISZERO PUSH2 0x33F JUMPI RETURNDATASIZE PUSH1 0x0 DUP1 RETURNDATACOPY RETURNDATASIZE PUSH1 0x0 REVERT JUMPDEST POP POP JUMPDEST DUP1 PUSH2 0x34C DUP2 PUSH2 0x944 JUMP JUMPDEST SWAP2 POP POP PUSH2 0x245 JUMP JUMPDEST POP POP JUMP JUMPDEST PUSH1 0x0 SLOAD DUP2 LT PUSH2 0x379 JUMPI PUSH1 0x40 MLOAD PUSH3 0x461BCD PUSH1 0xE5 SHL DUP2 MSTORE PUSH1 0x4 ADD PUSH2 0x1B8 SWAP1 PUSH2 0x7C9 JUMP JUMPDEST CALLER PUSH1 0x0 SWAP1 DUP2 MSTORE PUSH1 0x1 PUSH1 0x20 SWAP1 DUP2 MSTORE PUSH1 0x40 DUP1 DUP4 KECCAK256 DUP5 DUP5 MSTORE SWAP1 SWAP2 MSTORE SWAP1 KECCAK256 SLOAD PUSH1 0xFF AND ISZERO PUSH2 0x3B4 JUMPI PUSH1 0x40 MLOAD PUSH3 0x461BCD PUSH1 0xE5 SHL DUP2 MSTORE PUSH1 0x4 ADD PUSH2 0x1B8 SWAP1 PUSH2 0x811 JUMP JUMPDEST CALLER PUSH1 0x0 SWAP1 DUP2 MSTORE PUSH1 0x1 PUSH1 0x20 DUP2 DUP2 MSTORE PUSH1 0x40 DUP1 DUP5 KECCAK256 DUP6 DUP6 MSTORE SWAP1 SWAP2 MSTORE DUP3 KECCAK256 DUP1 SLOAD PUSH1 0xFF NOT AND SWAP1 SWAP2 OR SWAP1 SSTORE DUP1 SLOAD DUP3 SWAP1 DUP2 LT PUSH2 0x3F9 JUMPI PUSH4 0x4E487B71 PUSH1 0xE0 SHL PUSH1 0x0 MSTORE PUSH1 0x32 PUSH1 0x4 MSTORE PUSH1 0x24 PUSH1 0x0 REVERT JUMPDEST PUSH1 0x0 SWAP2 DUP3 MSTORE PUSH1 0x20 DUP3 KECCAK256 PUSH1 0x2 PUSH1 0x4 SWAP1 SWAP3 MUL ADD ADD DUP1 SLOAD SWAP2 PUSH2 0x417 DUP4 PUSH2 0x944 JUMP JUMPDEST SWAP2 SWAP1 POP SSTORE POP POP JUMP JUMPDEST PUSH1 0x2 SLOAD PUSH1 0x1 PUSH1 0x1 PUSH1 0xA0 SHL SUB AND DUP2 JUMP JUMPDEST PUSH1 0x60 PUSH1 0x0 DUP1 SLOAD DUP1 PUSH1 0x20 MUL PUSH1 0x20 ADD PUSH1 0x40 MLOAD SWAP1 DUP2 ADD PUSH1 0x40 MSTORE DUP1 SWAP3 SWAP2 SWAP1 DUP2 DUP2 MSTORE PUSH1 0x20 ADD PUSH1 0x0 SWAP1 JUMPDEST DUP3 DUP3 LT ISZERO PUSH2 0x543 JUMPI DUP4 DUP3 SWAP1 PUSH1 0x0 MSTORE PUSH1 0x20 PUSH1 0x0 KECCAK256 SWAP1 PUSH1 0x4 MUL ADD PUSH1 0x40 MLOAD DUP1 PUSH1 0x80 ADD PUSH1 0x40 MSTORE SWAP1 DUP2 PUSH1 0x0 DUP3 ADD DUP1 SLOAD PUSH2 0x485 SWAP1 PUSH2 0x909 JUMP JUMPDEST DUP1 PUSH1 0x1F ADD PUSH1 0x20 DUP1 SWAP2 DIV MUL PUSH1 0x20 ADD PUSH1 0x40 MLOAD SWAP1 DUP2 ADD PUSH1 0x40 MSTORE DUP1 SWAP3 SWAP2 SWAP1 DUP2 DUP2 MSTORE PUSH1 0x20 ADD DUP3 DUP1 SLOAD PUSH2 0x4B1 SWAP1 PUSH2 0x909 JUMP JUMPDEST DUP1 ISZERO PUSH2 0x4FE JUMPI DUP1 PUSH1 0x1F LT PUSH2 0x4D3 JUMPI PUSH2 0x100 DUP1 DUP4 SLOAD DIV MUL DUP4 MSTORE SWAP2 PUSH1 0x20 ADD SWAP2 PUSH2 0x4FE JUMP JUMPDEST DUP3 ADD SWAP2 SWAP1 PUSH1 0x0 MSTORE PUSH1 0x20 PUSH1 0x0 KECCAK256 SWAP1 JUMPDEST DUP2 SLOAD DUP2 MSTORE SWAP1 PUSH1 0x1 ADD SWAP1 PUSH1 0x20 ADD DUP1 DUP4 GT PUSH2 0x4E1 JUMPI DUP3 SWAP1 SUB PUSH1 0x1F AND DUP3 ADD SWAP2 JUMPDEST POP POP POP SWAP2 DUP4 MSTORE POP POP PUSH1 0x1 DUP3 DUP2 ADD SLOAD PUSH1 0x20 DUP1 DUP5 ADD SWAP2 SWAP1 SWAP2 MSTORE PUSH1 0x2 DUP5 ADD SLOAD PUSH1 0x40 DUP5 ADD MSTORE PUSH1 0x3 SWAP1 SWAP4 ADD SLOAD PUSH1 0x1 PUSH1 0x1 PUSH1 0xA0 SHL SUB AND PUSH1 0x60 SWAP1 SWAP3 ADD SWAP2 SWAP1 SWAP2 MSTORE SWAP2 DUP4 MSTORE SWAP3 ADD SWAP2 ADD PUSH2 0x452 JUMP JUMPDEST POP POP POP POP SWAP1 POP SWAP1 JUMP JUMPDEST DUP3 DUP1 SLOAD PUSH2 0x558 SWAP1 PUSH2 0x909 JUMP JUMPDEST SWAP1 PUSH1 0x0 MSTORE PUSH1 0x20 PUSH1 0x0 KECCAK256 SWAP1 PUSH1 0x1F ADD PUSH1 0x20 SWAP1 DIV DUP2 ADD SWAP3 DUP3 PUSH2 0x57A JUMPI PUSH1 0x0 DUP6 SSTORE PUSH2 0x5C0 JUMP JUMPDEST DUP3 PUSH1 0x1F LT PUSH2 0x593 JUMPI DUP1 MLOAD PUSH1 0xFF NOT AND DUP4 DUP1 ADD OR DUP6 SSTORE PUSH2 0x5C0 JUMP JUMPDEST DUP3 DUP1 ADD PUSH1 0x1 ADD DUP6 SSTORE DUP3 ISZERO PUSH2 0x5C0 JUMPI SWAP2 DUP3 ADD JUMPDEST DUP3 DUP2 GT ISZERO PUSH2 0x5C0 JUMPI DUP3 MLOAD DUP3 SSTORE SWAP2 PUSH1 0x20 ADD SWAP2 SWAP1 PUSH1 0x1 ADD SWAP1 PUSH2 0x5A5 JUMP JUMPDEST POP PUSH2 0x5CC SWAP3 SWAP2 POP PUSH2 0x5D0 JUMP JUMPDEST POP SWAP1 JUMP JUMPDEST JUMPDEST DUP1 DUP3 GT ISZERO PUSH2 0x5CC JUMPI PUSH1 0x0 DUP2 SSTORE PUSH1 0x1 ADD PUSH2 0x5D1 JUMP JUMPDEST PUSH1 0x0 DUP1 PUSH1 0x40 DUP4 DUP6 SUB SLT ISZERO PUSH2 0x5F7 JUMPI DUP2 DUP3 REVERT JUMPDEST DUP3 CALLDATALOAD PUSH8 0xFFFFFFFFFFFFFFFF DUP1 DUP3 GT ISZERO PUSH2 0x60E JUMPI DUP4 DUP5 REVERT JUMPDEST DUP2 DUP6 ADD SWAP2 POP DUP6 PUSH1 0x1F DUP4 ADD SLT PUSH2 0x621 JUMPI DUP4 DUP5 REVERT JUMPDEST DUP2 CALLDATALOAD PUSH1 0x20 DUP3 DUP3 GT ISZERO PUSH2 0x635 JUMPI PUSH2 0x635 PUSH2 0x975 JUMP JUMPDEST PUSH1 0x40 MLOAD PUSH1 0x1F DUP4 ADD PUSH1 0x1F NOT AND DUP2 ADD DUP3 ADD DUP5 DUP2 GT DUP3 DUP3 LT OR ISZERO PUSH2 0x658 JUMPI PUSH2 0x658 PUSH2 0x975 JUMP JUMPDEST PUSH1 0x40 MSTORE DUP3 DUP2 MSTORE DUP5 DUP4 ADD DUP3 ADD DUP10 LT ISZERO PUSH2 0x66E JUMPI DUP7 DUP8 REVERT JUMPDEST DUP3 DUP3 DUP7 ADD DUP4 DUP4 ADD CALLDATACOPY SWAP2 DUP3 ADD DUP2 ADD SWAP6 SWAP1 SWAP6 MSTORE SWAP7 SWAP5 SWAP1 SWAP4 ADD CALLDATALOAD SWAP5 POP POP POP POP JUMP JUMPDEST PUSH1 0x0 PUSH1 0x20 DUP3 DUP5 SUB SLT ISZERO PUSH2 0x69D JUMPI DUP1 DUP2 REVERT JUMPDEST POP CALLDATALOAD SWAP2 SWAP1 POP JUMP JUMPDEST PUSH1 0x1 PUSH1 0x1 PUSH1 0xA0 SHL SUB AND SWAP1 MSTORE JUMP JUMPDEST PUSH1 0x1 PUSH1 0x1 PUSH1 0xA0 SHL SUB SWAP2 SWAP1 SWAP2 AND DUP2 MSTORE PUSH1 0x20 ADD SWAP1 JUMP JUMPDEST PUSH1 0x20 DUP1 DUP3 MSTORE DUP3 MLOAD DUP3 DUP3 ADD DUP2 SWAP1 MSTORE PUSH1 0x0 SWAP2 SWAP1 PUSH1 0x40 SWAP1 DUP2 DUP6 ADD SWAP1 DUP1 DUP5 MUL DUP7 ADD DUP4 ADD DUP8 DUP6 ADD DUP7 JUMPDEST DUP4 DUP2 LT ISZERO PUSH2 0x784 JUMPI PUSH1 0x3F NOT DUP10 DUP5 SUB ADD DUP6 MSTORE DUP2 MLOAD PUSH1 0x80 DUP2 MLOAD DUP2 DUP7 MSTORE DUP1 MLOAD DUP1 DUP4 DUP9 ADD MSTORE DUP12 SWAP3 POP JUMPDEST DUP1 DUP4 LT ISZERO PUSH2 0x72C JUMPI DUP2 DUP4 ADD DUP12 ADD MLOAD DUP8 DUP5 ADD PUSH1 0xA0 ADD MSTORE SWAP2 DUP11 ADD SWAP2 PUSH2 0x70E JUMP JUMPDEST DUP1 DUP4 GT ISZERO PUSH2 0x73D JUMPI DUP12 PUSH1 0xA0 DUP3 DUP10 ADD ADD MSTORE JUMPDEST DUP4 DUP12 ADD MLOAD DUP8 DUP13 ADD MSTORE DUP10 DUP5 ADD MLOAD DUP11 DUP9 ADD MSTORE PUSH1 0x60 SWAP4 DUP5 ADD MLOAD SWAP4 SWAP3 POP PUSH2 0x762 DUP4 DUP9 ADD DUP6 PUSH2 0x6A4 JUMP JUMPDEST SWAP8 DUP11 ADD SWAP8 PUSH1 0x1F ADD PUSH1 0x1F NOT AND SWAP6 SWAP1 SWAP6 ADD PUSH1 0xA0 ADD SWAP5 POP POP POP SWAP1 DUP7 ADD SWAP1 PUSH1 0x1 ADD PUSH2 0x6E9 JUMP JUMPDEST POP SWAP1 SWAP9 SWAP8 POP POP POP POP POP POP POP POP JUMP JUMPDEST PUSH1 0x20 DUP1 DUP3 MSTORE PUSH1 0x1F SWAP1 DUP3 ADD MSTORE PUSH32 0x436F6D6D756E69747946756E64696E673A206E6F20766F746573206361737400 PUSH1 0x40 DUP3 ADD MSTORE PUSH1 0x60 ADD SWAP1 JUMP JUMPDEST PUSH1 0x20 DUP1 DUP3 MSTORE PUSH1 0x28 SWAP1 DUP3 ADD MSTORE PUSH32 0x436F6D6D756E69747946756E64696E673A2070726F6A65637420646F6573206E PUSH1 0x40 DUP3 ADD MSTORE PUSH8 0x1BDD08195E1A5CDD PUSH1 0xC2 SHL PUSH1 0x60 DUP3 ADD MSTORE PUSH1 0x80 ADD SWAP1 JUMP JUMPDEST PUSH1 0x20 DUP1 DUP3 MSTORE PUSH1 0x30 SWAP1 DUP3 ADD MSTORE PUSH32 0x436F6D6D756E69747946756E64696E673A20616C726561647920766F74656420 PUSH1 0x40 DUP3 ADD MSTORE PUSH16 0x199BDC881D1A1A5CC81C1C9BDA9958DD PUSH1 0x82 SHL PUSH1 0x60 DUP3 ADD MSTORE PUSH1 0x80 ADD SWAP1 JUMP JUMPDEST PUSH1 0x20 DUP1 DUP3 MSTORE PUSH1 0x31 SWAP1 DUP3 ADD MSTORE PUSH32 0x436F6D6D756E69747946756E64696E673A206F6E6C79206F776E65722063616E PUSH1 0x40 DUP3 ADD MSTORE PUSH17 0x20646973747269627574652066756E6473 PUSH1 0x78 SHL PUSH1 0x60 DUP3 ADD MSTORE PUSH1 0x80 ADD SWAP1 JUMP JUMPDEST PUSH1 0x0 DUP3 NOT DUP3 GT ISZERO PUSH2 0x8C5 JUMPI PUSH2 0x8C5 PUSH2 0x95F JUMP JUMPDEST POP ADD SWAP1 JUMP JUMPDEST PUSH1 0x0 DUP3 PUSH2 0x8E5 JUMPI PUSH4 0x4E487B71 PUSH1 0xE0 SHL DUP2 MSTORE PUSH1 0x12 PUSH1 0x4 MSTORE PUSH1 0x24 DUP2 REVERT JUMPDEST POP DIV SWAP1 JUMP JUMPDEST PUSH1 0x0 DUP2 PUSH1 0x0 NOT DIV DUP4 GT DUP3 ISZERO ISZERO AND ISZERO PUSH2 0x904 JUMPI PUSH2 0x904 PUSH2 0x95F JUMP JUMPDEST POP MUL SWAP1 JUMP JUMPDEST PUSH1 0x2 DUP2 DIV PUSH1 0x1 DUP3 AND DUP1 PUSH2 0x91D JUMPI PUSH1 0x7F DUP3 AND SWAP2 POP JUMPDEST PUSH1 0x20 DUP3 LT DUP2 EQ ISZERO PUSH2 0x93E JUMPI PUSH4 0x4E487B71 PUSH1 0xE0 SHL PUSH1 0x0 MSTORE PUSH1 0x22 PUSH1 0x4 MSTORE PUSH1 0x24 PUSH1 0x0 REVERT JUMPDEST POP SWAP2 SWAP1 POP JUMP JUMPDEST PUSH1 0x0 PUSH1 0x0 NOT DUP3 EQ ISZERO PUSH2 0x958 JUMPI PUSH2 0x958 PUSH2 0x95F JUMP JUMPDEST POP PUSH1 0x1 ADD SWAP1 JUMP JUMPDEST PUSH4 0x4E487B71 PUSH1 0xE0 SHL PUSH1 0x0 MSTORE PUSH1 0x11 PUSH1 0x4 MSTORE PUSH1 0x24 PUSH1 0x0 REVERT JUMPDEST PUSH4 0x4E487B71 PUSH1 0xE0 SHL PUSH1 0x0 MSTORE PUSH1 0x41 PUSH1 0x4 MSTORE PUSH1 0x24 PUSH1 0x0 REVERT INVALID LOG2 PUSH5 0x6970667358 0x22 SLT KECCAK256 0xB2 DUP11 0xF8 DUP10 0xBB 0x24 0xD3 0x28 PUSH30 0xEC1185C0639C4ECE1154C606E6A15C1EA854041BE8014464736F6C634300 ADDMOD STOP STOP CALLER "
		},
		"gasEstimates": {
			"creation": {
				"codeDepositCost": "499400",
				"executionCost": "21372",
				"totalCost": "520772"
			},
			"external": {
				"distributeFunds()": "infinite",
				"getProjects()": "infinite",
				"owner()": "1114",
				"proposeProject(string,uint256)": "infinite",
				"voteForProject(uint256)": "44793"
			}
		},
		"methodIdentifiers": {
			"distributeFunds()": "3a6a4d2e",
			"getProjects()": "dcc60128",
			"owner()": "8da5cb5b",
			"proposeProject(string,uint256)": "0c16d408",
			"voteForProject(uint256)": "83a67d38"
		}
	},
	"abi": [
		{
			"inputs": [],
			"stateMutability": "nonpayable",
			"type": "constructor"
		},
		{
			"inputs": [],
			"name": "distributeFunds",
			"outputs": [],
			"stateMutability": "payable",
			"type": "function"
		},
		{
			"inputs": [],
			"name": "getProjects",
			"outputs": [
				{
					"components": [
						{
							"internalType": "string",
							"name": "description",
							"type": "string"
						},
						{
							"internalType": "uint256",
							"name": "requiredAmount",
							"type": "uint256"
						},
						{
							"internalType": "uint256",
							"name": "voteCount",
							"type": "uint256"
						},
						{
							"internalType": "address",
							"name": "creator",
							"type": "address"
						}
					],
					"internalType": "struct CommunityFunding.Project[]",
					"name": "",
					"type": "tuple[]"
				}
			],
			"stateMutability": "view",
			"type": "function"
		},
		{
			"inputs": [],
			"name": "owner",
			"outputs": [
				{
					"internalType": "address",
					"name": "",
					"type": "address"
				}
			],
			"stateMutability": "view",
			"type": "function"
		},
		{
			"inputs": [
				{
					"internalType": "string",
					"name": "_description",
					"type": "string"
				},
				{
					"internalType": "uint256",
					"name": "_requiredAmount",
					"type": "uint256"
				}
			],
			"name": "proposeProject",
			"outputs": [],
			"stateMutability": "nonpayable",
			"type": "function"
		},
		{
			"inputs": [
				{
					"internalType": "uint256",
					"name": "_index",
					"type": "uint256"
				}
			],
			"name": "voteForProject",
			"outputs": [],
			"stateMutability": "nonpayable",
			"type": "function"
		}
	]
}