{
	"data": {
		"bytecode": {
			"linkReferences": {},
			"object": "6080604052348015600e575f5ffd5b50610a478061001c5f395ff3fe608060405234801561000f575f5ffd5b506004361061003f575f3560e01c80639e5faafc14610043578063b40a56aa14610062578063e551ba4b14610094575b5f5ffd5b61004b6100b0565b604051610059929190610414565b60405180910390f35b61007c600480360381019061007791906104ad565b6100d7565b60405161008b939291906104f2565b60405180910390f35b6100ae60048036038101906100a99190610661565b610214565b005b60605f60556040518060600160405280602481526020016109ee6024913990915091509091565b5f602052805f5260405f205f91509050805f0180546100f5906106d5565b80601f0160208091040260200160405190810160405280929190818152602001828054610121906106d5565b801561016c5780601f106101435761010080835404028352916020019161016c565b820191905f5260205f20905b81548152906001019060200180831161014f57829003601f168201915b505050505090806001018054610181906106d5565b80601f01602080910402602001604051908101604052809291908181526020018280546101ad906106d5565b80156101f85780601f106101cf576101008083540402835291602001916101f8565b820191905f5260205f20905b8154815290600101906020018083116101db57829003601f168201915b505050505090806002015f9054906101000a900460ff16905083565b610253816040518060400160405280600481526020017f4d61676500000000000000000000000000000000000000000000000000000000815250610256565b50565b5f5f3373ffffffffffffffffffffffffffffffffffffffff1673ffffffffffffffffffffffffffffffffffffffff1681526020019081526020015f206002015f9054906101000a900460ff16156102e2576040517f08c379a00000000000000000000000000000000000000000000000000000000081526004016102d99061074f565b60405180910390fd5b6040518060600160405280838152602001828152602001600115158152505f5f3373ffffffffffffffffffffffffffffffffffffffff1673ffffffffffffffffffffffffffffffffffffffff1681526020019081526020015f205f820151815f01908161034f919061091e565b506020820151816001019081610365919061091e565b506040820151816002015f6101000a81548160ff0219169083151502179055509050505050565b5f81519050919050565b5f82825260208201905092915050565b8281835e5f83830152505050565b5f601f19601f8301169050919050565b5f6103ce8261038c565b6103d88185610396565b93506103e88185602086016103a6565b6103f1816103b4565b840191505092915050565b5f819050919050565b61040e816103fc565b82525050565b5f6040820190508181035f83015261042c81856103c4565b905061043b6020830184610405565b9392505050565b5f604051905090565b5f5ffd5b5f5ffd5b5f73ffffffffffffffffffffffffffffffffffffffff82169050919050565b5f61047c82610453565b9050919050565b61048c81610472565b8114610496575f5ffd5b50565b5f813590506104a781610483565b92915050565b5f602082840312156104c2576104c161044b565b5b5f6104cf84828501610499565b91505092915050565b5f8115159050919050565b6104ec816104d8565b82525050565b5f6060820190508181035f83015261050a81866103c4565b9050818103602083015261051e81856103c4565b905061052d60408301846104e3565b949350505050565b5f5ffd5b5f5ffd5b7f4e487b71000000000000000000000000000000000000000000000000000000005f52604160045260245ffd5b610573826103b4565b810181811067ffffffffffffffff821117156105925761059161053d565b5b80604052505050565b5f6105a4610442565b90506105b0828261056a565b919050565b5f67ffffffffffffffff8211156105cf576105ce61053d565b5b6105d8826103b4565b9050602081019050919050565b828183375f83830152505050565b5f610605610600846105b5565b61059b565b90508281526020810184848401111561062157610620610539565b5b61062c8482856105e5565b509392505050565b5f82601f83011261064857610647610535565b5b81356106588482602086016105f3565b91505092915050565b5f602082840312156106765761067561044b565b5b5f82013567ffffffffffffffff8111156106935761069261044f565b5b61069f84828501610634565b91505092915050565b7f4e487b71000000000000000000000000000000000000000000000000000000005f52602260045260245ffd5b5f60028204905060018216806106ec57607f821691505b6020821081036106ff576106fe6106a8565b5b50919050565b7f416c726561647920696e206775696c64000000000000000000000000000000005f82015250565b5f610739601083610396565b915061074482610705565b602082019050919050565b5f6020820190508181035f8301526107668161072d565b9050919050565b5f819050815f5260205f209050919050565b5f6020601f8301049050919050565b5f82821b905092915050565b5f600883026107c97fffffffffffffffffffffffffffffffffffffffffffffffffffffffffffffffff8261078e565b6107d3868361078e565b95508019841693508086168417925050509392505050565b5f819050919050565b5f61080e610809610804846103fc565b6107eb565b6103fc565b9050919050565b5f819050919050565b610827836107f4565b61083b61083382610815565b84845461079a565b825550505050565b5f5f905090565b610852610843565b61085d81848461081e565b505050565b5f5b82811015610883576108785f82840161084a565b600181019050610864565b505050565b601f8211156108d657828211156108d5576108a28161076d565b6108ab8361077f565b6108b48561077f565b60208610156108c1575f90505b8083016108d082840382610862565b505050505b5b505050565b5f82821c905092915050565b5f6108f65f19846008026108db565b1980831691505092915050565b5f61090e83836108e7565b9150826002028217905092915050565b6109278261038c565b67ffffffffffffffff8111156109405761093f61053d565b5b61094a82546106d5565b610955828285610888565b5f60209050601f831160018114610986575f8415610974578287015190505b61097e8582610903565b8655506109e5565b601f1984166109948661076d565b5f5b828110156109bb57848901518255600182019150602085019450602081019050610996565b868310156109d857848901516109d4601f8916826108e7565b8355505b6001600288020188555050505b50505050505056fe436861696e204c696768746e696e6720284d756c74692d5461726765742053686f636b29a26469706673582212209c710e8ea830d4989b6783466b228ce59fd26e3942e672dc2d3c8887ae73732864736f6c63430008220033",
			"opcodes": "PUSH1 0x80 PUSH1 0x40 MSTORE CALLVALUE DUP1 ISZERO PUSH1 0xE JUMPI PUSH0 PUSH0 REVERT JUMPDEST POP PUSH2 0xA47 DUP1 PUSH2 0x1C PUSH0 CODECOPY PUSH0 RETURN INVALID PUSH1 0x80 PUSH1 0x40 MSTORE CALLVALUE DUP1 ISZERO PUSH2 0xF JUMPI PUSH0 PUSH0 REVERT JUMPDEST POP PUSH1 0x4 CALLDATASIZE LT PUSH2 0x3F JUMPI PUSH0 CALLDATALOAD PUSH1 0xE0 SHR DUP1 PUSH4 0x9E5FAAFC EQ PUSH2 0x43 JUMPI DUP1 PUSH4 0xB40A56AA EQ PUSH2 0x62 JUMPI DUP1 PUSH4 0xE551BA4B EQ PUSH2 0x94 JUMPI JUMPDEST PUSH0 PUSH0 REVERT JUMPDEST PUSH2 0x4B PUSH2 0xB0 JUMP JUMPDEST PUSH1 0x40 MLOAD PUSH2 0x59 SWAP3 SWAP2 SWAP1 PUSH2 0x414 JUMP JUMPDEST PUSH1 0x40 MLOAD DUP1 SWAP2 SUB SWAP1 RETURN JUMPDEST PUSH2 0x7C PUSH1 0x4 DUP1 CALLDATASIZE SUB DUP2 ADD SWAP1 PUSH2 0x77 SWAP2 SWAP1 PUSH2 0x4AD JUMP JUMPDEST PUSH2 0xD7 JUMP JUMPDEST PUSH1 0x40 MLOAD PUSH2 0x8B SWAP4 SWAP3 SWAP2 SWAP1 PUSH2 0x4F2 JUMP JUMPDEST PUSH1 0x40 MLOAD DUP1 SWAP2 SUB SWAP1 RETURN JUMPDEST PUSH2 0xAE PUSH1 0x4 DUP1 CALLDATASIZE SUB DUP2 ADD SWAP1 PUSH2 0xA9 SWAP2 SWAP1 PUSH2 0x661 JUMP JUMPDEST PUSH2 0x214 JUMP JUMPDEST STOP JUMPDEST PUSH1 0x60 PUSH0 PUSH1 0x55 PUSH1 0x40 MLOAD DUP1 PUSH1 0x60 ADD PUSH1 0x40 MSTORE DUP1 PUSH1 0x24 DUP2 MSTORE PUSH1 0x20 ADD PUSH2 0x9EE PUSH1 0x24 SWAP2 CODECOPY SWAP1 SWAP2 POP SWAP2 POP SWAP1 SWAP2 JUMP JUMPDEST PUSH0 PUSH1 0x20 MSTORE DUP1 PUSH0 MSTORE PUSH1 0x40 PUSH0 KECCAK256 PUSH0 SWAP2 POP SWAP1 POP DUP1 PUSH0 ADD DUP1 SLOAD PUSH2 0xF5 SWAP1 PUSH2 0x6D5 JUMP JUMPDEST DUP1 PUSH1 0x1F ADD PUSH1 0x20 DUP1 SWAP2 DIV MUL PUSH1 0x20 ADD PUSH1 0x40 MLOAD SWAP1 DUP2 ADD PUSH1 0x40 MSTORE DUP1 SWAP3 SWAP2 SWAP1 DUP2 DUP2 MSTORE PUSH1 0x20 ADD DUP3 DUP1 SLOAD PUSH2 0x121 SWAP1 PUSH2 0x6D5 JUMP JUMPDEST DUP1 ISZERO PUSH2 0x16C JUMPI DUP1 PUSH1 0x1F LT PUSH2 0x143 JUMPI PUSH2 0x100 DUP1 DUP4 SLOAD DIV MUL DUP4 MSTORE SWAP2 PUSH1 0x20 ADD SWAP2 PUSH2 0x16C JUMP JUMPDEST DUP3 ADD SWAP2 SWAP1 PUSH0 MSTORE PUSH1 0x20 PUSH0 KECCAK256 SWAP1 JUMPDEST DUP2 SLOAD DUP2 MSTORE SWAP1 PUSH1 0x1 ADD SWAP1 PUSH1 0x20 ADD DUP1 DUP4 GT PUSH2 0x14F JUMPI DUP3 SWAP1 SUB PUSH1 0x1F AND DUP3 ADD SWAP2 JUMPDEST POP POP POP POP POP SWAP1 DUP1 PUSH1 0x1 ADD DUP1 SLOAD PUSH2 0x181 SWAP1 PUSH2 0x6D5 JUMP JUMPDEST DUP1 PUSH1 0x1F ADD PUSH1 0x20 DUP1 SWAP2 DIV MUL PUSH1 0x20 ADD PUSH1 0x40 MLOAD SWAP1 DUP2 ADD PUSH1 0x40 MSTORE DUP1 SWAP3 SWAP2 SWAP1 DUP2 DUP2 MSTORE PUSH1 0x20 ADD DUP3 DUP1 SLOAD PUSH2 0x1AD SWAP1 PUSH2 0x6D5 JUMP JUMPDEST DUP1 ISZERO PUSH2 0x1F8 JUMPI DUP1 PUSH1 0x1F LT PUSH2 0x1CF JUMPI PUSH2 0x100 DUP1 DUP4 SLOAD DIV MUL DUP4 MSTORE SWAP2 PUSH1 0x20 ADD SWAP2 PUSH2 0x1F8 JUMP JUMPDEST DUP3 ADD SWAP2 SWAP1 PUSH0 MSTORE PUSH1 0x20 PUSH0 KECCAK256 SWAP1 JUMPDEST DUP2 SLOAD DUP2 MSTORE SWAP1 PUSH1 0x1 ADD SWAP1 PUSH1 0x20 ADD DUP1 DUP4 GT PUSH2 0x1DB JUMPI DUP3 SWAP1 SUB PUSH1 0x1F AND DUP3 ADD SWAP2 JUMPDEST POP POP POP POP POP SWAP1 DUP1 PUSH1 0x2 ADD PUSH0 SWAP1 SLOAD SWAP1 PUSH2 0x100 EXP SWAP1 DIV PUSH1 0xFF AND SWAP1 POP DUP4 JUMP JUMPDEST PUSH2 0x253 DUP2 PUSH1 0x40 MLOAD DUP1 PUSH1 0x40 ADD PUSH1 0x40 MSTORE DUP1 PUSH1 0x4 DUP2 MSTORE PUSH1 0x20 ADD PUSH32 0x4D61676500000000000000000000000000000000000000000000000000000000 DUP2 MSTORE POP PUSH2 0x256 JUMP JUMPDEST POP JUMP JUMPDEST PUSH0 PUSH0 CALLER PUSH20 0xFFFFFFFFFFFFFFFFFFFFFFFFFFFFFFFFFFFFFFFF AND PUSH20 0xFFFFFFFFFFFFFFFFFFFFFFFFFFFFFFFFFFFFFFFF AND DUP2 MSTORE PUSH1 0x20 ADD SWAP1 DUP2 MSTORE PUSH1 0x20 ADD PUSH0 KECCAK256 PUSH1 0x2 ADD PUSH0 SWAP1 SLOAD SWAP1 PUSH2 0x100 EXP SWAP1 DIV PUSH1 0xFF AND ISZERO PUSH2 0x2E2 JUMPI PUSH1 0x40 MLOAD PUSH32 0x8C379A000000000000000000000000000000000000000000000000000000000 DUP2 MSTORE PUSH1 0x4 ADD PUSH2 0x2D9 SWAP1 PUSH2 0x74F JUMP JUMPDEST PUSH1 0x40 MLOAD DUP1 SWAP2 SUB SWAP1 REVERT JUMPDEST PUSH1 0x40 MLOAD DUP1 PUSH1 0x60 ADD PUSH1 0x40 MSTORE DUP1 DUP4 DUP2 MSTORE PUSH1 0x20 ADD DUP3 DUP2 MSTORE PUSH1 0x20 ADD PUSH1 0x1 ISZERO ISZERO DUP2 MSTORE POP PUSH0 PUSH0 CALLER PUSH20 0xFFFFFFFFFFFFFFFFFFFFFFFFFFFFFFFFFFFFFFFF AND PUSH20 0xFFFFFFFFFFFFFFFFFFFFFFFFFFFFFFFFFFFFFFFF AND DUP2 MSTORE PUSH1 0x20 ADD SWAP1 DUP2 MSTORE PUSH1 0x20 ADD PUSH0 KECCAK256 PUSH0 DUP3 ADD MLOAD DUP2 PUSH0 ADD SWAP1 DUP2 PUSH2 0x34F SWAP2 SWAP1 PUSH2 0x91E JUMP JUMPDEST POP PUSH1 0x20 DUP3 ADD MLOAD DUP2 PUSH1 0x1 ADD SWAP1 DUP2 PUSH2 0x365 SWAP2 SWAP1 PUSH2 0x91E JUMP JUMPDEST POP PUSH1 0x40 DUP3 ADD MLOAD DUP2 PUSH1 0x2 ADD PUSH0 PUSH2 0x100 EXP DUP2 SLOAD DUP2 PUSH1 0xFF MUL NOT AND SWAP1 DUP4 ISZERO ISZERO MUL OR SWAP1 SSTORE POP SWAP1 POP POP POP POP JUMP JUMPDEST PUSH0 DUP2 MLOAD SWAP1 POP SWAP2 SWAP1 POP JUMP JUMPDEST PUSH0 DUP3 DUP3 MSTORE PUSH1 0x20 DUP3 ADD SWAP1 POP SWAP3 SWAP2 POP POP JUMP JUMPDEST DUP3 DUP2 DUP4 MCOPY PUSH0 DUP4 DUP4 ADD MSTORE POP POP POP JUMP JUMPDEST PUSH0 PUSH1 0x1F NOT PUSH1 0x1F DUP4 ADD AND SWAP1 POP SWAP2 SWAP1 POP JUMP JUMPDEST PUSH0 PUSH2 0x3CE DUP3 PUSH2 0x38C JUMP JUMPDEST PUSH2 0x3D8 DUP2 DUP6 PUSH2 0x396 JUMP JUMPDEST SWAP4 POP PUSH2 0x3E8 DUP2 DUP6 PUSH1 0x20 DUP7 ADD PUSH2 0x3A6 JUMP JUMPDEST PUSH2 0x3F1 DUP2 PUSH2 0x3B4 JUMP JUMPDEST DUP5 ADD SWAP2 POP POP SWAP3 SWAP2 POP POP JUMP JUMPDEST PUSH0 DUP2 SWAP1 POP SWAP2 SWAP1 POP JUMP JUMPDEST PUSH2 0x40E DUP2 PUSH2 0x3FC JUMP JUMPDEST DUP3 MSTORE POP POP JUMP JUMPDEST PUSH0 PUSH1 0x40 DUP3 ADD SWAP1 POP DUP2 DUP2 SUB PUSH0 DUP4 ADD MSTORE PUSH2 0x42C DUP2 DUP6 PUSH2 0x3C4 JUMP JUMPDEST SWAP1 POP PUSH2 0x43B PUSH1 0x20 DUP4 ADD DUP5 PUSH2 0x405 JUMP JUMPDEST SWAP4 SWAP3 POP POP POP JUMP JUMPDEST PUSH0 PUSH1 0x40 MLOAD SWAP1 POP SWAP1 JUMP JUMPDEST PUSH0 PUSH0 REVERT JUMPDEST PUSH0 PUSH0 REVERT JUMPDEST PUSH0 PUSH20 0xFFFFFFFFFFFFFFFFFFFFFFFFFFFFFFFFFFFFFFFF DUP3 AND SWAP1 POP SWAP2 SWAP1 POP JUMP JUMPDEST PUSH0 PUSH2 0x47C DUP3 PUSH2 0x453 JUMP JUMPDEST SWAP1 POP SWAP2 SWAP1 POP JUMP JUMPDEST PUSH2 0x48C DUP2 PUSH2 0x472 JUMP JUMPDEST DUP2 EQ PUSH2 0x496 JUMPI PUSH0 PUSH0 REVERT JUMPDEST POP JUMP JUMPDEST PUSH0 DUP2 CALLDATALOAD SWAP1 POP PUSH2 0x4A7 DUP2 PUSH2 0x483 JUMP JUMPDEST SWAP3 SWAP2 POP POP JUMP JUMPDEST PUSH0 PUSH1 0x20 DUP3 DUP5 SUB SLT ISZERO PUSH2 0x4C2 JUMPI PUSH2 0x4C1 PUSH2 0x44B JUMP JUMPDEST JUMPDEST PUSH0 PUSH2 0x4CF DUP5 DUP3 DUP6 ADD PUSH2 0x499 JUMP JUMPDEST SWAP2 POP POP SWAP3 SWAP2 POP POP JUMP JUMPDEST PUSH0 DUP2 ISZERO ISZERO SWAP1 POP SWAP2 SWAP1 POP JUMP JUMPDEST PUSH2 0x4EC DUP2 PUSH2 0x4D8 JUMP JUMPDEST DUP3 MSTORE POP POP JUMP JUMPDEST PUSH0 PUSH1 0x60 DUP3 ADD SWAP1 POP DUP2 DUP2 SUB PUSH0 DUP4 ADD MSTORE PUSH2 0x50A DUP2 DUP7 PUSH2 0x3C4 JUMP JUMPDEST SWAP1 POP DUP2 DUP2 SUB PUSH1 0x20 DUP4 ADD MSTORE PUSH2 0x51E DUP2 DUP6 PUSH2 0x3C4 JUMP JUMPDEST SWAP1 POP PUSH2 0x52D PUSH1 0x40 DUP4 ADD DUP5 PUSH2 0x4E3 JUMP JUMPDEST SWAP5 SWAP4 POP POP POP POP JUMP JUMPDEST PUSH0 PUSH0 REVERT JUMPDEST PUSH0 PUSH0 REVERT JUMPDEST PUSH32 0x4E487B7100000000000000000000000000000000000000000000000000000000 PUSH0 MSTORE PUSH1 0x41 PUSH1 0x4 MSTORE PUSH1 0x24 PUSH0 REVERT JUMPDEST PUSH2 0x573 DUP3 PUSH2 0x3B4 JUMP JUMPDEST DUP2 ADD DUP2 DUP2 LT PUSH8 0xFFFFFFFFFFFFFFFF DUP3 GT OR ISZERO PUSH2 0x592 JUMPI PUSH2 0x591 PUSH2 0x53D JUMP JUMPDEST JUMPDEST DUP1 PUSH1 0x40 MSTORE POP POP POP JUMP JUMPDEST PUSH0 PUSH2 0x5A4 PUSH2 0x442 JUMP JUMPDEST SWAP1 POP PUSH2 0x5B0 DUP3 DUP3 PUSH2 0x56A JUMP JUMPDEST SWAP2 SWAP1 POP JUMP JUMPDEST PUSH0 PUSH8 0xFFFFFFFFFFFFFFFF DUP3 GT ISZERO PUSH2 0x5CF JUMPI PUSH2 0x5CE PUSH2 0x53D JUMP JUMPDEST JUMPDEST PUSH2 0x5D8 DUP3 PUSH2 0x3B4 JUMP JUMPDEST SWAP1 POP PUSH1 0x20 DUP2 ADD SWAP1 POP SWAP2 SWAP1 POP JUMP JUMPDEST DUP3 DUP2 DUP4 CALLDATACOPY PUSH0 DUP4 DUP4 ADD MSTORE POP POP POP JUMP JUMPDEST PUSH0 PUSH2 0x605 PUSH2 0x600 DUP5 PUSH2 0x5B5 JUMP JUMPDEST PUSH2 0x59B JUMP JUMPDEST SWAP1 POP DUP3 DUP2 MSTORE PUSH1 0x20 DUP2 ADD DUP5 DUP5 DUP5 ADD GT ISZERO PUSH2 0x621 JUMPI PUSH2 0x620 PUSH2 0x539 JUMP JUMPDEST JUMPDEST PUSH2 0x62C DUP5 DUP3 DUP6 PUSH2 0x5E5 JUMP JUMPDEST POP SWAP4 SWAP3 POP POP POP JUMP JUMPDEST PUSH0 DUP3 PUSH1 0x1F DUP4 ADD SLT PUSH2 0x648 JUMPI PUSH2 0x647 PUSH2 0x535 JUMP JUMPDEST JUMPDEST DUP2 CALLDATALOAD PUSH2 0x658 DUP5 DUP3 PUSH1 0x20 DUP7 ADD PUSH2 0x5F3 JUMP JUMPDEST SWAP2 POP POP SWAP3 SWAP2 POP POP JUMP JUMPDEST PUSH0 PUSH1 0x20 DUP3 DUP5 SUB SLT ISZERO PUSH2 0x676 JUMPI PUSH2 0x675 PUSH2 0x44B JUMP JUMPDEST JUMPDEST PUSH0 DUP3 ADD CALLDATALOAD PUSH8 0xFFFFFFFFFFFFFFFF DUP2 GT ISZERO PUSH2 0x693 JUMPI PUSH2 0x692 PUSH2 0x44F JUMP JUMPDEST JUMPDEST PUSH2 0x69F DUP5 DUP3 DUP6 ADD PUSH2 0x634 JUMP JUMPDEST SWAP2 POP POP SWAP3 SWAP2 POP POP JUMP JUMPDEST PUSH32 0x4E487B7100000000000000000000000000000000000000000000000000000000 PUSH0 MSTORE PUSH1 0x22 PUSH1 0x4 MSTORE PUSH1 0x24 PUSH0 REVERT JUMPDEST PUSH0 PUSH1 0x2 DUP3 DIV SWAP1 POP PUSH1 0x1 DUP3 AND DUP1 PUSH2 0x6EC JUMPI PUSH1 0x7F DUP3 AND SWAP2 POP JUMPDEST PUSH1 0x20 DUP3 LT DUP2 SUB PUSH2 0x6FF JUMPI PUSH2 0x6FE PUSH2 0x6A8 JUMP JUMPDEST JUMPDEST POP SWAP2 SWAP1 POP JUMP JUMPDEST PUSH32 0x416C726561647920696E206775696C6400000000000000000000000000000000 PUSH0 DUP3 ADD MSTORE POP JUMP JUMPDEST PUSH0 PUSH2 0x739 PUSH1 0x10 DUP4 PUSH2 0x396 JUMP JUMPDEST SWAP2 POP PUSH2 0x744 DUP3 PUSH2 0x705 JUMP JUMPDEST PUSH1 0x20 DUP3 ADD SWAP1 POP SWAP2 SWAP1 POP JUMP JUMPDEST PUSH0 PUSH1 0x20 DUP3 ADD SWAP1 POP DUP2 DUP2 SUB PUSH0 DUP4 ADD MSTORE PUSH2 0x766 DUP2 PUSH2 0x72D JUMP JUMPDEST SWAP1 POP SWAP2 SWAP1 POP JUMP JUMPDEST PUSH0 DUP2 SWAP1 POP DUP2 PUSH0 MSTORE PUSH1 0x20 PUSH0 KECCAK256 SWAP1 POP SWAP2 SWAP1 POP JUMP JUMPDEST PUSH0 PUSH1 0x20 PUSH1 0x1F DUP4 ADD DIV SWAP1 POP SWAP2 SWAP1 POP JUMP JUMPDEST PUSH0 DUP3 DUP3 SHL SWAP1 POP SWAP3 SWAP2 POP POP JUMP JUMPDEST PUSH0 PUSH1 0x8 DUP4 MUL PUSH2 0x7C9 PUSH32 0xFFFFFFFFFFFFFFFFFFFFFFFFFFFFFFFFFFFFFFFFFFFFFFFFFFFFFFFFFFFFFFFF DUP3 PUSH2 0x78E JUMP JUMPDEST PUSH2 0x7D3 DUP7 DUP4 PUSH2 0x78E JUMP JUMPDEST SWAP6 POP DUP1 NOT DUP5 AND SWAP4 POP DUP1 DUP7 AND DUP5 OR SWAP3 POP POP POP SWAP4 SWAP3 POP POP POP JUMP JUMPDEST PUSH0 DUP2 SWAP1 POP SWAP2 SWAP1 POP JUMP JUMPDEST PUSH0 PUSH2 0x80E PUSH2 0x809 PUSH2 0x804 DUP5 PUSH2 0x3FC JUMP JUMPDEST PUSH2 0x7EB JUMP JUMPDEST PUSH2 0x3FC JUMP JUMPDEST SWAP1 POP SWAP2 SWAP1 POP JUMP JUMPDEST PUSH0 DUP2 SWAP1 POP SWAP2 SWAP1 POP JUMP JUMPDEST PUSH2 0x827 DUP4 PUSH2 0x7F4 JUMP JUMPDEST PUSH2 0x83B PUSH2 0x833 DUP3 PUSH2 0x815 JUMP JUMPDEST DUP5 DUP5 SLOAD PUSH2 0x79A JUMP JUMPDEST DUP3 SSTORE POP POP POP POP JUMP JUMPDEST PUSH0 PUSH0 SWAP1 POP SWAP1 JUMP JUMPDEST PUSH2 0x852 PUSH2 0x843 JUMP JUMPDEST PUSH2 0x85D DUP2 DUP5 DUP5 PUSH2 0x81E JUMP JUMPDEST POP POP POP JUMP JUMPDEST PUSH0 JUMPDEST DUP3 DUP2 LT ISZERO PUSH2 0x883 JUMPI PUSH2 0x878 PUSH0 DUP3 DUP5 ADD PUSH2 0x84A JUMP JUMPDEST PUSH1 0x1 DUP2 ADD SWAP1 POP PUSH2 0x864 JUMP JUMPDEST POP POP POP JUMP JUMPDEST PUSH1 0x1F DUP3 GT ISZERO PUSH2 0x8D6 JUMPI DUP3 DUP3 GT ISZERO PUSH2 0x8D5 JUMPI PUSH2 0x8A2 DUP2 PUSH2 0x76D JUMP JUMPDEST PUSH2 0x8AB DUP4 PUSH2 0x77F JUMP JUMPDEST PUSH2 0x8B4 DUP6 PUSH2 0x77F JUMP JUMPDEST PUSH1 0x20 DUP7 LT ISZERO PUSH2 0x8C1 JUMPI PUSH0 SWAP1 POP JUMPDEST DUP1 DUP4 ADD PUSH2 0x8D0 DUP3 DUP5 SUB DUP3 PUSH2 0x862 JUMP JUMPDEST POP POP POP POP JUMPDEST JUMPDEST POP POP POP JUMP JUMPDEST PUSH0 DUP3 DUP3 SHR SWAP1 POP SWAP3 SWAP2 POP POP JUMP JUMPDEST PUSH0 PUSH2 0x8F6 PUSH0 NOT DUP5 PUSH1 0x8 MUL PUSH2 0x8DB JUMP JUMPDEST NOT DUP1 DUP4 AND SWAP2 POP POP SWAP3 SWAP2 POP POP JUMP JUMPDEST PUSH0 PUSH2 0x90E DUP4 DUP4 PUSH2 0x8E7 JUMP JUMPDEST SWAP2 POP DUP3 PUSH1 0x2 MUL DUP3 OR SWAP1 POP SWAP3 SWAP2 POP POP JUMP JUMPDEST PUSH2 0x927 DUP3 PUSH2 0x38C JUMP JUMPDEST PUSH8 0xFFFFFFFFFFFFFFFF DUP2 GT ISZERO PUSH2 0x940 JUMPI PUSH2 0x93F PUSH2 0x53D JUMP JUMPDEST JUMPDEST PUSH2 0x94A DUP3 SLOAD PUSH2 0x6D5 JUMP JUMPDEST PUSH2 0x955 DUP3 DUP3 DUP6 PUSH2 0x888 JUMP JUMPDEST PUSH0 PUSH1 0x20 SWAP1 POP PUSH1 0x1F DUP4 GT PUSH1 0x1 DUP2 EQ PUSH2 0x986 JUMPI PUSH0 DUP5 ISZERO PUSH2 0x974 JUMPI DUP3 DUP8 ADD MLOAD SWAP1 POP JUMPDEST PUSH2 0x97E DUP6 DUP3 PUSH2 0x903 JUMP JUMPDEST DUP7 SSTORE POP PUSH2 0x9E5 JUMP JUMPDEST PUSH1 0x1F NOT DUP5 AND PUSH2 0x994 DUP7 PUSH2 0x76D JUMP JUMPDEST PUSH0 JUMPDEST DUP3 DUP2 LT ISZERO PUSH2 0x9BB JUMPI DUP5 DUP10 ADD MLOAD DUP3 SSTORE PUSH1 0x1 DUP3 ADD SWAP2 POP PUSH1 0x20 DUP6 ADD SWAP5 POP PUSH1 0x20 DUP2 ADD SWAP1 POP PUSH2 0x996 JUMP JUMPDEST DUP7 DUP4 LT ISZERO PUSH2 0x9D8 JUMPI DUP5 DUP10 ADD MLOAD PUSH2 0x9D4 PUSH1 0x1F DUP10 AND DUP3 PUSH2 0x8E7 JUMP JUMPDEST DUP4 SSTORE POP JUMPDEST PUSH1 0x1 PUSH1 0x2 DUP9 MUL ADD DUP9 SSTORE POP POP POP JUMPDEST POP POP POP POP POP POP JUMP INVALID NUMBER PUSH9 0x61696E204C69676874 PUSH15 0x696E6720284D756C74692D54617267 PUSH6 0x742053686F63 PUSH12 0x29A26469706673582212209C PUSH18 0xE8EA830D4989B6783466B228CE59FD26E39 TIMESTAMP DUPN 0x72 0xDC 0x2D EXTCODECOPY DUP9 DUP8 0xAE PUSH20 0x732864736F6C6343000822003300000000000000 "
		},
		"gasEstimates": {
			"creation": {
				"codeDepositCost": "526200",
				"executionCost": "560",
				"totalCost": "526760"
			},
			"external": {
				"attack()": "infinite",
				"guildMembers(address)": "infinite",
				"joinGuild(string)": "infinite"
			}
		},
		"methodIdentifiers": {
			"attack()": "9e5faafc",
			"guildMembers(address)": "b40a56aa",
			"joinGuild(string)": "e551ba4b"
		}
	},
	"abi": [
		{
			"inputs": [],
			"name": "attack",
			"outputs": [
				{
					"internalType": "string",
					"name": "",
					"type": "string"
				},
				{
					"internalType": "uint256",
					"name": "",
					"type": "uint256"
				}
			],
			"stateMutability": "pure",
			"type": "function"
		},
		{
			"inputs": [
				{
					"internalType": "address",
					"name": "",
					"type": "address"
				}
			],
			"name": "guildMembers",
			"outputs": [
				{
					"internalType": "string",
					"name": "name",
					"type": "string"
				},
				{
					"internalType": "string",
					"name": "subclass",
					"type": "string"
				},
				{
					"internalType": "bool",
					"name": "isRegistered",
					"type": "bool"
				}
			],
			"stateMutability": "view",
			"type": "function"
		},
		{
			"inputs": [
				{
					"internalType": "string",
					"name": "_name",
					"type": "string"
				}
			],
			"name": "joinGuild",
			"outputs": [],
			"stateMutability": "nonpayable",
			"type": "function"
		}
	]
}