{
	"data": {
		"bytecode": {
			"linkReferences": {},
			"object": "608060405234801561001057600080fd5b5060405161050838038061050883398101604081905261002f9161004f565b600280546001600160a01b03191633179055600091909155600155610072565b60008060408385031215610061578182fd5b505080516020909101519092909150565b610487806100816000396000f3fe6080604052600436106100555760003560e01c80633a32e9361461005a5780634f62647e1461007c5780637a94a633146100b25780638da5cb5b146100d45780638f449a05146100f6578063bdc8e54c146100fe575b600080fd5b34801561006657600080fd5b5061007a610075366004610331565b610113565b005b34801561008857600080fd5b5061009c610097366004610303565b61014b565b6040516100a9919061035d565b60405180910390f35b3480156100be57600080fd5b506100c7610208565b6040516100a991906103ff565b3480156100e057600080fd5b506100e961020e565b6040516100a99190610349565b61007a61021d565b34801561010a57600080fd5b506100c76102fd565b6002546001600160a01b031633146101465760405162461bcd60e51b815260040161013d90610368565b60405180910390fd5b600055565b6000805b6003548110156101fd57826001600160a01b03166003828154811061018457634e487b7160e01b600052603260045260246000fd5b60009182526020909120600290910201546001600160a01b03161480156101dc575042600382815481106101c857634e487b7160e01b600052603260045260246000fd5b906000526020600020906002020160010154115b156101eb576001915050610203565b806101f581610420565b91505061014f565b50600090505b919050565b60015481565b6002546001600160a01b031681565b60005434101561023f5760405162461bcd60e51b815260040161013d906103b8565b60006001544261024f9190610408565b6040805180820182523380825260208083019485526003805460018082018355600092835294517fc2575a0e9e593c00f959f8c92f12db2869c3395a3b0502d05e2516446f71f85b600290920291820180546001600160a01b0319166001600160a01b0390921691909117905595517fc2575a0e9e593c00f959f8c92f12db2869c3395a3b0502d05e2516446f71f85c90960195909555908452600490529120805460ff1916909117905550565b60005481565b600060208284031215610314578081fd5b81356001600160a01b038116811461032a578182fd5b9392505050565b600060208284031215610342578081fd5b5035919050565b6001600160a01b0391909116815260200190565b901515815260200190565b60208082526030908201527f537562736372697074696f6e536572766963653a206f6e6c79206f776e65722060408201526f63616e2075706461746520707269636560801b606082015260800190565b60208082526027908201527f537562736372697074696f6e536572766963653a20696e73756666696369656e604082015266742066756e647360c81b606082015260800190565b90815260200190565b6000821982111561041b5761041b61043b565b500190565b60006000198214156104345761043461043b565b5060010190565b634e487b7160e01b600052601160045260246000fdfea26469706673582212209929cc6925b12534e1550e8f9345d3213e36984d7b6a44532d523f23afb6b85e64736f6c63430008000033",
			"opcodes": "PUSH1 0x80 PUSH1 0x40 MSTORE CALLVALUE DUP1 ISZERO PUSH2 0x10 JUMPI PUSH1 0x0 DUP1 REVERT JUMPDEST POP PUSH1 0x40 MLOAD PUSH2 0x508 CODESIZE SUB DUP1 PUSH2 0x508 DUP4 CODECOPY DUP2 ADD PUSH1 0x40 DUP2 SWAP1 MSTORE PUSH2 0x2F SWAP2 PUSH2 0x4F JUMP JUMPDEST PUSH1 0x2 DUP1 SLOAD PUSH1 0x1 PUSH1 0x1 PUSH1 0xA0 SHL SUB NOT AND CALLER OR SWAP1 SSTORE PUSH1 0x0 SWAP2 SWAP1 SWAP2 SSTORE PUSH1 0x1 SSTORE PUSH2 0x72 JUMP JUMPDEST PUSH1 0x0 DUP1 PUSH1 0x40 DUP4 DUP6 SUB SLT ISZERO PUSH2 0x61 JUMPI DUP2 DUP3 REVERT JUMPDEST POP POP DUP1 MLOAD PUSH1 0x20 SWAP1 SWAP2 ADD MLOAD SWAP1 SWAP3 SWAP1 SWAP2 POP JUMP JUMPDEST PUSH2 0x487 DUP1 PUSH2 0x81 PUSH1 0x0 CODECOPY PUSH1 0x0 RETURN INVALID PUSH1 0x80 PUSH1 0x40 MSTORE PUSH1 0x4 CALLDATASIZE LT PUSH2 0x55 JUMPI PUSH1 0x0 CALLDATALOAD PUSH1 0xE0 SHR DUP1 PUSH4 0x3A32E936 EQ PUSH2 0x5A JUMPI DUP1 PUSH4 0x4F62647E EQ PUSH2 0x7C JUMPI DUP1 PUSH4 0x7A94A633 EQ PUSH2 0xB2 JUMPI DUP1 PUSH4 0x8DA5CB5B EQ PUSH2 0xD4 JUMPI DUP1 PUSH4 0x8F449A05 EQ PUSH2 0xF6 JUMPI DUP1 PUSH4 0xBDC8E54C EQ PUSH2 0xFE JUMPI JUMPDEST PUSH1 0x0 DUP1 REVERT JUMPDEST CALLVALUE DUP1 ISZERO PUSH2 0x66 JUMPI PUSH1 0x0 DUP1 REVERT JUMPDEST POP PUSH2 0x7A PUSH2 0x75 CALLDATASIZE PUSH1 0x4 PUSH2 0x331 JUMP JUMPDEST PUSH2 0x113 JUMP JUMPDEST STOP JUMPDEST CALLVALUE DUP1 ISZERO PUSH2 0x88 JUMPI PUSH1 0x0 DUP1 REVERT JUMPDEST POP PUSH2 0x9C PUSH2 0x97 CALLDATASIZE PUSH1 0x4 PUSH2 0x303 JUMP JUMPDEST PUSH2 0x14B JUMP JUMPDEST PUSH1 0x40 MLOAD PUSH2 0xA9 SWAP2 SWAP1 PUSH2 0x35D JUMP JUMPDEST PUSH1 0x40 MLOAD DUP1 SWAP2 SUB SWAP1 RETURN JUMPDEST CALLVALUE DUP1 ISZERO PUSH2 0xBE JUMPI PUSH1 0x0 DUP1 REVERT JUMPDEST POP PUSH2 0xC7 PUSH2 0x208 JUMP JUMPDEST PUSH1 0x40 MLOAD PUSH2 0xA9 SWAP2 SWAP1 PUSH2 0x3FF JUMP JUMPDEST CALLVALUE DUP1 ISZERO PUSH2 0xE0 JUMPI PUSH1 0x0 DUP1 REVERT JUMPDEST POP PUSH2 0xE9 PUSH2 0x20E JUMP JUMPDEST PUSH1 0x40 MLOAD PUSH2 0xA9 SWAP2 SWAP1 PUSH2 0x349 JUMP JUMPDEST PUSH2 0x7A PUSH2 0x21D JUMP JUMPDEST CALLVALUE DUP1 ISZERO PUSH2 0x10A JUMPI PUSH1 0x0 DUP1 REVERT JUMPDEST POP PUSH2 0xC7 PUSH2 0x2FD JUMP JUMPDEST PUSH1 0x2 SLOAD PUSH1 0x1 PUSH1 0x1 PUSH1 0xA0 SHL SUB AND CALLER EQ PUSH2 0x146 JUMPI PUSH1 0x40 MLOAD PUSH3 0x461BCD PUSH1 0xE5 SHL DUP2 MSTORE PUSH1 0x4 ADD PUSH2 0x13D SWAP1 PUSH2 0x368 JUMP JUMPDEST PUSH1 0x40 MLOAD DUP1 SWAP2 SUB SWAP1 REVERT JUMPDEST PUSH1 0x0 SSTORE JUMP JUMPDEST PUSH1 0x0 DUP1 JUMPDEST PUSH1 0x3 SLOAD DUP2 LT ISZERO PUSH2 0x1FD JUMPI DUP3 PUSH1 0x1 PUSH1 0x1 PUSH1 0xA0 SHL SUB AND PUSH1 0x3 DUP3 DUP2 SLOAD DUP2 LT PUSH2 0x184 JUMPI PUSH4 0x4E487B71 PUSH1 0xE0 SHL PUSH1 0x0 MSTORE PUSH1 0x32 PUSH1 0x4 MSTORE PUSH1 0x24 PUSH1 0x0 REVERT JUMPDEST PUSH1 0x0 SWAP2 DUP3 MSTORE PUSH1 0x20 SWAP1 SWAP2 KECCAK256 PUSH1 0x2 SWAP1 SWAP2 MUL ADD SLOAD PUSH1 0x1 PUSH1 0x1 PUSH1 0xA0 SHL SUB AND EQ DUP1 ISZERO PUSH2 0x1DC JUMPI POP TIMESTAMP PUSH1 0x3 DUP3 DUP2 SLOAD DUP2 LT PUSH2 0x1C8 JUMPI PUSH4 0x4E487B71 PUSH1 0xE0 SHL PUSH1 0x0 MSTORE PUSH1 0x32 PUSH1 0x4 MSTORE PUSH1 0x24 PUSH1 0x0 REVERT JUMPDEST SWAP1 PUSH1 0x0 MSTORE PUSH1 0x20 PUSH1 0x0 KECCAK256 SWAP1 PUSH1 0x2 MUL ADD PUSH1 0x1 ADD SLOAD GT JUMPDEST ISZERO PUSH2 0x1EB JUMPI PUSH1 0x1 SWAP2 POP POP PUSH2 0x203 JUMP JUMPDEST DUP1 PUSH2 0x1F5 DUP2 PUSH2 0x420 JUMP JUMPDEST SWAP2 POP POP PUSH2 0x14F JUMP JUMPDEST POP PUSH1 0x0 SWAP1 POP JUMPDEST SWAP2 SWAP1 POP JUMP JUMPDEST PUSH1 0x1 SLOAD DUP2 JUMP JUMPDEST PUSH1 0x2 SLOAD PUSH1 0x1 PUSH1 0x1 PUSH1 0xA0 SHL SUB AND DUP2 JUMP JUMPDEST PUSH1 0x0 SLOAD CALLVALUE LT ISZERO PUSH2 0x23F JUMPI PUSH1 0x40 MLOAD PUSH3 0x461BCD PUSH1 0xE5 SHL DUP2 MSTORE PUSH1 0x4 ADD PUSH2 0x13D SWAP1 PUSH2 0x3B8 JUMP JUMPDEST PUSH1 0x0 PUSH1 0x1 SLOAD TIMESTAMP PUSH2 0x24F SWAP2 SWAP1 PUSH2 0x408 JUMP JUMPDEST PUSH1 0x40 DUP1 MLOAD DUP1 DUP3 ADD DUP3 MSTORE CALLER DUP1 DUP3 MSTORE PUSH1 0x20 DUP1 DUP4 ADD SWAP5 DUP6 MSTORE PUSH1 0x3 DUP1 SLOAD PUSH1 0x1 DUP1 DUP3 ADD DUP4 SSTORE PUSH1 0x0 SWAP3 DUP4 MSTORE SWAP5 MLOAD PUSH32 0xC2575A0E9E593C00F959F8C92F12DB2869C3395A3B0502D05E2516446F71F85B PUSH1 0x2 SWAP1 SWAP3 MUL SWAP2 DUP3 ADD DUP1 SLOAD PUSH1 0x1 PUSH1 0x1 PUSH1 0xA0 SHL SUB NOT AND PUSH1 0x1 PUSH1 0x1 PUSH1 0xA0 SHL SUB SWAP1 SWAP3 AND SWAP2 SWAP1 SWAP2 OR SWAP1 SSTORE SWAP6 MLOAD PUSH32 0xC2575A0E9E593C00F959F8C92F12DB2869C3395A3B0502D05E2516446F71F85C SWAP1 SWAP7 ADD SWAP6 SWAP1 SWAP6 SSTORE SWAP1 DUP5 MSTORE PUSH1 0x4 SWAP1 MSTORE SWAP2 KECCAK256 DUP1 SLOAD PUSH1 0xFF NOT AND SWAP1 SWAP2 OR SWAP1 SSTORE POP JUMP JUMPDEST PUSH1 0x0 SLOAD DUP2 JUMP JUMPDEST PUSH1 0x0 PUSH1 0x20 DUP3 DUP5 SUB SLT ISZERO PUSH2 0x314 JUMPI DUP1 DUP2 REVERT JUMPDEST DUP2 CALLDATALOAD PUSH1 0x1 PUSH1 0x1 PUSH1 0xA0 SHL SUB DUP2 AND DUP2 EQ PUSH2 0x32A JUMPI DUP2 DUP3 REVERT JUMPDEST SWAP4 SWAP3 POP POP POP JUMP JUMPDEST PUSH1 0x0 PUSH1 0x20 DUP3 DUP5 SUB SLT ISZERO PUSH2 0x342 JUMPI DUP1 DUP2 REVERT JUMPDEST POP CALLDATALOAD SWAP2 SWAP1 POP JUMP JUMPDEST PUSH1 0x1 PUSH1 0x1 PUSH1 0xA0 SHL SUB SWAP2 SWAP1 SWAP2 AND DUP2 MSTORE PUSH1 0x20 ADD SWAP1 JUMP JUMPDEST SWAP1 ISZERO ISZERO DUP2 MSTORE PUSH1 0x20 ADD SWAP1 JUMP JUMPDEST PUSH1 0x20 DUP1 DUP3 MSTORE PUSH1 0x30 SWAP1 DUP3 ADD MSTORE PUSH32 0x537562736372697074696F6E536572766963653A206F6E6C79206F776E657220 PUSH1 0x40 DUP3 ADD MSTORE PUSH16 0x63616E20757064617465207072696365 PUSH1 0x80 SHL PUSH1 0x60 DUP3 ADD MSTORE PUSH1 0x80 ADD SWAP1 JUMP JUMPDEST PUSH1 0x20 DUP1 DUP3 MSTORE PUSH1 0x27 SWAP1 DUP3 ADD MSTORE PUSH32 0x537562736372697074696F6E536572766963653A20696E73756666696369656E PUSH1 0x40 DUP3 ADD MSTORE PUSH7 0x742066756E6473 PUSH1 0xC8 SHL PUSH1 0x60 DUP3 ADD MSTORE PUSH1 0x80 ADD SWAP1 JUMP JUMPDEST SWAP1 DUP2 MSTORE PUSH1 0x20 ADD SWAP1 JUMP JUMPDEST PUSH1 0x0 DUP3 NOT DUP3 GT ISZERO PUSH2 0x41B JUMPI PUSH2 0x41B PUSH2 0x43B JUMP JUMPDEST POP ADD SWAP1 JUMP JUMPDEST PUSH1 0x0 PUSH1 0x0 NOT DUP3 EQ ISZERO PUSH2 0x434 JUMPI PUSH2 0x434 PUSH2 0x43B JUMP JUMPDEST POP PUSH1 0x1 ADD SWAP1 JUMP JUMPDEST PUSH4 0x4E487B71 PUSH1 0xE0 SHL PUSH1 0x0 MSTORE PUSH1 0x11 PUSH1 0x4 MSTORE PUSH1 0x24 PUSH1 0x0 REVERT INVALID LOG2 PUSH5 0x6970667358 0x22 SLT KECCAK256 SWAP10 0x29 0xCC PUSH10 0x25B12534E1550E8F9345 0xD3 0x21 RETURNDATACOPY CALLDATASIZE SWAP9 0x4D PUSH28 0x6A44532D523F23AFB6B85E64736F6C63430008000033000000000000 "
		},
		"gasEstimates": {
			"creation": {
				"codeDepositCost": "231800",
				"executionCost": "infinite",
				"totalCost": "infinite"
			},
			"external": {
				"checkSubscription(address)": "infinite",
				"owner()": "1114",
				"subscribe()": "84598",
				"subscriptionDuration()": "1050",
				"subscriptionPrice()": "1116",
				"updateSubscriptionPrice(uint256)": "21042"
			}
		},
		"methodIdentifiers": {
			"checkSubscription(address)": "4f62647e",
			"owner()": "8da5cb5b",
			"subscribe()": "8f449a05",
			"subscriptionDuration()": "7a94a633",
			"subscriptionPrice()": "bdc8e54c",
			"updateSubscriptionPrice(uint256)": "3a32e936"
		}
	},
	"abi": [
		{
			"inputs": [
				{
					"internalType": "uint256",
					"name": "_price",
					"type": "uint256"
				},
				{
					"internalType": "uint256",
					"name": "_duration",
					"type": "uint256"
				}
			],
			"stateMutability": "nonpayable",
			"type": "constructor"
		},
		{
			"inputs": [
				{
					"internalType": "address",
					"name": "_user",
					"type": "address"
				}
			],
			"name": "checkSubscription",
			"outputs": [
				{
					"internalType": "bool",
					"name": "",
					"type": "bool"
				}
			],
			"stateMutability": "view",
			"type": "function"
		},
		{
			"inputs": [],
			"name": "owner",
			"outputs": [
				{
					"internalType": "address",
					"name": "",
					"type": "address"
				}
			],
			"stateMutability": "view",
			"type": "function"
		},
		{
			"inputs": [],
			"name": "subscribe",
			"outputs": [],
			"stateMutability": "payable",
			"type": "function"
		},
		{
			"inputs": [],
			"name": "subscriptionDuration",
			"outputs": [
				{
					"internalType": "uint256",
					"name": "",
					"type": "uint256"
				}
			],
			"stateMutability": "view",
			"type": "function"
		},
		{
			"inputs": [],
			"name": "subscriptionPrice",
			"outputs": [
				{
					"internalType": "uint256",
					"name": "",
					"type": "uint256"
				}
			],
			"stateMutability": "view",
			"type": "function"
		},
		{
			"inputs": [
				{
					"internalType": "uint256",
					"name": "_newPrice",
					"type": "uint256"
				}
			],
			"name": "updateSubscriptionPrice",
			"outputs": [],
			"stateMutability": "nonpayable",
			"type": "function"
		}
	]
}