{
	"data": {
		"bytecode": {
			"linkReferences": {},
			"object": "6080604052348015600e575f5ffd5b506104398061001c5f395ff3fe608060405234801561000f575f5ffd5b5060043610610034575f3560e01c80639e5faafc14610038578063b40a56aa14610057575b5f5ffd5b610040610089565b60405161004e929190610292565b60405180910390f35b610071600480360381019061006c919061031e565b6100cd565b60405161008093929190610363565b60405180910390f35b60605f60056040518060400160405280600b81526020017f4669737420537472696b6500000000000000000000000000000000000000000081525090915091509091565b5f602052805f5260405f205f91509050805f0180546100eb906103d3565b80601f0160208091040260200160405190810160405280929190818152602001828054610117906103d3565b80156101625780601f1061013957610100808354040283529160200191610162565b820191905f5260205f20905b81548152906001019060200180831161014557829003601f168201915b505050505090806001018054610177906103d3565b80601f01602080910402602001604051908101604052809291908181526020018280546101a3906103d3565b80156101ee5780601f106101c5576101008083540402835291602001916101ee565b820191905f5260205f20905b8154815290600101906020018083116101d157829003601f168201915b505050505090806002015f9054906101000a900460ff16905083565b5f81519050919050565b5f82825260208201905092915050565b8281835e5f83830152505050565b5f601f19601f8301169050919050565b5f61024c8261020a565b6102568185610214565b9350610266818560208601610224565b61026f81610232565b840191505092915050565b5f819050919050565b61028c8161027a565b82525050565b5f6040820190508181035f8301526102aa8185610242565b90506102b96020830184610283565b9392505050565b5f5ffd5b5f73ffffffffffffffffffffffffffffffffffffffff82169050919050565b5f6102ed826102c4565b9050919050565b6102fd816102e3565b8114610307575f5ffd5b50565b5f81359050610318816102f4565b92915050565b5f60208284031215610333576103326102c0565b5b5f6103408482850161030a565b91505092915050565b5f8115159050919050565b61035d81610349565b82525050565b5f6060820190508181035f83015261037b8186610242565b9050818103602083015261038f8185610242565b905061039e6040830184610354565b949350505050565b7f4e487b71000000000000000000000000000000000000000000000000000000005f52602260045260245ffd5b5f60028204905060018216806103ea57607f821691505b6020821081036103fd576103fc6103a6565b5b5091905056fea26469706673582212203b4c2fe667c1d36ef984b982939e6e269fe459ec6b416a7423f94cad31ee670864736f6c63430008220033",
			"opcodes": "PUSH1 0x80 PUSH1 0x40 MSTORE CALLVALUE DUP1 ISZERO PUSH1 0xE JUMPI PUSH0 PUSH0 REVERT JUMPDEST POP PUSH2 0x439 DUP1 PUSH2 0x1C PUSH0 CODECOPY PUSH0 RETURN INVALID PUSH1 0x80 PUSH1 0x40 MSTORE CALLVALUE DUP1 ISZERO PUSH2 0xF JUMPI PUSH0 PUSH0 REVERT JUMPDEST POP PUSH1 0x4 CALLDATASIZE LT PUSH2 0x34 JUMPI PUSH0 CALLDATALOAD PUSH1 0xE0 SHR DUP1 PUSH4 0x9E5FAAFC EQ PUSH2 0x38 JUMPI DUP1 PUSH4 0xB40A56AA EQ PUSH2 0x57 JUMPI JUMPDEST PUSH0 PUSH0 REVERT JUMPDEST PUSH2 0x40 PUSH2 0x89 JUMP JUMPDEST PUSH1 0x40 MLOAD PUSH2 0x4E SWAP3 SWAP2 SWAP1 PUSH2 0x292 JUMP JUMPDEST PUSH1 0x40 MLOAD DUP1 SWAP2 SUB SWAP1 RETURN JUMPDEST PUSH2 0x71 PUSH1 0x4 DUP1 CALLDATASIZE SUB DUP2 ADD SWAP1 PUSH2 0x6C SWAP2 SWAP1 PUSH2 0x31E JUMP JUMPDEST PUSH2 0xCD JUMP JUMPDEST PUSH1 0x40 MLOAD PUSH2 0x80 SWAP4 SWAP3 SWAP2 SWAP1 PUSH2 0x363 JUMP JUMPDEST PUSH1 0x40 MLOAD DUP1 SWAP2 SUB SWAP1 RETURN JUMPDEST PUSH1 0x60 PUSH0 PUSH1 0x5 PUSH1 0x40 MLOAD DUP1 PUSH1 0x40 ADD PUSH1 0x40 MSTORE DUP1 PUSH1 0xB DUP2 MSTORE PUSH1 0x20 ADD PUSH32 0x4669737420537472696B65000000000000000000000000000000000000000000 DUP2 MSTORE POP SWAP1 SWAP2 POP SWAP2 POP SWAP1 SWAP2 JUMP JUMPDEST PUSH0 PUSH1 0x20 MSTORE DUP1 PUSH0 MSTORE PUSH1 0x40 PUSH0 KECCAK256 PUSH0 SWAP2 POP SWAP1 POP DUP1 PUSH0 ADD DUP1 SLOAD PUSH2 0xEB SWAP1 PUSH2 0x3D3 JUMP JUMPDEST DUP1 PUSH1 0x1F ADD PUSH1 0x20 DUP1 SWAP2 DIV MUL PUSH1 0x20 ADD PUSH1 0x40 MLOAD SWAP1 DUP2 ADD PUSH1 0x40 MSTORE DUP1 SWAP3 SWAP2 SWAP1 DUP2 DUP2 MSTORE PUSH1 0x20 ADD DUP3 DUP1 SLOAD PUSH2 0x117 SWAP1 PUSH2 0x3D3 JUMP JUMPDEST DUP1 ISZERO PUSH2 0x162 JUMPI DUP1 PUSH1 0x1F LT PUSH2 0x139 JUMPI PUSH2 0x100 DUP1 DUP4 SLOAD DIV MUL DUP4 MSTORE SWAP2 PUSH1 0x20 ADD SWAP2 PUSH2 0x162 JUMP JUMPDEST DUP3 ADD SWAP2 SWAP1 PUSH0 MSTORE PUSH1 0x20 PUSH0 KECCAK256 SWAP1 JUMPDEST DUP2 SLOAD DUP2 MSTORE SWAP1 PUSH1 0x1 ADD SWAP1 PUSH1 0x20 ADD DUP1 DUP4 GT PUSH2 0x145 JUMPI DUP3 SWAP1 SUB PUSH1 0x1F AND DUP3 ADD SWAP2 JUMPDEST POP POP POP POP POP SWAP1 DUP1 PUSH1 0x1 ADD DUP1 SLOAD PUSH2 0x177 SWAP1 PUSH2 0x3D3 JUMP JUMPDEST DUP1 PUSH1 0x1F ADD PUSH1 0x20 DUP1 SWAP2 DIV MUL PUSH1 0x20 ADD PUSH1 0x40 MLOAD SWAP1 DUP2 ADD PUSH1 0x40 MSTORE DUP1 SWAP3 SWAP2 SWAP1 DUP2 DUP2 MSTORE PUSH1 0x20 ADD DUP3 DUP1 SLOAD PUSH2 0x1A3 SWAP1 PUSH2 0x3D3 JUMP JUMPDEST DUP1 ISZERO PUSH2 0x1EE JUMPI DUP1 PUSH1 0x1F LT PUSH2 0x1C5 JUMPI PUSH2 0x100 DUP1 DUP4 SLOAD DIV MUL DUP4 MSTORE SWAP2 PUSH1 0x20 ADD SWAP2 PUSH2 0x1EE JUMP JUMPDEST DUP3 ADD SWAP2 SWAP1 PUSH0 MSTORE PUSH1 0x20 PUSH0 KECCAK256 SWAP1 JUMPDEST DUP2 SLOAD DUP2 MSTORE SWAP1 PUSH1 0x1 ADD SWAP1 PUSH1 0x20 ADD DUP1 DUP4 GT PUSH2 0x1D1 JUMPI DUP3 SWAP1 SUB PUSH1 0x1F AND DUP3 ADD SWAP2 JUMPDEST POP POP POP POP POP SWAP1 DUP1 PUSH1 0x2 ADD PUSH0 SWAP1 SLOAD SWAP1 PUSH2 0x100 EXP SWAP1 DIV PUSH1 0xFF AND SWAP1 POP DUP4 JUMP JUMPDEST PUSH0 DUP2 MLOAD SWAP1 POP SWAP2 SWAP1 POP JUMP JUMPDEST PUSH0 DUP3 DUP3 MSTORE PUSH1 0x20 DUP3 ADD SWAP1 POP SWAP3 SWAP2 POP POP JUMP JUMPDEST DUP3 DUP2 DUP4 MCOPY PUSH0 DUP4 DUP4 ADD MSTORE POP POP POP JUMP JUMPDEST PUSH0 PUSH1 0x1F NOT PUSH1 0x1F DUP4 ADD AND SWAP1 POP SWAP2 SWAP1 POP JUMP JUMPDEST PUSH0 PUSH2 0x24C DUP3 PUSH2 0x20A JUMP JUMPDEST PUSH2 0x256 DUP2 DUP6 PUSH2 0x214 JUMP JUMPDEST SWAP4 POP PUSH2 0x266 DUP2 DUP6 PUSH1 0x20 DUP7 ADD PUSH2 0x224 JUMP JUMPDEST PUSH2 0x26F DUP2 PUSH2 0x232 JUMP JUMPDEST DUP5 ADD SWAP2 POP POP SWAP3 SWAP2 POP POP JUMP JUMPDEST PUSH0 DUP2 SWAP1 POP SWAP2 SWAP1 POP JUMP JUMPDEST PUSH2 0x28C DUP2 PUSH2 0x27A JUMP JUMPDEST DUP3 MSTORE POP POP JUMP JUMPDEST PUSH0 PUSH1 0x40 DUP3 ADD SWAP1 POP DUP2 DUP2 SUB PUSH0 DUP4 ADD MSTORE PUSH2 0x2AA DUP2 DUP6 PUSH2 0x242 JUMP JUMPDEST SWAP1 POP PUSH2 0x2B9 PUSH1 0x20 DUP4 ADD DUP5 PUSH2 0x283 JUMP JUMPDEST SWAP4 SWAP3 POP POP POP JUMP JUMPDEST PUSH0 PUSH0 REVERT JUMPDEST PUSH0 PUSH20 0xFFFFFFFFFFFFFFFFFFFFFFFFFFFFFFFFFFFFFFFF DUP3 AND SWAP1 POP SWAP2 SWAP1 POP JUMP JUMPDEST PUSH0 PUSH2 0x2ED DUP3 PUSH2 0x2C4 JUMP JUMPDEST SWAP1 POP SWAP2 SWAP1 POP JUMP JUMPDEST PUSH2 0x2FD DUP2 PUSH2 0x2E3 JUMP JUMPDEST DUP2 EQ PUSH2 0x307 JUMPI PUSH0 PUSH0 REVERT JUMPDEST POP JUMP JUMPDEST PUSH0 DUP2 CALLDATALOAD SWAP1 POP PUSH2 0x318 DUP2 PUSH2 0x2F4 JUMP JUMPDEST SWAP3 SWAP2 POP POP JUMP JUMPDEST PUSH0 PUSH1 0x20 DUP3 DUP5 SUB SLT ISZERO PUSH2 0x333 JUMPI PUSH2 0x332 PUSH2 0x2C0 JUMP JUMPDEST JUMPDEST PUSH0 PUSH2 0x340 DUP5 DUP3 DUP6 ADD PUSH2 0x30A JUMP JUMPDEST SWAP2 POP POP SWAP3 SWAP2 POP POP JUMP JUMPDEST PUSH0 DUP2 ISZERO ISZERO SWAP1 POP SWAP2 SWAP1 POP JUMP JUMPDEST PUSH2 0x35D DUP2 PUSH2 0x349 JUMP JUMPDEST DUP3 MSTORE POP POP JUMP JUMPDEST PUSH0 PUSH1 0x60 DUP3 ADD SWAP1 POP DUP2 DUP2 SUB PUSH0 DUP4 ADD MSTORE PUSH2 0x37B DUP2 DUP7 PUSH2 0x242 JUMP JUMPDEST SWAP1 POP DUP2 DUP2 SUB PUSH1 0x20 DUP4 ADD MSTORE PUSH2 0x38F DUP2 DUP6 PUSH2 0x242 JUMP JUMPDEST SWAP1 POP PUSH2 0x39E PUSH1 0x40 DUP4 ADD DUP5 PUSH2 0x354 JUMP JUMPDEST SWAP5 SWAP4 POP POP POP POP JUMP JUMPDEST PUSH32 0x4E487B7100000000000000000000000000000000000000000000000000000000 PUSH0 MSTORE PUSH1 0x22 PUSH1 0x4 MSTORE PUSH1 0x24 PUSH0 REVERT JUMPDEST PUSH0 PUSH1 0x2 DUP3 DIV SWAP1 POP PUSH1 0x1 DUP3 AND DUP1 PUSH2 0x3EA JUMPI PUSH1 0x7F DUP3 AND SWAP2 POP JUMPDEST PUSH1 0x20 DUP3 LT DUP2 SUB PUSH2 0x3FD JUMPI PUSH2 0x3FC PUSH2 0x3A6 JUMP JUMPDEST JUMPDEST POP SWAP2 SWAP1 POP JUMP INVALID LOG2 PUSH5 0x6970667358 0x22 SLT KECCAK256 EXTCODESIZE 0x4C 0x2F DUPN 0x67 0xC1 0xD3 PUSH15 0xF984B982939E6E269FE459EC6B416A PUSH21 0x23F94CAD31EE670864736F6C634300082200330000 "
		},
		"gasEstimates": {
			"creation": {
				"codeDepositCost": "216200",
				"executionCost": "255",
				"totalCost": "216455"
			},
			"external": {
				"attack()": "infinite",
				"guildMembers(address)": "infinite"
			},
			"internal": {
				"_register(string memory,string memory)": "infinite"
			}
		},
		"methodIdentifiers": {
			"attack()": "9e5faafc",
			"guildMembers(address)": "b40a56aa"
		}
	},
	"abi": [
		{
			"inputs": [],
			"name": "attack",
			"outputs": [
				{
					"internalType": "string",
					"name": "",
					"type": "string"
				},
				{
					"internalType": "uint256",
					"name": "",
					"type": "uint256"
				}
			],
			"stateMutability": "pure",
			"type": "function"
		},
		{
			"inputs": [
				{
					"internalType": "address",
					"name": "",
					"type": "address"
				}
			],
			"name": "guildMembers",
			"outputs": [
				{
					"internalType": "string",
					"name": "name",
					"type": "string"
				},
				{
					"internalType": "string",
					"name": "subclass",
					"type": "string"
				},
				{
					"internalType": "bool",
					"name": "isRegistered",
					"type": "bool"
				}
			],
			"stateMutability": "view",
			"type": "function"
		}
	]
}